:100000006F00E02713000000130000001300000041
:100010001300000013000000130000001300000094
:100020001300000013000000130000001300000084
:08003000130000007300100032
:100038006FF09FFC000000006FF01FFC6FF0DFFB0B
:1000480000000000000000000000000000000000A8
:100058000000000000000000000000000000000098
:100068006FF09FF9000000006FF01FF9000000001A
:100078006FF09FF86FF05FF86FF01FF86FF0DFF721
:100088006FF09FF76FF05FF76F30305F6FF0DFF65C
:100098006FF09FF66FF05FF66FF01FF66FF0DFF509
:1000A8006FF09FF56FF05FF56FF01FF56FF0DFF4FD
:1000B8006FF09FF46FF05FF46FF01FF40000000022
:1000C8000000000000000000000000006FF0DFF2F8
:1000D8006FF09FF26FF05FF26FF01FF26FF0DFF1D9
:1000E8006FF09FF16F00C00F6FF01FF16FF0DFF03E
:1000F8006FF09FF06FF05FF06FF01FF06FF0DFEFC1
:100108006FF09FEF6FF05FEF6F00C0106FF0DFEEE2
:100118006FF09FEE6FF05FEE6FF01FEE6FF0DFEDA8
:1001280000000000000000000000000000000000C7
:080138000000000000000000BF
:100140003D432A876373C3029377F700BDEFADE5A4
:10015000937606FF3D8ABA960CC34CC30CC74CC7B6
:100160004107E36BD7FE11E28280B306C3408A06E3
:100170009702000096966780A6002307B700A306A3
:10018000B7002306B700A305B7002305B700A304F3
:10019000B7002304B700A303B7002303B700A302EB
:1001A000B7002302B700A301B7002301B700A300E3
:1001B000B7002300B700828093F5F50F9396850072
:1001C000D58D93960501D58D61B79396270097023B
:1001D000000096968682E78086FA9680C1171D8F6A
:1001E0003E96E374C3F8A5B7411122C600088545C1
:1001F000B707004013850740EF102069AA8791CB0D
:100200008545B707004013850740EF10006FEF40AA
:10021000802501003244410173002030011122CEBB
:10022000001093055052B747004013850740EF1068
:100230009022AA879DC793055052B7470040138567
:100240000740EF107031B747004013850740EF10AB
:10025000D019AA87A307F4FE8347F4FE3E85EF304A
:10026000504601007244056173002030411106C6FA
:1002700022C40008EF30105AEF30F068F5BF970144
:1002800000209381A160175100201301A1D7177599
:1002900000001305E59E970500209385A5D61386DB
:1002A000818163FAC5008322050023A05500110552
:1002B0009105E3EAC5FE13858181938541996377B2
:1002C000B500232005001105E36DB5FE93028008FB
:1002D00073A0023097020000938242D693E212008C
:1002E00073905230EF30B03097020000938242F8A2
:1002F0007390123473002030797122D60018232EA7
:10030000A4FC232604FE232404FEB70701409387A0
:1003100007409C430327C4FDF98F2324F4FEB7074D
:10032000014093870740D84B8327C4FDF98F81CBC9
:10033000832784FE89C785472326F4FE19A0232638
:1003400004FE8327C4FE3E8532544561828001113C
:1003500022CE00102326A4FEB70701409387074052
:100360000327C4FED8CB0100724405618280397135
:1003700022DE80002326A4FC2324B4FC232604FED2
:10038000232004FE232404FE232E04FC232204FE47
:10039000232C04FC832784FC9C47BD8B2326F4FE7E
:1003A000832784FC9C47C18B89CB832784FCDC4357
:1003B0000327C4FED98F2326F4FE832784FC83D72A
:1003C000070093F7F70FF1CF8327C4FC9C43232248
:1003D000F4FE232404FE65A8832784FE0547B31793
:1003E000F700232EF4FC832784FC83D707003E8785
:1003F0008327C4FDF98F2320F4FE032704FE8327FF
:10040000C4FD6311F708832784FE8A07232EF4FCBA
:100410008327C4FD3D47B317F700232CF4FC832743
:1004200084FD93C7F7FF032744FEF98F2322F4FED0
:100430008327C4FD0327C4FEB317F700032744FE38
:10044000D98F2322F4FE832784FC984793078002E8
:10045000631BF700832784FE05473317F7008327C4
:10046000C4FCD8CB05A0832784FC9847930780045D
:10047000631AF700832784FE05473317F7008327A5
:10048000C4FC98CB832784FE85072324F4FE03272E
:1004900084FE9D47E3F2E7F48327C4FC032744FE70
:1004A00098C3832784FC03D707009307F00F63F1F9
:1004B000E70E8327C4FCDC432322F4FE232404FE3E
:1004C00075A8832784FEA1070547B317F700232EDD
:1004D000F4FC832784FC83D707003E878327C4FD71
:1004E000F98F2320F4FE032704FE8327C4FD631243
:1004F000F708832784FE8A07232EF4FC8327C4FD94
:100500003D47B317F700232CF4FC832784FD93C7E2
:10051000F7FF032744FEF98F2322F4FE8327C4FD4F
:100520000327C4FEB317F700032744FED98F232205
:10053000F4FE832784FC984793078002631BF7002F
:10054000832784FEA10705473317F7008327C4FCE0
:10055000D8CB832784FC984793078004631BF7005C
:10056000832784FEA10705473317F7008327C4FCC0
:1005700098CB832784FE85072324F4FE032784FE7B
:100580009D47E3F0E7F48327C4FC032744FED8C368
:100590000100725421618280011122CE00102326B5
:1005A000A4FEAE872322C4FE2315F4FE832744FE57
:1005B00099C70357A4FE8327C4FE98CB31A00357E5
:1005C000A4FE8327C4FED8CB01007244056182805B
:1005D000797122D60018232EA4FC232CB4FC2324EA
:1005E00004FE232204FE232604FE232004FE832788
:1005F000C4FD63D80700B7070140DC4F2326F4FE93
:1006000031A0B7070140DC432326F4FE8327C4FD55
:10061000C183BD8B2320F4FE0327C4FDC167FD17F2
:10062000F98F2324F4FE0327C4FDB70730007D8F24
:10063000B70730006315F7020327C4FEB70700F1C0
:10064000FD17F98F2326F4FEB7070140D443B707FF
:100650000140370700F17D17758FD8C3ADA0032780
:10066000C4FDB7071000F98F8DCB832704FE0D471B
:10067000B317F7002322F4FE832744FE93C7F7FF46
:100680000327C4FEF98F2326F4FE0327C4FEB70711
:10069000000FD98F2326F4FE3DA08327C4FDD58308
:1006A0009207032784FEB317F70093C7F7FF0327CA
:1006B000C4FEF98F2326F4FE0327C4FEB707000FFC
:1006C000D98F2326F4FE832784FD91CF8327C4FD91
:1006D000D5839207032784FEB317F7000327C4FED0
:1006E000D98F2326F4FE8327C4FD63D80700B707FC
:1006F00001400327C4FED8CF31A0B707014003272C
:10070000C4FED8C30100325445618280011122CE5B
:1007100000102326A4FE8327C4FEFD8B0547B316D5
:10072000F70037E700E08327C4FE9583938707042B
:100730008A07BA9794C3010072440561828001114F
:1007400022CE00102326A4FE8327C4FEFD8B05477E
:10075000B316F70037E700E08327C4FE958393873D
:1007600007068A07BA9794C3010072440561828024
:10077000011122CE00102326A4FEAE87A305F4FEAD
:1007800037E700E08327C4FEBA970347B4FE23800F
:10079000E7400100724405618280797106D622D457
:1007A0000018232EA4FCA30704FE83A781818DE3F8
:1007B0008327C4FD83C707003E878327C4FD83C703
:1007C0002700920793F7F70FBE853A855537D9A2D0
:1007D00003A781818547631FF7048327C4FD03C7EF
:1007E000170085476318F7028327C4FD83C70700F6
:1007F0003E878327C4FD83C727009207E207E1876E
:1008000093E707F8E207E18793F7F70FBE853A858C
:10081000853749A28327C4FD83C707003E87832706
:10082000C4FD83C72700920793F7F70FBE853A856B
:1008300081378DA203A781818947631BF70883272E
:10084000C4FD03C71700854763EEE7028327C4FD95
:1008500003C727008327C4FD83C717008A0793F7C0
:10086000F70FBA97A307F4FE8327C4FD83C70700D9
:100870003E878347F4FE920793F7F70FBE853A85CC
:10088000C53D09AA8327C4FD03C727008327C4FDEC
:1008900083C717009387E70393F7F70F8A0793F748
:1008A000F70FBA97A307F4FE8327C4FD83C7070099
:1008B0003E878347F4FE9207E207E18793E707F854
:1008C000E207E18793F7F70FBE853A855535D9A042
:1008D00003A781818D47631BF7088327C4FD03C7E6
:1008E00017008D4763EEE7028327C4FD03C7270087
:1008F0008327C4FD83C71700860793F7F70FBA97BE
:10090000A307F4FE8327C4FD83C707003E87834700
:10091000F4FE920793F7F70FBE853A85913D9DA8A7
:100920008327C4FD03C727008327C4FD83C717009F
:100930009387C70793F7F70F860793F7F70FBA97D1
:10094000A307F4FE8327C4FD83C707003E878347C0
:10095000F4FE9207E207E18793E707F8E207E187F1
:1009600093F7F70FBE853A8521352DA003A7818126
:1009700091476311F7028327C4FD83C707003E87B1
:100980008327C4FD83C71700920793F7F70FBE852F
:100990003A85F93B8327C4FDDC4381CB8327C4FD23
:1009A00083C707003E859D3339A08327C4FD83C7D5
:1009B00007003E8569330100B250225445618280B0
:1009C000797122D60018232EA4FC232604FE2324AA
:1009D00004FE232204FE232004FEB7170240DC435A
:1009E000B18B2326F4FE0327C4FE91476302F7026E
:1009F0000327C4FEA1476305F7028327C4FEC5E7AA
:100A00008327C4FD37177A001307072098C365A012
:100A10008327C4FD37177A001307072098C361A8FE
:100A2000B7170240D843B7073C00F98F2324F4FEE0
:100A3000B7170240D843C167F98F2322F4FE8327FA
:100A400084FEC98389072324F4FE832744FE89EFAB
:100A5000032784FEB7173D00938707903307F702FB
:100A60008327C4FD98C381A8B7170240D843B707AE
:100A70000200F98F89CF032784FEB7173D009387C3
:100A800007903307F7028327C4FD98C32DA00327DF
:100A900084FEB7177A00938707203307F70283276E
:100AA000C4FD98C309A88327C4FD37177A0013072C
:100AB000072098C30100B7170240DC4393F7070FE4
:100AC0002326F4FE8327C4FE91832326F4FEB70772
:100AD0000020138707008327C4FEBA9783C7070047
:100AE00093F7F70F2320F4FE8327C4FD9843832751
:100AF00004FE3357F7008327C4FDD8C3B71702405D
:100B0000DC4393F707702326F4FE8327C4FEA183FA
:100B10002326F4FEB7070020138707008327C4FEAF
:100B2000BA9783C7070093F7F70F2320F4FE8327B4
:100B3000C4FDD843832704FE3357F7008327C4FD41
:100B400098C7B7170240D843916793870780F98FFA
:100B50002326F4FE8327C4FEAD832326F4FEB707C5
:100B60000020138707008327C4FEBA9783C70700B6
:100B700093F7F70F2320F4FE8327C4FDD843832780
:100B800004FE3357F7008327C4FDD8C7B7170240C8
:100B9000D843B167F98F2326F4FE8327C4FEB983B7
:100BA0002326F4FEB7070020138787088327C4FE97
:100BB000BA9783C7070093F7F70F2320F4FE832724
:100BC000C4FDD847832704FE3357F7028327C4FDAB
:100BD00098CB0100325445618280011122CE001071
:100BE0002326A4FE2324B4FE832784FE99CBB717C3
:100BF0000240944FB71702400327C4FE558F98CF89
:100C000021A8B7170240944F8327C4FE13C7F7FFEC
:100C1000B7170240758F98CF01007244056182803A
:100C2000011122CE00102326A4FE2324B4FE832724
:100C300084FE99CBB7170240D44FB7170240032761
:100C4000C4FE558FD8CF21A8B7170240D44F8327B1
:100C5000C4FE13C7F7FFB7170240758FD8CF010046
:100C6000724405618280797122D60018232EA4FC7B
:100C7000232CB4FC231704FE8327C4FD83D707006D
:100C80002317F4FE0357E4FE8D6793870704F98F5B
:100C90002317F4FE832784FD03D70700832784FDF1
:100CA00083D72700D98F139707014183832784FDBA
:100CB00083D74700D98F139707014183832784FD8A
:100CC00083D76700D98F139707014183832784FD5A
:100CD00083D78700D98F139707014183832784FD2A
:100CE00083D7A700D98F139707014183832784FDFA
:100CF00083D7C700D98F139707014183832784FDCA
:100D000083D7E700D98F1397070141838357E4FE08
:100D1000D98F2317F4FE8327C4FD0357E4FE2390E5
:100D2000E7008327C4FD83D7C701139707014183D9
:100D3000FD779387F77FF98F139707014183832707
:100D4000C4FD239EE700832784FD03D70701832783
:100D5000C4FD2398E70001003254456182800111EF
:100D600022CE00102326A4FE2324B4FE832784FE73
:100D70008DC38327C4FE83D70700C207C18393E7CF
:100D800007041397070141838327C4FE2390E700DC
:100D900005A08327C4FE83D70700C207C18393F74A
:100DA000F7FB1397070141838327C4FE2390E700D5
:100DB0000100724405618280797122D60018232EC9
:100DC000A4FC232CB4FC231704FE8327C4FD83D783
:100DD00007002317F4FE0327C4FDB73701409387AC
:100DE00007C06308F7020327C4FDB707004063028A
:100DF000F7020327C4FDB707004093870740630A43
:100E0000F7000327C4FDB7170040938707806311DD
:100E1000F7028357E4FE93F7F7F82317F4FE8327CE
:100E200084FD03D727008357E4FED98F2317F4FEF0
:100E30008357E4FE93F7F7CF2317F4FE832784FD4F
:100E400003D767008357E4FED98F2317F4FE832767
:100E5000C4FD0357E4FE2390E700832784FD03D7F6
:100E600047008327C4FD2396E702832784FD03D729
:100E700007008327C4FD2394E7020327C4FDB73787
:100E80000140938707C0631DF700832784FD83C754
:100E900087001397070141838327C4FD2398E70246
:100EA0008327C4FD0547239AE700010032544561BA
:100EB0008280797122D60018232EA4FC232CB4FC46
:100EC000231504FE231704FE231604FE8327C4FD06
:100ED00083D70702C207C183F99B13970701418398
:100EE0008327C4FD2390E7028327C4FD83D707022D
:100EF0002317F4FE8327C4FD83D747002316F4FE8F
:100F00008327C4FD83D787012315F4FE8357A4FEEE
:100F100093F7F7F82315F4FE8357A4FEF19B2315EE
:100F2000F4FE832784FD03D707008357A4FED98FDF
:100F30002315F4FE8357E4FEF59B2317F4FE832765
:100F400084FD03D787008357E4FED98F2317F4FE6F
:100F5000832784FD03D727008357E4FED98F231707
:100F6000F4FE0327C4FDB7370140938707C0631C15
:100F7000F7068357E4FEDD9B2317F4FE832784FDE9
:100F800003D7A7008357E4FED98F2317F4FE8357B6
:100F9000E4FEED9B2317F4FE832784FD03D747006F
:100FA0008357E4FED98F2317F4FE8357C4FE93F7CB
:100FB000F7EF2316F4FE8357C4FE93F7F7DF2316EB
:100FC000F4FE832784FD03D7C7008357C4FED98F5F
:100FD0002316F4FE832784FD03D7E7008357C4FE5E
:100FE000D98F2316F4FE8327C4FD0357C4FE239232
:100FF000E7008327C4FD0357A4FE239CE700832753
:1010000084FD03D767008327C4FD239AE702832763
:10101000C4FD0357E4FE2390E7020100325445610A
:101020008280797122D60018232EA4FC232CB4FCD4
:10103000231504FE231704FE231604FE8327C4FD94
:1010400083D70702C207C183BD9B13970701418362
:101050008327C4FD2390E7028327C4FD83D70702BB
:101060002317F4FE8327C4FD83D747002316F4FE1D
:101070008327C4FD83D787012315F4FE0357A4FEFD
:10108000E577FD17F98F2315F4FE8357A4FE93F738
:10109000F7CF2315F4FE832784FD83D70700A2072B
:1010A0001397070141838357A4FED98F2315F4FEBC
:1010B0008357E4FE93F7F7FD2317F4FE832784FD9F
:1010C00083D7870092071397070141838357E4FE74
:1010D000D98F2317F4FE832784FD83D72700920737
:1010E0001397070141838357E4FED98F2317F4FE3A
:1010F0000327C4FDB7370140938707C06310F70A81
:101100008357E4FE93F7F7F72317F4FE832784FD54
:1011100083D7A70092071397070141838357E4FE03
:10112000D98F2317F4FE8357E4FE93F7F7FB2317B9
:10113000F4FE832784FD83D74700920713970701A6
:1011400041838357E4FED98F2317F4FE8357C4FEEF
:1011500093F7F7BF2316F4FE0357C4FEFD7793877A
:10116000F77FF98F2316F4FE832784FD83D7C7000A
:101170008A071397070141838357C4FED98F23162B
:10118000F4FE832784FD83D7E7008A0713970701BE
:1011900041838357C4FED98F2316F4FE8327C4FDF1
:1011A0000357C4FE2392E7008327C4FD0357A4FE20
:1011B000239CE700832784FD03D767008327C4FDB2
:1011C000239CE7028327C4FD0357E4FE2390E70234
:1011D0000100325445618280797122D60018232E95
:1011E000A4FC232CB4FC231504FE231704FE2316B1
:1011F00004FE8327C4FD83D70702C207C18393F788
:10120000F7EF1397070141838327C4FD2390E7027B
:101210008327C4FD83D707022317F4FE8327C4FD69
:1012200083D747002316F4FE8327C4FD83D7C70165
:101230002315F4FE8357A4FE93F7F7F82315F4FE65
:101240008357A4FEF19B2315F4FE832784FD03D767
:1012500007008357A4FED98F2315F4FE8357E4FEBD
:1012600093F7F7DF2317F4FE832784FD83D78700E6
:10127000A2071397070141838357E4FED98F2317F1
:10128000F4FE832784FD83D72700A2071397070165
:1012900041838357E4FED98F2317F4FE0327C4FD4F
:1012A000B7370140938707C06312F70A0357E4FE7C
:1012B000FD779387F77FF98F2317F4FE832784FD4B
:1012C00083D7A700A2071397070141838357E4FE42
:1012D000D98F2317F4FE8357E4FE93F7F7BF231744
:1012E000F4FE832784FD83D74700A20713970701E5
:1012F00041838357E4FED98F2317F4FE0357C4FEBE
:10130000FD77FD17F98F2316F4FE0357C4FEF97716
:10131000FD17F98F2316F4FE832784FD83D7C700BA
:1013200092071397070141838357C4FED98F231671
:10133000F4FE832784FD83D7E70092071397070104
:1013400041838357C4FED98F2316F4FE8327C4FD3F
:101350000357C4FE2392E7008327C4FD0357A4FE6E
:10136000239EE700832784FD03D767008327C4FDFE
:10137000239EE7028327C4FD0357E4FE2390E70280
:101380000100325445618280797122D60018232EE3
:10139000A4FC232CB4FC231604FE231504FE2317FF
:1013A00004FE8327C4FD83D70702139707014183F7
:1013B000FD77FD17F98F1397070141838327C4FD3C
:1013C0002390E7028327C4FD83D707022315F4FE89
:1013D0008327C4FD83D747002317F4FE8327C4FD6A
:1013E00083D7C7012316F4FE0357C4FEE577FD1724
:1013F000F98F2316F4FE8357C4FE93F7F7CF231615
:10140000F4FE832784FD83D70700A2071397070103
:1014100041838357C4FED98F2316F4FE0357A4FEDD
:10142000F977FD17F98F2315F4FE832784FD83D701
:101430008700B2071397070141838357A4FED98F12
:101440002315F4FE832784FD83D72700B207139763
:10145000070141838357A4FED98F2315F4FE032788
:10146000C4FDB7370140938707C06316F7020357DF
:10147000E4FEF177FD17F98F2317F4FE832784FD2F
:1014800083D7C7009A071397070141838357E4FE68
:10149000D98F2317F4FE8327C4FD0357E4FE23925C
:1014A000E7008327C4FD0357C4FE239EE70083277C
:1014B00084FD03D767008327C4FD2390E7048327B7
:1014C000C4FD0357A4FE2390E70201003254456196
:1014D0008280011122CE00102326A4FE2324B4FE14
:1014E000832784FE8DC38327C4FE83D70700C207EA
:1014F000C18393E717001397070141838327C4FE35
:101500002390E70039A88327C4FE83D70700C207CA
:10151000C183F99B1397070141838327C4FE23905E
:10152000E7000100724405618280011122CE0010A3
:101530002326A4FE2324B4FE832784FE95C3832799
:10154000C4FE83D74704139707014183E177D98FFE
:101550001397070141838327C4FE2392E70415A054
:101560008327C4FE83D74704139707014183A167EC
:10157000FD17F98F1397070141838327C4FE239238
:10158000E7040100724405618280011122CE00103F
:101590002326A4FEAE872322C4FE2315F4FE832750
:1015A00044FE9DC38327C4FE83D7C700139707015A
:1015B00041838357A4FED98F139707014183832763
:1015C000C4FE2396E70035A08327C4FE83D7C70057
:1015D0001397070141838357A4FE93C7F7FFC20700
:1015E000C183F98F1397070141838327C4FE239694
:1015F000E7000100724405618280797122D60018EB
:10160000232EA4FCAE87231DF4FC231704FE83279E
:10161000C4FD83D787012317F4FE8357E4FEDD9BC7
:101620002317F4FE0357E4FE8357A4FDD98F231735
:10163000F4FE8327C4FD0357E4FE239CE70001006A
:10164000325445618280797122D60018232EA4FC81
:10165000AE87231DF4FC231704FE8327C4FD83D724
:1016600087012317F4FE0357E4FEFD779387F77F86
:10167000F98F2317F4FE8357A4FDA20713970701E0
:1016800041838357E4FED98F2317F4FE8327C4FDDB
:101690000357E4FE239CE700010032544561828039
:1016A000797122D60018232EA4FCAE87231DF4FCEA
:1016B000231704FE8327C4FD83D7C7012317F4FE35
:1016C0008357E4FEDD9B2317F4FE0357E4FE8357A4
:1016D000A4FDD98F2317F4FE8327C4FD0357E4FE2E
:1016E000239EE7000100325445618280797122D641
:1016F0000018232EA4FCAE87231DF4FC231704FE40
:101700008327C4FD83D7C7012317F4FE0357E4FEE4
:10171000FD779387F77FF98F2317F4FE8357A4FD96
:10172000A2071397070141838357E4FED98F23173C
:10173000F4FE8327C4FD0357E4FE239EE700010067
:10174000325445618280797122D60018232EA4FC80
:10175000AE87231DF4FC231704FE8327C4FD83D723
:1017600087012317F4FE8357E4FEED9B2317F4FE55
:101770000357E4FE8357A4FDD98F2317F4FE832774
:10178000C4FD0357E4FE239CE70001003254456189
:101790008280797122D60018232EA4FCAE87231DE7
:1017A000F4FC231704FE8327C4FD83D78701231786
:1017B000F4FE8357E4FE93F7F7BF2317F4FE835735
:1017C000A4FDA2071397070141838357E4FED98F35
:1017D0002317F4FE8327C4FD0357E4FE239CE70090
:1017E0000100325445618280797122D60018232E7F
:1017F000A4FCAE87231DF4FC231704FE8327C4FD3D
:1018000083D7C7012317F4FE8357E4FEED9B23170C
:10181000F4FE0357E4FE8357A4FDD98F2317F4FE8B
:101820008327C4FD0357E4FE239EE70001003254E2
:1018300045618280797122D60018232EA4FCAE87E0
:10184000231DF4FC231704FE8327C4FD83D7C7019F
:101850002317F4FE8357E4FE93F7F7BF2317F4FE34
:101860008357A4FDA2071397070141838357E4FE22
:10187000D98F2317F4FE8327C4FD0357E4FE239E6C
:10188000E7000100325445618280797122D6001848
:10189000232EA4FCAE87231DF4FC232604FE23156F
:1018A00004FE231404FE8327C4FD83D70701139786
:1018B000070141838357A4FDF98F2315F4FE832785
:1018C000C4FD83D7C7001397070141838357A4FD45
:1018D000F98F2314F4FE8357A4FE81CB835784FE33
:1018E00089C785472326F4FE19A0232604FE8327F3
:1018F000C4FE3E85325445618280011122CE001023
:101900002326A4FEAE872315F4FE8357A4FE93C7B7
:10191000F7FF1397070141838327C4FE2398E7004D
:1019200001007244056182805D7186C6A2C4800890
:10193000232EA4FA232CB4FA232604FE232404FE27
:10194000232204FE232004FE232E04FC8327C4FB51
:10195000232EF4FC8327C4FB83D70701C207C1836E
:101960002326F4FE0327C4FEB567FD17F98F23264F
:10197000F4FE832784FB83D767003E878327C4FE5A
:10198000D98F2326F4FE8327C4FE139707014183D2
:101990008327C4FB2398E7008327C4FB83D7C700B2
:1019A000C207C1832326F4FE0327C4FEBD679387C5
:1019B000379FF98F2326F4FE832784FB03D7470044
:1019C000832784FB83D78700D98F1397070141832F
:1019D000832784FB83D7A700D98FC207C1833E87A3
:1019E0008327C4FED98F2326F4FE8327C4FE1397D2
:1019F000070141838327C4FB2396E7008327C4FBA9
:101A000083D74701C207C1832326F4FE0327C4FE00
:101A1000C1679387F7CFF98F2326F4FE832784FBD2
:101A200083D7C7003E878327C4FED98F2326F4FEC1
:101A30008327C4FE1397070141838327C4FB239A9E
:101A4000E700930784FC3E85EFE09FF70327C4FD82
:101A5000B7470140938707806317F700832744FD4A
:101A60002324F4FE29A0832704FD2324F4FE8327E6
:101A7000C4FB83D7C700C207C183C207C18763D233
:101A80000702032784FEBA878607BA978E073E9718
:101A9000832784FB9C438607B357F7022322F4FE77
:101AA00005A0032784FEBA878607BA978E073E975C
:101AB000832784FB9C438A07B357F7022322F4FE53
:101AC000032744FE93074006B357F70292072326E5
:101AD000F4FE8327C4FE13D7470093074006B307DD
:101AE000F702032744FEB307F7402320F4FE8327C1
:101AF000C4FB83D7C700C207C183C207C18763D2B3
:101B00000702832704FE8E071387270393074006E7
:101B1000B357F7029D8B0327C4FED98F2326F4FE0B
:101B200005A0832704FE9207138727039307400627
:101B3000B357F702BD8B0327C4FED98F2326F4FECB
:101B40008327C4FE1397070141838327C4FB239493
:101B5000E7000100B640264461618280011122CE77
:101B600000102326A4FE2324B4FE832784FE95C3FD
:101B70008327C4FE83D7C700139707014183896772
:101B8000D98F1397070141838327C4FE2396E7006B
:101B900015A08327C4FE83D7C7001397070141838D
:101BA000F977FD17F98F1397070141838327C4FE47
:101BB0002396E7000100724405618280011122CE64
:101BC00000102326A4FEAE872315F4FE8357A4FE3F
:101BD00093F7F71F1397070141838327C4FE2392CE
:101BE000E7000100724405618280011122CE0010DD
:101BF0002326A4FE8327C4FE83D74700C207C183E0
:101C000093F7F71FC207C1833E8572440561828046
:101C1000797122D60018232EA4FCAE87231DF4FC74
:101C2000232604FE8327C4FD83D7070013970701EB
:101C300041838357A4FDF98FC207C18389C78547B4
:101C40002326F4FE19A0232604FE8327C4FE3E8526
:101C5000325445618280797122D60018232EA4FC6B
:101C6000AE87231DF4FC232204FE232604FE23203A
:101C700004FE232404FE8357A4FD93F7F70F9583F6
:101C800093F7F70F2320F4FE8357A4FDFD8B232643
:101C9000F4FE8327C4FE0547B317F7002326F4FE9E
:101CA000032704FE8547631FF7008327C4FD83D7FE
:101CB000C700C207C1833E878327C4FEF98F23264E
:101CC000F4FE3DA8032704FE8947631FF70083271E
:101CD000C4FD83D70701C207C1833E878327C4FEA3
:101CE000F98F2326F4FE29A88327C4FD83D7470153
:101CF000C207C1833E878327C4FEF98F2326F4FEE3
:101D00008357A4FDA183C207C1832322F4FE832746
:101D100044FE0547B317F7002322F4FE8327C4FDD2
:101D200083D70700C207C1833E87832744FEF98F0C
:101D30002322F4FE8327C4FE81CB832744FE89C778
:101D400085472324F4FE19A0232404FE832784FE60
:101D50003E85325445618280797122D60018232E47
:101D6000A4FCAE87231DF4FC231704FE231604FEF7
:101D70008357A4FDA1832317F4FE8357E4FE054790
:101D8000B317F7002316F4FE8357C4FE93C7F7FF7B
:101D90001397070141838327C4FD2390E7000100C7
:101DA000325445618280011106CE22CC0010AA87F0
:101DB000A307F4FE1307F4FE9307F4FE85463A8664
:101DC000BE850545EF1050358347F4FE3E85F24051
:101DD000624405618280797106D622D40018AA87F0
:101DE0002E87232CC4FCA30FF4FCBA87230FF4FC2A
:101DF000832784FDFD8B0547B317F70093960701F2
:101E0000C182832784FD958393F7F70F13F777003B
:101E10009D670A079387879CBA979C433687D8CBE0
:101E20008347F4FD93E707F8A30FF4FC8347F4FD21
:101E30003E85953F8347E4FD3E85B537832784FD86
:101E4000FD8B0547B317F70093960701C1828327DF
:101E500084FD958393F7F70F13F777009D670A07C3
:101E60009387879CBA979C43368798CB0545EF109C
:101E7000D036832784FDFD8B0547B317F700939673
:101E80000701C182832784FD958393F7F70F13F72A
:101E900077009D670A079387879CBA979C4336878C
:101EA000D8CB01450937AA87A307F4FE0145E53DD4
:101EB000832784FDFD8B0547B317F7009396070131
:101EC000C182832784FD958393F7F70F13F777007B
:101ED0009D670A079387879CBA979C43368798CB60
:101EE0000347E4FD8347F4FE6304F700854711A030
:101EF00081473E85B250225445618280011106CE51
:101F000022CC0010AA872324B4FE2322C4FEA307F8
:101F1000F4FE832744FEFD8B0547B317F700939625
:101F20000701C182832744FE958393F7F70F13F7C8
:101F300077009D670A079387879CBA979C433687EB
:101F4000D8CB8347F4FE93E70704A307F4FE834747
:101F5000F4FE3E85893D0145B935832744FEFD8B5E
:101F60000547B317F70093960701C182832744FE04
:101F7000958393F7F70F13F777009D670A07938709
:101F8000879CBA979C43368798CB0545EF10F02481
:101F9000832744FEFD8B0547B317F700939607018F
:101FA000C182832744FE958393F7F70F13F77700D9
:101FB0009D670A079387879CBA979C433687D8CB3F
:101FC0000145D533AA873E87832784FE2380E70017
:101FD0000145D13B832744FEFD8B0547B317F7002E
:101FE00093960701C182832744FE958393F7F70FE9
:101FF00013F777009D670A079387879CBA979C43DE
:10200000368798CB0100F24062440561828001115D
:1020100006CE22CC0010AA872324B4FE2317F4FE98
:102020008357E4FE0567B307F7402317F4FE835791
:10203000E4FE92072317F4FE8357E4FE93F7F70FAD
:10204000032684FEBE85014579338357E4FEA183D0
:10205000C207C18393F7F70F032684FEBE850545AB
:102060009D3B0100F240624405618280797106D691
:1020700022D40018232EA4FC8327C4FDFD8B054722
:10208000B317F70093960701C1828327C4FD958398
:1020900093F7F70F13F777009D670A079387879CDD
:1020A000BA979C433687D8CB0145F539AA87139751
:1020B00007014183239EE18083D7C181A207139743
:1020C00007014183239EE1800145F139AA871397D7
:1020D0000701418383D7C181D98F139707014183BA
:1020E000239EE1808327C4FDFD8B0547B317F700CE
:1020F00093960701C1828327C4FD958393F7F70F59
:1021000013F777009D670A079387879CBA979C43CC
:10211000368798CB83D7C181998313970701418371
:10212000239EE18003D7E18183D7C181B307F740C4
:10213000C207C18393F7F73F2317F4FE03D7C1818A
:10214000239FE1808357E4FE8607C207C18393F78C
:102150000740C207C1830357E4FEB307F740C20735
:10216000C183C207C1873E85B25022544561828037
:10217000797106D622D40018232EA4FC8327C4FD2F
:10218000FD8B0547B317F70093960701C18283279C
:10219000C4FD958393F7F70F13F777009D670A0740
:1021A0009387879CBA979C433687D8CB0145E53EF9
:1021B000AA871397070141832390E18283D7018285
:1021C000A2071397070141832390E1820145E13E75
:1021D000AA8713970701418383D70182D98F139769
:1021E000070141832390E1828327C4FDFD8B0547CE
:1021F000B317F70093960701C1828327C4FD958327
:1022000093F7F70F13F777009D670A079387879C6B
:10221000BA979C43368798CB83D7018299831397CB
:10222000070141832390E18203D7218283D7018272
:10223000B307F740C207C18393F7F73F2317F4FEB4
:1022400003D701822391E1828357E4FE8607C20708
:10225000C18393F70740C207C1830357E4FEB30766
:10226000F740C207C183C207C1873E85B2502254DE
:1022700045618280797106D622D40018232EA4FCF1
:102280008327C4FDFD8B0547B317F700939607011D
:10229000C1828327C4FD958393F7F70F13F7770067
:1022A0009D670A079387879CBA979C433687D8CB4C
:1022B0000145D53CAA871397070141832392E18208
:1022C00083D74182A2071397070141832392E182BA
:1022D0000145D13CAA8713970701418383D74182E7
:1022E000D98F1397070141832392E1828327C4FD8D
:1022F000FD8B0547B317F70093960701C18283272B
:10230000C4FD958393F7F70F13F777009D670A07CE
:102310009387879CBA979C43368798CB83D7418213
:1023200099831397070141832392E18203D7618246
:1023300083D74182B307F740C207C18393F7F73FC2
:102340002317F4FE03D741822393E1828357E4FEEF
:102350008607C207C18393F70740C207C1830357AB
:10236000E4FEB307F740C207C183C207C1873E85B9
:10237000B250225445618280797106D622D4001869
:10238000232EA4FC8327C4FDFD8B0547B317F7005C
:1023900093960701C1828327C4FD958393F7F70FB6
:1023A00013F777009D670A079387879CBA979C432A
:1023B0003687D8CB0145C53AAA87139707014183D1
:1023C0002394E18283D78182A20713970701418377
:1023D0002394E1820145C13AAA87139707014183FB
:1023E00083D78182D98F1397070141832394E18298
:1023F0008327C4FDFD8B0547B317F70093960701AC
:10240000C1828327C4FD958393F7F70F13F77700F5
:102410009D670A079387879CBA979C43368798CB1A
:1024200083D7818299831397070141832394E182A3
:1024300003D7A18283D78182B307F740C207C18344
:1024400093F7F73F2317F4FE03D781822395E182A8
:102450008357E4FE8607C207C18393F70740C2078C
:10246000C1830357E4FEB307F740C207C183C20725
:10247000C1873E85B250225445618280797106D66B
:1024800022D40018232EA4FC9307F4FE0326C4FDD7
:10249000BE851945A5340347F4FEF147E316F7FE60
:1024A0000100B250225445618280011106CE22CC37
:1024B00000102326A4FE094881470327C4FE930683
:1024C000200213061002930500020545EF1080312B
:1024D0000325C4FE65370326C4FE81452545EFF07C
:1024E0009F8F8325C4FE01451D360100F2406244E2
:1024F00005618280797122D60018AA87A30FF4FCA7
:10250000A147A307F4FE9D679387879C9C473E875E
:10251000A1675CCB9D679387879C9C473E879167AB
:102520001CCB9D6783A7879C3E87930700025CCBEB
:10253000B9A08307F4FD63DA07009D6783A7879C32
:102540003E87930700081CCB01A89D6783A7879C43
:102550003E87930700085CCB9D6783A7879C3E87D7
:10256000930700021CCB9D6783A7879C3E87930738
:1025700000025CCB8347F4FD8607A30FF4FC83477E
:10258000F4FE1387F7FFA307E4FEC5F79D67938763
:10259000879C9C473E87A1671CCB01003254456154
:1025A0008280797122D60018AA87A30FF4FCA14774
:1025B000A307F4FE9D679387879C9C473E87A1678E
:1025C0005CCB9D679387879C9C473E8791675CCBDC
:1025D0009D6783A7879C3E87930700025CCBB9A0C9
:1025E0008307F4FD63DA07009D6783A7879C3E8716
:1025F000930700081CCB01A89D6783A7879C3E8793
:10260000930700085CCB9D6783A7879C3E87930751
:1026100000021CCB9D6783A7879C3E87930700021F
:102620005CCB8347F4FD8607A30FF4FC8347F4FEDD
:102630001387F7FFA307E4FEC5F79D679387879C81
:102640009C473E87A1671CCB0100325445618280C4
:10265000797122D60018AA87232CB4FC231FF4FC1E
:102660009947A307F4FE8347F4FE032784FDBA9736
:1026700023800700B1A08347F4FEFD17A307F4FEF3
:102680000357E4FDA947B377F702C207C1832307C5
:10269000F4FE0357E4FDA947B357F702231FF4FCE8
:1026A0008347E4FE9387070393F6F70F8347F4FE0F
:1026B000032784FDBA971397860161872380E7007B
:1026C0008347F4FECDFB0100325445618280411105
:1026D00006C622C400089306003105468545154507
:1026E000712693060031014685451D454126930616
:1026F0000031054685451305D0048D2E9306003123
:10270000054685451305E0049526930600310546E8
:1027100085451305F004992E9D6783A7879C3E8706
:10272000930700021CCB9D679387879C9C473E873D
:1027300089675CCBB16713850735EF10002A9D6769
:102740009387879C9C473E8789671CCB1305E00ACB
:10275000893D0145B9354145A93513050004913539
:10276000130510083D3D1305F007253D1305100A1C
:102770000D3D1305800C35351305600A1D35130515
:10278000800A05351305F003293D1305300D113D71
:102790000145013D1305500D29351305000811357C
:1027A0001305900DFD3B1305100FE53B1305A00D20
:1027B000CD3B4945FD331305B00DE533130500044A
:1027C000CD3313050002F13B0945E13B1305D00869
:1027D000C93B5145F9331305400AE1331305600A3B
:1027E000C9331305F00A753B014575208145014544
:1027F00031200100B240224441018280011106CE05
:1028000022CC0010AA872E87A307F4FEBA872307DD
:10281000F4FE8307F4FE63DF070099679386C76AB7
:102820009D671386879B9305900D99671385876B2A
:10283000EF20B0430347E4FE9D4763FFE70099673D
:102840009386C76E9D671386879B9305A00D996736
:102850001385876BEF2070418347E4FE938707FB66
:1028600093F7F70F3E85353B8347F4FE918393F74B
:10287000F70F93E7070193F7F70F3E851D33834763
:10288000F4FEBD8B93F7F70F3E85213B0100F2402C
:10289000624405618280797106D622D40018AA8725
:1028A000A30FF4FCA30704FE91A08347F4FE9387D3
:1028B00007FB93F7F70F3E85ED310545DD314145C7
:1028C000CD31230704FE11A88347F4FD3E851D3159
:1028D0008347E4FE85072307F4FE8307E4FEE3D580
:1028E00007FE8347F4FE8507A307F4FE0347F4FEC3
:1028F0009D47E3FCE7FA0100B25022544561828013
:10290000797106D622D40018AA872E87232CC4FCFE
:10291000A30FF4FCBA87230FF4FCA30604FEA3075D
:1029200004FE230704FE49A88347E4FE032784FD31
:10293000BA978387070093F7F70F8117A306F4FE72
:102940000347F4FD9307E00763F9E700A30F04FCD6
:102950008347E4FD8507230FF4FC0347E4FD834729
:10296000F4FDBA853E85593DA30704FE3DA003470B
:10297000D4FE8346F4FE1966BA878607BA9786079F
:1029800013070679BA97B69783C707003E859D3629
:102990008347F4FE8507A307F4FE0347F4FE95473B
:1029A000E3F7E7FC8347F4FD9907A30FF4FC8347A3
:1029B000E4FE85072307F4FE8347E4FE032784FD36
:1029C000BA9783870700ADF30100B25022544561E6
:1029D0008280797106D622D40018AA87AE86328703
:1029E000A30FF4FCB687230FF4FCBA87231EF4FC74
:1029F0008317C4FD63D507028357C4FDB307F040B6
:102A0000C207C183231EF4FC8346E4FD0347F4FDA3
:102A100099671386C76FB6853A85DD3519A8834651
:102A2000E4FD0347F4FD996713860770B6853A8580
:102A3000C13D8347F4FD9907A30FF4FC8357C4FD00
:102A4000130784FEBA853E852131930784FE938661
:102A500017000347E4FD8347F4FD3686BA853E85BB
:102A600045350100B250225445618280797106D605
:102A700022D40018232EA4FC232CB4FCB2872328D4
:102A8000D4FCA30BF4FC8327C4FD958393F7F70FC5
:102A90009D8BA307F4FE8327C4FD93F7F70FFD8BEF
:102AA0002307F4FE0327C4FD93070008630DF71402
:102AB0008327C4FD958391E785451145EFE0EF91AC
:102AC00061A88327C4FD13D7570085476317F70014
:102AD00085452145EFE06F9041A08327C4FD13D7C2
:102AE000570089476317F70085454145EFE0EF8EB2
:102AF000A5A08327C4FD13D757008D476318F7009F
:102B0000854513050002EFE04F8DB9A08327C4FD72
:102B100013D7570091476318F70085451305000444
:102B2000EFE0AF8B15A88327C4FD13D75700954757
:102B30006318F700854513050008EFE00F8A29A800
:102B40008327C4FD13D7570099476317F7008545BE
:102B500013050010EFE06F888347E4FE0547B317C5
:102B6000F700C207C1832310F4FE032784FD8547C5
:102B70006317F702832704FDC207C183A183C2073D
:102B8000C18389E78D472322F4FE11A8832704FD22
:102B9000C207C183A183C207C1832322F4FE832716
:102BA00004FDC207C18393F7F70F2324F4FE034704
:102BB000F4FE9D670A079387879CBA979C433E87DC
:102BC000930704FEBE853A85EFD06FFA032784FD94
:102BD0008547631BF7020347F4FE9D670A07938747
:102BE000879CBA979C43BE868347E4FE0547B3178C
:102BF000F700C207C183034774FD3A86BE85368558
:102C0000EFD09F9911A00100B250225445618280FB
:102C1000797122D60018232EA4FC8327C4FD958346
:102C200093F7F70F9D8BA307F4FE8327C4FD93F75B
:102C3000F70FFD8B2307F4FE0347F4FE9D670A0799
:102C40009387879CBA979C439C470347E4FE85463D
:102C50003397E600F98F99C3854711A081473E85D8
:102C6000325445618280797122D60018232EA4FC4B
:102C70008327C4FD958393F7F70F9D8BA307F4FE7D
:102C80008327C4FD93F7F70FFD8B2307F4FE03475B
:102C9000F4FE9D670A079387879CBA979C43DC479D
:102CA0000347E4FE85463397E600420741833A86B0
:102CB0008346F4FE1D678A061307879C36971843E0
:102CC000B18F5CC70100325445618280797106D6AC
:102CD00022D40018232EA4FCAE873687A30DF4FC63
:102CE000B287230DF4FCBA87A30CF4FC8327C4FD40
:102CF00093F7F70F2304F4FE8347B4FDA304F4FE17
:102D00008347A4FD2305F4FE834794FD2326F4FEA8
:102D1000930784FE3E85EFD05FA8B7E700E09843B5
:102D2000FD777D8F83A741855D8F23AAE184B7E777
:102D300000E0D843B7070010FD177D8F93874185CA
:102D4000DC435D8F93874185D8C39387418503C753
:102D5000870085476313F70031200100B2502254E9
:102D600045618280411122C60008B7E700E07D5727
:102D700023A0E718B7E700E07D5723A2E71801007A
:102D8000324441018280411122C60008B7E700E0C9
:102D900003A7418523A0E710B7E700E0138741852B
:102DA000584323A2E71001003244410182800111FF
:102DB00006CE22CC0010AA87A307F4FE8347F4FEB8
:102DC00081E723860182C1370100F2406244056138
:102DD0008280797106D622D40018232EA4FCAE87F7
:102DE000231DF4FC8327C4FD81EB8545856713858E
:102DF0000780EFD09FDE35A80327C4FD8547631702
:102E0000F70085450545EFD0BFE125A00327C4FDA8
:102E100089476317F70085450945EFD07FE011A882
:102E20000327C4FD8D476316F70085451145EFD094
:102E30003FDF8357A4FD91EF9967938607719D67E4
:102E40001386879D93052003996713858771EF206B
:102E5000C061ED779387F7BD2314F4FE8357A4FD7B
:102E60008607C207C183FD17C207C1832312F4FE80
:102E7000231504FE231304FE230604FE9D67032787
:102E8000C4FD0A079387079FBA979C433E87930721
:102E900044FEBE853A85EFD03FF29D670327C4FD0F
:102EA0000A079387079FBA979C43054685453E8549
:102EB000EFE0AFED8327C4FD81EB854609468145F0
:102EC000130590022135A1A00327C4FD854763198E
:102ED000F7008546094681451305C002C53B05A894
:102EE0000327C4FD89476319F700854609468145D4
:102EF0001305D002E13B21A80327C4FD8D476318C9
:102F0000F7008546094681451305E002C1339D67F8
:102F10000327C4FD0A079387079FBA979C438545FB
:102F20003E85EFE00FDB0100B25022544561828004
:102F3000011106CE22CC00102326A4FE0327C4FED6
:102F4000930700206307F7240327C4FE930700209C
:102F500063EAE70A0327C4FE930710106300F71C17
:102F60000327C4FE9307101063E2E7040327C4FE9F
:102F70008947630DF7160327C4FE894763ECE70012
:102F80008327C4FE638407140327C4FE85476307B1
:102F9000F714E5AC0327C4FE8D476301F71603273A
:102FA000C4FE930700106303F716C5A40327C4FEED
:102FB00093070011630CF7180327C4FE9307001151
:102FC00063EFE7000327C4FE930720106300F716A2
:102FD0000327C4FE930730106302F7167DA403276E
:102FE000C4FE930720116304F7180327C4FE930758
:102FF00020116365F7160327C4FE930730116301A0
:10300000F71861A40327C4FE930730216300F7205B
:103010000327C4FE9307302163EEE7040327C4FEB1
:10302000930730206300F71A0327C4FE930730206C
:1030300063EFE7000327C4FE930710206303F7162E
:103040000327C4FE930720206305F7163DAC032732
:10305000C4FE930710216309F7180327C4FE9307E2
:10306000102163ECE7180327C4FE930700216304D3
:10307000F71621AC0327C4FE930700306303F71C47
:103080000327C4FE9307003063EFE7000327C4FE65
:10309000930700226305F7180327C4FE9307102245
:1030A0006308F718DDA20327C4FE93072030630CE2
:1030B000F71A0327C4FE93072030636DF718032720
:1030C000C4FE930730306309F71AC1A2930680311A
:1030D000014685452145EFF07F9945AA9306803149
:1030E000014685452545EFF07F9845A2930680313E
:1030F000014685452945EFF07F9741AA9306803127
:10310000014685452D45EFF07F9641A2930680311B
:10311000014685450145EFF07F9585AA93068031EC
:10312000014685450545EFF07F9485A293068031E1
:10313000014685450945EFF07F9381AA93068031CA
:10314000014685450D45EFF07F9281A293068031BF
:10315000014685453D45EFF07F9105AA93068031F4
:103160000146854513053002EFF05F9039AA9306BA
:103170008031014685451305A002EFF03F8F31A253
:1031800093068031014685451305B002EFF01F8E8E
:10319000EDA893068031014685451945EFF01F8D56
:1031A000EDA093068031014685451D45EFF01F8C4B
:1031B000E9A8930680310146854513050002EFF02A
:1031C000FF8AE1A093068031014685451305100270
:1031D000EFF0DF895DA89306803101468545130530
:1031E0006004EFF0BF8855A0930680310146854505
:1031F00013057004EFF09F8749A8930680310146BC
:10320000854513058004EFF07F8641A09306803149
:103210000146854513059004EFF05F85BDA0930638
:1032200080310146854513054002EFF03F84B1A887
:10323000930680310146854513055002EFF01F8348
:10324000A9A0930680310146854513056002EFF081
:10325000FF8125A89306803101468545130570023C
:10326000EFF0DF801DA093068031014685451305F0
:103270008002EFF0AFFF11A893068031014685452B
:1032800013059002EFF08FFE01000100F24062444E
:1032900005618280397106DE22DC80002326A4FCD1
:1032A0002324B4FC2322C4FC231704FE0325C4FCFE
:1032B00041318327C4FCA18381EB85458567138554
:1032C0000780EFD09F91A1A08327C4FC13D787006C
:1032D00085476317F70085450545EFD07F9405A81E
:1032E0008327C4FC13D7870089476317F7008545F8
:1032F0000945EFD0FF9221A88327C4FC13D787008C
:103300008D476316F70085451145EFD07F918545C0
:103310000545EFD09F8C8327C4FC13D74700C147D6
:10332000631AF7008545B707160013850704EFD029
:103330002FAAB9A88327C4FC13D74700C547631A2F
:10334000F7008545B707180013850730EFD04FA861
:1033500081A08327C4FC13D7470093071002631A88
:10336000F7008545B7171A00138507C0EFD04FA6A1
:1033700005A08327C4FC13D74700930720026319D5
:10338000F7008545B7171A0013850780EFD04FA4C3
:10339000B7170240DC43C98313F7F700B7177A0069
:1033A000938707203307F702B727F4009387074076
:1033B0003E9723A8E18203A70183832784FCB357A8
:1033C000F702C1832317F4FE03A701838357E4FEAA
:1033D0008507BE86832784FCB387F602B357F702BE
:1033E0002316F4FE0357C4FE832744FC3307F70279
:1033F000896793870771B357F7022315F4FE835744
:10340000C4FEFD17C207C1832312F4FE8357E4FEF6
:103410002310F4FE231304FE231104FE230404FEF0
:10342000930700072318F4FC85472319F4FC231A9B
:1034300004FC8357A4FE231BF4FC8947231CF4FCE3
:103440008947231DF4FC231E04FC231F04FC83274F
:10345000C4FC13D787009D670A079387079FBA9715
:103460009C433E87930704FEBE853A85EFD0DF94E8
:103470008327C4FC8D8BB9EF8327C4FC13D7870047
:103480009D670A079387079FBA979C433E879307D8
:1034900004FDBE853A85EFD0DFA18327C4FC13D796
:1034A00087009D670A079387079FBA979C43A145AA
:1034B0003E85EFE08F948327C4FC13D787009D6778
:1034C0000A079387079FBA979C4391453E85EFE093
:1034D0008FA789A28327C4FC13F7370085476311A0
:1034E000F7068327C4FC13D787009D670A079387D5
:1034F000079FBA979C433E87930704FDBE853A8594
:10350000EFD03FB28327C4FC13D787009D670A071B
:103510009387079FBA979C43A1453E85EFE0AF9202
:103520008327C4FC13D787009D670A079387079FEB
:10353000BA979C43930500403E85EFE08FA5D9A83C
:103540008327C4FC13F7370089476310F7068327E6
:10355000C4FC13D787009D670A079387079FBA9714
:103560009C433E87930704FDBE853A85EFD0DFC6B6
:103570008327C4FC13D787009D670A079387079F9B
:10358000BA979C43A1453E85EFE08F918327C4FC09
:1035900013D787009D670A079387079FBA979C43B5
:1035A00091453E85EFE04FA4B5A08327C4FC13F7F7
:1035B00037008D476310F7068327C4FC13D78700B5
:1035C0009D670A079387079FBA979C433E87930797
:1035D00004FDBE853A85EFD03FDB8327C4FC13D7BB
:1035E00087009D670A079387079FBA979C43A14569
:1035F0003E85EFE0AF8F8327C4FC13D787009D671C
:103600000A079387079FBA979C43930500403E851E
:10361000EFE04FA28327C4FC13D787009D670A07FA
:103620009387079FBA979C4385453E85EFD07FEAF5
:103630008327C4FC13D787009D670A079387079FDA
:10364000BA979C4385453E85EFD03FEE0100F2508E
:10365000625421618280011106CE22CC0010232603
:10366000A4FE2324B4FE2322C4FE2320D4FE8327F9
:10367000C4FE89EB93068031054685451545EFF07C
:10368000EFBE99A80327C4FEC147631BF70093064A
:1036900080310546854513053002EFF02FBD2DA87A
:1036A0000327C4FE93070002631BF70093068031D3
:1036B000054685451305D002EFF04FBB31A8996749
:1036C000938687749D67138607A09305D002996738
:1036D0001385C774EF107059032784FE8547631A5A
:1036E000F70093068031054685451D45EFF00FB87C
:1036F00099A8032784FEC547631BF7009306803112
:103700000546854513055002EFF04FB62DA8032757
:1037100084FE93071002631BF70093068031054671
:1037200085451305F002EFF06FB431A899679386D1
:1037300087749D67138607A09305200399671385F7
:10374000C774EF109052032744FE8947631AF700AD
:1037500093068031054685451945EFF02FB1B5A098
:10376000032744FEC947631BF700930680310546D3
:10377000854513054002EFF06FAF81A8032744FE93
:1037800093072002631BF7009306803105468545A9
:103790001305E002EFF08FAD0DA8032744FE930759
:1037A00030026317F700930730022322F4FE31A89A
:1037B0009967938687749D67138607A09305800396
:1037C00099671385C774EF10504A93060031054678
:1037D0008545032504FEEFF06FA90100F240624425
:1037E000056182805D7186C6A2C480082326A4FC80
:1037F0002324B4FC2322C4FC2320D4FC232EE4FA8B
:10380000232A04FBA30DF4FA8327C4FC81EB85452E
:10381000856713851700EFD04FBC21A80327C4FC90
:1038200085476318F7008545916713851700EFD02A
:103830002FBF8326C4FB032604FC832544FC0325F9
:1038400084FC113D231E04FC93074010231FF4FC4D
:10385000231004FE8347B4FB05476383E702054753
:103860006344F70089CB81A009476381E7020D47D4
:103870006384E7020DA8231104FE231204FE25A091
:10388000231104FE85472312F4FE31A88947231132
:10389000F4FE231204FE01A889472311F4FE854794
:1038A0002312F4FE0100930700202313F4FE832764
:1038B00044FBC207C1838E07C207C1832314F4FEF1
:1038C000231504FE9D472316F4FE0327C4FC0A07B4
:1038D0009387C180BA979C433E879307C4FDBE85FA
:1038E0003A85EFD04FB8032784FCC1476316F70031
:1038F00085450545EFC0DFCD0327C4FC0A07938744
:10390000C180BA979C4385453E85EFD04FC50100E5
:10391000B640264461618280011122CE0010232628
:10392000A4FE2324B4FE2322C4FE2320D4FE59A8DF
:1039300001000327C4FE0A079387C180BA979C43FE
:1039400083D78700C207C183898BE5D7832784FE8D
:10395000138717002324E4FE83C607000327C4FE51
:103960000A079387C180BA979C433E8793970601C5
:10397000C1832316F700832744FEA9C7010003274C
:10398000C4FE0A079387C180BA979C4383D78700F8
:10399000C207C183858BE5D70327C4FE0A07938737
:1039A000C180BA979C4383D7C70093960701C18211
:1039B000832744FE138717002322E4FE13F7F60F34
:1039C0002380E700832704FE1387F7FF2320E4FE0C
:1039D000A5F30100724405618280797122D6001836
:1039E000232EA4FCB7F700E023A0070003A7018360
:1039F000B7177A0093870720B357F7020327C4FD50
:103A0000B307F7022326F4FEB7F700E0238207008E
:103A1000B7F700E0A3820700B7F700E023830700B1
:103A2000B7F700E0A3830700B7F700E0054798C3A6
:103A30000100B7F700E091079C430327C4FEE37A37
:103A4000F7FE0100325445618280011106CE22CC7E
:103A500000102326A4FE2324B4FE8327C4FE85E79A
:103A6000032784FE85476310F702930680310146E1
:103A700085452545EFE09FFF914601468145294553
:103A8000EFE0DFFE65A00327C4FE89476312F7025B
:103A9000930680310146854513056002EFE01FFD66
:103AA00091460146814513057002EFE03FFCBDA839
:103AB0000327C4FEC1476310F70293068031014615
:103AC00085450945EFE09FFA9146014681450D4540
:103AD000EFE0DFF9A1A80327C4FE930700026312F9
:103AE000F70293068031014685451305A002EFE0F9
:103AF000FFF79146014681451305B002EFE01FF73D
:103B000035A00327C4FE930720026311F702930632
:103B10000031014685451305A004EFE03FF59146CD
:103B2000014681451305B004EFE05FF40100F24067
:103B3000624405618280797106D622D40018232E52
:103B4000A4FC232CB4FC232AC4FC2328D4FC832704
:103B5000C4FD91E785451165EFD02F8835A0032777
:103B6000C4FD85476318F700854537050200EFD08F
:103B70002F8B19A80327C4FD89476317F7008545D4
:103B800037050400EFD0CF89832504FD032544FDCC
:103B90006D3D832784FD2320F4FE231204FE2313AE
:103BA00004FE231404FE231604FEB1472315F4FE7D
:103BB0009D670327C4FD0A07938707A1BA979C4313
:103BC0003E87930704FEBE853A85EFD0FFD59D67FB
:103BD0000327C4FD0A07938707A1BA979C4385452D
:103BE0003E85EFD0BFF70100B2502254456182807C
:103BF000411106C622C40008B7170240DC43C9833E
:103C000013F7F700B7177A00938707203307F702F7
:103C1000B727F400938707403E9723A8E1828546A3
:103C20000146F16793850720014531370100B24015
:103C3000224441018280797106D622D40018232EB5
:103C4000A4FC232CB4FC232AC4FC232604FE99A044
:103C500001009D6783A707A1930500043E85EFD06F
:103C60003FFBAA87FDD79D6783A707A1BE86832751
:103C700084FD13871700232CE4FC83870700C20709
:103C8000C183BE853685EFD07FF38327C4FE8507C9
:103C90002326F4FE0327C4FE832744FDE34AF7FAF4
:103CA000832744FD3E85B250225445618280011134
:103CB00022CE0010232604FE232404FEB717024060
:103CC0009443B71702404167558F98C3B717024016
:103CD0009843B7070200F98F2324F4FE8327C4FE1C
:103CE00085072326F4FE832784FE99E70327C4FE75
:103CF00093070050E31CF7FCB71702409843B7073F
:103D00000200F98F89C785472324F4FE19A02324D4
:103D100004FE032784FE85476317F70CB72702408C
:103D20009843B72702401367070198C3B72702409B
:103D30009843B7270240719B98C3B7270240984326
:103D4000B72702401367270098C337170240B717F9
:103D500002405843D8C337170240B71702405843B0
:103D6000D8C337170240B71702405843D8C3B71714
:103D70000240D443B71702403707C1FF7D17758F44
:103D8000D8C3B7170240D443B717024037072500FE
:103D9000558FD8C3B71702409443B717024037076F
:103DA0000001558F98C30100B71702409843B70729
:103DB0000002F98FF5DBB7170240D843B71702406E
:103DC000719BD8C3B7170240D843B7170240136797
:103DD0002700D8C30100B7170240DC4313F7C70020
:103DE000A147E31AF7FE0100724405618280411188
:103DF00006C622C40008B71702409843B71702400E
:103E00001367170098C3B7170240D443B71702408F
:103E10003707FFF8758FD8C3B71702409443B71719
:103E200002403707F7FE7D17758F98C3B71702401A
:103E30009443B71702403707FCFF7D17758F98C36F
:103E4000B7170240D443B7170240370781FF7D17E9
:103E5000758FD8C3B717024037079F0098C7813DB9
:103E60000100B240224441018280411122C6000873
:103E700083C7018799C32388018601003244410129
:103E80008280411122C600080545EFC0EFC62A878F
:103E900085476313F7020545EFC06FCB010003C7E9
:103EA000F1868547E31DF7FEA387018613854186CA
:103EB000612805472388E1860100324441017300EF
:103EC0002030011122CE0010AA87A307F4FE83C779
:103ED0004183138717009376F70F238AD1823E8799
:103EE00093874186BA970347F4FE2380E70003C710
:103EF00041838547631DF70003C741869307800D03
:103F00006307F700238A01820947A387E18603C775
:103F10004183AD476316F7020547A387E186938780
:103F2000418603C7A7009307E00E6316F700054715
:103F3000A387E18621A00D47A387E186238A01821A
:103F40000100724405618280011122CE00102326F7
:103F5000A4FE8327C4FE850703C707009307000B51
:103F60006318F7028327C4FE890783C70700A207E7
:103F70001397070141878327C4FE8D0783C7070076
:103F8000C207C187D98F1397070141872399E1861B
:103F90008327C4FE910703C707009307100B63181C
:103FA000F7028327C4FE950783C70700A20713976C
:103FB000070141878327C4FE990783C70700C2070B
:103FC000C187D98F1397070141872390E186832703
:103FD000C4FE9D0703C707009307200B6318F70271
:103FE0008327C4FEA10783C70700A2071397070111
:103FF00041878327C4FEA50783C70700C207C1877F
:10400000D98F1397070141872391E18601007244FC
:1040100005618280411106C622C40008EFF05FBD31
:104020001945F52893060031014685451145EFE015
:10403000FFA393060031014685452545EFE01FA308
:10404000A9450945EFE0FFD80146916793850765CB
:1040500013051011EFF00FA40146916793850765D2
:1040600013050011EFF00FA30146916793850765D3
:1040700013052011EFF00FA20146916793850765A4
:1040800013053011EFF00FA1014691679385076585
:1040900013050030EFF00FA0014691679385076587
:1040A00013051030EFF00F9F014691679385076568
:1040B00013052030EFF00F9E014691679385076549
:1040C00013053030EFF00F9D01469305D0140945DC
:1040D000EFF04F9C13059004EFE02FBD1305800413
:1040E000EFE0AFBC1305C002EFE02FBC2145EFE0CD
:1040F000CFBBEFE0CFDD0145EFE07FCB0100B24069
:10410000224441018280411106C622C40008052BC9
:10411000EFF0BFD50100B24022444101828001117D
:1041200006CE22CC00102326A4FE0327C4FE95470A
:1041300063E3E702B70700200327C4FE0A0793875B
:104140000701BA979C4393068004014681453E854A
:10415000EFE0DF9125A899472326F4FE0DA0B707CD
:1041600000200327C4FE0A0793870701BA979C43E0
:1041700093068004014681453E85EFE03F8F83270B
:10418000C4FE1387F7FF2326E4FEF1FB0100F24093
:10419000624405618280011106CE22CC00102326E4
:1041A000A4FEB70700200327C4FE0A079387070170
:1041B000BA979C433E85EFE0BFA5AA8799E3814764
:1041C00011A085473E85F240624405618280797185
:1041D00022D60018232CA4FC232EB4FC83C77183A1
:1041E00013F7F70F89476305F70883C7618393F7D0
:1041F000F70FBE86032784FDB70700208E0693873E
:10420000C70FB69798C383C7618393F7F70F3E86AE
:104210000327C4FDB70700209386C70F9317360006
:10422000B697D8C383C7618393F7F70F850713F752
:10423000F70F238BE18283C7618313F7F70FCD4715
:1042400063F4E700238B018283C76183A307F4FE35
:1042500083C7518393F7F70F0347F4FE6316F70004
:104260000947A38BE18231A00547A38BE18211A00E
:104270000100325445618280797122D60018232EC4
:10428000A4FC83C7718393F7F70F99E3814769A073
:1042900083C7518393F7F70F3E87B70700200E07B8
:1042A0009387C70FBA9798438327C4FD98C383C7E2
:1042B000518393F7F70FBE86B70700201387C70F08
:1042C00093973600BA97D8438327C4FDD8C383C7D2
:1042D000518393F7F70F850713F7F70FA38AE1824E
:1042E00083C7518313F7F70FCD4763F4E700A38A21
:1042F000018283C76183A307F4FE83C7518393F7C9
:10430000F70F0347F4FE6315F700A38B018221A08A
:104310000547A38BE18285473E8532544561828003
:10432000011106CE22CC0010232604FE1DA2032577
:10433000C4FEEFF05FE6AA87F1E713878183832746
:10434000C4FEBA9783C70700850713F7F70F938654
:1043500081838327C4FEB6972380E7001387818378
:104360008327C4FEBA9703C70700854763FBE70CA2
:10437000138781838327C4FEBA9703C70700894741
:10438000631FF7008327C4FE2322F4FE232404FEC8
:10439000032544FE832584FEEFF07FE375A0138799
:1043A00081838327C4FEBA9703C70700A54763FC30
:1043B000E708138781838327C4FEBA9703C70700E2
:1043C000A9476318F7028327C4FE2322F4FE894716
:1043D0002324F4FE032544FE832584FEEFF03FDF13
:1043E000138781838327C4FEBA9709472380E70098
:1043F000A1A8138781838327C4FEBA970947238026
:10440000E70099A0138781838327C4FEBA9703C767
:104410000700854763FFE7008327C4FE2322F4FEDD
:1044200085472324F4FE032544FE832584FEEFF014
:104430001FDA138781838327C4FEBA97238007007E
:1044400021A0010011A001008327C4FE85072326B7
:10445000F4FE0327C4FE9547E3FBE7EC0100F240BE
:10446000624405618280411106C622C4000813051A
:104470008004EFD0FFCFAA873E872399E1921305EE
:104480009004EFD0BFBEAA873E872398E1922145D2
:10449000EFD09FEEAA873E87239AE1941305C002CE
:1044A000EFD05FDDAA873E87239AE192839721931D
:1044B0003E8793072003B307F7023E85EF00906C19
:1044C000996703A6877783A6C777CD2EAA872E88FC
:1044D0003E85C285996703A6077883A64778EF00D3
:1044E000F018AA872E883E85C285996703A687782B
:1044F00083A6C778E126AA872E883E85C285EF006D
:10450000F061AA871397070141872399E192839766
:1045100001933E8793072003B307F7023E85EF0020
:104520007066996703A6877783A6C777412EAA8707
:104530002E883E85C285996703A6077883A64778AB
:10454000EF00D012AA872E883E85C285996703A600
:10455000877883A6C7789D26AA872E883E85C28540
:10456000EF00D05BAA871397070141872398E19258
:10457000839741953E8793072003B307F7023E8553
:10458000EF005060996703A6877783A6C7773D261B
:10459000AA872E883E85C285996703A6077883A6D9
:1045A0004778EF00B00CAA872E883E85C2859967B0
:1045B00003A6877883A6C7781126AA872E883E850A
:1045C000C285EF00B055AA87139707014187239A48
:1045D000E194839741933E8793072003B307F70243
:1045E0003E85EF00305A996703A6877783A6C77781
:1045F000F124AA872E883E85C285996703A607788D
:1046000083A64778EF009006AA872E883E85C2854C
:10461000996703A6877883A6C7784D24AA872E8832
:104620003E85C285EF00904FAA8713970701418707
:10463000239AE1920100B24022444101828041115B
:1046400006C622C400080128D1288D220100B240EC
:10465000224441018280011106CE22CC0010232683
:1046600004FEA30504FEEFF0BFCB930704FE3E85D6
:10467000EFF09FC0AA87A305F4FE8347B4FEC1C72D
:10468000832704FE99E7832744FE81E78547232695
:10469000F4FE032704FE85476318F700832744FED2
:1046A00081E789472326F4FE032704FE894763191F
:1046B000F700832744FE89E78D472326F4FEA1A057
:1046C000032704FE8D476319F700832744FE89E71B
:1046D00091472326F4FE05A8032704FE914763199A
:1046E000F700832744FE89E795472326F4FE21A897
:1046F000032704FE95476318F700832744FE81E7EC
:1047000099472326F4FE0327C4FE23A0E1848327D0
:10471000C4FE3E85F240624405618280411106C6B6
:1047200022C4000803A701849547631CF70083C7D0
:10473000E18393B7170093F7F70F3E87238FE1824A
:104740008DA003A701848D476315F7020145EFE0B3
:104750008F9483A7418489E7094723A2E18439A084
:1047600083A741841387F7FF23A2E184238F01826B
:104770000DA803A7018491476315F7020145EFE0F7
:104780008F9103A7418489476315F70023A2018411
:1047900039A083A741841387170023A2E184238FC4
:1047A00001820100B240224441018280411106C6CB
:1047B00022C4000883A7418405476389E70089C7AD
:1047C00009476387E70039A0292839A0692829A06B
:1047D000C12819A0392001000100B2402244410142
:1047E0008280411106C622C400080546854513058E
:1047F0006004EFE00F9E03A7018499476316F7005A
:104800002545EFE04FC681A003A701848947631DBA
:10481000F700B707002083A7C7081387F7FFB7077C
:10482000002023A6E70805A003A701848547631C91
:10483000F700B707002083A7C70813871700B7073B
:10484000002023A6E708B707002083A7C708C207F0
:10485000C1873E868D450545EFE0AF970100B24028
:10486000224441018280411106C622C40008839778
:1048700021873E8685450545EFE0AF958397018604
:104880003E8689450545EFE0CF94094689451305E5
:104890008002EFE00F940100B24022444101828087
:1048A000411106C622C400080D4685450545EFE0C6
:1048B0004F920100B240224441018280397193D766
:1048C000450122DC4AD856D22A891394C50006DE57
:1048D00026DA4ED652D45AD05ECE13F5F77F318009
:1048E00093DAF501630B05109307F07F630BF51462
:1048F000135AD9010E0433648A00370A8000336AE0
:104900004401131B3900930415C00144814B13D893
:1049100046011399C6001378F87FB2881359C9006D
:1049200093D9F601630E08089307F07F6300F8043B
:104930001357D6010E0933692701130818C0B707AA
:1049400080003367F90093183600B3840441814531
:10495000BD4733C83A0163E4871A9727000093875D
:10496000670C0A043E9410403E9602863367C900E5
:1049700093841480631207101364240081488945CE
:10498000C1BF1306F07F81470147B207F25062545E
:104990005206B1837E08D18FB3E70701D254425942
:1049A000B259225A925A025BF24B3A85BE85216176
:1049B000828001481306F07FB70708000147F1B76E
:1049C0003367C9004DC7630709304A8532C4EF0019
:1049D00070222246130755FFF547930685FF998FEE
:1049E0003319D900B357F60033E72701B318D600BF
:1049F00026959304353F8145A1BF336A24016303A3
:104A00000A0636C632C46306042A2285EF00901EC9
:104A10002246B246AA84130755FF754A138B84FFBA
:104A2000330AEA4033146401335A4901336A8A0075
:104A3000331B69011305D0C0B30495400144814B79
:104A4000F9B5336A240163180A002144014B930429
:104A5000F07F894B6DBD228A4A8B31449304F07FED
:104A60008D4B75B51144014B8144854B4DB5136495
:104A7000140081488545E9BD136434004A878D459B
:104A8000C1BD6308052E8547898F9306800363DBCC
:104A9000F632014681470147CDBDCE868947638BFB
:104AA000F53A8D47E387F5F085473688E383F5FED1
:104AB0001385F43FE357A0FC93F77800639407282D
:104AC00093D638009317770063D80700B70700FF25
:104AD000FD177D8F138504409307E07FE3C3A7EAAA
:104AE0001316D70193179700B1833367D600137657
:104AF000F57F61BDD6865287DA88DE8545B7636F5C
:104B00004721630BEA20DA86FD145284014B931788
:104B1000870013D388013363F300935E0301B35717
:104B2000D403131F0301135F0F0193D50601139ED6
:104B300088003374D4033307FF024204C18D63FB42
:104B4000E5009A951386F7FF63EC652663FAE52680
:104B5000F9179A95998D33D7D503C206C182B3F55B
:104B6000D5033306EF02C205D58D63FBC5009A95C8
:104B70009306F7FF63E4652463F2C52479179A95D9
:104B8000C20741645D8F9307F4FF3375F7009358B4
:104B90000701935F0E01B377FE00B302F502B386FF
:104BA000C540B383F80293D502013386AF021E9647
:104BB0002E963385F803637376002295C168FD183D
:104BC00093550601337616014206B3F81201AA95F1
:104BD000469663E4B6126380B6123306CB408D8EE0
:104BE000333BCB00338B66411385F43F630A631775
:104BF000B358DB0393550601337BDB03B3061F0376
:104C0000420B33EB6501637BDB001A9B9385F8FF56
:104C1000636B6B206379DB20F9181A9B330BDB4045
:104C2000B356DB0342064182337BDB03330FDF02E3
:104C3000420B33666601637BE6011A969385F6FFA5
:104C40006365661E6373E61FF9161A96C208B3E819
:104C5000D8009395080193D20801C181B38EF50263
:104C60003306E641B385BF0293D60E01B387F20245
:104C7000BE95AE96B38F5F0263F4F600C167BE9F28
:104C8000C165FD1593D70601ED8EC206B3FEBE00C9
:104C9000BE9FF696637DF6091A969387F8FF6367C1
:104CA000661A6366F619630DF61BBE8893E8180052
:104CB00011B54A85812713075501F1459304050273
:104CC0002246B246E3DBE5D4130485FF331A89009C
:104CD000014B8DB3328532C4312F13075501F14694
:104CE000AA87224613050502E3D8E6CEE11733175B
:104CF000F6008148F5B9E372CBEE729B3335CB01F8
:104D00001A95AA961305F7FF6378D30263E6B610E7
:104D10006382D5102A87D1B5E3671BDF93551B004B
:104D20009316FA0113541A00CD8E7E0BCDB3E31FF8
:104D3000F6F7E38106D88DB7E31ED3FCE378CBFD0D
:104D40002A8761BD93F7F8009146E38BD7D693B7D6
:104D5000C8FF9386480093C717008D823E979DB386
:104D600081468547E34CA0FEFD58E31E05D0930421
:104D700010C085471385E441B316A70033D6F80069
:104D80003395A800D18E3335A000C98E13F6760076
:104D90003357F70001CE93F7F60011466388C7003A
:104DA00093874600B3B6D7003697BE869317870021
:104DB00063D80704054681470147C1BE3687C9B39A
:104DC000B28749BBFD46E3D7F6FA0556098E93062E
:104DD00000023356C7006388D7009387E443B317B4
:104DE000F700B3E8F800B3361001D18E13F6760061
:104DF000814701CE93F7F60011460147E392C7FAC7
:104E0000931797001316D701B18313D73600518F2C
:104E10000146A5BEE370CBF0729B3335CB011A95EA
:104E20007917AA965DBBAE88D5BBAE8605B593173C
:104E30001E0033BEC70172931A96F9183E8EE3170F
:104E4000F6E7E309DEC693E81800ADB1BE88E30AD1
:104E5000F6FFA9BD36881306F07F8147014735B6B6
:104E6000E367DEFCBE88E310DEFEA9B139714AD8E3
:104E700013D945014ED652D456D29399C50006DEB9
:104E800022DC26DA5AD05ECE1379F97F2A8A93D9AA
:104E9000C90093DAF501630D090E9307F07F6304EF
:104EA000F9181354D5018E09B36934013704800011
:104EB00033E4890093143500130919C08149814BEB
:104EC00013D74601139AC6001377F77FB285135A9A
:104ED000CA0013DBF601630A07109307F07F630330
:104EE000F7049357D6010E0A33EA4701130717C098
:104EF000B7078000B367FA00931536003A998148E6
:104F000033C76A01BD463A851308190063E63617B0
:104F100017260000130606B58A09B29983A6090070
:104F2000B2968286B367CA001309F97F63970712A6
:104F300093E9290081458948E1B701479307F07F4C
:104F40003704080081443204D20731807E075D8C2B
:104F5000598CA285F250625426854259D254B259D6
:104F6000225A925A025BF24B216182805A853E841A
:104F7000AE84C68B8947638BFB0E8D47E38FFBFAAC
:104F800085472A87639AFB3881470144814465BF7E
:104F900033E4A90055CC36C632C46389092A4E854C
:104FA00091292246B246AA87130755FF7544938478
:104FB00087FF198CB399990033548A003364340104
:104FC000B3149A0013D746011309D0C0139AC60030
:104FD0001377F77F3309F9408149814BB285135A22
:104FE000CA0013DBF601E31A07EEB367CA00A9C7CC
:104FF000630E0A22528532C4F52E22462A87930672
:1050000055FFF547930587FF958F331ABA00B357BD
:10501000F600B3E74701B315B6003309E9401309B9
:10502000D9C08148F1BD33E4A90001ECA149814414
:105030001309F07F894B69B593E9190081458548CB
:10504000C1B54E84AA84B1491309F07F8D4B8DBD43
:10505000914981440149854BA5B593E93900D2872F
:105060008D4879BD89475685E399FBF02A879307D8
:10507000F07F01448144C1BDC16E1386FEFF93D60B
:10508000040113DE0501F18CF18D33869502338323
:10509000B6029358060133059E021A95AA98B38268
:1050A000C60363F36800F692C16F1383FFFF33F505
:1050B000670093D30701B3F76800C2073373660034
:1050C0003E933306950293D80801B387A602135F77
:1050D0000601B3849302BE94FA94B38E760263F30E
:1050E000F400FE9E416A9307FAFF935F0401B376D2
:1050F000F400B3F9F4007D8EC1803384D502C20977
:10510000338FD401B299CE98B307DE02935E0401C7
:10511000B385BF02AE97BE9E330EFE0363F3BE009F
:10512000529EC1679385F7FF33F6BE006D8C420631
:10513000229693DE0E01B305D502769E3385AF022B
:1051400013D40501B386D302AA96A296B38FF303B4
:1051500063F3A600BE9F41657D15B3F7A600C207A5
:105160006D8DAA97B3855800B3B93501FA97B295FA
:105170003384370133B6C500B30EC4013385CE0086
:1051800033343401B3B7E701C18F33BECE0113D43A
:1051900006013336C5003E943366CE0093949500E5
:1051A00032947E94B3E46400260493567501B334BC
:1051B0009000DD8193179500CD8C558CDD8C931775
:1051C000740063DB070093D7140085889316F401FD
:1051D000DD8CD58C058042899307F93F6357F00831
:1051E00093F6740081CE93F6F40011466388C600EE
:1051F00093864400B3B496002694B6849316740044
:1052000063D80600B70700FFFD177D8C93070940A0
:105210009306E07F63CDF60E93D634009314D40149
:105220002604D58C318093F7F77F31BB328532C4A9
:10523000D12293065501F147130705022246E3D216
:10524000D7DC6115B317A6008145C1BB65221307E2
:105250005501F145930705022246B246E3D8E5D44D
:1052600061153314AA008144B1BB85469D8EB1E718
:105270001309E941B3972401B3D4D40033192401AD
:10528000B337F000B3649900DD8C93F77400B35624
:10529000D40081CF93F7F40011466388C700938749
:1052A0004400B3B49700A696BE849397860063D853
:1052B000070485470144814479B113068003E3451F
:1052C000D6CC7D46E356D6FA0556B307F64093058D
:1052D00000023356F4006387B6001309E943B3179D
:1052E0002401DD8CB3349000D18C93F6740001441A
:1052F00099CA93F7F40011468146E392C7FA1394D2
:1053000096003180F6068D80D58C81472DB99307A4
:10531000F07F0144814405B942897DBD93D74501A1
:10532000B70610001387F6FF93F7F77F1306E03FE9
:105330006D8FFD81635CF6001306D041635AF60061
:10534000370500801345F5FF2E9582800145828048
:10535000130630431D8E7D48558F635DC80093064C
:105360003041B387F640B357F7003305F040E5F11D
:105370003E8582809387D7BEB317F7003355C500AB
:10538000C98FE5B7411106C622C426C205CD935781
:10539000F541B3C4A7009D8C2A842685A1289306D5
:1053A000E041898EA9477D8093F6F67F63CDA70201
:1053B0002D47098FB3D7E4005505B207B394A40075
:1053C000B18329A00144814681478144B207D206B6
:1053D000B1837E04D58FC18FB24022442685BE851D
:1053E0009244410182805515B397A400B207B1835E
:1053F0008144E9BFC167637EF5029307F00F13078D
:10540000000263ECA700971700009387A769AA978B
:1054100003C507003305A74082802181971700004C
:1054200093874768AA9703C5070061473305A740DC
:105430008280B7070001636EF50061819717000055
:1054400093874766AA9703C5070021473305A740FE
:1054500082804181971700009387C764AA9703C58C
:10546000070041473305A7408280938781809C4392
:105470004111328806C6AA882E87C84736869717F4
:10548000000093872772631708009717000093871F
:1054900027723E88C686971500009385A57119204E
:1054A000EF00300B397132D436D63EDA3AD842DCCE
:1054B00046DE938781802E86AA858843341006CEE7
:1054C00036C69528F240216182801C46FD171CC615
:1054D00063D90700184E63C5E700A9476393F50039
:1054E0005DA51C422E851387170018C22380B700C4
:1054F0008280011122CC26CA4AC84EC652C406CEAA
:105500002A89AE893284B304D6007D5A631494008C
:10551000014511A8834504004E864A85EFF0FFFA45
:105520000504E31545FFF2406244D2444249B249C2
:10553000224A05618280357122CD26CB4AC94EC7E9
:1055400006CF52C556C35AC1DEDEE2DCE6DAAA89CE
:10555000AE843289368409C51C4D99E3EF001026CC
:10556000971700009387C76D639DF40C83A44900CF
:1055700083D7C400A18BE5CB9C48F5C793070002F5
:10558000A304F1029307000302D22305F10222C60D
:10559000930B5002971A0000938ACA64054C294B5A
:1055A0004A848347040099C36391770FB30C244165
:1055B000638E0C00E6864A86A6854E85EFF07FF363
:1055C000FD576308F51E9256E69636D283470400CF
:1055D0006381071EFD571309140002C802CE3ECA9C
:1055E00002CCA309010482D48345090015465685DF
:1055F000EF00B04313041900C24751E913F7070144
:1056000009C713070002A309E10413F7870009C7BC
:105610001307B002A309E104834609001307A0029F
:10562000638FE606F2474A84814625460347040015
:1056300093051400130707FD6378E60AADCA3ECE52
:10564000BDA0971700009387A7616395F40083A41A
:10565000890039BF971700009387875CE39AF4F0BD
:1056600083A4C90031B7A6854E85F12B01D97D559C
:10567000FA406A44DA444A49BA492A4A9A4A0A4BE1
:10568000F65B665CD65C0D618280050419BF33054C
:1056900055413315AC00C98F3EC82289B1B7324796
:1056A00093064700184336C6634907023ACE0347BC
:1056B00004009307E002631FF704034714009307F5
:1056C000A002631BF702B2470904138747009C43FB
:1056D0003AC663C107023ECA35A83307E04093E7E4
:1056E00027003ACE3EC8E1B7B387670385462E84CC
:1056F000BA972DBFFD57C5B7050402CA8146814739
:1057000025460347040093051400130707FD63783B
:10571000E606F1F2834504000D4617150000130557
:10572000E54CEF00903011CD971700009387074CA0
:105730001D8D93070004B397A700424505045D8DB6
:105740002AC8834504001946171500001305454A69
:10575000130914002304B102EF00302D3DC197B7A7
:10576000FFFF9387278A95E74247B24713770710D1
:1057700009CF91073EC69257D2973ED215B5B3874F
:10578000670385462E84BA97ADBF9D07E19BA107AD
:10579000D5B77800970600009386E6D526860C08D4
:1057A0004E8597000000E7000000FD572A8AE314A9
:1057B000F5FC83D7C40093F70704E39A07EA125570
:1057C00045BD7800970600009386E6D226860C0831
:1057D0004E85012AD9BF797156CA9C49BA8A984523
:1057E00022D426D24ECE52CC06D64AD05AC85EC655
:1057F000AA892E84B284368A63D3E700BA879CC014
:105800000347340419C385079CC01C4093F7070263
:1058100081C79C4089079CC0032904001379690053
:10582000631A0900130B9401FD5B5C449840998F47
:10583000634CF9041C408346340493F70702B336E3
:10584000D000A5EB13063404D2854E85829AFD570D
:105850006303F5041C4011469840998B54448144DD
:105860006397C700B384E64063D3040081441C44BB
:1058700018486354F700998FBE94014969047D5B11
:1058800063982405014509A885465A86D2854E8528
:10589000829A631E75017D55B2502254925402596A
:1058A000F249624AD24A424BB24B456182800509B5
:1058B000ADBF3307D40013060003A301C704034799
:1058C000540493871600A2978906A381E7049DBF1D
:1058D00085462286D2854E85829AE30E65FB0509B0
:1058E00045B7797122D426D24AD04ECE06D652CCB4
:1058F00056CA5AC8B68983C685019307E00632891D
:10590000AA842E84138635046381F61E63E2D706CB
:10591000930730066382F60A63EDD700638B061E99
:10592000930780056387F616930A24042301D404A1
:1059300069A8930740066386F60093079006E395EF
:10594000F6FE1C40084393F6070893054500C1C2C4
:105950001C410CC363D807001307D002B307F04003
:10596000A301E4049716000093860629294765A041
:10597000930730076383F61A63EFD7009307F006A7
:10598000638FF60493070007E390F6FA9C4193E7D0
:1059900007029CC109A8930750076382F604930786
:1059A0008007E393F6F893078007A302F4049716A1
:1059B00000009386A625E5A01C43938A25049386C0
:1059C00047009C4314C32381F5048547B5A293F691
:1059D00007041C410CC3BDDEC207C187A5BF0C4034
:1059E0001C4313F80508138547006305080008C326
:1059F0009C4339A093F5050408C3FDD983D707005C
:105A00001307F006638BE60C971600009386C61EFC
:105A10002947A30104044C400CC463C50500084099
:105A20006D9908C099E3B28A91CDB28AB3F5E702C5
:105A3000FD1AB69583C505002380BA00B3D5E702E9
:105A400063F3E70AA147631EF7001C40858B91CBE7
:105A500058401C4863C7E70093070003A38FFAFE72
:105A6000FD1A3306564110C84E87CA867000A285BB
:105A70002685EFF05FD67D5A6314450D7D55B250F3
:105A8000225492540259F249624AD24A424B456129
:105A90008280A382D504971600009386E6150C40F9
:105AA000084313F805081C4111056300080208C3E8
:105AB00013F7150001C793E505020CC04147B1FB80
:105AC0000C4093F5F5FD0CC0A9B713F8050408C305
:105AD000E30008FEC207C183E1BF9716000093866A
