:100000006F00E02813000000130000001300000040
:100010001300000013000000130000001300000094
:100020001300000013000000130000001300000084
:08003000130000007300100032
:100038006FF09FFC000000006FF01FFC6FF0DFFB0B
:1000480000000000000000000000000000000000A8
:100058000000000000000000000000000000000098
:100068006FF09FF9000000006FF01FF9000000001A
:100078006FF09FF86FF05FF86FF01FF86FF0DFF721
:100088006FF09FF76FF05FF76F3040586FF0DFF653
:100098006FF09FF66FF05FF66FF01FF66FF0DFF509
:1000A8006FF09FF56FF05FF56FF01FF56FF0DFF4FD
:1000B8006FF09FF46FF05FF46FF01FF40000000022
:1000C8000000000000000000000000006FF0DFF2F8
:1000D8006FF09FF26FF05FF26FF01FF26FF0DFF1D9
:1000E8006FF09FF16F00C00F6FF01FF16FF0DFF03E
:1000F8006FF09FF06FF05FF06FF01FF06FF0DFEFC1
:100108006FF09FEF6FF05FEF6F00C0116FF0DFEEE1
:100118006FF09FEE6FF05FEE6FF01FEE6FF0DFEDA8
:1001280000000000000000000000000000000000C7
:080138000000000000000000BF
:100140003D432A876373C3029377F700BDEFADE5A4
:10015000937606FF3D8ABA960CC34CC30CC74CC7B6
:100160004107E36BD7FE11E28280B306C3408A06E3
:100170009702000096966780A6002307B700A306A3
:10018000B7002306B700A305B7002305B700A304F3
:10019000B7002304B700A303B7002303B700A302EB
:1001A000B7002302B700A301B7002301B700A300E3
:1001B000B7002300B700828093F5F50F9396850072
:1001C000D58D93960501D58D61B79396270097023B
:1001D000000096968682E78086FA9680C1171D8F6A
:1001E0003E96E374C3F8A5B7411122C600088545C1
:1001F000B707004013850740EF102076AA8795C304
:100200008545B707004013850740EF10007CB7070E
:10021000002083A7C70813871700B707002023A66D
:10022000E70801003244410173002030011122CE61
:10023000001093055052B747004013850740EF1058
:10024000D03AAA879DC793055052B74700401385FF
:100250000740EF10B049B747004013850740EF1043
:100260001032AA87A307F4FE8347F4FE3E85EF30E1
:10027000603E01007244056173002030411106C6E2
:1002800022C40008EF302052EF306063F5BF9701C1
:1002900000209381A15F175100201301A1D61755AB
:1002A00000001305A521970500209385A5D5138689
:1002B000018163FAC5008322050023A055001105C2
:1002C0009105E3EAC5FE138501819385019063776B
:1002D000B500232005001105E36DB5FE93028008EB
:1002E00073A0023097020000938242D593E212007D
:1002F00073905230EF30C02897020000938242F88A
:100300007390123473002030797122D60018232E96
:10031000A4FC232604FEB707014093870740232649
:10032000F4FE8327C4FDDC4763800712B707014052
:100330009387074094438327C4FD9C4313C7F7FF6B
:10034000B707014093870740758F98C3B7070140EF
:1003500093870740D4438327C4FD9C4313C7F7FF0B
:10036000B707014093870740758FD8C38327C4FD23
:10037000DC430327C4FEBA972326F4FE8327C4FE7A
:1003800094438327C4FD98438327C4FE558F98C3A5
:10039000B70701409387074094478327C4FD9C43D8
:1003A00013C7F7FFB707014093870740758F98C7BA
:1003B000B707014093870740D4478327C4FD9C4378
:1003C00013C7F7FFB707014093870740758FD8C75A
:1003D0008327C4FD9847C147631FF702B707014051
:1003E0009387074094478327C4FD9843B70701408C
:1003F00093870740558F98C7B707014093870740F9
:10040000D4478327C4FD9843B7070140938707402B
:10041000558FD8C7B1A8B707014093870740232657
:10042000F4FE8327C4FD9C470327C4FEBA97232606
:10043000F4FE8327C4FE94438327C4FD9843832797
:10044000C4FE558F98C32DA08327C4FDDC4303272A
:10045000C4FEBA972326F4FE8327C4FE9443832761
:10046000C4FD9C4313C7F7FF8327C4FE758F98C351
:100470000100325445618280797122D60018232E02
:10048000A4FC232604FE232404FEB707014093871F
:1004900007409C430327C4FDF98F2324F4FEB707CC
:1004A000014093870740D84B8327C4FDF98F81CB48
:1004B000832784FE89C785472326F4FE19A02326B7
:1004C00004FE8327C4FE3E853254456182800111BB
:1004D00022CE00102326A4FEB707014093870740D1
:1004E0000327C4FED8CB01007244056182803971B4
:1004F00022DE80002326A4FC2324B4FC232604FE51
:10050000232004FE232404FE232E04FC232204FEC5
:10051000232C04FC832784FC9C47BD8B2326F4FEFC
:10052000832784FC9C47C18B89CB832784FCDC43D5
:100530000327C4FED98F2326F4FE832784FC83D7A8
:10054000070093F7F70FF1CF8327C4FC9C432322C6
:10055000F4FE232404FE65A8832784FE0547B31711
:10056000F700232EF4FC832784FC83D707003E8703
:100570008327C4FDF98F2320F4FE032704FE83277D
:10058000C4FD6311F708832784FE8A07232EF4FC39
:100590008327C4FD3D47B317F700232CF4FC8327C2
:1005A00084FD93C7F7FF032744FEF98F2322F4FE4F
:1005B0008327C4FD0327C4FEB317F700032744FEB7
:1005C000D98F2322F4FE832784FC98479307800267
:1005D000631BF700832784FE05473317F700832743
:1005E000C4FCD8CB05A0832784FC984793078004DC
:1005F000631AF700832784FE05473317F700832724
:10060000C4FC98CB832784FE85072324F4FE0327AC
:1006100084FE9D47E3F2E7F48327C4FC032744FEEE
:1006200098C3832784FC03D707009307F00F63F177
:10063000E70E8327C4FCDC432322F4FE232404FEBC
:1006400075A8832784FEA1070547B317F700232E5B
:10065000F4FC832784FC83D707003E878327C4FDEF
:10066000F98F2320F4FE032704FE8327C4FD6312C1
:10067000F708832784FE8A07232EF4FC8327C4FD12
:100680003D47B317F700232CF4FC832784FD93C761
:10069000F7FF032744FEF98F2322F4FE8327C4FDCE
:1006A0000327C4FEB317F700032744FED98F232284
:1006B000F4FE832784FC984793078002631BF700AE
:1006C000832784FEA10705473317F7008327C4FC5F
:1006D000D8CB832784FC984793078004631BF700DB
:1006E000832784FEA10705473317F7008327C4FC3F
:1006F00098CB832784FE85072324F4FE032784FEFA
:100700009D47E3F0E7F48327C4FC032744FED8C3E6
:100710000100725421618280011122CE0010232633
:10072000A4FEAE872322C4FE2315F4FE832744FED5
:1007300099C70357A4FE8327C4FE98CB31A0035763
:10074000A4FE8327C4FED8CB0100724405618280D9
:10075000797122D60018232EA4FC232CB4FC232468
:1007600004FE232204FE232604FE232004FE832706
:10077000C4FD63D80700B7070140DC4F2326F4FE11
:1007800031A0B7070140DC432326F4FE8327C4FDD4
:10079000C183BD8B2320F4FE0327C4FDC167FD1771
:1007A000F98F2324F4FE0327C4FDB70730007D8FA3
:1007B000B70730006315F7020327C4FEB70700F13F
:1007C000FD17F98F2326F4FEB7070140D443B7077E
:1007D0000140370700F17D17758FD8C3ADA00327FF
:1007E000C4FDB7071000F98F8DCB832704FE0D479A
:1007F000B317F7002322F4FE832744FE93C7F7FFC5
:100800000327C4FEF98F2326F4FE0327C4FEB7078F
:10081000000FD98F2326F4FE3DA08327C4FDD58386
:100820009207032784FEB317F70093C7F7FF032748
:10083000C4FEF98F2326F4FE0327C4FEB707000F7A
:10084000D98F2326F4FE832784FD91CF8327C4FD0F
:10085000D5839207032784FEB317F7000327C4FE4E
:10086000D98F2326F4FE8327C4FD63D80700B7077A
:1008700001400327C4FED8CF31A0B70701400327AA
:10088000C4FED8C30100325445618280797122D6FA
:100890000018AA872E87A30FF4FCBA87230FF4FC55
:1008A000232604FE8347E4FD8D8B8A073D47B3175B
:1008B000F7002326F4FE370701408347E4FD8983D0
:1008C00093F7F70F8A07BA9798478327C4FE93C711
:1008D000F7FFB70601400346E4FD09821376F60FE1
:1008E0007D8F93172600B69798C737070140834737
:1008F000E4FD898393F7F70F8A07BA9798478346F1
:10090000F4FD8347E4FD8D8B8A07B397F600B706A5
:1009100001400346E4FD09821376F60F5D8F9317BD
:100920002600B69798C701003254456182800111B4
:1009300022CE00102326A4FE8327C4FEFD8B05478C
:10094000B316F70037E700E08327C4FE958393874B
:1009500007048A07BA9794C3010072440561828034
:10096000011122CE00102326A4FE8327C4FEFD8B96
:100970000547B316F70037E700E08327C4FE9583E9
:10098000938707068A07BA9794C3010072440561EA
:100990008280011122CE00102326A4FEAE87A3057B
:1009A000F4FE37E700E08327C4FEBA970347B4FE9E
:1009B0002380E7400100724405618280797106D688
:1009C00022D40018232EA4FCA30704FE83A70181D0
:1009D0008DE38327C4FD83C707003E878327C4FDBB
:1009E00083C72700920793F7F70FBE853A855537DF
:1009F000D9A203A701818547631FF7048327C4FD9C
:100A000003C7170085476318F7028327C4FD83C710
:100A100007003E878327C4FD83C727009207E207AC
:100A2000E18793E707F8E207E18793F7F70FBE85C1
:100A30003A85853749A28327C4FD83C707003E87CF
:100A40008327C4FD83C72700920793F7F70FBE855E
:100A50003A8581378DA203A701818947631BF70877
:100A60008327C4FD03C71700854763EEE70283278A
:100A7000C4FD03C727008327C4FD83C717008A0767
:100A800093F7F70FBA97A307F4FE8327C4FD83C734
:100A900007003E878347F4FE920793F7F70FBE8562
:100AA0003A85C53D09AA8327C4FD03C727008327CC
:100AB000C4FD83C717009387E70393F7F70F8A07EF
:100AC00093F7F70FBA97A307F4FE8327C4FD83C7F4
:100AD00007003E878347F4FE9207E207E18793E72A
:100AE00007F8E207E18793F7F70FBE853A8555359A
:100AF000D9A003A701818D47631BF7088327C4FD95
:100B000003C717008D4763EEE7028327C4FD03C7C1
:100B100027008327C4FD83C71700860793F7F70FC5
:100B2000BA97A307F4FE8327C4FD83C707003E8757
:100B30008347F4FE920793F7F70FBE853A85913D00
:100B40009DA88327C4FD03C727008327C4FD83C74F
:100B500017009387C70793F7F70F860793F7F70FE9
:100B6000BA97A307F4FE8327C4FD83C707003E8717
:100B70008347F4FE9207E207E18793E707F8E2076D
:100B8000E18793F7F70FBE853A8521352DA003A79E
:100B9000018191476311F7028327C4FD83C70700D2
:100BA0003E878327C4FD83C71700920793F7F70F8B
:100BB000BE853A85F93B8327C4FDDC4381CB83277F
:100BC000C4FD83C707003E859D3339A08327C4FD3C
:100BD00083C707003E8569330100B2502254456146
:100BE0008280797122D60018232EA4FC232604FECD
:100BF000232404FE232204FE232004FEB717024010
:100C0000DC43B18B2326F4FE0327C4FE9147630225
:100C1000F7020327C4FEA1476305F7028327C4FE3A
:100C2000C5E78327C4FD37177A001307072098C349
:100C300065A08327C4FD37177A001307072098C3E0
:100C400061A8B7170240D843B7073C00F98F2324A7
:100C5000F4FEB7170240D843C167F98F2322F4FE90
:100C6000832784FEC98389072324F4FE832744FE57
:100C700089EF032784FEB7173D009387079033075A
:100C8000F7028327C4FD98C381A8B7170240D84351
:100C9000B7070200F98F89CF032784FEB7173D00FD
:100CA000938707903307F7028327C4FD98C32DA0CD
:100CB000032784FEB7177A00938707203307F702CC
:100CC0008327C4FD98C309A88327C4FD37177A007A
:100CD0001307072098C30100B7170240DC4393F7BE
:100CE000070F2326F4FE8327C4FE91832326F4FEF8
:100CF000B7070020138707008327C4FEBA9783C76E
:100D0000070093F7F70F2320F4FE8327C4FD9843D1
:100D1000832704FE3357F7008327C4FDD8C3B717D2
:100D20000240DC4393F707702326F4FE8327C4FEBA
:100D3000A1832326F4FEB70700201387070083272B
:100D4000C4FEBA9783C7070093F7F70F2320F4FE7A
:100D50008327C4FDD843832704FE3357F700832736
:100D6000C4FD98C7B7170240D8439167938707809F
:100D7000F98F2326F4FE8327C4FEAD832326F4FED9
:100D8000B7070020138707008327C4FEBA9783C7DD
:100D9000070093F7F70F2320F4FE8327C4FDD84301
:100DA000832704FE3357F7008327C4FDD8C7B7173E
:100DB0000240D843B167F98F2326F4FE8327C4FE8F
:100DC000B9832326F4FEB7070020138787088327FB
:100DD000C4FEBA9783C7070093F7F70F2320F4FEEA
:100DE0008327C4FDD847832704FE3357F7028327A0
:100DF000C4FD98CB0100325445618280011122CE9E
:100E000000102326A4FE2324B4FE832784FE99CB5E
:100E1000B7170240944FB71702400327C4FE558FFF
:100E200098CF21A8B7170240944F8327C4FE13C759
:100E3000F7FFB7170240758F98CF01007244056124
:100E40008280011122CE00102326A4FE2324B4FEAA
:100E5000832784FE99CBB7170240D44FB7170240BF
:100E60000327C4FE558FD8CF21A8B7170240D44F0F
:100E70008327C4FE13C7F7FFB7170240758FD8CF7B
:100E80000100724405618280797122D60018232EF8
:100E9000A4FC232CB4FC231704FE8327C4FD83D7B2
:100EA00007002317F4FE0327C4FDB73701409387DB
:100EB00007C06308F7020327C4FDB70700406302B9
:100EC000F7020327C4FDB707004093870740630A72
:100ED000F7000327C4FDB71700409387078063110D
:100EE000F7028357E4FE93F7F7F82317F4FE8327FE
:100EF00084FD03D727008357E4FED98F2317F4FE20
:100F00008357E4FE93F7F7CF2317F4FE832784FD7E
:100F100003D767008357E4FED98F2317F4FE832796
:100F2000C4FD0357E4FE2390E700832784FD03D725
:100F300047008327C4FD2396E702832784FD03D758
:100F400007008327C4FD2394E7020327C4FDB737B6
:100F50000140938707C0631DF700832784FD83C783
:100F600087001397070141838327C4FD2398E70275
:100F70008327C4FD0547239AE700010032544561E9
:100F80008280797122D60018232EA4FC232CB4FC75
:100F9000231504FE231704FE231604FE8327C4FD35
:100FA00083D70702C207C183F99B139707014183C7
:100FB0008327C4FD2390E7028327C4FD83D707025C
:100FC0002317F4FE8327C4FD83D747002316F4FEBE
:100FD0008327C4FD83D787012315F4FE8357A4FE1E
:100FE00093F7F7F82315F4FE8357A4FEF19B23151E
:100FF000F4FE832784FD03D707008357A4FED98F0F
:101000002315F4FE8357E4FEF59B2317F4FE832794
:1010100084FD03D787008357E4FED98F2317F4FE9E
:10102000832784FD03D727008357E4FED98F231736
:10103000F4FE0327C4FDB7370140938707C0631C44
:10104000F7068357E4FEDD9B2317F4FE832784FD18
:1010500003D7A7008357E4FED98F2317F4FE8357E5
:10106000E4FEED9B2317F4FE832784FD03D747009E
:101070008357E4FED98F2317F4FE8357C4FE93F7FA
:10108000F7EF2316F4FE8357C4FE93F7F7DF23161A
:10109000F4FE832784FD03D7C7008357C4FED98F8E
:1010A0002316F4FE832784FD03D7E7008357C4FE8D
:1010B000D98F2316F4FE8327C4FD0357C4FE239261
:1010C000E7008327C4FD0357A4FE239CE700832782
:1010D00084FD03D767008327C4FD239AE702832793
:1010E000C4FD0357E4FE2390E7020100325445613A
:1010F0008280797122D60018232EA4FC232CB4FC04
:10110000231504FE231704FE231604FE8327C4FDC3
:1011100083D70702C207C183BD9B13970701418391
:101120008327C4FD2390E7028327C4FD83D70702EA
:101130002317F4FE8327C4FD83D747002316F4FE4C
:101140008327C4FD83D787012315F4FE0357A4FE2C
:10115000E577FD17F98F2315F4FE8357A4FE93F767
:10116000F7CF2315F4FE832784FD83D70700A2075A
:101170001397070141838357A4FED98F2315F4FEEB
:101180008357E4FE93F7F7FD2317F4FE832784FDCE
:1011900083D7870092071397070141838357E4FEA3
:1011A000D98F2317F4FE832784FD83D72700920766
:1011B0001397070141838357E4FED98F2317F4FE69
:1011C0000327C4FDB7370140938707C06310F70AB0
:1011D0008357E4FE93F7F7F72317F4FE832784FD84
:1011E00083D7A70092071397070141838357E4FE33
:1011F000D98F2317F4FE8357E4FE93F7F7FB2317E9
:10120000F4FE832784FD83D74700920713970701D5
:1012100041838357E4FED98F2317F4FE8357C4FE1E
:1012200093F7F7BF2316F4FE0357C4FEFD779387A9
:10123000F77FF98F2316F4FE832784FD83D7C70039
:101240008A071397070141838357C4FED98F23165A
:10125000F4FE832784FD83D7E7008A0713970701ED
:1012600041838357C4FED98F2316F4FE8327C4FD20
:101270000357C4FE2392E7008327C4FD0357A4FE4F
:10128000239CE700832784FD03D767008327C4FDE1
:10129000239CE7028327C4FD0357E4FE2390E70263
:1012A0000100325445618280797122D60018232EC4
:1012B000A4FC232CB4FC231504FE231704FE2316E0
:1012C00004FE8327C4FD83D70702C207C18393F7B7
:1012D000F7EF1397070141838327C4FD2390E702AB
:1012E0008327C4FD83D707022317F4FE8327C4FD99
:1012F00083D747002316F4FE8327C4FD83D7C70195
:101300002315F4FE8357A4FE93F7F7F82315F4FE94
:101310008357A4FEF19B2315F4FE832784FD03D796
:1013200007008357A4FED98F2315F4FE8357E4FEEC
:1013300093F7F7DF2317F4FE832784FD83D7870015
:10134000A2071397070141838357E4FED98F231720
:10135000F4FE832784FD83D72700A2071397070194
:1013600041838357E4FED98F2317F4FE0327C4FD7E
:10137000B7370140938707C06312F70A0357E4FEAB
:10138000FD779387F77FF98F2317F4FE832784FD7A
:1013900083D7A700A2071397070141838357E4FE71
:1013A000D98F2317F4FE8357E4FE93F7F7BF231773
:1013B000F4FE832784FD83D74700A2071397070114
:1013C00041838357E4FED98F2317F4FE0357C4FEED
:1013D000FD77FD17F98F2316F4FE0357C4FEF97746
:1013E000FD17F98F2316F4FE832784FD83D7C700EA
:1013F00092071397070141838357C4FED98F2316A1
:10140000F4FE832784FD83D7E70092071397070133
:1014100041838357C4FED98F2316F4FE8327C4FD6E
:101420000357C4FE2392E7008327C4FD0357A4FE9D
:10143000239EE700832784FD03D767008327C4FD2D
:10144000239EE7028327C4FD0357E4FE2390E702AF
:101450000100325445618280797122D60018232E12
:10146000A4FC232CB4FC231604FE231504FE23172E
:1014700004FE8327C4FD83D7070213970701418326
:10148000FD77FD17F98F1397070141838327C4FD6B
:101490002390E7028327C4FD83D707022315F4FEB8
:1014A0008327C4FD83D747002317F4FE8327C4FD99
:1014B00083D7C7012316F4FE0357C4FEE577FD1753
:1014C000F98F2316F4FE8357C4FE93F7F7CF231644
:1014D000F4FE832784FD83D70700A2071397070133
:1014E00041838357C4FED98F2316F4FE0357A4FE0D
:1014F000F977FD17F98F2315F4FE832784FD83D731
:101500008700B2071397070141838357A4FED98F41
:101510002315F4FE832784FD83D72700B207139792
:10152000070141838357A4FED98F2315F4FE0327B7
:10153000C4FDB7370140938707C06316F70203570E
:10154000E4FEF177FD17F98F2317F4FE832784FD5E
:1015500083D7C7009A071397070141838357E4FE97
:10156000D98F2317F4FE8327C4FD0357E4FE23928B
:10157000E7008327C4FD0357C4FE239EE7008327AB
:1015800084FD03D767008327C4FD2390E7048327E6
:10159000C4FD0357A4FE2390E702010032544561C5
:1015A0008280011122CE00102326A4FE2324B4FE43
:1015B000832784FE8DC38327C4FE83D70700C20719
:1015C000C18393E717001397070141838327C4FE64
:1015D0002390E70039A88327C4FE83D70700C207FA
:1015E000C183F99B1397070141838327C4FE23908E
:1015F000E7000100724405618280011122CE0010D3
:101600002326A4FE2324B4FE832784FE95C38327C8
:10161000C4FE83D74704139707014183E177D98F2D
:101620001397070141838327C4FE2392E70415A083
:101630008327C4FE83D74704139707014183A1671B
:10164000FD17F98F1397070141838327C4FE239267
:10165000E7040100724405618280011122CE00106E
:101660002326A4FEAE872322C4FE2315F4FE83277F
:1016700044FE9DC38327C4FE83D7C7001397070189
:1016800041838357A4FED98F139707014183832792
:10169000C4FE2396E70035A08327C4FE83D7C70086
:1016A0001397070141838357A4FE93C7F7FFC2072F
:1016B000C183F98F1397070141838327C4FE2396C3
:1016C000E7000100724405618280797122D600181A
:1016D000232EA4FCAE87231DF4FC231704FE8327CE
:1016E000C4FD83D787012317F4FE8357E4FEDD9BF7
:1016F0002317F4FE0357E4FE8357A4FDD98F231765
:10170000F4FE8327C4FD0357E4FE239CE700010099
:10171000325445618280797122D60018232EA4FCB0
:10172000AE87231DF4FC231704FE8327C4FD83D753
:1017300087012317F4FE0357E4FEFD779387F77FB5
:10174000F98F2317F4FE8357A4FDA207139707010F
:1017500041838357E4FED98F2317F4FE8327C4FD0A
:101760000357E4FE239CE700010032544561828068
:10177000797122D60018232EA4FCAE87231DF4FC19
:10178000231704FE8327C4FD83D7C7012317F4FE64
:101790008357E4FEDD9B2317F4FE0357E4FE8357D3
:1017A000A4FDD98F2317F4FE8327C4FD0357E4FE5D
:1017B000239EE7000100325445618280797122D670
:1017C0000018232EA4FCAE87231DF4FC231704FE6F
:1017D0008327C4FD83D7C7012317F4FE0357E4FE14
:1017E000FD779387F77FF98F2317F4FE8357A4FDC6
:1017F000A2071397070141838357E4FED98F23176C
:10180000F4FE8327C4FD0357E4FE239EE700010096
:10181000325445618280797122D60018232EA4FCAF
:10182000AE87231DF4FC231704FE8327C4FD83D752
:1018300087012317F4FE8357E4FEED9B2317F4FE84
:101840000357E4FE8357A4FDD98F2317F4FE8327A3
:10185000C4FD0357E4FE239CE700010032544561B8
:101860008280797122D60018232EA4FCAE87231D16
:10187000F4FC231704FE8327C4FD83D787012317B5
:10188000F4FE8357E4FE93F7F7BF2317F4FE835764
:10189000A4FDA2071397070141838357E4FED98F64
:1018A0002317F4FE8327C4FD0357E4FE239CE700BF
:1018B0000100325445618280797122D60018232EAE
:1018C000A4FCAE87231DF4FC231704FE8327C4FD6C
:1018D00083D7C7012317F4FE8357E4FEED9B23173C
:1018E000F4FE0357E4FE8357A4FDD98F2317F4FEBB
:1018F0008327C4FD0357E4FE239EE7000100325412
:1019000045618280797122D60018232EA4FCAE870F
:10191000231DF4FC231704FE8327C4FD83D7C701CE
:101920002317F4FE8357E4FE93F7F7BF2317F4FE63
:101930008357A4FDA2071397070141838357E4FE51
:10194000D98F2317F4FE8327C4FD0357E4FE239E9B
:10195000E7000100325445618280797122D6001877
:10196000232EA4FCAE87231DF4FC232604FE23159E
:1019700004FE231404FE8327C4FD83D707011397B5
:10198000070141838357A4FDF98F2315F4FE8327B4
:10199000C4FD83D7C7001397070141838357A4FD74
:1019A000F98F2314F4FE8357A4FE81CB835784FE62
:1019B00089C785472326F4FE19A0232604FE832722
:1019C000C4FE3E85325445618280011122CE001052
:1019D0002326A4FEAE872315F4FE8357A4FE93C7E7
:1019E000F7FF1397070141838327C4FE2398E7007D
:1019F00001007244056182805D7186C6A2C48008C0
:101A0000232EA4FA232CB4FA232604FE232404FE56
:101A1000232204FE232004FE232E04FC8327C4FB80
:101A2000232EF4FC8327C4FB83D70701C207C1839D
:101A30002326F4FE0327C4FEB567FD17F98F23267E
:101A4000F4FE832784FB83D767003E878327C4FE89
:101A5000D98F2326F4FE8327C4FE13970701418301
:101A60008327C4FB2398E7008327C4FB83D7C700E1
:101A7000C207C1832326F4FE0327C4FEBD679387F4
:101A8000379FF98F2326F4FE832784FB03D7470073
:101A9000832784FB83D78700D98F1397070141835E
:101AA000832784FB83D7A700D98FC207C1833E87D2
:101AB0008327C4FED98F2326F4FE8327C4FE139701
:101AC000070141838327C4FB2396E7008327C4FBD8
:101AD00083D74701C207C1832326F4FE0327C4FE30
:101AE000C1679387F7CFF98F2326F4FE832784FB02
:101AF00083D7C7003E878327C4FED98F2326F4FEF1
:101B00008327C4FE1397070141838327C4FB239ACD
:101B1000E700930784FC3E85EFF0AF8C0327C4FDFC
:101B2000B7470140938707806317F700832744FD79
:101B30002324F4FE29A0832704FD2324F4FE832715
:101B4000C4FB83D7C700C207C183C207C18763D262
:101B50000702032784FEBA878607BA978E073E9747
:101B6000832784FB9C438607B357F7022322F4FEA6
:101B700005A0032784FEBA878607BA978E073E978B
:101B8000832784FB9C438A07B357F7022322F4FE82
:101B9000032744FE93074006B357F7029207232614
:101BA000F4FE8327C4FE13D7470093074006B3070C
:101BB000F702032744FEB307F7402320F4FE8327F0
:101BC000C4FB83D7C700C207C183C207C18763D2E2
:101BD0000702832704FE8E07138727039307400617
:101BE000B357F7029D8B0327C4FED98F2326F4FE3B
:101BF00005A0832704FE9207138727039307400657
:101C0000B357F702BD8B0327C4FED98F2326F4FEFA
:101C10008327C4FE1397070141838327C4FB2394C2
:101C2000E7000100B640264461618280011122CEA6
:101C300000102326A4FE2324B4FE832784FE95C32C
:101C40008327C4FE83D7C7001397070141838967A1
:101C5000D98F1397070141838327C4FE2396E7009A
:101C600015A08327C4FE83D7C700139707014183BC
:101C7000F977FD17F98F1397070141838327C4FE76
:101C80002396E7000100724405618280797122D6B3
:101C90000018232EA4FCAE87232AC4FC231DF4FCC9
:101CA000232404FE232204FE232004FE232604FE14
:101CB0008327C4FD2326F4FE8357A4FD93F7F70F73
:101CC000958393F7F70F2324F4FE8357A4FDFD8B30
:101CD0002322F4FE832744FE0547B317F700232091
:101CE000F4FE032784FE85476318F7008327C4FEAC
:101CF000B1072326F4FE0DA0032784FE894763184D
:101D0000F7008327C4FEC1072326F4FE31A08327F2
:101D1000C4FED1072326F4FE832744FD99CB8327F5
:101D2000C4FE94438327C4FE032704FE558F98C343
:101D300021A88327C4FE9443832704FE13C7F7FF1B
:101D40008327C4FE758F98C3010032544561828099
:101D5000011122CE00102326A4FEAE872315F4FE27
:101D60008357A4FE93F7F71F139707014183832737
:101D7000C4FE2392E70001007244056182800111D4
:101D800022CE00102326A4FE8327C4FE83D747005B
:101D9000C207C18393F7F71FC207C1833E85724410
:101DA00005618280797122D60018232EA4FCAE87AB
:101DB000231DF4FC232604FE8327C4FD83D70700DC
:101DC0001397070141838357A4FDF98FC207C1838D
:101DD00089C785472326F4FE19A0232604FE8327FE
:101DE000C4FE3E85325445618280797122D6001846
:101DF000232EA4FCAE87231DF4FC232204FE2326FD
:101E000004FE232004FE232404FE8357A4FD93F73D
:101E1000F70F958393F7F70F2320F4FE8357A4FD64
:101E2000FD8B2326F4FE8327C4FE0547B317F70076
:101E30002326F4FE032704FE8547631FF70083274C
:101E4000C4FD83D7C700C207C1833E878327C4FE72
:101E5000F98F2326F4FE3DA8032704FE8947631F5C
:101E6000F7008327C4FD83D70701C207C1833E87DC
:101E70008327C4FEF98F2326F4FE29A88327C4FDF7
:101E800083D74701C207C1833E878327C4FEF98FEA
:101E90002326F4FE8357A4FDA183C207C183232216
:101EA000F4FE832744FE0547B317F7002322F4FE10
:101EB0008327C4FD83D70700C207C1833E878327DA
:101EC00044FEF98F2322F4FE8327C4FE81CB8327AF
:101ED00044FE89C785472324F4FE19A0232404FE69
:101EE000832784FE3E85325445618280797122D6F3
:101EF0000018232EA4FCAE87231DF4FC231704FE38
:101F0000231604FE8357A4FDA1832317F4FE8357F1
:101F1000E4FE0547B317F7002316F4FE8357C4FE0B
:101F200093C7F7FF1397070141838327C4FD2390CD
:101F3000E7000100325445618280797122D6001891
:101F4000AA87A30FF4FCA147A307F4FE9567938724
:101F500047399C473E87A1675CCB95679387473994
:101F60009C473E8791671CCB956783A747393E877F
:101F7000930700025CCBB9A08307F4FD63DA070086
:101F8000956783A747393E87930700081CCB01A8B4
:101F9000956783A747393E87930700085CCB956711
:101FA00083A747393E87930700021CCB956783A719
:101FB00047393E87930700025CCB8347F4FD8607D1
:101FC000A30FF4FC8347F4FE1387F7FFA307E4FE97
:101FD000C5F79567938747399C473E87A1671CCB18
:101FE0000100325445618280797122D60018AA8797
:101FF000A30FF4FCA147A307F4FE95679387473925
:102000009C473E87A1675CCB9567938747399C4780
:102010003E8791675CCB956783A747393E879307D7
:1020200000025CCBB9A08307F4FD63DA0700956773
:1020300083A747393E87930700081CCB01A8956703
:1020400083A747393E87930700085CCB956783A732
:1020500047393E87930700021CCB956783A7473912
:102060003E87930700025CCB8347F4FD8607A30FEE
:10207000F4FC8347F4FE1387F7FFA307E4FEC5F7DC
:102080009567938747399C473E87A1671CCB010022
:10209000325445618280797122D60018AA87232C98
:1020A000B4FC231FF4FC9947A307F4FE8347F4FE16
:1020B000032784FDBA9723800700B1A08347F4FE6D
:1020C000FD17A307F4FE0357E4FDA947B377F70212
:1020D000C207C1832307F4FE0357E4FDA947B357A2
:1020E000F702231FF4FC8347E4FE9387070393F66C
:1020F000F70F8347F4FE032784FDBA9713978601F1
:1021000061872380E7008347F4FECDFB0100325452
:1021100045618280411106C622C400089306003141
:1021200005468545154571269306003101468545CE
:102130001D45412693060031054685451305D0040B
:102140008D2E93060031054685451305E00495263E
:1021500093060031054685451305F004992E9567D1
:1021600083A747393E87930700021CCB9567938767
:1021700047399C473E8789675CCBB1671385073534
:10218000EF00D0799567938747399C473E878967E9
:102190001CCB1305E00A893D0145B9354145A935F8
:1021A000130500049135130510083D3D1305F00794
:1021B000253D1305100A0D3D1305800C353513051B
:1021C000600A1D351305800A05351305F003293D06
:1021D0001305300D113D0145013D1305500D293505
:1021E0001305000811351305900DFD3B1305100F65
:1021F000E53B1305A00DCD3B4945FD331305B00D5F
:10220000E53313050004CD3313050002F13B094506
:10221000E13B1305D008C93B5145F9331305400A8A
:10222000E1331305600AC9331305F00A753B014514
:1022300075208145014531200100B2402244410111
:102240008280011106CE22CC0010AA872E87A30718
:10225000F4FEBA872307F4FE8307F4FE63DF07006A
:1022600095679386070C9567138647389305900DFD
:1022700095671385C70CEF1090410347E4FE9D4717
:1022800063FFE700956793860710956713864738C5
:102290009305A00D95671385C70CEF10503F83473A
:1022A000E4FE938707FB93F7F70F3E85353B8347A3
:1022B000F4FE918393F7F70F93E7070193F7F70F76
:1022C0003E851D338347F4FEBD8B93F7F70F3E85A4
:1022D000213B0100F240624405618280797106D69B
:1022E00022D40018AA87A30FF4FCA30704FE91A030
:1022F0008347F4FE938707FB93F7F70F3E85ED3195
:102300000545DD314145CD31230704FE11A8834742
:10231000F4FD3E851D318347E4FE85072307F4FE67
:102320008307E4FEE3D507FE8347F4FE8507A30792
:10233000F4FE0347F4FE9D47E3FCE7FA0100B250C8
:10234000225445618280797106D622D40018AA876A
:102350002E87232CC4FCA30FF4FCBA87230FF4FCB4
:10236000A30604FEA30704FE230704FE49A883472F
:10237000E4FE032784FDBA978387070093F7F70FDE
:102380008117A306F4FE0347F4FD9307E00763F902
:10239000E700A30F04FC8347E4FD8507230FF4FC4B
:1023A0000347E4FD8347F4FDBA853E85593DA30705
:1023B00004FE3DA00347D4FE8346F4FE1566BA87AB
:1023C0008607BA9786071307C615BA97B69783C7C5
:1023D00007003E859D368347F4FE8507A307F4FE7C
:1023E0000347F4FE9547E3F7E7FC8347F4FD9907BD
:1023F000A30FF4FC8347E4FE85072307F4FE83471D
:10240000E4FE032784FDBA9783870700ADF301003C
:10241000B250225445618280797106D622D40018C8
:10242000AA87AE863287A30FF4FCB687230FF4FC8D
:10243000BA87231EF4FC8317C4FD63D507028357B4
:10244000C4FDB307F040C207C183231EF4FC8346DA
:10245000E4FD0347F4FD956713860711B6853A85B9
:10246000DD3519A88346E4FD0347F4FD956713861F
:102470004711B6853A85C13D8347F4FD9907A30FFF
:10248000F4FC8357C4FD130784FEBA853E852131D1
:10249000930784FE938617000347E4FD8347F4FD0A
:1024A0003686BA853E8545350100B25022544561D5
:1024B0008280797106D622D40018232EA4FC232C06
:1024C000B4FCB2872328D4FCA30BF4FC8327C4FDFF
:1024D000958393F7F70F9D8BA307F4FE8327C4FD25
:1024E00093F7F70FFD8B2307F4FE0327C4FD930733
:1024F0000008630DF7148327C4FD958391E7854594
:102500001145EFE0BF8F61A88327C4FD13D75700A3
:1025100085476317F70085452145EFE03F8E41A0D1
:102520008327C4FD13D7570089476317F7008545F4
:102530004145EFE0BF8CA5A08327C4FD13D757000A
:102540008D476318F700854513050002EFE01F8BE8
:10255000B9A08327C4FD13D7570091476318F7002C
:10256000854513050004EFE07F8915A88327C4FD86
:1025700013D7570095476318F700854513050008E2
:10258000EFE0DF8729A88327C4FD13D757009947B9
:102590006317F700854513050010EFE03F8683477A
:1025A000E4FE0547B317F700C207C1832310F4FE0A
:1025B000032784FD85476317F702832704FDC207BD
:1025C000C183A183C207C18389E78D472322F4FE1B
:1025D00011A8832704FDC207C183A183C207C18359
:1025E0002322F4FE832704FDC207C18393F7F70F6C
:1025F0002324F4FE0347F4FE95670A0793874739BF
:10260000BA979C433E87930704FEBE853A85EFD078
:102610001FEE032784FD8547631BF7020347F4FE83
:1026200095670A0793874739BA979C43BE868347C5
:10263000E4FE0547B317F700C207C183034774FDE3
:102640003A86BE853685EFE02F8D11A00100B2508D
:10265000225445618280797122D60018232EA4FC71
:102660008327C4FD958393F7F70F9D8BA307F4FE93
:102670008327C4FD93F7F70FFD8B2307F4FE034771
:10268000F4FE95670A0793874739BA979C439C479E
:102690000347E4FE85463397E600F98F99C38547E3
:1026A00011A081473E85325445618280797122D6DE
:1026B0000018232EA4FC8327C4FD958393F7F70FFE
:1026C0009D8BA307F4FE8327C4FD93F7F70FFD8BC3
:1026D0002307F4FE0347F4FE95670A0793874739FB
:1026E000BA979C43DC470347E4FE85463397E600F0
:1026F000420741833A868346F4FE15678A0613072C
:10270000473936971843B18F5CC701003254456191
:102710008280797106D622D40018232EA4FC232CA3
:10272000B4FC232AC4FC85450545EFE02FED832644
:1027300044FD014681450325C4FDA53B8327C4FD17
:10274000958313F7F70F8327C4FD93F7F70FFD8BDE
:1027500093F7F70FBE853A85EFE04F938327C4FDCB
:10276000FD8B0547B317F7002320F4FE232204FE58
:10277000832784FD2324F4FE85472326F4FE930754
:1027800004FE3E85EFD05FB80100B250225445618F
:102790008280797106D622D40018232EA4FCAE873D
:1027A0003687A30DF4FCB287230DF4FCBA87A30C83
:1027B000F4FC8327C4FD93F7F70F2304F4FE83474B
:1027C000B4FDA304F4FE8347A4FD2305F4FE834770
:1027D00094FD2326F4FE930784FE3E85EFE00F9ED2
:1027E000B7E700E09843FD777D8F83A7C1835D8FB6
:1027F00023AEE182B7E700E0D843B7070010FD172A
:102800007D8F9387C183DC435D8F9387C183D8C35A
:102810009387C18303C7870085476313F70031207F
:102820000100B250225445618280411122C6000845
:10283000B7E700E07D5723A0E718B7E700E07D5732
:1028400023A2E7180100324441018280411122C6CF
:102850000008B7E700E003A7C18323A0E710B7E7AC
:1028600000E01387C183584323A2E71001003244DC
:1028700041018280011106CE22CC0010AA87A30755
:10288000F4FE8347F4FE81E7238A0180C13701000B
:10289000F240624405618280797106D622D4001824
:1028A000232EA4FCAE87231DF4FC8327C4FD81EBFB
:1028B0008545856713850780EFE04FD435A803274A
:1028C000C4FD85476317F70085450545EFE06FD7E1
:1028D00025A00327C4FD89476317F70085450945EF
:1028E000EFE02FD611A80327C4FD8D476316F7002C
:1028F00085451145EFE0EFD48357A4FD91EF95672F
:102900009386471295671386473A93052003956788
:102910001385C712EF10A057ED779387F7BD2314E7
:10292000F4FE8357A4FD8607C207C183FD17C207C3
:10293000C1832312F4FE231504FE231304FE230691
:1029400004FE95670327C4FD0A079387C73BBA9720
:102950009C433E87930744FEBE853A85EFE0CFD285
:1029600095670327C4FD0A079387C73BBA979C4323
:10297000054685453E85EFE05FCE8327C4FD81EBAC
:10298000854609468145130590022135A1A00327FC
:10299000C4FD85476319F70085460946814513053F
:1029A000C002C53B05A80327C4FD89476319F7008A
:1029B0008546094681451305D002E13B21A803273E
:1029C000C4FD8D476318F700854609468145130508
:1029D000E002C13395670327C4FD0A079387C73B0D
:1029E000BA979C4385453E85EFE0BFBB0100B250DE
:1029F000225445618280011106CE22CC001023268C
:102A0000A4FE0327C4FE930700206307F7240327CF
:102A1000C4FE9307002063EAE70A0327C4FE930776
:102A200010106300F71C0327C4FE9307101063E225
:102A3000E7040327C4FE8947630DF7160327C4FE86
:102A4000894763ECE7008327C4FE638407140327E8
:102A5000C4FE85476307F714E5AC0327C4FE8D4722
:102A60006301F7160327C4FE930700106303F716EC
:102A7000C5A40327C4FE93070011630CF7180327AE
:102A8000C4FE9307001163EFE7000327C4FE93071A
:102A900020106300F7160327C4FE9307301063026B
:102AA000F7167DA40327C4FE930720116304F718CB
:102AB0000327C4FE930720116365F7160327C4FE9E
:102AC000930730116301F71861A40327C4FE93072D
:102AD00030216300F7200327C4FE9307302163EE03
:102AE000E7040327C4FE930730206300F71A032787
:102AF000C4FE9307302063EFE7000327C4FE93076B
:102B000010206303F7160327C4FE930720206305F4
:102B1000F7163DAC0327C4FE930710216309F7188D
:102B20000327C4FE9307102163ECE7180327C4FEB4
:102B3000930700216304F71621AC0327C4FE930713
:102B400000306303F71C0327C4FE9307003063EFD4
:102B5000E7000327C4FE930700226305F718032745
:102B6000C4FE930710226308F718DDA20327C4FEF2
:102B700093072030630CF71A0327C4FE9307203015
:102B8000636DF7180327C4FE930730306309F71A03
:102B9000C1A293068031014685452145EFF07F9122
:102BA00045AA93068031014685452545EFF07F9083
:102BB00045A293068031014685452945EFF07F8F78
:102BC00041AA93068031014685452D45EFF07F8E61
:102BD00041A293068031014685450145EFF07F8D86
:102BE00085AA93068031014685450545EFF07F8C27
:102BF00085A293068031014685450945EFF07F8B1C
:102C000081AA93068031014685450D45EFF07F8A04
:102C100081A293068031014685453D45EFF07F89CD
:102C200005AA930680310146854513053002EFF071
:102C30005F8839AA93068031014685451305A002B5
:102C4000EFF03F8731A29306803101468545130599
:102C5000B002EFF01F86EDA893068031014685454E
:102C60001945EFF01F85EDA093068031014685459B
:102C70001D45EFF01F84E9A8930680310146854584
:102C800013050002EFF0FF82E1A0930680310146B8
:102C9000854513051002EFF0DF815DA893068031B2
:102CA0000146854513056004EFF0BF8055A09306EB
:102CB00080310146854513057004EFF08FFF49A868
:102CC000930680310146854513058004EFF06FFEC1
:102CD00041A0930680310146854513059004EFF02D
:102CE0004FFDBDA093068031014685451305400286
:102CF000EFF02FFCB1A893068031014685451305FE
:102D00005002EFF00FFBA9A09306803101468545E4
:102D100013056002EFF0EFF925A893068031014614
:102D2000854513057002EFF0CFF81DA093068031A2
:102D30000146854513058002EFF0AFF711A8930611
:102D400080310146854513059002EFF08FF60100B2
:102D50000100F240624405618280397106DE22DCA6
:102D600080002326A4FC2324B4FC2322C4FC2317C4
:102D700004FE0325C4FC41318327C4FCA18381EBFD
:102D80008545856713850780EFE04F87A1A08327DE
:102D9000C4FC13D7870085476317F70085450545B1
:102DA000EFE02F8A05A88327C4FC13D78700894743
:102DB0006317F70085450945EFE0AF8821A8832711
:102DC000C4FC13D787008D476316F700854511456E
:102DD000EFE02F8785450545EFE04F828327C4FC50
:102DE00013D74700C147631AF7008545B707160098
:102DF00013850704EFD0DF95B9A88327C4FC13D748
:102E00004700C547631AF7008545B70718001385C3
:102E10000730EFD0FF9381A08327C4FC13D747006E
:102E200093071002631AF7008545B7171A00138538
:102E300007C0EFD0FF9105A08327C4FC13D747003C
:102E4000930720026319F7008545B7171A00138509
:102E50000780EFD0FF8FB7170240DC43C98313F719
:102E6000F700B7177A00938707203307F702B727D1
:102E7000F400938707403E9723ACE18003A781814C
:102E8000832784FCB357F702C1832317F4FE03A7FB
:102E900081818357E4FE8507BE86832784FCB38740
:102EA000F602B357F7022316F4FE0357C4FE832736
:102EB00044FC3307F702896793870771B357F7021A
:102EC0002315F4FE8357C4FEFD17C207C1832312E6
:102ED000F4FE8357E4FE2310F4FE231304FE2311B3
:102EE00004FE230404FE930700072318F4FC85471F
:102EF0002319F4FC231A04FC8357A4FE231BF4FCBF
:102F00008947231CF4FC8947231DF4FC231E04FC81
:102F1000231F04FC8327C4FC13D7870095670A0787
:102F20009387C73BBA979C433E87930704FEBE85B1
:102F30003A85EFD07FF58327C4FC8D8BB9EF8327CB
:102F4000C4FC13D7870095670A079387C73BBA97D6
:102F50009C433E87930704FDBE853A85EFE06F8270
:102F60008327C4FC13D7870095670A079387C73B5D
:102F7000BA979C43A1453E85EFE02FF58327C4FC1B
:102F800013D7870095670A079387C73BBA979C4377
:102F900091453E85EFE03F8889A28327C4FC13F763
:102FA000370085476311F7068327C4FC13D78700D2
:102FB00095670A079387C73BBA979C433E87930759
:102FC00004FDBE853A85EFE0CF928327C4FC13D77A
:102FD000870095670A079387C73BBA979C43A1452B
:102FE0003E85EFE04FF38327C4FC13D78700956736
:102FF0000A079387C73BBA979C43930500403E85D9
:10300000EFE03F86D9A88327C4FC13F73700894730
:103010006310F7068327C4FC13D7870095670A0758
:103020009387C73BBA979C433E87930704FDBE85B1
:103030003A85EFE06FA78327C4FC13D78700956715
:103040000A079387C73BBA979C43A1453E85EFE0AB
:103050002FF28327C4FC13D7870095670A0793874D
:10306000C73BBA979C4391453E85EFE0FF84B5A0EE
:103070008327C4FC13F737008D476310F7068327B7
:10308000C4FC13D7870095670A079387C73BBA9795
:103090009C433E87930704FDBE853A85EFE0CFBB96
:1030A0008327C4FC13D7870095670A079387C73B1C
:1030B000BA979C43A1453E85EFE04FF08327C4FCBF
:1030C00013D7870095670A079387C73BBA979C4336
:1030D000930500403E85EFE0FF828327C4FC13D7B1
:1030E000870095670A079387C73BBA979C43854536
:1030F0003E85EFE00FCB8327C4FC13D7870095678D
:103100000A079387C73BBA979C4385453E85EFE006
:10311000CFCE0100F250625421618280797122D6B3
:103120000018232EA4FCB7F700E023A0070003A794
:103130008181B7177A0093870720B357F7020327D7
:10314000C4FDB307F7022326F4FEB7F700E023829D
:103150000700B7F700E0A3820700B7F700E023837A
:103160000700B7F700E0A3830700B7F700E00547C3
:1031700098C30100B7F700E091079C430327C4FE02
:10318000E37AF7FE0100325445618280011106CED8
:1031900022CC00102326A4FE2324B4FE8327C4FEE1
:1031A00085E7032784FE85476310F7029306803185
:1031B000014685452545EFF0CFAF91460146814553
:1031C0002945EFF00FAF65A00327C4FE89476312BE
:1031D000F702930680310146854513056002EFF042
:1031E0004FAD91460146814513057002EFF06FAC7B
:1031F000BDA80327C4FEC1476310F70293068031C0
:10320000014685450945EFF0CFAA91460146814523
:103210000D45EFF00FAAA1A80327C4FE93070002F3
:103220006312F70293068031014685451305A0021B
:10323000EFF02FA89146014681451305B002EFF04B
:103240004FA735A00327C4FE930720026311F7029E
:1032500093060031014685451305A004EFF06FA5E4
:103260009146014681451305B004EFF08FA401009B
:10327000F240624405618280797106D622D400183A
:10328000232EA4FC232CB4FC232AC4FC2328D4FC26
:103290008327C4FD91E785451165EFD03FB635A082
:1032A0000327C4FD85476318F700854537050200ED
:1032B000EFD03FB919A80327C4FD89476317F7006A
:1032C000854537050400EFD0DFB7832504FD0325CE
:1032D00044FD6D3D832784FD2320F4FE231204FE6C
:1032E000231304FE231404FE231604FEB147231502
:1032F000F4FE95670327C4FD0A079387C73CBA9776
:103300009C433E87930704FEBE853A85EFE0CFEEEF
:1033100095670327C4FD0A079387C73CBA979C4368
:1033200085453E85EFE09F900100B25022544561F3
:103330008280011106CE22CC00102326A4FEAE8787
:10334000A305F4FE95670327C4FE0A079387C73CCD
:10335000BA979C430546930550523E85EFE01F9374
:103360008327C4FE938757030347B4FEBA860146FA
:1033700081453E85EFF0EFC10100F24062440561F6
:103380008280411106C622C40008B7170240DC4300
:10339000C98313F7F700B7177A009387072033071D
:1033A000F702B727F400938707403E9723ACE180EC
:1033B00085460146F167938507200145753D01006B
:1033C000B240224441018280797106D622D400188D
:1033D000232EA4FC232CB4FC232AC4FC232604FEA5
:1033E00099A00100956783A7C73C930500043E851B
:1033F000EFE05F9BAA87FDD7956783A7C73CBE8692
:10340000832784FD13871700232CE4FC83870700A0
:10341000C207C183BE853685EFE09F938327C4FE34
:1034200085072326F4FE0327C4FE832744FDE34AD1
:10343000F7FA832744FD3E85B250225445618280CD
:10344000011122CE0010232604FE232404FEB71708
:1034500002409443B71702404167558F98C3B7178E
:1034600002409843B7070200F98F2324F4FE832714
:10347000C4FE85072326F4FE832784FE99E70327ED
:10348000C4FE93070050E31CF7FCB71702409843B3
:10349000B7070200F98F89C785472324F4FE19A0D6
:1034A000232404FE032784FE85476317F70CB72700
:1034B00002409843B72702401367070198C3B72714
:1034C00002409843B7270240719B98C3B727024038
:1034D0009843B72702401367270098C33717024065
:1034E000B71702405843D8C337170240B7170240F6
:1034F0005843D8C337170240B71702405843D8C3C0
:10350000B7170240D443B71702403707C1FF7D17F2
:10351000758FD8C3B7170240D443B7170240370797
:103520002500558FD8C3B71702409443B717024000
:1035300037070001558F98C30100B7170240984321
:10354000B7070002F98FF5DBB7170240D843B7176A
:103550000240719BD8C3B7170240D843B717024047
:1035600013672700D8C30100B7170240DC4313F7E5
:10357000C700A147E31AF7FE01007244056182808B
:10358000411106C622C40008B71702409843B71776
:1035900002401367170098C3B7170240D443B71708
:1035A00002403707FFF8758FD8C3B717024094431E
:1035B000B71702403707F7FE7D17758F98C3B71707
:1035C00002409443B71702403707FCFF7D17758F01
:1035D00098C3B7170240D443B7170240370781FF9B
:1035E0007D17758FD8C3B717024037079F0098C75C
:1035F000813D0100B240224441018280411122C636
:10360000000883C7818599C3238C0184010032445B
:1036100041018280411122C600080545EFC0DFE567
:103620002A8785476313F7020545EFC05FEA01006B
:1036300003C771858547E31DF7FEA38B01841385BE
:10364000C18461280547238CE18401003244410193
:1036500073002030011122CE0010AA87A307F4FEC8
:1036600083C7C181138717009376F70F238ED1800C
:103670003E879387C184BA970347F4FE2380E7000F
:1036800003C7C1818547631DF70003C7C184930742
:10369000800D6307F700238E01800947A38BE18427
:1036A00003C7C181AD476316F7020547A38BE184C9
:1036B0009387C18403C7A7009307E00E6316F70042
:1036C0000547A38BE18421A00D47A38BE184238EC2
:1036D00001800100724405618280011122CE001038
:1036E0002326A4FE8327C4FE850703C7070093078C
:1036F000000B6318F7028327C4FE890783C70700FE
:10370000A2071397070141878327C4FE8D0783C74C
:103710000700C207C187D98F139707014187239DEF
:10372000E1848327C4FE910703C707009307100BAA
:103730006318F7028327C4FE950783C70700A20713
:103740001397070141878327C4FE990783C70700A2
:10375000C207C187D98F1397070141872394E1845A
:103760008327C4FE9D0703C707009307200B631838
:10377000F7028327C4FEA10783C70700A207139798
:10378000070141878327C4FEA50783C70700C20737
:10379000C187D98F1397070141872395E1840100E1
:1037A000724405618280411106C622C40008EFF010
:1037B0005FBD194505229306003105468545114533
:1037C000EFE03FCF93060031054685451305200203
:1037D000EFE03FCE93060031054685452545EFE0F5
:1037E0005FCD930580250945EFF00F8B014691676A
:1037F0009385076513051011EFF02FD601469167E9
:103800009385076513050011EFF02FD501469167E9
:103810009385076513052011EFF02FD401469167BA
:103820009385076513053011EFF02FD3014691679B
:103830009385076513050030EFF02FD2014691679D
:103840009385076513051030EFF02FD1014691677E
:103850009385076513052030EFF02FD0014691675F
:103860009385076513053030EFF02FCF01469305A0
:10387000D0140945EFF06FCEC5464146B717070093
:10388000938507800545EFF03F9F85450545EFF09F
:103890005FAA13068004A1450145EFE09FE7854636
:1038A000054685455945EFE0DFEEEFE0BF8601456F
:1038B000EFE05FFC0100B2402244410182804111EF
:1038C00006C622C40008B926153B0100B2402244B6
:1038D00041018280011106CE22CC00102326A4FED5
:1038E0000327C4FE954763E3E702B70700200327D9
:1038F000C4FE0A0793870701BA979C439306800486
:10390000014681453E85EFE0DFBA25A89947232689
:10391000F4FE0DA0B70700200327C4FE0A07938713
:103920000701BA979C4393068004014681453E8572
:10393000EFE03FB88327C4FE1387F7FF2326E4FE9A
:10394000F1FB0100F240624405618280011106CE64
:1039500022CC00102326A4FEB70700200327C4FEB4
:103960000A0793870701BA979C433E85EFE0BFCED5
:10397000AA8799E3814711A085473E85F2406244BA
:1039800005618280797122D60018232CA4FC232E95
:10399000B4FC83C7F18113F7F70F89476305F70874
:1039A00083C7E18193F7F70FBE86032784FDB7072E
:1039B00000208E069387470EB69798C383C7E18190
:1039C00093F7F70F3E860327C4FDB70700209386C1
:1039D000470E93173600B697D8C383C7E18193F794
:1039E000F70F850713F7F70F238FE18083C7E18176
:1039F00013F7F70FCD4763F4E700238F018083C7E8
:103A0000E181A307F4FE83C7D18193F7F70F034742
:103A1000F4FE6316F7000947A38FE18031A0054744
:103A2000A38FE18011A00100325445618280797139
:103A300022D60018232EA4FC83C7F18193F7F70F39
:103A400099E3814769A083C7D18193F7F70F3E8738
:103A5000B70700200E079387470EBA97984383272E
:103A6000C4FD98C383C7D18193F7F70FBE86B7070C
:103A700000201387470E93973600BA97D8438327C1
:103A8000C4FDD8C383C7D18193F7F70F850713F718
:103A9000F70FA38EE18083C7D18113F7F70FCD47CE
:103AA00063F4E700A38E018083C7E181A307F4FEDE
:103AB00083C7D18193F7F70F0347F4FE6315F7002F
:103AC000A38F018021A00547A38FE18085473E8514
:103AD000325445618280011106CE22CC001023268B
:103AE00004FE39AA0325C4FE9535AA87E1E71387AA
:103AF00001828327C4FEBA9783C70700850713F79F
:103B0000F70F938601828327C4FEB6972380E700D0
:103B1000138701828327C4FEBA9703C7070085472E
:103B200063F8E70C138701828327C4FEBA9703C7A3
:103B300007008947631EF7008327C4FE2322F4FE93
:103B4000232404FE032544FE832584FE253D65A031
:103B5000138701828327C4FEBA9703C70700A547CE
:103B600063FAE708138701828327C4FEBA9703C765
:103B70000700A9476317F7028327C4FE2322F4FE38
:103B800089472324F4FE032544FE832584FEDD3B80
:103B9000138701828327C4FEBA9709472380E70071
:103BA00099A8138701828327C4FEBA970947238007
:103BB000E70091A0138701828327C4FEBA9703C749
:103BC0000700854763FEE7008327C4FE2322F4FE37
:103BD00085472324F4FE032544FE832584FE5D33BC
:103BE000138701828327C4FEBA972380070021A090
:103BF000010011A001008327C4FE85072326F4FEDF
:103C00000327C4FE9547E3FFE7EC0100F24062445E
:103C100005618280411106C622C400080128C1281E
:103C2000B92A0100B240224441018280011106CE2E
:103C300022CC0010232604FEA30504FE693D930751
:103C400004FE3E85ED33AA87A305F4FE8347B4FE48
:103C5000C1C7832704FE99E7832744FE81E7854790
:103C60002326F4FE032704FE85476318F700832705
:103C700044FE81E789472326F4FE032704FE894793
:103C80006319F700832744FE89E78D472326F4FE56
:103C9000A1A0032704FE8D476319F700832744FE84
:103CA00089E791472326F4FE05A8032704FE9147E0
:103CB0006319F700832744FE89E795472326F4FE1E
:103CC00021A8032704FE95476318F700832744FEC5
:103CD00081E799472326F4FE0327C4FE23A4E1824B
:103CE0008327C4FE3E85F240624405618280411113
:103CF00006C622C4000803A781829547631CF7000B
:103D000083C7618293B7170093F7F70F3E8723832A
:103D1000E1828DA003A781828D476315F7020145DB
:103D2000EFE0CFDB83A7C18289E7094723A6E182C1
:103D300039A083A7C1821387F7FF23A6E1822383DB
:103D400001820DA803A7818291476315F7020145FF
:103D5000EFE0CFD803A7C18289476315F70023A6F8
:103D6000018239A083A7C1821387170023A6E182AD
:103D7000238301820100B24022444101828041112B
:103D800006C622C4000883A7C18205476389E700ED
:103D900089C709476387E70039A0292839A069281E
:103DA00029A0C12819A0392001000100B2402244F5
:103DB00041018280411106C622C40008054685459E
:103DC00013056004EFE04FE503A78182994763166E
:103DD000F7001145EFE09F8D81A003A781828947FD
:103DE000631DF700B707002083A7C7081387F7FFF5
:103DF000B707002023A6E70805A003A781829947FB
:103E0000631CF700B707002083A7C70813871700B4
:103E1000B707002023A6E708B707002083A7C70835
:103E2000C207C1873E868D450545EFE0EFDE010004
:103E3000B240224441018280411106C622C40008DA
:103E40008397A1853E8685450545EFE0EFDC8397A6
:103E500081843E8689450545EFE00FDC09468945AA
:103E600013058002EFE04FDB0100B2402244410124
:103E70008280411106C622C400080D4685450545CD
:103E8000EFE08FD90100B240224441018280938744
:103E900081809C434111328806C6AA882E87C84774
:103EA0003686971700009387A75363170800971764
:103EB00000009387A7533E88C68697150000938518
:103EC00025531920EF00F00A397132D436D63EDA84
:103ED0003AD842DC46DE938781802E86AA858843C5
:103EE000341006CE36C68D28F240216182801C46F1
:103EF000FD171CC663D90700184E63C5E700A94724
:103F00006393F5004DA51C422E851387170018C238
:103F10002380B7008280011122CC26CA4AC84EC62F
:103F200052C406CE2A89AE893284B304D6007D5AA3
:103F300063149400014509A8834504004E864A8510
:103F40007D370504E31645FFF2406244D2444249FE
:103F5000B249224A05618280357122CD26CB4AC9F9
:103F60004EC706CF52C556C35AC1DEDEE2DCE6DAE2
:103F7000AA89AE843289368409C51C4D99E3EF00C5
:103F8000F025971700009387674F639CF40C83A478
:103F9000490083D7C400A18BFDC79C48EDC7930798
:103FA0000002A304F1029307000302D22305F102E9
:103FB00022C6930B5002971A0000938A6A46054C5A
:103FC000294B4A848347040099C36390770FB30C4D
:103FD0002441638D0C00E6864A86A6854E85253FE2
:103FE000FD576308F51E9256E69636D283470400C5
:103FF0006381071EFD571309140002C802CE3ECA92
:1040000002CCA309010482D48345090015465685D4
:10401000EF00104313041900C24751E913F70701D9
:1040200009C713070002A309E10413F7870009C7B2
:104030001307B002A309E104834609001307A00295
:10404000638FE606F2474A8481462546034704000B
:1040500093051400130707FD6378E60AADCA3ECE48
:10406000BDA097170000938767436395F40083A46E
:10407000890005B7971700009387473EE39BF4F04C
:1040800083A4C90039B7A6854E85F12B09D97D5582
:10409000FA406A44DA444A49BA492A4A9A4A0A4BD7
:1040A000F65B665CD65C0D618280050421BF33053A
:1040B00055413315AC00C98F3EC82289B1B732478C
:1040C00093064700184336C6634907023ACE0347B2
:1040D00004009307E002631FF704034714009307EB
:1040E000A002631BF702B2470904138747009C43F1
:1040F0003AC663C107023ECA35A83307E04093E7DA
:1041000027003ACE3EC8E1B7B387670385462E84C1
:10411000BA972DBFFD57C5B7050402CA814681472E
:1041200025460347040093051400130707FD637831
:10413000E606F1F2834504000D461715000013054D
:10414000A52EEF00F02F11CD971700009387C72DF4
:104150001D8D93070004B397A700424505045D8DAC
:104160002AC8834504001946171500001305052CBD
:10417000130914002304B102EF00902C3DC197C72E
:10418000FFFF938727E895E74247B2471377071069
:1041900009CF91073EC69257D2973ED21DB5B3873D
:1041A000670385462E84BA97ADBF9D07E19BA107A3
:1041B000D5B7780097060000938626D626860C0889
:1041C0004E8597000000E7000000FD572A8AE3149F
:1041D000F5FC83D7C40093F70704E39A07EA125566
:1041E00045BD780097060000938626D326860C08E6
:1041F0004E85012AD9BF797156CA9C49BA8A984519
:1042000022D426D24ECE52CC06D64AD05AC85EC64A
:10421000AA892E84B284368A63D3E700BA879CC009
:104220000347340419C385079CC01C4093F7070259
:1042300081C79C4089079CC0032904001379690049
:10424000631A0900130B9401FD5B5C449840998F3D
:10425000634CF9041C408346340493F70702B336D9
:10426000D000A5EB13063404D2854E85829AFD5703
:104270006303F5041C4011469840998B54448144D3
:104280006397C700B384E64063D3040081441C44B1
:1042900018486354F700998FBE94014969047D5B07
:1042A00063982405014509A885465A86D2854E851E
:1042B000829A631E75017D55B25022549254025960
:1042C000F249624AD24A424BB24B456182800509AB
:1042D000ADBF3307D40013060003A301C70403478F
:1042E000540493871600A2978906A381E7049DBF13
:1042F00085462286D2854E85829AE30E65FB0509A6
:1043000045B7797122D426D24AD04ECE06D652CCA9
:1043100056CA5AC8B68983C685019307E006328912
:10432000AA842E84138635046381F61E63E2D706C1
:10433000930730066382F60A63EDD700638B061E8F
:10434000930780056387F616930A24042301D40497
:1043500069A8930740066386F60093079006E395E5
:10436000F6FE1C40084393F6070893054500C1C2BA
:104370001C410CC363D807001307D002B307F040F9
:10438000A301E404971600009386C60A294765A096
:10439000930730076383F61A63EFD7009307F0069D
:1043A000638FF60493070007E390F6FA9C4193E7C6
:1043B00007029CC109A8930750076382F60493077C
:1043C0008007E393F6F893078007A302F404971697
:1043D000000093866607E5A01C43938A2504938614
:1043E00047009C4314C32381F5048547B5A293F687
:1043F00007041C410CC3BDDEC207C187A5BF0C402A
:104400001C4313F80508138547006305080008C31B
:104410009C4339A093F5050408C3FDD983D7070051
:104420001307F006638BE60C971600009386860050
:104430002947A30104044C400CC463C5050008408F
:104440006D9908C099E3B28A91CDB28AB3F5E702BB
:10445000FD1AB69583C505002380BA00B3D5E702DF
:1044600063F3E70AA147631EF7001C40858B91CBDD
:1044700058401C4863C7E70093070003A38FFAFE68
:10448000FD1A3306564110C84E87CA867000A285B1
:104490002685EFF05FD67D5A6314450D7D55B250E9
:1044A000225492540259F249624AD24A424B45611F
:1044B0008280A382D504971600009386A6F70C404D
:1044C000084313F805081C4111056300080208C3DE
:1044D00013F7150001C793E505020CC04147B1FB76
:1044E0000C4093F5F5FD0CC0A9B713F8050408C3FB
:1044F000E30008FEC207C183E1BF97160000938660
:1045000066F321473DB7AE8791B794411C43CC4930
:1045100013F80608138547006306080008C39C4388
:104520008CC301A808C393F606049C43F5DA2390D4
:10453000B70023280400B28A81BF1C43D0418145C3
:104540009386470014C383AA07005685D52D01C55D
:104550003305554148C05C401CC8A30104042DB775
:1045600014485686CA8526858299E30945F31C407E
:10457000898B8DE7B2474844E353F5F23E8505B792
:1045800085465686CA8526858299E30965F1050A1E
:104590005C443247998FE345FAFEE9BF014A930A2A
:1045A00094017D5BF5B7011122CC26CA4AC806CE1C
:1045B0004EC6AA842E89328401C51C4D91E3392947
:1045C00097170000938787EB6319F406C0401C4CD3
:1045D0001CC48357C400A18BC9C31C48BDCF1C4851
:1045E00008409379F90F1379F90F1D8D5C486346E4
:1045F000F500A2852685D9242DE51C440505FD1767
:104600001CC41C401387170018C0238037015C4866
:104610006389A7008357C400858B81CBA9476316A4
:10462000F900A2852685592C0DEDF24062444A8599
:10463000D2444249B24905618280971700009387AE
:10464000E7E56314F400804459B797170000938797
:10465000E7E0E31EF4F6C0449DBFA2852685212035
:104660003DDD7D59D9B741119387818026C28443AE
:1046700022C44AC006C62A892E8489C49C4C99E368
:104680002685A92E97170000938747DF631CF40245
:10469000C0400317C40093170701C18393F6870036
:1046A000B5EE93F607019DEEA5472320F9001367A9
:1046B00007042316E4007D55B24022449244024987
:1046C0004101828097170000938747DD6314F4004F
:1046D0008044C1B797170000938747D8E31BF4FACB
:1046E000C04445BF918B8DC74C5889C9930744047A
:1046F0006384F5004A859523232A04028357C40066
:104700002322040093F7B7FD2316F4001C481CC0B5
:104710008357C40093E787002316F4001C4881EFF9
:104720008357C4001307002093F707286385E70029
:10473000A2854A8585298357C40013F7170005C74A
:104740005C4823240400B307F0401CCC1C480145FE
:10475000A5F78317C40013F7070839DF93E70704A9
:104760002316F40089BF898B014791E3584818C488
:10477000F1BF4111194506C6F92D0545EF0030146A
:1047800083D7C500011122CC26CA06CE4AC84EC620
:1047900013F78700AA842E8471EFD841634DE0009F
:1047A000B841634AE0000145F2406244D2444249C4
:1047B000B2490561828058547DD703A904009396BD
:1047C000370123A0040063DD060670488357C40048
:1047D000918B99C75C401D8E5C5899C33C401D8EDF
:1047E0005C540C50814626858297FD570357C400C0
:1047F000631DF5009440F54763E8D706B7074020EE
:104800008507B3D7D700858BA5C31C482322040096
:104810001CC09317370163D80700FD576314F500D8
:104820009C4091E368C84C5823A02401ADDD930758
:1048300044046384F50026850D21232A0402A5B7CC
:104840000C500146854626850297FD572A86E31FB0
:10485000F5F69C40A5DF75476385E70059476394EB
:10486000E70423A0240181B7136707042316E4009B
:104870007D551DBF83A90501E38709F203A9050042
:104880008D8B23A0350133093941014791E3D84984
:1048900018C4E35A20F11C540C50CA864E86268553
:1048A00082976349A0008357C40093E70704231647
:1048B000F4007DBFAA993309A940E1BF9C49A5C373
:1048C000011122CC06CE2A8411C51C4D81E72EC6CB
:1048D0003122B24597170000938747BA639CF500D1
:1048E0004C408397C5009DC722856244F240056114
:1048F0006FF01FE997170000938747BA6394F5009C
:104900000C44C5B797170000938747B5E39BF5FCA8
:104910004C44C1BFF24062440145056182800145BB
:104920008280411122C406C62A842316B5002317AB
:10493000C50023200500232205002324050023228F
:10494000050623280500232A0500232C05002146FF
:1049500081451305C505EFB0AFFE970700009387AB
:1049600027535CD097070000938787551CD497077F
:1049700000009387C7595CD4970700009387875C32
:1049800000D01CD8B240224441018280970500002B
:10499000938505F3B1A2411126C2130680069384C4
:1049A000F5FFB384C4024AC02E8922C406C693858B
:1049B0004407B1262A8401CD2320050023222501A6
:1049C000310508C4138684068145EFB06FF7228550
:1049D000B240224492440249410182801C4DADE321
:1049E000411106C622C497070000938767FA1CD5B9
:1049F0009387C1809C432324050423260504232890
:104A000005046314F50085471CCD2A841D2848C081
:104A10002285052808C422852D2048C44840014627
:104A20009145013708440546A545E53D48440946FA
:104A3000C945C53D85471CCCB24022444101828016
:104A4000828041119387C18026C284434AC006C632
:104A50009C4C22C42A8999E326854937938484048F
:104A60008044DC40FD1763D607009C40B9CF8440EA
:104A7000C5BF0317C40039E7C177850723220406A1
:104A80002320040023220400232404005CC42328E0
:104A90000400232A0400232C040021468145130529
:104AA000C405EFB0EFE9232A0402232C04022324D7
:104AB0000404232604042285B2402244924402497D
:104AC000410182801304840671BF91454A85EFF04D
:104AD0009FEC88C049FDB1472320F9000144E1BFA4
:104AE000797122D44AD052CC56CA5AC85EC606D66C
:104AF00026D24ECE2A8AAE8A130485040149054B7C
:104B0000FD5B09ECB25022544A8592540259F24995
:104B1000624AD24A424BB24B4561828004448329A7
:104B20004400FD1963D409000040E1BF83D7C400ED
:104B3000637BFB008397E40063877701A68552853A
:104B4000829A3369A90093848406E1BF1971A6DAB9
:104B5000AE848395E500A2DC86DE328463DC05004A
:104B600083D7C40023A0060093F707089DE39307AB
:104B7000004015A0300836C61521B246E34205FEB6
:104B80007247BD67F98F7977BA9793B717009CC2C0
:104B9000F9BF930700041CC0F6506654D654014573
:104BA0000961828083D7C500011122CC06CE26CAB6
:104BB0004AC8898B2E8489CF930774041CC01CC8F3
:104BC00085475CC8F2406244D24442490561828014
:104BD00074003000AA849D3FA2452A8926850522BB
:104BE00001ED8317C40013F7072069FFF19B93E7DA
:104BF00027002316F400C9B797070000938747D909
:104C00009CD48357C40008C008C893E7070823163C
:104C1000F400A2475CC8B24789CF8315E40026851B
:104C20005D2601C98357C400F19B93E71700231643
:104C3000F4008357C4003369F9002316240159B7DF
:104C400093F5F50F2A966314C500014582808347CA
:104C50000500E38DB7FE0505FDB7CDC183A7C5FFF0
:104C6000411122C406C626C21384C5FF63D30700C0
:104C70003E94AA845D26938701839C4399EB23226B
:104C8000040023A881822244B24026859244410137
:104C900071A6637EF40014403307D4006396E700E6
:104CA0009843DC43369718C05CC0E1BFBA87D8434D
:104CB00019C3E37DE4FE94433386D700631F860067
:104CC0001040B29694C33386D700E31EC7FA104350
:104CD0005843B29694C3D8C37DB76375C400B14737
:104CE0009CC055B71040B306C4006316D7001443E8
:104CF0005843B29614C058C0C0C371B78280011126
:104D000026CA93843500F19806CE22CC4AC84EC6F6
:104D1000A104B14763F1F404B14463E0B4042A8907
:104D2000ED2C9387018398433A8431E09387418344
:104D30009C4391E781454A85512823AAA182A685F3
:104D40004A856920FD5963173507B1472320F900CB
:104D50004A85E92429A0E3D204FCB1471CC10145DE
:104D6000F2406244D2444249B249056182801C400B
:104D7000858F63CE0702AD4663F6F6001CC03E94F5
:104D800004C031A05C406312870223A8F1824A85E7
:104D900071241305B4009307440061993307F5406B
:104DA00061D33A94898F1CC065BF5CC3CDB722879D
:104DB0004040A5BF130435007198E30385FCB3059B
:104DC000A4404A852120E31D35FB41B7411122C48F
:104DD0002A842E8523AE018E06C6D124FD57631783
:104DE000F5009387C18F9C4391C31CC0B2402244FD
:104DF00041018280FD4763F6B700D9471CC17D554C
:104E000082807C41011122CC06CE2E862A8491C755
:104E100013972500BA97984319EB228532C6B5201F
:104E2000AA85228562443246F240056115A885466E
:104E300001456308D700FD566319D700D9471CC048
:104E40000545F2406244056182802E8523A007005B
:104E500002970145FDB793878180AA85884359BF92
:104E6000411122C42A842E85B28523AE018E06C646
:104E70002924FD576317F5009387C18F9C4391C385
:104E80001CC0B240224441018280E1AA411122C4E7
:104E90002E848395E50006C65922634905007C48A7
:104EA000AA977CC8B2402244410182808357C40043
:104EB0007D777D17F98F2316F400EDB783D7C500F2
:104EC000011122CC26CA4AC84EC606CE93F7071057
:104ED000AA842E843289B68991C78395E5008946D4
:104EE000014631228357C4007D777D17F98F231641
:104EF000F4008315E4006244F240CE864A86B2494B
:104F000042492685D24405613DA8411122C42E8420
:104F10008395E50006C6E128FD570357C400631BCF
:104F2000F500FD77FD17F98F2316F400B2402244F7
:104F3000410182808567D98F2316F40068C8FDB7C8
:104F40008395E50005A8411122C42A842E85B285E7
:104F5000368623AE018E06C6EFE00FC7FD576317F6
:104F6000F5009387C18F9C4391C31CC0B24022447B
:104F700041018280411122C42A842E8523AE018EF4
:104F800006C6E120FD576317F5009387C18F9C4348
:104F900091C31CC0B240224441018280411122C40D
:104FA0002A842E85B28523AE018E06C66D20FD575C
:104FB0006317F5009387C18F9C4391C31CC0B24017
:104FC000224441018280411122C42A842E8523AECD
:104FD000018E06C66928FD576317F5009387C18FB8
:104FE0009C4391C31CC0B2402244410182804111C4
:104FF00022C42A842E85B285368623AE018E06C64B
:105000005920FD576317F5009387C18F9C4391C3C7
:105010001CC0B240224441018280828082804111C2
:1050200022C42A842E85B285368623AE018E06C61A
:105030008D20FD576317F5009387C18F9C4391C363
:105040001CC0B2402244410182809307800523AEF8
:10505000F18E7D5582809307800523AEF18E7D55BC
:1050600082809307800523AEF18E7D558280930761
:10507000800523AEF18E014582809307800523AE23
:10508000F18E7D5582809307800523AEF18E7D558C
:1050900082809307800523AEF18E7D5582809387B1
:1050A00081839C4391C73E9523ACA1823E8582803B
:1050B000938701903E9523ACA1823E85828001A01A
:1050C000585F57494454483E780000002E2E2F4C1C
:1050D00069627261726965732F7365656B6672656B
:1050E000655F7065726970686572616C2F534545C4
:1050F0004B465245455F4F4C45442E63000000002F
:1051000028595F57494454482F38293E79000000F8
:105110002D000000200000002B000000256400008E
:1051200025660000636F756E740000002E2E2F4CF4
:1051300069627261726965732F7365656B6672650A
:10514000655F6C69627261726965732F7A665F7000
:1051500069742E63000000007573000000000000F9
:1051600000000000002F00000000070007000014EE
:105170007F147F1400242A7F2A12006264081323FC
:1051800000364955225000000503000000001C2293
:105190004100000041221C000014083E08140008D1
:1051A000083E0808000000A0600000080808080881
:1051B000000060600000002010080402003E514919
:1051C000453E0000427F40000042615149460021B7
:1051D00041454B31001814127F10002745454539D1
:1051E000003C4A494930000171090503003649492C
:1051F000493600064949291E0000363600000000E5
:10520000563600000008142241000014141414142F
:1052100000004122140800020151090600324959D8
:10522000513E007C1211127C007F49494936003EF4
:1052300041414122007F4141221C007F49494941AF
:10524000007F09090901003E4149497A007F0808A9
:10525000087F0000417F4100002040413F01007F66
:1052600008142241007F40404040007F020C027F32
:10527000007F0408107F003E4141413E007F090944
:105280000906003E4151215E007F0919294600466A
:10529000494949310001017F0101003F4040403F41
:1052A000001F2040201F003F4038403F006314088B
:1052B0001463000708700807006151494543000066
:1052C0007F41410000552A552A55000041417F0089
:1052D000000402010204004040404040000001027E
:1052E0000400002054545478007F48444438003867
:1052F0004444442000384444487F003854545418EF
:1053000000087E0901020018A4A4A47C007F080400
:1053100004780000447D4000004080847D00007FD0
:10532000102844000000417F4000007C04180478ED
:10533000007C0804047800384444443800FC2424E9
:1053400024180018242418FC007C080404080048D1
:105350005454542000043F444020003C4040207CF2
:10536000001C2040201C003C4030403C00442810E1
:105370002844001CA0A0A07C004464544C44141495
:10538000141414146F6C65645F7365745F706F73CD
:105390000000000000080140000C01400010014026
:1053A0000014014074696D65725F7069745F696EA5
:1053B000746572727570745F6D730000002C01402B
:1053C0000000004000040040000800400038014098
:1053D0000044004000480040004C00402C2066750E
:1053E0006E6374696F6E3A2000000000617373652C
:1053F0007274696F6E2022257322206661696C6564
:10540000643A2066696C6520222573222C206C6921
:105410006E65202564257325730A0000232D302B2B
:1054200020000000686C4C00656667454647000038
:1054300030313233343536373839414243444546CA
:10544000000000003031323334353637383961628C
:1054500063646566000000000000000000000000BA
:10546000000000000000000000000000000000003C
:10547000000000000000000000000000000000002C
:10548000000000000000000000000000000000001C
:10549000000000000000000000000000000000000C
:1054A00000000000000000000000000000000000FC
:0854B0000000000000000000F4
:1054B80000000000010203040102030406070809B2
:1054C8000C000000240000004C0000002500000033
:1054D800620000004700000000000000785400004F
:1054E800985400005854000000000000000000001C
:1054F80000000000000000000000000000000000A4
:105508000000000000000000000000000000000093
:105518000000000000000000000000000000000083
:105528000000000000000000000000000000000073
:105538000000000000000000020406084D00000002
:085548002800002028000020CB
:00000001FF
