:100000006F00004713000000130000001300000001
:100010001300000013000000130000001300000094
:100020001300000013000000130000001300000084
:08003000130000007300100032
:100038006FF09FFC000000006F0000316F00C031BE
:1000480000000000000000000000000000000000A8
:100058000000000000000000000000000000000098
:100068006FF09FF9000000006FF01FF9000000001A
:100078006FF09FF86FF05FF86FF01FF86FF0DFF721
:100088006FF09FF76FF05FF76FF01FF76FF0DFF615
:100098006FF09FF66FF05FF66FF01FF66FF0DFF509
:1000A8006FF09FF56FF05FF56F0000296FF0DFF4D8
:1000B8006FF09FF46FF05FF46FF01FF40000000022
:1000C8000000000000000000000000006FF0DFF2F8
:1000D8006FF09FF26FF05FF26FF01FF26FF0DFF1D9
:1000E8006FF09FF16F00C00F6F00601E6FF0DFF0C0
:1000F8006FF09FF06FF05FF06FF01FF06FF0DFEFC1
:100108006FF09FEF6F00A01F6F0060206F00C0218D
:100118006FF09FEE6FF05FEE6FF01FEE6FF0DFEDA8
:1001280000000000000000000000000000000000C7
:080138000000000000000000BF
:100140003D432A876373C3029377F700BDEFADE5A4
:10015000937606FF3D8ABA960CC34CC30CC74CC7B6
:100160004107E36BD7FE11E28280B306C3408A06E3
:100170009702000096966780A6002307B700A306A3
:10018000B7002306B700A305B7002305B700A304F3
:10019000B7002304B700A303B7002303B700A302EB
:1001A000B7002302B700A301B7002301B700A300E3
:1001B000B7002300B700828093F5F50F9396850072
:1001C000D58D93960501D58D61B79396270097023B
:1001D000000096968682E78086FA9680C1171D8F6A
:1001E0003E96E374C3F8A5B7411122C600088545C1
:1001F000B707004013850740EF10F000AA87638718
:10020000070C8545B707004013850740EF10B0067F
:100210008397419F3E878397419DBA9713D7F701F4
:10022000BA9785871397070141872398E1828397BF
:10023000019D3E878397219DBA9713D7F701BA97FF
:1002400085871397070141872399E18283978187E7
:100250003E859387818783976700BE8593878187D3
:10026000839727003E8693878187839747000147BE
:10027000BE86EF4090688397419F13D7F741B98FAF
:10028000998F1307000F6340F7048397019D13D7DD
:10029000F741B98F998F1307000F6346F7028397D1
:1002A000419D13D7F741B98F998F1307000F634C06
:1002B000F7008397219D13D7F741B98F998F1307C3
:1002C000000F6355F700EF40D07C01A001003244DD
:1002D000410173002030411122C600088545B7173F
:1002E000004013850780EF100072AA8781CB8545F7
:1002F000B717004013850780EF10E0770100324404
:10030000410173002030411122C60008010032442F
:10031000410173002030411122C600080547238B9C
:10032000E182EF40805E01003244410173002030E1
:10033000411122C6000801003244410173002030FF
:10034000411122C6000801003244410173002030EF
:10035000411122C6000801003244410173002030DF
:10036000411122C6000801A0411106C622C400089E
:10037000EF4080001945EF409012EF20001C9306DB
:100380000031014685451145EF2010589306003194
:10039000014685452545EF203057EF107072130553
:1003A0009004EF10305C13058004EF10B05B130570
:1003B000C002EF10305B2145EF10D05A0146916723
:1003C0009385076513051011EF30604B0146916767
:1003D0009385076513050011EF30604A0146916768
:1003E0009385076513052011EF3060490146916739
:1003F0009385076513053011EF306048014691671A
:100400009385076513050030EF306047014691671B
:100410009385076513051030EF30604601469167FC
:100420009385076513052030EF30604501469167DD
:100430009385076513053030EF306044014693051E
:10044000D0140945EF30A043A1450945EF201077AE
:10045000C5464146B7170700938507800545EF302D
:10046000705B85450545EF309066EF40E05AF5BF7B
:10047000970100209381814117510020130181B819
:1004800017A50000130585A797050020938585B75C
:100490001386818263FAC5008322050023A05500DC
:1004A00011059105E3EAC5FE13858182938541A379
:1004B0006377B500232005001105E36DB5FE9302B7
:1004C000800873A0023097020000938222B793E263
:1004D000120073905230EF40000A9702000093829E
:1004E000E2E87390123473002030397122DE80000C
:1004F0002326A4FC2324B4FC232604FE232004FE8C
:10050000232404FE232E04FC232204FE232C04FCBB
:10051000832784FC9C47BD8B2326F4FE832784FC21
:100520009C47C18B89CB832784FCDC430327C4FE13
:10053000D98F2326F4FE832784FC83D7070093F703
:10054000F70FF1CF8327C4FC9C432322F4FE23241E
:1005500004FE65A8832784FE0547B317F700232E02
:10056000F4FC832784FC83D707003E878327C4FDE0
:10057000F98F2320F4FE032704FE8327C4FD6311B3
:10058000F708832784FE8A07232EF4FC8327C4FD03
:100590003D47B317F700232CF4FC832784FD93C752
:1005A000F7FF032744FEF98F2322F4FE8327C4FDBF
:1005B0000327C4FEB317F700032744FED98F232275
:1005C000F4FE832784FC984793078002631BF7009F
:1005D000832784FE05473317F7008327C4FCD8CB55
:1005E00005A0832784FC984793078004631AF700CB
:1005F000832784FE05473317F7008327C4FC98CB75
:10060000832784FE85072324F4FE032784FE9D4769
:10061000E3F2E7F48327C4FC032744FE98C383274F
:1006200084FC03D707009307F00F63F1E70E8327DD
:10063000C4FCDC432322F4FE232404FE75A8832794
:1006400084FEA1070547B317F700232EF4FC832788
:1006500084FC83D707003E878327C4FDF98F2320BE
:10066000F4FE032704FE8327C4FD6312F7088327E3
:1006700084FE8A07232EF4FC8327C4FD3D47B3176D
:10068000F700232CF4FC832784FD93C7F7FF03278F
:1006900044FEF98F2322F4FE8327C4FD0327C4FE02
:1006A000B317F700032744FED98F2322F4FE8327D4
:1006B00084FC984793078002631BF700832784FE1E
:1006C000A10705473317F7008327C4FCD8CB83273E
:1006D00084FC984793078004631BF700832784FEFC
:1006E000A10705473317F7008327C4FC98CB83275E
:1006F00084FE85072324F4FE032784FE9D47E3F050
:10070000E7F48327C4FC032744FED8C301007254D6
:1007100021618280011122CE00102326A4FEAE8723
:100720002322C4FE2315F4FE832744FE99C70357F2
:10073000A4FE8327C4FE98CB31A00357A4FE8327D1
:10074000C4FED8CB0100724405618280797122D643
:100750000018232EA4FC232CB4FC232404FE232203
:1007600004FE232604FE232004FE8327C4FD63D851
:100770000700B7070140DC4F2326F4FE31A0B7077E
:100780000140DC432326F4FE8327C4FDC183BD8BD7
:100790002320F4FE0327C4FDC167FD17F98F23242E
:1007A000F4FE0327C4FDB70730007D8FB707300084
:1007B0006315F7020327C4FEB70700F1FD17F98F91
:1007C0002326F4FEB7070140D443B707014037079B
:1007D00000F17D17758FD8C3ADA00327C4FDB707FF
:1007E0001000F98F8DCB832704FE0D47B317F70058
:1007F0002322F4FE832744FE93C7F7FF0327C4FE9A
:10080000F98F2326F4FE0327C4FEB707000FD98F04
:100810002326F4FE3DA08327C4FDD583920703273A
:1008200084FEB317F70093C7F7FF0327C4FEF98FC1
:100830002326F4FE0327C4FEB707000FD98F232613
:10084000F4FE832784FD91CF8327C4FDD5839207CF
:10085000032784FEB317F7000327C4FED98F23268E
:10086000F4FE8327C4FD63D80700B70701400327C0
:10087000C4FED8CF31A0B70701400327C4FED8C3B8
:100880000100325445618280011122CE00102326DE
:10089000A4FE8327C4FEFD8B0547B316F70037E798
:1008A00000E08327C4FE9583938707048A07BA97DD
:1008B00094C30100724405618280011122CE0010B0
:1008C0002326A4FE8327C4FEFD8B0547B316F7003D
:1008D00037E700E08327C4FE9583938707068A07DE
:1008E000BA9794C30100724405618280011122CE3F
:1008F00000102326A4FEAE87A305F4FE37E700E030
:100900008327C4FEBA970347B4FE2380E740010063
:10091000724405618280797106D622D40018232E94
:10092000A4FCA30704FE83A781828DE38327C4FD73
:1009300083C707003E878327C4FD83C7270092072C
:1009400093F7F70FBE853A855537D9A203A7818261
:100950008547631FF7048327C4FD03C71700854736
:100960006318F7028327C4FD83C707003E878327E8
:10097000C4FD83C727009207E207E18793E707F8E2
:10098000E207E18793F7F70FBE853A85853749A2DD
:100990008327C4FD83C707003E878327C4FD83C721
:1009A0002700920793F7F70FBE853A8581378DA20E
:1009B00003A781828947631BF7088327C4FD03C708
:1009C0001700854763EEE7028327C4FD03C72700AE
:1009D0008327C4FD83C717008A0793F7F70FBA97D9
:1009E000A307F4FE8327C4FD83C707003E87834720
:1009F000F4FE920793F7F70FBE853A85C53D09AA25
:100A00008327C4FD03C727008327C4FD83C71700BE
:100A10009387E70393F7F70F8A0793F7F70FBA97D0
:100A2000A307F4FE8327C4FD83C707003E878347DF
:100A3000F4FE9207E207E18793E707F8E207E18710
:100A400093F7F70FBE853A855535D9A003A7818264
:100A50008D47631BF7088327C4FD03C717008D4725
:100A600063EEE7028327C4FD03C727008327C4FD85
:100A700083C71700860793F7F70FBA97A307F4FE0B
:100A80008327C4FD83C707003E878347F4FE920790
:100A900093F7F70FBE853A85913D9DA88327C4FD46
:100AA00003C727008327C4FD83C717009387C707A1
:100AB00093F7F70F860793F7F70FBA97A307F4FE9C
:100AC0008327C4FD83C707003E878347F4FE920750
:100AD000E207E18793E707F8E207E18793F7F70F6B
:100AE000BE853A8521352DA003A7818291476311E8
:100AF000F7028327C4FD83C707003E878327C4FD11
:100B000083C71700920793F7F70FBE853A85F93B25
:100B10008327C4FDDC4381CB8327C4FD83C7070043
:100B20003E859D3339A08327C4FD83C707003E85DA
:100B300069330100B250225445618280797122D616
:100B40000018232EA4FC232604FE232404FE2322C3
:100B500004FE232004FEB7170240DC43B18B23269A
:100B6000F4FE0327C4FE91476302F7020327C4FE85
:100B7000A1476305F7028327C4FEC5E78327C4FDA9
:100B800037177A001307072098C365A08327C4FD91
:100B900037177A001307072098C361A8B7170240D8
:100BA000D843B7073C00F98F2324F4FEB71702405F
:100BB000D843C167F98F2322F4FE832784FEC983BB
:100BC00089072324F4FE832744FE89EF032784FE4C
:100BD000B7173D00938707903307F7028327C4FDBB
:100BE00098C381A8B7170240D843B7070200F98F0E
:100BF00089CF032784FEB7173D00938707903307FB
:100C0000F7028327C4FD98C32DA0032784FEB717DE
:100C10007A00938707203307F7028327C4FD98C320
:100C200009A88327C4FD37177A001307072098C344
:100C30000100B7170240DC4393F7070F2326F4FEA9
:100C40008327C4FE91832326F4FEB7070020138771
:100C500007008327C4FEBA9783C7070093F7F70FEF
:100C60002320F4FE8327C4FD9843832704FE3357D3
:100C7000F7008327C4FDD8C3B7170240DC4393F7BE
:100C800007702326F4FE8327C4FEA1832326F4FEE7
:100C9000B7070020138707008327C4FEBA9783C7CE
:100CA000070093F7F70F2320F4FE8327C4FDD843F2
:100CB000832704FE3357F7008327C4FD98C7B7176F
:100CC0000240D843916793870780F98F2326F4FE6B
:100CD0008327C4FEAD832326F4FEB70700201387C5
:100CE00007008327C4FEBA9783C7070093F7F70F5F
:100CF0002320F4FE8327C4FDD843832704FE335703
:100D0000F7008327C4FDD8C7B7170240D843B1679F
:100D1000F98F2326F4FE8327C4FEB9832326F4FE2D
:100D2000B7070020138787088327C4FEBA9783C7B5
:100D3000070093F7F70F2320F4FE8327C4FDD8475D
:100D4000832704FE3357F7028327C4FD98CB0100A5
:100D5000325445618280011122CE00102326A4FE68
:100D60002324B4FE832784FE99CBB7170240944F07
:100D7000B71702400327C4FE558F98CF21A8B71795
:100D80000240944F8327C4FE13C7F7FFB7170240F2
:100D9000758F98CF0100724405618280011122CEC7
:100DA00000102326A4FE2324B4FE832784FE99CBBF
:100DB000B7170240D44FB71702400327C4FE558F20
:100DC000D8CF21A8B7170240D44F8327C4FE13C73A
:100DD000F7FFB7170240758FD8CF01007244056145
:100DE0008280797122D60018232EA4FC232CB4FC17
:100DF000231704FE8327C4FD83D707002317F4FEBF
:100E00000357E4FE8D6793870704F98F2317F4FED9
:100E1000832784FD03D70700832784FD83D727001A
:100E2000D98F139707014183832784FD83D7470018
:100E3000D98F139707014183832784FD83D76700E8
:100E4000D98F139707014183832784FD83D78700B8
:100E5000D98F139707014183832784FD83D7A70088
:100E6000D98F139707014183832784FD83D7C70058
:100E7000D98F139707014183832784FD83D7E70028
:100E8000D98F1397070141838357E4FED98F231726
:100E9000F4FE8327C4FD0357E4FE2390E700832775
:100EA000C4FD83D7C701139707014183FD7793875B
:100EB000F77FF98F1397070141838327C4FD239E92
:100EC000E700832784FD03D707018327C4FD239808
:100ED000E7000100325445618280011122CE0010EA
:100EE0002326A4FE2324B4FE832784FE8DC38327F8
:100EF000C4FE83D70700C207C18393E70704139793
:100F0000070141838327C4FE2390E70005A08327C0
:100F1000C4FE83D70700C207C18393F7F7FB13977B
:100F2000070141838327C4FE2390E7000100724438
:100F300005618280797122D60018232EA4FC232C0F
:100F4000B4FC231704FE8327C4FD83D707002317AF
:100F5000F4FE0327C4FDB7370140938707C0630839
:100F6000F7020327C4FDB70700406302F702032717
:100F7000C4FDB707004093870740630AF7000327C3
:100F8000C4FDB7170040938707806311F7028357AA
:100F9000E4FE93F7F7F82317F4FE832784FD03D7C5
:100FA00027008357E4FED98F2317F4FE8357E4FE0E
:100FB00093F7F7CF2317F4FE832784FD03D7670049
:100FC0008357E4FED98F2317F4FE8327C4FD03570C
:100FD000E4FE2390E700832784FD03D7470083279F
:100FE000C4FD2396E702832784FD03D707008327E8
:100FF000C4FD2394E7020327C4FDB737014093875C
:1010000007C0631DF700832784FD83C787001397FC
:10101000070141838327C4FD2398E7028327C4FD8A
:101020000547239AE70001003254456182807971B7
:1010300022D60018232EA4FC232CB4FC231504FE76
:10104000231704FE231604FE8327C4FD83D707025B
:10105000C207C183F99B1397070141838327C4FD0E
:101060002390E7028327C4FD83D707022317F4FEEA
:101070008327C4FD83D747002316F4FE8327C4FDCE
:1010800083D787012315F4FE8357A4FE93F7F7F85F
:101090002315F4FE8357A4FEF19B2315F4FE83274A
:1010A00084FD03D707008357A4FED98F2315F4FED0
:1010B0008357E4FEF59B2317F4FE832784FD03D7B3
:1010C00087008357E4FED98F2317F4FE832784FD1E
:1010D00003D727008357E4FED98F2317F4FE032795
:1010E000C4FDB7370140938707C0631CF7068357D9
:1010F000E4FEDD9B2317F4FE832784FD03D7A700BE
:101100008357E4FED98F2317F4FE8357E4FEED9B4B
:101110002317F4FE832784FD03D747008357E4FE9B
:10112000D98F2317F4FE8357C4FE93F7F7EF2316E6
:10113000F4FE8357C4FE93F7F7DF2316F4FE8327EC
:1011400084FD03D7C7008357C4FED98F2316F4FE4E
:10115000832784FD03D7E7008357C4FED98F231666
:10116000F4FE8327C4FD0357C4FE2392E7008327C0
:10117000C4FD0357A4FE239CE700832784FD03D707
:1011800067008327C4FD239AE7028327C4FD035722
:10119000E4FE2390E70201003254456182807971B8
:1011A00022D60018232EA4FC232CB4FC231504FE05
:1011B000231704FE231604FE8327C4FD83D70702EA
:1011C000C207C183BD9B1397070141838327C4FDD9
:1011D0002390E7028327C4FD83D707022317F4FE79
:1011E0008327C4FD83D747002316F4FE8327C4FD5D
:1011F00083D787012315F4FE0357A4FEE577FD1777
:10120000F98F2315F4FE8357A4FE93F7F7CF231528
:10121000F4FE832784FD83D70700A20713970701F5
:1012200041838357A4FED98F2315F4FE8357E4FE30
:1012300093F7F7FD2317F4FE832784FD83D78700F8
:1012400092071397070141838357E4FED98F231731
:10125000F4FE832784FD83D72700920713970701A5
:1012600041838357E4FED98F2317F4FE0327C4FD7F
:10127000B7370140938707C06310F70A8357E4FE2E
:1012800093F7F7F72317F4FE832784FD83D7A7008E
:1012900092071397070141838357E4FED98F2317E1
:1012A000F4FE8357E4FE93F7F7FB2317F4FE83273E
:1012B00084FD83D747009207139707014183835723
:1012C000E4FED98F2317F4FE8357C4FE93F7F7BFCC
:1012D0002316F4FE0357C4FEFD779387F77FF98F3B
:1012E0002316F4FE832784FD83D7C7008A0713974C
:1012F000070141838357C4FED98F2316F4FE832749
:1013000084FD83D7E7008A0713970701418383573A
:10131000C4FED98F2316F4FE8327C4FD0357C4FEF1
:101320002392E7008327C4FD0357A4FE239CE70014
:10133000832784FD03D767008327C4FD239CE7022E
:101340008327C4FD0357E4FE2390E70201003254D3
:1013500045618280797122D60018232EA4FC232CAB
:10136000B4FC231504FE231704FE231604FE832772
:10137000C4FD83D70702C207C18393F7F7EF139722
:10138000070141838327C4FD2390E7028327C4FD1F
:1013900083D707022317F4FE8327C4FD83D74700B2
:1013A0002316F4FE8327C4FD83D7C7012315F4FE5B
:1013B0008357A4FE93F7F7F82315F4FE8357A4FE92
:1013C000F19B2315F4FE832784FD03D70700835781
:1013D000A4FED98F2315F4FE8357E4FE93F7F7DFBD
:1013E0002317F4FE832784FD83D78700A207139772
:1013F000070141838357E4FED98F2317F4FE832727
:1014000084FD83D72700A2071397070141838357E1
:10141000E4FED98F2317F4FE0327C4FDB73701403C
:10142000938707C06312F70A0357E4FEFD7793879B
:10143000F77FF98F2317F4FE832784FD83D7A70056
:10144000A2071397070141838357E4FED98F23171F
:10145000F4FE8357E4FE93F7F7BF2317F4FE8327C8
:1014600084FD83D74700A207139707014183835761
:10147000E4FED98F2317F4FE0357C4FEFD77FD1752
:10148000F98F2316F4FE0357C4FEF977FD17F98F81
:101490002316F4FE832784FD83D7C7009207139792
:1014A000070141838357C4FED98F2316F4FE832797
:1014B00084FD83D7E7009207139707014183835781
:1014C000C4FED98F2316F4FE8327C4FD0357C4FE40
:1014D0002392E7008327C4FD0357A4FE239EE70061
:1014E000832784FD03D767008327C4FD239EE7027B
:1014F0008327C4FD0357E4FE2390E7020100325422
:1015000045618280797122D60018232EA4FC232CF9
:10151000B4FC231604FE231504FE231704FE8327C0
:10152000C4FD83D70702139707014183FD77FD1799
:10153000F98F1397070141838327C4FD2390E702A6
:101540008327C4FD83D707022315F4FE8327C4FD38
:1015500083D747002317F4FE8327C4FD83D7C70131
:101560002316F4FE0357C4FEE577FD17F98F231603
:10157000F4FE8357C4FE93F7F7CF2316F4FE8327B8
:1015800084FD83D70700A207139707014183835780
:10159000C4FED98F2316F4FE0357A4FEF977FD1776
:1015A000F98F2315F4FE832784FD83D78700B207C4
:1015B0001397070141838357A4FED98F2315F4FEA7
:1015C000832784FD83D72700B20713970701418340
:1015D0008357A4FED98F2315F4FE0327C4FDB73724
:1015E0000140938707C06316F7020357E4FEF177C3
:1015F000FD17F98F2317F4FE832784FD83D7C700D7
:101600009A071397070141838357E4FED98F231765
:10161000F4FE8327C4FD0357E4FE2392E7008327EB
:10162000C4FD0357C4FE239EE700832784FD03D730
:1016300067008327C4FD2390E7048327C4FD035775
:10164000A4FE2390E702010032544561828001111B
:1016500022CE00102326A4FE2324B4FE832784FE7A
:101660008DC38327C4FE83D70700C207C18393E7D6
:1016700017001397070141838327C4FE2390E700D7
:1016800039A88327C4FE83D70700C207C183F99B0B
:101690001397070141838327C4FE2390E7000100CD
:1016A000724405618280011122CE00102326A4FE1F
:1016B0002324B4FE832784FE95C38327C4FE83D7E7
:1016C0004704139707014183E177D98F13970701E7
:1016D00041838327C4FE2392E70415A08327C4FE19
:1016E00083D74704139707014183A167FD17F98F3B
:1016F0001397070141838327C4FE2392E704010067
:10170000724405618280011122CE00102326A4FEBE
:10171000AE872322C4FE2315F4FE832744FE9DC317
:101720008327C4FE83D7C7001397070141838357DC
:10173000A4FED98F1397070141838327C4FE239604
:10174000E70035A08327C4FE83D7C700139707019E
:1017500041838357A4FE93C7F7FFC207C183F98F64
:101760001397070141838327C4FE2396E7000100F6
:10177000724405618280797122D60018232EA4FC60
:10178000AE87231DF4FC231704FE8327C4FD83D7F3
:1017900087012317F4FE8357E4FEDD9B2317F4FE35
:1017A0000357E4FE8357A4FDD98F2317F4FE832744
:1017B000C4FD0357E4FE239CE70001003254456159
:1017C0008280797122D60018232EA4FCAE87231DB7
:1017D000F4FC231704FE8327C4FD83D78701231756
:1017E000F4FE0357E4FEFD779387F77FF98F231705
:1017F000F4FE8357A4FDA207139707014183835783
:10180000E4FED98F2317F4FE8327C4FD0357E4FEBB
:10181000239CE7000100325445618280797122D611
:101820000018232EA4FCAE87231DF4FC231704FE0E
:101830008327C4FD83D7C7012317F4FE8357E4FE33
:10184000DD9B2317F4FE0357E4FE8357A4FDD98FD5
:101850002317F4FE8327C4FD0357E4FE239EE7000D
:101860000100325445618280797122D60018232EFE
:10187000A4FCAE87231DF4FC231704FE8327C4FDBC
:1018800083D7C7012317F4FE0357E4FEFD77938740
:10189000F77FF98F2317F4FE8357A4FDA207139750
:1018A000070141838357E4FED98F2317F4FE832772
:1018B000C4FD0357E4FE239EE70001003254456156
:1018C0008280797122D60018232EA4FCAE87231DB6
:1018D000F4FC231704FE8327C4FD83D78701231755
:1018E000F4FE8357E4FEED9B2317F4FE0357E4FE5A
:1018F0008357A4FDD98F2317F4FE8327C4FD035714
:10190000E4FE239CE7000100325445618280797136
:1019100022D60018232EA4FCAE87231DF4FC231727
:1019200004FE8327C4FD83D787012317F4FE835762
:10193000E4FE93F7F7BF2317F4FE8357A4FDA20735
:101940001397070141838357E4FED98F2317F4FED1
:101950008327C4FD0357E4FE239CE70001003254B3
:1019600045618280797122D60018232EA4FCAE87AF
:10197000231DF4FC231704FE8327C4FD83D7C7016E
:101980002317F4FE8357E4FEED9B2317F4FE035761
:10199000E4FE8357A4FDD98F2317F4FE8327C4FDEB
:1019A0000357E4FE239EE700010032544561828024
:1019B000797122D60018232EA4FCAE87231DF4FCD7
:1019C000231704FE8327C4FD83D7C7012317F4FE22
:1019D0008357E4FE93F7F7BF2317F4FE8357A4FD64
:1019E000A2071397070141838357E4FED98F23177A
:1019F000F4FE8327C4FD0357E4FE239EE7000100A5
:101A0000325445618280797122D60018232EA4FCBD
:101A1000AE87231DF4FC232604FE231504FE2314A5
:101A200004FE8327C4FD83D7070113970701418371
:101A30008357A4FDF98F2315F4FE8327C4FD83D7B4
:101A4000C7001397070141838357A4FDF98F23141F
:101A5000F4FE8357A4FE81CB835784FE89C7854754
:101A60002326F4FE19A0232604FE8327C4FE3E8508
:101A7000325445618280011122CE00102326A4FE3B
:101A8000AE872315F4FE8357A4FE93C7F7FF139781
:101A9000070141838327C4FE2398E70001007244B5
:101AA000056182805D7186C6A2C48008232EA4FAD7
:101AB000232CB4FA232604FE232404FE232204FE4E
:101AC000232004FE232E04FC8327C4FB232EF4FCD6
:101AD0008327C4FB83D70701C207C1832326F4FEF3
:101AE0000327C4FEB567FD17F98F2326F4FE83276D
:101AF00084FB83D767003E878327C4FED98F2326C4
:101B0000F4FE8327C4FE1397070141838327C4FB98
:101B10002398E7008327C4FB83D7C700C207C1838C
:101B20002326F4FE0327C4FEBD679387379FF98FF2
:101B30002326F4FE832784FB03D74700832784FBF7
:101B400083D78700D98F139707014183832784FBAD
:101B500083D7A700D98FC207C1833E878327C4FEDE
:101B6000D98F2326F4FE8327C4FE139707014183F0
:101B70008327C4FB2396E7008327C4FB83D7470151
:101B8000C207C1832326F4FE0327C4FEC1679387DF
:101B9000F7CFF98F2326F4FE832784FB83D7C70072
:101BA0003E878327C4FED98F2326F4FE8327C4FEF5
:101BB0001397070141838327C4FB239AE700930708
:101BC00084FC3E85EFE09FF70327C4FDB747014043
:101BD000938707806317F700832744FD2324F4FECF
:101BE00029A0832704FD2324F4FE8327C4FB83D785
:101BF000C700C207C183C207C18763D20702032798
:101C000084FEBA878607BA978E073E97832784FBA0
:101C10009C438607B357F7022322F4FE05A003274F
:101C200084FEBA878607BA978E073E97832784FB80
:101C30009C438A07B357F7022322F4FE032744FE8E
:101C400093074006B357F70292072326F4FE832733
:101C5000C4FE13D7470093074006B307F7020327D4
:101C600044FEB307F7402320F4FE8327C4FB83D749
:101C7000C700C207C183C207C18763D20702832797
:101C800004FE8E071387270393074006B357F70216
:101C90009D8B0327C4FED98F2326F4FE05A083273E
:101CA00004FE92071387270393074006B357F702F2
:101CB000BD8B0327C4FED98F2326F4FE8327C4FEE1
:101CC0001397070141838327C4FB2394E700010096
:101CD000B640264461618280011122CE0010232685
:101CE000A4FE2324B4FE832784FE95C38327C4FE69
:101CF00083D7C7001397070141838967D98F13974B
:101D0000070141838327C4FE2396E70015A083279C
:101D1000C4FE83D7C700139707014183F977FD17E6
:101D2000F98F1397070141838327C4FE2396E700A9
:101D30000100724405618280797122D60018232E39
:101D4000A4FCAE87232AC4FC231DF4FC232404FE38
:101D5000232204FE232004FE232604FE8327C4FD41
:101D60002326F4FE8357A4FD93F7F70F958393F78B
:101D7000F70F2324F4FE8357A4FDFD8B2322F4FEEA
:101D8000832744FE0547B317F7002320F4FE0327FB
:101D900084FE85476318F7008327C4FEB107232616
:101DA000F4FE0DA0032784FE89476318F7008327FC
:101DB000C4FEC1072326F4FE31A08327C4FED10749
:101DC0002326F4FE832744FD99CB8327C4FE944346
:101DD0008327C4FE032704FE558F98C321A88327B9
:101DE000C4FE9443832704FE13C7F7FF8327C4FE72
:101DF000758F98C30100325445618280011122CE53
:101E000000102326A4FEAE872315F4FE8357A4FEFC
:101E100093F7F71F1397070141838327C4FE23928B
:101E2000E7000100724405618280797122D60018B2
:101E3000232EA4FCAE87231DF4FC232604FE832757
:101E4000C4FD83D707001397070141838357A4FD7F
:101E5000F98FC207C18389C785472326F4FE19A0DD
:101E6000232604FE8327C4FE3E85325445618280CA
:101E7000011106CE22CC0010AA87A307F4FE130797
:101E8000F4FE9307F4FE85463A86BE850545EF20AD
:101E900080168347F4FE3E85F240624405618280ED
:101EA000797106D622D40018AA872E87232CC4FC69
:101EB000A30FF4FCBA87230FF4FC832784FDFD8B6A
:101EC0000547B317F70093960701C182832784FD66
:101ED000958393F7F70F13F77700A9670A0793879E
:101EE00007BBBA979C433687D8CB8347F4FD93E76B
:101EF00007F8A30FF4FC8347F4FD3E85953F834725
:101F0000E4FD3E85B537832784FDFD8B0547B31778
:101F1000F70093960701C182832784FD958393F789
:101F2000F70F13F77700A9670A07938707BBBA97DC
:101F30009C43368798CB0545EF200018832784FD06
:101F4000FD8B0547B317F70093960701C1828327DE
:101F500084FD958393F7F70F13F77700A9670A07B6
:101F6000938707BBBA979C433687D8CB014509377F
:101F7000AA87A307F4FE0145E53D832784FDFD8B79
:101F80000547B317F70093960701C182832784FDA5
:101F9000958393F7F70F13F77700A9670A079387DD
:101FA00007BBBA979C43368798CB0347E4FD83472A
:101FB000F4FE6304F700854711A081473E85B250C7
:101FC000225445618280011106CE22CC0010AA87DE
:101FD0002324B4FE2322C4FEA307F4FE832744FE79
:101FE000FD8B0547B317F70093960701C18283273E
:101FF00044FE958393F7F70F13F77700A9670A0755
:10200000938707BBBA979C433687D8CB8347F4FEA8
:1020100093E70704A307F4FE8347F4FE3E85893D5A
:102020000145B935832744FEFD8B0547B317F700FB
:1020300093960701C182832744FE958393F7F70F98
:1020400013F77700A9670A07938707BBBA979C43E2
:10205000368798CB0545EF202006832744FEFD8B6D
:102060000547B317F70093960701C182832744FE03
:10207000958393F7F70F13F77700A9670A079387FC
:1020800007BBBA979C433687D8CB0145D533AA877F
:102090003E87832784FE2380E7000145D13B8327C9
:1020A00044FEFD8B0547B317F70093960701C182E5
:1020B000832744FE958393F7F70F13F77700A967FB
:1020C0000A07938707BBBA979C43368798CB0100D2
:1020D000F240624405618280011106CE22CC0010DC
:1020E000AA872324B4FE2317F4FE8357E4FE056772
:1020F000B307F7402317F4FE8357E4FE9207231734
:10210000F4FE8357E4FE93F7F70F032684FEBE85A3
:10211000014579338357E4FEA183C207C18393F756
:10212000F70F032684FEBE8505459D3B0100F24066
:10213000624405618280797106D622D40018232E6C
:10214000A4FC9307F4FE0326C4FDBE851945A53DF6
:102150000347F4FEF147E316F7FE0100B2502254A4
:1021600045618280011106CE22CC00102326A4FEF8
:10217000094881470327C4FE930620021306100274
:10218000930500020545EF10D0530325C4FE6537C3
:102190000326C4FE8145254521338325C4FE014520
:1021A000253F0100F240624405618280797106D6C4
:1021B00022D40018AA872E87A30FF4FCBA87230F16
:1021C000F4FCA967938707BB9C473E8793070004ED
:1021D0005CCB8347F4FD2306F4FE8347E4FDA306AE
:1021E000F4FE1307C4FE9307C4FE89463A86BE85F3
:1021F0000545EF105060A967938707BB9C473E8752
:10220000930700041CCB0100B25022544561828028
:10221000797106D622D40018AA87232CB4FCA30F08
:10222000F4FCA967938707BB9C473E87930700048C
:102230005CCB8347F4FD93E707F893F7F70F23068A
:10224000F4FE832784FD83C70700A306F4FE13076B
:10225000C4FE9307C4FE89463A86BE850545EF1045
:1022600090590347D4FE832784FD2380E700A967A4
:10227000938707BB9C473E87930700041CCB010054
:10228000B250225445618280011106CE22CC00104A
:10229000A30704FE21A89307F4FEBE85130550078B
:1022A000853F856713858738EF1010610347F4FE7B
:1022B000C947E312F7FE0100F240624405618280E3
:1022C000011106CE22CC0010A30704FE89671385F6
:1022D0000771EF10705E0948814713076004930689
:1022E000200213061002930500020545EF10703D11
:1022F000613F930500081305B0064D3D1305007DB1
:10230000EF10905B9307F4FEBE851305B006093706
:10231000896713850771EF10305A0347F4FE93075E
:102320001004E311F7FE85451305B00641358145DC
:102330001305C006A53D8D4569458D3D9D45654507
:10234000B535E1456D459D35C145714585359305EB
:1023500060027545A13D0100F24062440561828042
:10236000797122D60018AA87A30FF4FCA147A3070E
:10237000F4FEA967938707BB9C473E87A1675CCBA8
:10238000A967938707BB9C473E8791671CCBA967CA
:1023900083A707BB3E87930700025CCBB9A08307E6
:1023A000F4FD63DA0700A96783A707BB3E8793079D
:1023B00000081CCB01A8A96783A707BB3E8793072A
:1023C00000085CCBA96783A707BB3E879307000281
:1023D0001CCBA96783A707BB3E87930700025CCB92
:1023E0008347F4FD8607A30FF4FC8347F4FE1387AD
:1023F000F7FFA307E4FEC5F7A967938707BB9C47D0
:102400003E87A1671CCB01003254456182807971FF
:1024100022D60018AA87A30FF4FCA147A307F4FE55
:10242000A967938707BB9C473E87A1675CCBA967D9
:10243000938707BB9C473E8791675CCBA96783A7BF
:1024400007BB3E87930700025CCBB9A08307F4FD6E
:1024500063DA0700A96783A707BB3E8793070008D5
:102460001CCB01A8A96783A707BB3E879307000879
:102470005CCBA96783A707BB3E87930700021CCBF1
:10248000A96783A707BB3E87930700025CCB8347FE
:10249000F4FD8607A30FF4FC8347F4FE1387F7FFD0
:1024A000A307E4FEC5F7A967938707BB9C473E8750
:1024B000A1671CCB0100325445618280797122D61C
:1024C0000018AA87232CB4FC231FF4FC9947A30708
:1024D000F4FE8347F4FE032784FDBA9723800700A8
:1024E000B1A08347F4FEFD17A307F4FE0357E4FDF4
:1024F000A947B377F702C207C1832307F4FE035746
:10250000E4FDA947B357F702231FF4FC8347E4FE19
:102510009387070393F6F70F8347F4FE032784FDA1
:10252000BA971397860161872380E7008347F4FEFB
:10253000CDFB0100325445618280411106C622C4A0
:10254000000893060031054685451545EF00D03B50
:1025500093060031014685451D45EF00F03A93068C
:102560000031054685451305D004EF00F039930688
:102570000031054685451305E004EF00F038930669
:102580000031054685451305F004EF00F037A967D3
:1025900083A707BB3E87930700021CCBA9679387DD
:1025A00007BB9C473E8789675CCBB16713850735BE
:1025B000EF109030A967938707BB9C473E878967D8
:1025C0001CCB1305E00AA135014591354145813504
:1025D000130500042D3D13051008153D1305F007E4
:1025E0003D351305100A25351305800C0D351305EF
:1025F000600A313D1305800A193D1305F003013DC2
:102600001305300D2935014519351305500D0135D8
:1026100013050008ED3B1305900DD53B1305100F76
:10262000FD331305A00DE5334945D5331305B00D32
:10263000F93B13050004E13B13050002C93B0945C2
:10264000F9331305D008E1335145D1331305400A5E
:102650007D3B1305600A653B1305F00A4D3B0145C0
:1026600075208145014531200100B24022444101DD
:102670008280011106CE22CC0010AA872E87A307E4
:10268000F4FEBA872307F4FE8307F4FE63DF070036
:10269000A56793868769A967138607A59305900D9B
:1026A000A5671385476AEF50B04F0347E4FE9D4787
:1026B00063FFE700A5679386876DA967138607A563
:1026C0009305A00DA5671385476AEF50704D8347AA
:1026D000E4FE938707FB93F7F70F3E850D3B834797
:1026E000F4FE918393F7F70F93E7070193F7F70F42
:1026F0003E85313B8347F4FEBD8B93F7F70F3E8554
:1027000039330100F240624405618280797106D656
:1027100022D40018AA87A30FF4FCA30704FE91A0FB
:102720008347F4FE938707FB93F7F70F3E85C53188
:102730000545F1394145E139230704FE11A88347D6
:10274000F4FD3E8531398347E4FE85072307F4FE17
:102750008307E4FEE3D507FE8347F4FE8507A3075E
:10276000F4FE0347F4FE9D47E3FCE7FA0100B25094
:10277000225445618280797106D622D40018AA8736
:102780002E87232CC4FCA30FF4FCBA87230FF4FC80
:10279000A30604FEA30704FE230704FE49A88347FB
:1027A000E4FE032784FDBA978387070093F7F70FAA
:1027B0008117A306F4FE0347F4FD9307E00763F9CE
:1027C000E700A30F04FC8347E4FD8507230FF4FC17
:1027D0000347E4FD8347F4FDBA853E85593DA307D1
:1027E00004FE3DA00347D4FE8346F4FE2966BA8763
:1027F0008607BA97860713078682BA97B69783C764
:1028000007003E85B13E8347F4FE8507A307F4FE2B
:102810000347F4FE9547E3F7E7FC8347F4FD990788
:10282000A30FF4FC8347E4FE85072307F4FE8347E8
:10283000E4FE032784FDBA9783870700ADF3010008
:10284000B250225445618280797106D622D4001894
:10285000AA87AE863287A30FF4FCB687230FF4FC59
:10286000BA87231EF4FC130784FE8357C4FDBA8580
:102870003E85A931930784FE938617000347E4FD44
:102880008347F4FD3686BA853E85F5350100B250A2
:10289000225445618280797106D622D40018AA8715
:1028A000AE863287A30FF4FCB687230FF4FCBA87F9
:1028B000231EF4FC8317C4FD63D507028357C4FDB0
:1028C000B307F040C207C183231EF4FC8346E4FD36
:1028D0000347F4FDA5671386876EB6853A85613D8B
:1028E00019A88346E4FD0347F4FDA5671386C76E68
:1028F000B6853A8549358347F4FD9907A30FF4FC63
:102900008357C4FD130784FEBA853E85453E930771
:1029100084FE938617000347E4FD8347F4FD368663
:10292000BA853E85893D0100B250225445618280BE
:102930005D7186C6A2C48008AA87232CC4FA368794
:10294000231FF4FAAE87231EF4FABA87A30BF4FA16
:10295000034774FBA94763F5E700A947A30BF4FA03
:10296000834774FB8507A30BF4FA832784FB63DF9B
:1029700007001307C4FC032684FBA5679385476FF4
:102980003A85352CAA87A307F4FEB9A09307000265
:102990002306F4FC9307C4FC13871700032684FB6B
:1029A000A5679385476F3A85192CAA87A307F4FE7C
:1029B0008347F4FE8507A307F4FE39A88347F4FE96
:1029C000130704FFBA9713070002238EE7FC83471F
:1029D000F4FE8507A307F4FE0347F4FE834774FB68
:1029E000E36EF7FC834774FB130704FFBA97238E4B
:1029F00007FC8357E4FB93F7F70F0357C4FB1377E8
:102A0000F70F9306C4FC3686BA853E85AD330100C8
:102A1000B640264461618280797122D60018232E47
:102A2000A4FC232CB4FCB2873687A30BF4FCBA8732
:102A3000230BF4FCA30304FE230304FE834774FD6D
:102A4000A5CB8327C4FD2326F4FE8327C4FE63D8C9
:102A500007008327C4FEB307F0402326F4FE834714
:102A600064FD0327C4FEB367F70293F7F70F93875C
:102A7000070393F7F70F139787016187832784FD77
:102A80002380E700834764FD0327C4FEB347F702B2
:102A90002326F4FE834764FE85072303F4FE832781
:102AA000C4FEC9C3832784FD8507232CF4FC45BFDE
:102AB0008327C4FD2324F4FE834764FD032784FE9B
:102AC000B377F702A303F4FE034774FEA54763F947
:102AD000E700834774FE93877703A303F4FE39A0CE
:102AE000834774FE93870703A303F4FE030774FE72
:102AF000832784FD2380E700834764FD032784FE4A
:102B0000B357F7022324F4FE834764FE85072303AB
:102B1000F4FE832784FE89CB832784FD8507232C3D
:102B2000F4FC59BF010011A00100834764FE3E85FB
:102B3000325445618280797122D60018232EA4FC7C
:102B4000232CB4FC232604FE85A0032784FD8327C1
:102B5000C4FEB307F740FD170327C4FDBA9783C728
:102B60000700A305F4FE0327C4FD8327C4FE3E9798
:102B7000832684FD8327C4FEB387F640FD17832692
:102B8000C4FDB697030707002380E7000327C4FDB1
:102B90008327C4FEBA970347B4FE2380E700832748
:102BA000C4FE85072326F4FE832784FD858303273F
:102BB000C4FEE36CF7F80100325445618280357140
:102BC00086DEA2DC00012326A4F82324B4F810C476
:102BD00054C418C85CC8232C0401232E14012326D6
:102BE00004FE93070402A117232AF4FA09A38327FA
:102BF00084F883C70700A301F4FE030734FE93079C
:102C00005002631DF74A832784F885072324F4F8CC
:102C1000832784F8838707009387B7FD1307300560
:102C20006361F74C13972700A967938707A6BA97A4
:102C30009C438287832744FB13874700232AE4FAB7
:102C40009C432301F4FE8327C4F8034724FE23801A
:102C5000E7008327C4F885072326F4F88327C4FEFA
:102C600085072326F4FEBDA9832744FB138747006D
:102C7000232AE4FA9C43232EF4FC8327C4FD130784
:102C800004F9A9460546BA853E857933AA87A30586
:102C9000F4FE8327C4FD63D007028347B4FE130705
:102CA00004FFBA971307D0022380E7FA8347B4FEE4
:102CB0008507A305F4FE0347B4FE930704F9BA851C
:102CC0003E85953D0347B4FE930704F93A86BE85D9
:102CD0000325C4F8EF50C0728347B4FE0327C4F83D
:102CE000BA972326F4F88347B4FE0327C4FEBA97A5
:102CF0002326F4FEC5AE832744FB9D07E19B138783
:102D00008700232AE4FA03A847009C432328F4FC05
:102D1000232A04FD032504FD832544FDEF40A06123
:102D2000AA873E87930704F9A9460546BE853A85DA
:102D3000E531AA872305F4FE01468146032504FDFB
:102D4000832544FDEF307014AA8763D007028347C0
:102D5000A4FE130704FFBA971307D0022380E7FAF3
:102D60008347A4FE85072305F4FE0347A4FE9307CB
:102D700004F9BA853E85C1330347A4FE930704F9DD
:102D80003A86BE850325C4F8EF5080678347A4FECA
:102D90000327C4F8BA972326F4F88347A4FE032731
:102DA000C4FEBA972326F4FE032504FD832544FDC3
:102DB000EF406058AA873E85EF40605EAA872E8864
:102DC0003E86C286032504FD832544FDEF30D06294
:102DD000AA872E883E85C285A56703A6077083A6AD
:102DE0004770EF30F015AA872E882328F4FC232A99
:102DF00004FD01468146032504FD832544FDEF3093
:102E00003002AA8785C7032504FD832544FDEF40D2
:102E10008052AA873E87930704F9A9460546BE85D6
:102E20003A85DD3EAA872305F4FE99A8930700039F
:102E3000A30AF4F8830754F9230AF4F8830744F942
:102E4000A309F4F8830734F92309F4F8830724F974
:102E5000A308F4F8830714F92308F4F89947230525
:102E6000F4FE39A88347A4FE130704FFBA9713079B
:102E700000032380E7FA8347A4FE85072305F4FEB9
:102E80000347A4FE9547E3FFE7FC8347A4FE13072F
:102E900004FFBA971307E0022380E7FA8347A4FEF2
:102EA00085072305F4FE0347A4FE930704F9BA85BA
:102EB0003E8551310347A4FE930704F93A86BE8547
:102EC0000325C4F8EF50C0538347A4FE0327C4FE74
:102ED000BA972326F4FE010031A4832744FB13870D
:102EE0004700232AE4FA9C432326F4FC930704F9C1
:102EF000A9460146BE850325C4FCEFF0FFB1AA87B1
:102F0000A305F4FC0347B4FC930704F9BA853E8596
:102F10001D310347B4FC930704F93A86BE850325A7
:102F2000C4F8EF50E04D8347B4FC0327C4F8BA97C8
:102F30002326F4F88347B4FC0327C4FEBA9723265C
:102F4000F4FE4DA2832744FB13874700232AE4FAAB
:102F50009C432322F4FC930704F9A1460146BE8555
:102F6000032544FCEFF05FABAA87A301F4FC034701
:102F700034FC930704F9BA853E85753E034734FC5B
:102F8000930704F93A86BE850325C4F8EF504047FD
:102F9000834734FC0327C4F8BA972326F4F8834701
:102FA00034FC0327C4FEBA972326F4FE25AA832700
:102FB00044FB13874700232AE4FA9C43232EF4FAA8
:102FC000930704F9C1460146BE850325C4FBEFF013
:102FD000BFA4AA87A30DF4FA0347B4FB930704F92F
:102FE000BA853E85EFF03FB50347B4FB930704F97C
:102FF0003A86BE850325C4F8EF5080408347B4FB72
:103000000327C4F8BA972326F4F88347B4FB0327B1
:10301000C4FEBA972326F4FEF1A0832744FB13874E
:103020004700232AE4FA9C432322F4FE05A88327C1
:1030300044FE038707008327C4F82380E700832723
:10304000C4F885072326F4F88327C4FE85072326C2
:10305000F4FE832744FE85072322F4FE832744FEE3
:1030600083870700E9F7BDA8930704F9A1453E85CA
:10307000EFF07FAC930704F92146BE850325C4F821
:10308000EF5000388327C4F8A1072326F4F88327DC
:10309000C4FEA1072326F4FEB1A08327C4F81307BA
:1030A00050022380E7008327C4F885072326F4F81D
:1030B0008327C4FE85072326F4FE2DA0832784F8EA
:1030C000038707008327C4F82380E7008327C4F819
:1030D00085072326F4F88327C4FE85072326F4FEFC
:1030E00011A00100832784F885072324F4F883279F
:1030F00084F883870700E39C07AE8327C4FE3E85E0
:10310000F65066540D618280797106D622D400187B
:10311000232EA4FC232CB4FCB2872328D4FCA30BBD
:10312000F4FC8327C4FD958393F7F70F9D8BA307CA
:10313000F4FE8327C4FD93F7F70FFD8B2307F4FEFE
:103140000327C4FD93070008630DF7148327C4FD0C
:10315000958391E785451145EFD0FFBF61A883278F
:10316000C4FD13D7570085476317F70085452145F0
:10317000EFD07FBE41A08327C4FD13D757008947F6
:103180006317F70085454145EFD0FFBCA5A0832715
:10319000C4FD13D757008D476318F7008545130505
:1031A0000002EFD05FBBB9A08327C4FD13D757003F
:1031B00091476318F700854513050004EFD0BFB9A8
:1031C00015A88327C4FD13D7570095476318F70048
:1031D000854513050008EFD01FB829A88327C4FD33
:1031E00013D7570099476317F7008545130500105B
:1031F000EFD07FB68347E4FE0547B317F700C20759
:10320000C1832310F4FE032784FD85476317F7026B
:10321000832704FDC207C183A183C207C18389E755
:103220008D472322F4FE11A8832704FDC207C18322
:10323000A183C207C1832322F4FE832704FDC207B2
:10324000C18393F7F70F2324F4FE0347F4FEA96725
:103250000A07938707BBBA979C433E87930704FEF0
:10326000BE853A85EFD06FA8032784FD8547631B91
:10327000F7020347F4FEA9670A07938707BBBA97CB
:103280009C43BE868347E4FE0547B317F700C20799
:10329000C183034774FD3A86BE853685EFD08FC75C
:1032A00011A00100B250225445618280797122D66A
:1032B0000018232EA4FC8327C4FD958393F7F70FF2
:1032C0009D8BA307F4FE8327C4FD93F7F70FFD8BB7
:1032D0002307F4FE0347F4FEA9670A07938707BB99
:1032E000BA979C439C470347E4FE85463397E60024
:1032F000F98F99C3854711A081473E8532544561B6
:103300008280797106D622D40018232EA4FCAE87C1
:103310003687A30DF4FCB287230DF4FCBA87A30C07
:10332000F4FC8327C4FD93F7F70F2304F4FE8347CF
:10333000B4FDA304F4FE8347A4FD2305F4FE8347F4
:1033400094FD2326F4FE930784FE3E85EFD0AFDC88
:10335000B7E700E09843FD777D8F83A7C1865D8F37
:1033600023A6E186B7E700E0D843B7070010FD17B2
:103370007D8F9387C186DC435D8F9387C186D8C3D9
:103380009387C18603C7870085476313F700312001
:103390000100B250225445618280411122C60008CA
:1033A000B7E700E07D5723A0E718B7E700E07D57B7
:1033B00023A2E7180100324441018280797106D6C8
:1033C00022D40018232EA4FCAE87231DF4FC8327EF
:1033D000C4FD81EB8545856713850780EFD0BF97D6
:1033E00035A80327C4FD85476317F70085450545C4
:1033F000EFD0DF9A25A00327C4FD89476317F700A4
:1034000085450945EFD09F9911A80327C4FD8D4735
:103410006316F70085451145EFD05F988357A4FDEB
:1034200091EFA56793868770A967138607BC9305FC
:103430002003A56713850771EF409076ED7793879A
:10344000F7BD2314F4FE8357A4FD8607C207C1838A
:10345000FD17C207C1832312F4FE231504FE2313B4
:1034600004FE230604FEA9670327C4FD0A07938709
:1034700087BDBA979C433E87930744FEBE853A8535
:10348000EFD05FABA9670327C4FD0A07938787BD09
:10349000BA979C43054685453E85EFE0CFA6832736
:1034A000C4FD81EB85460946814513059002913D97
:1034B000A1A00327C4FD85476319F7008546094687
:1034C00081451305C002353D05A80327C4FD894782
:1034D0006319F7008546094681451305D002153565
:1034E00021A80327C4FD8D476318F70085460946C8
:1034F00081451305E0023135A9670327C4FD0A079A
:10350000938787BDBA979C4385453E85EFE02F940E
:103510000100B250225445618280011106CE22CCB6
:1035200000102326A4FE0327C4FE93070020630790
:10353000F7240327C4FE9307002063EAE70A032762
:10354000C4FE930710106300F71C0327C4FE930703
:10355000101063E2E7040327C4FE8947630DF716E2
:103560000327C4FE894763ECE7008327C4FE638416
:1035700007140327C4FE85476307F714E5AC032748
:10358000C4FE8D476301F7160327C4FE930700109E
:103590006303F716C5A40327C4FE93070011630C49
:1035A000F7180327C4FE9307001163EFE700032712
:1035B000C4FE930720106300F7160327C4FE930789
:1035C00030106302F7167DA40327C4FE9307201171
:1035D0006304F7180327C4FE930720116365F716E9
:1035E0000327C4FE930730116301F71861A4032772
:1035F000C4FE930730216300F7200327C4FE93071E
:10360000302163EEE7040327C4FE930730206300F4
:10361000F71A0327C4FE9307302063EFE700032760
:10362000C4FE930710206303F7160327C4FE930715
:1036300020206305F7163DAC0327C4FE9307102135
:103640006309F7180327C4FE9307102163ECE718FA
:103650000327C4FE930700216304F71621AC032758
:10366000C4FE930700306303F71C0327C4FE9307CF
:10367000003063EFE7000327C4FE930700226305D1
:10368000F7180327C4FE930710226308F718DDA27A
:103690000327C4FE93072030630CF71A0327C4FEE8
:1036A00093072030636DF7180327C4FE930730306B
:1036B0006309F71AC1A29306803101468545214569
:1036C000EFF09FA445AA9306803101468545254524
:1036D000EFF09FA345A29306803101468545294519
:1036E000EFF09FA241AA93068031014685452D4502
:1036F000EFF09FA141A29306803101468545014527
:10370000EFF09FA085AA93068031014685450545C7
:10371000EFF09F9F85A293068031014685450945BC
:10372000EFF09F9E81AA93068031014685450D45A5
:10373000EFF09F9D81A293068031014685453D456E
:10374000EFF09F9C05AA930680310146854513053D
:103750003002EFF07F9B39AA930680310146854500
:103760001305A002EFF05F9A31A293068031014663
:1037700085451305B002EFF03F99EDA8930680311F
:10378000014685451945EFF03F98EDA0930680313D
:10379000014685451D45EFF03F97E9A89306803126
:1037A0000146854513050002EFF01F96E1A0930640
:1037B00080310146854513051002EFF0FF945DA8A6
:1037C000930680310146854513056004EFF0DF93D1
:1037D00055A0930680310146854513057004EFF02E
:1037E000BF9249A8930680310146854513058004A0
:1037F000EFF09F9141A09306803101468545130566
:103800009004EFF07F90BDA093068031014685457E
:1038100013054002EFF05F8FB1A893068031014697
:10382000854513055002EFF03F8EA9A09306803125
:103830000146854513056002EFF01F8D25A893060C
:1038400080310146854513057002EFF0FF8B1DA006
:10385000930680310146854513058002EFF0DF8A2B
:1038600011A8930680310146854513059002EFF0BB
:10387000BF8901000100F240624405618280397114
:1038800006DE22DC80002326A4FC2324B4FC2322B1
:10389000C4FC231704FE0325C4FCEFF01FC88327D4
:1038A000C4FCA18381EB8545856713850780EFD034
:1038B0008FCAA1A08327C4FC13D78700854763174D
:1038C000F70085450545EFD06FCD05A88327C4FCDB
:1038D00013D7870089476317F70085450945EFD05F
:1038E000EFCB21A88327C4FC13D787008D4763162D
:1038F000F70085451145EFD06FCA85450545EFD0E6
:103900008FC58327C4FC13D74700C147631AF7004C
:103910008545B707160013850704EFC03FE3B9A834
:103920008327C4FC13D74700C547631AF7008545B2
:10393000B707180013850730EFC05FE181A0832728
:10394000C4FC13D7470093071002631AF70085459C
:10395000B7171A00138507C0EFC05FDF05A08327E4
:10396000C4FC13D74700930720026319F70085456D
:10397000B7171A0013850780EFC05FDDB717024045
:10398000DC43C98313F7F700B7177A009387072042
:103990003307F702B727F400938707403E9723A623
:1039A000E18203A7C182832784FCB357F702C18356
:1039B0002317F4FE03A7C1828357E4FE8507BE8662
:1039C000832784FCB387F602B357F7022316F4FE6D
:1039D0000357C4FE832744FC3307F70289679387A4
:1039E0000771B357F7022315F4FE8357C4FEFD1782
:1039F000C207C1832312F4FE8357E4FE2310F4FEB2
:103A0000231304FE231104FE230404FE930700077E
:103A10002318F4FC85472319F4FC231A04FC83576C
:103A2000A4FE231BF4FC8947231CF4FC8947231DB7
:103A3000F4FC231E04FC231F04FC8327C4FC13D7BF
:103A40008700A9670A07938787BDBA979C433E877B
:103A5000930704FEBE853A85EFD0CFCD8327C4FC03
:103A60008D8BB9EF8327C4FC13D78700A9670A079A
:103A7000938787BDBA979C433E87930704FDBE8515
:103A80003A85EFD0CFDA8327C4FC13D78700A96724
:103A90000A07938787BDBA979C43A1453E85EFD01F
:103AA0009FCD8327C4FC13D78700A9670A07938794
:103AB00087BDBA979C4391453E85EFD09FE089A290
:103AC0008327C4FC13F7370085476311F706832764
:103AD000C4FC13D78700A9670A07938787BDBA97E5
:103AE0009C433E87930704FDBE853A85EFD02FEBBC
:103AF0008327C4FC13D78700A9670A07938787BD6C
:103B0000BA979C43A1453E85EFD0BFCB8327C4FC29
:103B100013D78700A9670A07938787BDBA979C4385
:103B2000930500403E85EFD09FDED9A88327C4FCD3
:103B300013F7370089476310F7068327C4FC13D7B0
:103B40008700A9670A07938787BDBA979C433E877A
:103B5000930704FDBE853A85EFD0CFFF8327C4FCD1
:103B600013D78700A9670A07938787BDBA979C4335
:103B7000A1453E85EFD09FCA8327C4FC13D7870099
:103B8000A9670A07938787BDBA979C4391453E85ED
:103B9000EFD05FDDB5A08327C4FC13F737008D4756
:103BA0006310F7068327C4FC13D78700A9670A07A9
:103BB000938787BDBA979C433E87930704FDBE85D4
:103BC0003A85EFD03F948327C4FC13D78700A967B9
:103BD0000A07938787BDBA979C43A1453E85EFD0DE
:103BE000BFC88327C4FC13D78700A9670A07938738
:103BF00087BDBA979C43930500403E85EFD05FDBBD
:103C00008327C4FC13D78700A9670A07938787BD5A
:103C1000BA979C4385453E85EFD07FA38327C4FC9C
:103C200013D78700A9670A07938787BDBA979C4374
:103C300085453E85EFD03FA70100F25062542161D7
:103C40008280797122D60018232EA4FC232CB4FC88
:103C50008327C4FD13D78700A9670A07938787BD09
:103C6000BA979C4383D7C7022317F4FE0357E4FE99
:103C7000832784FD3307F702896793870771B3575A
:103C8000F7022316F4FE8327C4FDA18385E383276F
:103C9000C4FD13F73700B75700109387D7B0BA9712
:103CA0008A073E878357C4FE1CC349A08327C4FDEF
:103CB00013D7870085476310F7028327C4FD13F7E6
:103CC0003700B7070010B507BA978A073E878357B2
:103CD000C4FE1CC3A1A88327C4FD13D7870089474E
:103CE0006311F7028327C4FD13F73700B7070010ED
:103CF0009387D710BA978A073E878357C4FE1CC3A1
:103D000035A08327C4FD13D787008D476310F702C2
:103D10008327C4FD13F73700B70700109387D72018
:103D2000BA978A073E878357C4FE1CC301003254EA
:103D300045618280011106CE22CC00102326A4FE0C
:103D40002324B4FE2322C4FE2320D4FE8327C4FEF2
:103D500089EB93068031054685451545EFF0CFBACE
:103D600099A80327C4FEC147631BF700930680315F
:103D70000546854513053002EFF00FB92DA803273E
:103D8000C4FE93070002631BF700930680310546CB
:103D900085451305D002EFF02FB731A8A5679386AC
:103DA0000774A967138687BE9305D002A56713859C
:103DB0004774EF40E05E032784FE8547631AF700EF
:103DC00093068031054685451D45EFF0EFB399A870
:103DD000032784FEC547631BF70093068031054621
:103DE000854513055002EFF02FB22DA8032784FE5E
:103DF00093071002631BF700930680310546854543
:103E00001305F002EFF04FB031A8A5679386077451
:103E1000A967138687BE93052003A567138547749A
:103E2000EF400058032744FE8947631AF7009306C2
:103E30008031054685451945EFF00FADB5A0032744
:103E400044FEC947631BF70093068031054685454C
:103E500013054002EFF04FAB81A8032744FE930700
:103E60002002631BF7009306803105468545130544
:103E7000E002EFF06FA90DA8032744FE930730027C
:103E80006317F700930730022322F4FE31A8A567D9
:103E900093860774A967138687BE93058003A56779
:103EA00013854774EF40C04F9306003105468545A2
:103EB000032504FEEFF04FA50100F24062440561C6
:103EC00082805D7186C6A2C480082326A4FC2324B8
:103ED000B4FC2322C4FC2320D4FC232EE4FA232A9E
:103EE00004FBA30DF4FA8327C4FC81EB85458567A9
:103EF00013851700EFC03FE621A80327C4FC8547C0
:103F00006318F7008545916713851700EFC01FE917
:103F10008326C4FB032604FC832544FC032584FC80
:103F2000113D231E04FC93074010231FF4FC2310B3
:103F300004FE8347B4FB05476383E70205476344F8
:103F4000F70089CB81A009476381E7020D476384AD
:103F5000E7020DA8231104FE231204FE25A023115D
:103F600004FE85472312F4FE31A889472311F4FE8D
:103F7000231204FE01A889472311F4FE854723126A
:103F8000F4FE0100930700202313F4FE832744FB73
:103F9000C207C1838E07C207C1832314F4FE231511
:103FA00004FE9D472316F4FE0327C4FC0A079387EB
:103FB0008181BA979C433E879307C4FDBE853A85AD
:103FC000EFC03FE2032784FCC1476316F700854535
:103FD0000545EFC0AFF70327C4FC0A07938781812B
:103FE000BA979C4385453E85EFC03FEF0100B64040
:103FF000264461618280011122CE00102326A4FE96
:104000002324B4FE2322C4FE2320D4FE59A8010099
:104010000327C4FE0A0793878181BA979C4383D7FD
:104020008700C207C183898BE5D7832784FE138766
:1040300017002324E4FE83C607000327C4FE0A07F3
:1040400093878181BA979C433E8793970601C183EA
:104050002316F700832744FEA9C701000327C4FEE7
:104060000A0793878181BA979C4383D78700C20749
:10407000C183858BE5D70327C4FE0A079387818117
:10408000BA979C4383D7C70093960701C1828327C1
:1040900044FE138717002322E4FE13F7F60F238054
:1040A000E700832704FE1387F7FF2320E4FEA5F330
:1040B0000100724405618280797122D60018232E96
:1040C000A4FCB7F700E023A0070003A7C182B7173D
:1040D0007A0093870720B357F7020327C4FDB3077D
:1040E000F7022326F4FEB7F700E023820700B7F7B4
:1040F00000E0A3820700B7F700E023830700B7F7CB
:1041000000E0A3830700B7F700E0054798C301006C
:10411000B7F700E091079C430327C4FEE37AF7FE5C
:104120000100325445618280011106CE22CC00107C
:104130002326A4FE2324B4FE8327C4FE85E7032799
:1041400084FE85476310F70293068031014685455A
:104150002545EFE07FFB9146014681452945EFE08B
:10416000BFFA65A00327C4FE89476312F7029306CE
:1041700080310146854513056002EFE0FFF8914666
:104180000146814513057002EFE01FF8BDA8032723
:10419000C4FEC1476310F70293068031014685458E
:1041A0000945EFE07FF69146014681450D45EFE078
:1041B000BFF5A1A80327C4FE930700026312F7020C
:1041C00093068031014685451305A002EFE0DFF339
:1041D0009146014681451305B002EFE0FFF235A09C
:1041E0000327C4FE930720026311F70293060031F0
:1041F000014685451305A004EFE01FF191460146F5
:1042000081451305B004EFE03FF00100F240624445
:1042100005618280797106D622D40018232EA4FC71
:10422000232CB4FC232AC4FC2328D4FC8327C4FDFC
:1042300091E785451165EFC01FB235A00327C4FD86
:1042400085476318F700854537050200EFC01FB5A5
:1042500019A80327C4FD89476317F700854537056B
:104260000400EFC0BFB3832504FD032544FD6D3D6D
:10427000832784FD2320F4FE231204FE231304FE6F
:10428000231404FE231604FEB1472315F4FEA96788
:104290000327C4FD0A07938787BFBA979C433E87CD
:1042A000930704FEBE853A85EFD0CFFFA9670327A9
:1042B000C4FD0A07938787BFBA979C4385453E850F
:1042C000EFD09FA10100B2502254456182800111BC
:1042D00006CE22CC00102326A4FEAE87A305F4FE52
:1042E000A9670327C4FE0A07938787BFBA979C4331
:1042F0000546930550523E85EFD01FA48327C4FE88
:10430000938757030347B4FEBA86014681453E852D
:10431000EFE03FFF0100F24062440561828001113D
:1043200022CE00102326A4FE2324B4FE0100A96798
:104330000327C4FE0A07938787BFBA979C4383D796
:104340000700C207C18393F70702F5D3A9670327C4
:10435000C4FE0A07938787BFBA979C4383D7470059
:10436000C207C18313F7F70F832784FE2380E7007A
:104370000100724405618280411106C622C4000812
:10438000B7170240DC43C98313F7F700B7177A0069
:10439000938707203307F702B727F4009387074076
:1043A0003E9723A6E18285460146F1679385072063
:1043B00001458D350100B24022444101828079716E
:1043C00006D622D40018232EA4FC232CB4FC232AC6
:1043D000C4FC232604FE99A00100A96783A787BF18
:1043E000930500043E85EFD05FA4AA87FDD7A96797
:1043F00083A787BFBE86832784FD13871700232CDE
:10440000E4FC83870700C207C183BE853685EFD0F1
:10441000FF9E8327C4FE85072326F4FE0327C4FEE0
:10442000832744FDE34AF7FA832744FD3E85B250D3
:10443000225445618280011122CE0010232604FE01
:10444000232404FEB71702409443B7170240416784
:10445000558F98C3B71702409843B7070200F98FEA
:104460002324F4FE8327C4FE85072326F4FE832736
:1044700084FE99E70327C4FE93070050E31CF7FC72
:10448000B71702409843B7070200F98F89C78547DD
:104490002324F4FE19A0232404FE032784FE854769
:1044A0006317F70CB72702409843B72702401367FA
:1044B000070198C3B72702409843B7270240719B72
:1044C00098C3B72702409843B727024013672700D5
:1044D00098C337170240B71702405843D8C337175D
:1044E0000240B71702405843D8C337170240B717E6
:1044F00002405843D8C3B7170240D443B71702400D
:104500003707C1FF7D17758FD8C3B7170240D44353
:10451000B717024037072500558FD8C3B717024099
:104520009443B717024037070001558F98C3010025
:10453000B71702409843B7070002F98FF5DBB717AA
:104540000240D843B7170240719BD8C3B717024047
:10455000D843B717024013672700D8C30100B71725
:104560000240DC4313F7C700A147E31AF7FE01003E
:10457000724405618280411106C622C40008B71743
:1045800002409843B71702401367170098C3B71744
:104590000240D443B71702403707FFF8758FD8C3DE
:1045A000B71702409443B71702403707F7FE7D174D
:1045B000758F98C3B71702409443B7170240370767
:1045C000FCFF7D17758F98C3B7170240D443B71708
:1045D0000240370781FF7D17758FD8C3B717024098
:1045E00037079F0098C7813D0100B2402244410136
:1045F0008280011106CE22CC26CA00102326A4FEFA
:10460000AE8732872322D4FE2315F4FEBA87231403
:10461000F4FE8327C4FE0357A4FE2394E7008327F8
:10462000C4FE035784FE2395E7008327C4FE0327B7
:1046300044FED8C78327C4FE8397A7003E878327FD
:10464000C4FE83978700B307F7403E85EF30D0362E
:10465000AA848327C4FED847A56783A507773A8530
:10466000EF30E04DAA87BE852685EF20705AAA87D5
:104670003E85EF30D040A56703A6877783A6C7772E
:10468000EF101007AA872E883E85C285EF20B04A1A
:10469000AA871397070141878327C4FE2390E70069
:1046A0008327C4FE8397A7003E878327C4FE839792
:1046B0008700BA973E85EF303030AA848327C4FE46
:1046C000D847A56783A507773A85EF304047AA8783
:1046D000BE852685EF30A06FAA873E85EF30303A41
:1046E000A56703A6877783A6C777EF107000AA8710
:1046F0002E883E85C285EF201044AA8713970701B4
:1047000041878327C4FE2391E7008327C4FE839754
:10471000A7003E878327C4FE83978700B307F7402F
:104720003E85EF307029AA848327C4FED847A56749
:1047300083A507773A85EF308040AA87BE85268516
:10474000EF30E068AA873E85EF307033A56703A697
:10475000877783A6C777EF10A079AA872E883E8532
:10476000C285EF20503DAA87139707014187832711
:10477000C4FE2392E7008327C4FE8397A7003E87E9
:104780008327C4FE83978700BA973E85EF30D022F7
:10479000AA848327C4FED847A56783A507773A85EF
:1047A000EF30E039AA87BE852685EF207046AA87BC
:1047B0003E85EF30D02CA56703A6877783A6C77701
:1047C000EF100073AA872E883E85C285EF20B03691
:1047D000AA871397070141878327C4FE2393E70025
:1047E0000100F2406244D24405618280411122C638
:1047F0000008239A0182B707002083A7C708138700
:10480000E70123A6E18A03A70184F54763D9E700FE
:10481000B707002003A7C70823A4E18A5DA803A760
:104820000184E94763DBE700B707002083A7C708D7
:104830001387170023A4E18A69A803A70184DD4731
:1048400063DBE700B707002083A7C70813872700AB
:1048500023A4E18ABDA803A70184D14763DBE70055
:10486000B707002083A7C7081387370023A4E18A6E
:104870008DA003A70184C54763DBE700B7070020CD
:1048800083A7C7081387470023A4E18A99A003A739
:104890000184B94763DBE700B707002083A7C70897
:1048A0001387570023A4E18A2DA003A70184AD47F5
:1048B00063DBE700B707002083A7C70813876700FB
:1048C00023A4E18A39A083A7818A1387370023A410
:1048D000E18A03A7818A83A7C18A63D6E70003A779
:1048E000C18A23A4E18A03A7818AB707002083A78E
:1048F000C7086358F700B707002003A7C70823A419
:10490000E18A0100324441018280011106CE22CCAD
:104910000010238B01829307F4FEBE850545EFF05E
:104920001FA083C7D18385EB238F018203C7E18357
:10493000238EE1820347F4FE9307800D631AF7008C
:1049400083C7D183850713F7F70FA38EE182C1A038
:10495000A38E01826DA803C7D18385476313F70433
:10496000238F018203C7E183238EE1820347F4FE94
:104970009307000B631AF70083C7D183850713F7EA
:10498000F70FA38EE18261A00347F4FE9307800D29
:104990006316F7000547A38EE18295A8A38E0182D6
:1049A000BDA003C7D18389476313F70603C7C1833B
:1049B00085476304F70283C7C183BE860347F4FEBD
:1049C0009387818FB6972380E70083C7C1838507CC
:1049D00013F7F70F238EE1821DA80347F4FE930718
:1049E000E00E631AF70083C7818F3E8723A0E1841E
:1049F000A38E018229A80347F4FE9307800D631656
:104A0000F7000547A38EE18219A0A38E0182010061
:104A1000F240624405618280411106C622C400084A
:104A2000EF00F03983C7119181C7EFF03FDCA1A0FF
:104A300083C7F184A9E3138541A1EF00F02F13850B
:104A4000819DEF00702F1385819FEF00F02E13855D
:104A5000419BEF00702E1385018BEF00F029138529
:104A60008188EF007031930600000146814513856F
:104A70008187EFF01FB80100B240224441018280DB
:104A8000411106C622C4000803C7F184854763129A
:104A9000F7029387818723920700239C01869387DF
:104AA0008187130760092391E70093878187239308
:104AB000070003C7F18489476313F702938781874F
:104AC00023920700239C0186938781871307A0F612
:104AD0002391E700938781872393070065AA03C783
:104AE000F1848D476313F70293878187239307002F
:104AF00013076009239CE186938781872391070030
:104B0000938781872392070071A203C7F18491479D
:104B10006313F70293878187239307001307A0F697
:104B2000239CE18693878187239107009387818760
:104B30002392070085A203C7F18495476313F70208
:104B4000239C01869387818723930700938781871E
:104B50002391070093878187130760092392E70059
:104B600015AA03C7F18499476313F702239C0186B2
:104B70009387818723930700938781872391070079
:104B8000938781871307A0F62392E70021A203C72A
:104B9000F1849D476313F702938781872391070070
:104BA000239C0186938781872392070093878187BF
:104BB000130760092393E700F1A803C7F184A14715
:104BC0006313F7029387818723910700239C018653
:104BD0009387818723920700938781871307A0F625
:104BE0002393E70045A803C7F184A5476319F7029B
:104BF00093878187130740062391E7001307400638
:104C0000239CE18693878187130740062392E70060
:104C100093878187130740062393E700A5A803C75E
:104C2000F184A9476319F702938781871307C0F9B5
:104C30002391E7001307C0F9239CE18693878187BE
:104C40001307C0F92392E700938781871307C0F900
:104C50002393E70081A083C7F18485E3938781874D
:104C600023930700239C0186938781872391070064
:104C7000938781872392070031A803C7F184AD474A
:104C8000631AF700930600005146D14513858187CA
:104C9000EFF03F960100B2402244410182800111B1
:104CA00006CE22CC00102326A4FE0327C4FE95477F
:104CB00063E3E702B70700200327C4FE0A079387D0
:104CC0000701BA979C4393068004014681453E85BF
:104CD000EFE08FC325A899472326F4FE0DA0B70760
:104CE00000200327C4FE0A0793870701BA979C4355
:104CF00093068004014681453E85EFE0EFC083279F
:104D0000C4FE1387F7FF2326E4FEF1FB0100F24007
:104D1000624405618280011106CE22CC0010232658
:104D2000A4FEB70700200327C4FE0A0793870701E4
:104D3000BA979C433E85EFE06FD7AA8799E38147F6
:104D400011A085473E85F2406244056182807971F9
:104D500022D60018232CA4FC232EB4FC83C7618424
:104D600013F7F70F89476301F70883C7518493F757
:104D7000F70FBE86032784FD8E0693874191B69771
:104D800098C383C7518493F7F70F3E860327C4FD6A
:104D90009386419193173600B697D8C383C7518441
:104DA00093F7F70F850713F7F70FA382E18483C703
:104DB000518413F7F70FCD4763F4E700A382018412
:104DC00083C75184A307F4FE83C7418493F7F70F89
:104DD0000347F4FE6316F70009472383E18431A0FB
:104DE00005472383E18411A001003254456182808C
:104DF000797122D60018232EA4FC83C7618493F70F
:104E0000F70F99E3814749A083C7418493F7F70FD0
:104E10003E870E0793874191BA9798438327C4FD35
:104E200098C383C7418493F7F70FBE8613874191D8
:104E300093973600BA97D8438327C4FDD8C383C756
:104E4000418493F7F70F850713F7F70F2382E18467
:104E500083C7418413F7F70FCD4763F4E70023823C
:104E6000018483C75184A307F4FE83C7418493F769
:104E7000F70F0347F4FE6315F7002383018421A095
:104E800005472383E18485473E853254456182800E
:104E9000011106CE22CC0010232604FE1DA20325FC
:104EA000C4FEEFF05FE7AA87F1E7138781848327C9
:104EB000C4FEBA9783C70700850713F7F70F9386D9
:104EC00081848327C4FEB6972380E70013878184FB
:104ED0008327C4FEBA9703C70700854763FBE70C27
:104EE000138781848327C4FEBA9703C707008947C5
:104EF000631FF7008327C4FE2322F4FE232404FE4D
:104F0000032544FE832584FEEFF07FE475A013871C
:104F100081848327C4FEBA9703C70700A54763FCB3
:104F2000E708138781848327C4FEBA9703C7070065
:104F3000A9476318F7028327C4FE2322F4FE89479A
:104F40002324F4FE032544FE832584FEEFF03FE096
:104F5000138781848327C4FEBA9709472380E7001B
:104F6000A1A8138781848327C4FEBA9709472380A9
:104F7000E70099A0138781848327C4FEBA9703C7EB
:104F80000700854763FFE7008327C4FE2322F4FE62
:104F900085472324F4FE032544FE832584FEEFF099
:104FA0001FDB138781848327C4FEBA972380070001
:104FB00021A0010011A001008327C4FE850723263C
:104FC000F4FE0327C4FE9547E3FBE7EC0100F24043
:104FD000624405618280011106CE22CC0010AA87AE
:104FE00036872317F4FEAE872316F4FEB287231507
:104FF000F4FEBA872314F4FE8317E4FE635FF00027
:105000008317E4FEBE8513050030EFE09FC38145A2
:1050100013051030EFE0FFC239A8814513050030B9
:10502000EFE03FC28317E4FEB307F040BE851305EF
:105030001030EFE01FC18317C4FE635FF0008317D9
:10504000C4FEBE8513051011EFE0BFBF81451305F7
:105050000011EFE01FBF39A8814513051011EFE0E3
:105060005FBE8317C4FEB307F040BE851305001171
:10507000EFE03FBD8317A4FE635FF0008317A4FE3B
:10508000BE8513052030EFE0DFBB814513053030CE
:10509000EFE03FBB39A8814513052030EFE07FBA30
:1050A0008317A4FEB307F040BE8513053030EFE050
:1050B0005FB9831784FE635FF000831784FEBE85AB
:1050C00013052011EFE0FFB7814513053011EFE024
:1050D0005FB739A8814513052011EFE09FB683170C
:1050E00084FEB307F040BE8513053011EFE07FB5B5
:1050F0000100F240624405618280397106DE22DCE3
:105100008000232EA4FC232CB4FC232AC4FC2328D7
:10511000D4FCBA87A307F4FC231704FE231604FE6D
:10512000231504FE231404FE8397019D3E868325E8
:10513000C4FD138541A1ED2A8397219D3E868325D9
:1051400084FD1385819DED228397419F3E868325B3
:1051500044FD1385819FE92A8397419D3E868325DF
:1051600004FD1385419BE922938741A19C4F3E8515
:10517000EF20707EAA872317F4FE9387819D9C4FB2
:105180003E85EF20507DAA872316F4FE9387819FEA
:105190009C4F3E85EF20307CAA872315F4FE938731
:1051A000419B9C4F3E85EF20107BAA872314F4FE81
:1051B0000317E4FE89679387873263D7E70089671F
:1051C000938787322317F4FE0317E4FEF97793875A
:1051D00087CD6357F700F977938787CD2317F4FEC0
:1051E0000317C4FE89679387873263D7E70089670F
:1051F000938787322316F4FE0317C4FEF97793874B
:1052000087CD6357F700F977938787CD2316F4FE90
:105210000317A4FE89679387873263D7E7008967FE
:10522000938787322315F4FE0317A4FEF97793873B
:1052300087CD6357F700F977938787CD2315F4FE61
:10524000031784FE89679387873263D7E7008967EE
:10525000938787322314F4FE031784FEF97793872C
:1052600087CD6357F700F977938787CD2314F4FE32
:10527000831684FE0316A4FE0317C4FE8317E4FE00
:10528000BA853E85EFF03FD50100F25062542161AE
:105290008280411106C622C40008014691679385A9
:1052A000076513051011EFE08FDD014691679385C7
:1052B000076513050011EFE08FDC014691679385C8
:1052C000076513052011EFE08FDB01469167938599
:1052D000076513053011EFE08FDA0146916793857A
:1052E000076513050030EFE08FD90146916793857C
:1052F000076513051030EFE08FD80146916793855D
:10530000076513052030EFE08FD70146916793853D
:10531000076513053030EFE08FD601469305D014B2
:105320000945EFE0CFD50100B2402244410182801F
:10533000797106D622D426D24AD04ECE52CC00184D
:10534000232EA4FC232CB4FC232AC4FC8327C4FDF5
:10535000984B8327C4FDD8CB8327C4FDD847832728
:10536000C4FD98CB032784FD832744FDB307F74092
:105370003E85EF2070642A878327C4FDD8C78397B2
:10538000A1803E85EF2050632A87A56783A54778D3
:105390003A85EF20803EAA873E878327C4FD98C3C5
:1053A0008397C1803E85EF2030612A87A56783A55A
:1053B00047783A85EF20603CAA873E878327C4FD63
:1053C000D8C38397E1803E85EF20105F2A87A567C9
:1053D00083A547783A85EF20403AAA873E878327FE
:1053E000C4FD98C78327C4FD844F8327C4FD03A948
:1053F00007008327C4FDD8478327C4FD9C4BBE8587
:105400003A85EF20D01CAA87BE854A85EF202073FD
:10541000AA873E898327C4FDD8438327C4FDDC4780
:10542000BE853A85EF20A071AA87BE854A85EF1018
:10543000307EAA873E8A8327C4FD03A9870083277D
:10544000C4FD83A9C7008327C4FD9C4BBE853E8550
:10545000EF10107CAA87BE854E85EF205017AA87D3
:105460003E878327C4FDDC4BBE853A85EF10507A1A
:10547000AA87BE854A85EF20806CAA87BE855285A3
:10548000EF101079AA87BE852685EF107078AA875D
:105490003E878327C4FD98CF8327C4FD984FA56717
:1054A00083A587783A85EF206058AA876358F00073
:1054B0008327C4FD25670327877898CF8327C4FDFA
:1054C000984FA56783A5C7783A85EF20805EAA87A5
:1054D00063D807008327C4FD25670327C77898CFC3
:1054E0008327C4FD9C4F3E85B250225492540259EA
:1054F000F249624A45618280011122CE00102326C2
:10550000A4FE8327C4FE1307000098C38327C4FEAC
:10551000D8C38327C4FE98C78327C4FE98CB8327AC
:10552000C4FED8CB8327C4FED8C78327C4FED8CFF8
:105530000100724405618280011122CE00102326F1
:10554000A4FE8327C4FE1307000098C38327C4FE6C
:10555000D8C38327C4FE98C78327C4FED8C7832730
:10556000C4FE98CB8327C4FED8CB8327C4FE98CF34
:105570000100724405618280011122CE00102326B1
:10558000A4FE8327C4FE1307000098C38327C4FE2C
:10559000D8C38327C4FE98C78327C4FE98CB83272C
:1055A000C4FED8CB8327C4FE98CF8327C4FED8C7B8
:1055B0008327C4FED8CF0100724405618280411167
:1055C00006C622C400080128D1288D220100B2405D
:1055D000224441018280011106CE22CC00102326F4
:1055E00004FEA30504FEEFF0BF8A930704FE3E8588
:1055F000EFF01F80AA87A305F4FE8347B4FEC1C75E
:10560000832704FE99E7832744FE81E78547232605
:10561000F4FE032704FE85476318F700832744FE42
:1056200081E789472326F4FE032704FE894763198F
:10563000F700832744FE89E78D472326F4FEA1A0C7
:10564000032704FE8D476319F700832744FE89E78B
:1056500091472326F4FE05A8032704FE914763190A
:10566000F700832744FE89E795472326F4FE21A807
:10567000032704FE95476318F700832744FE81E75C
:1056800099472326F4FE0327C4FE23A8E184832739
:10569000C4FE3E85F240624405618280411106C627
:1056A00022C4000803A701859547631CF70083C740
:1056B000E18493B7170093F7F70F3E872387E184C0
:1056C0008DA003A701858D476315F7020145EFD033
:1056D000EF8383A7418589E7094723AAE18439A09D
:1056E00083A741851387F7FF23AAE18423870184D9
:1056F0000DA803A7018591476315F7020145EFD077
:10570000EF8003A7418589476315F70023AA018429
:1057100039A083A741851387170023AAE184238733
:1057200001840100B240224441018280411106C639
:1057300022C4000883A7418505476389E70089C71C
:1057400009476387E70039A0292839A0C92C29A077
:10575000F52419A0392001000100B2402244410182
:105760008280397106DE22DC80008397019D8D46A0
:105770003E86814513054006EFD08F9B8397219D80
:105780008D463E869D4513054006EFD06F9A839760
:10579000419D8D463E869D450145EFD06F9983978B
:1057A000419F8D463E8681450145EFD06F9883A786
:1057B000C1853E85EF20301AAA8795463E868D45E5
:1057C00013052003EFD0CF9683A781833E85EF108A
:1057D000103DA96703A6078283A64782EF00507693
:1057E000AA872E883E85C285EF10F034AA878D46A1
:1057F0003E86954513054003EFD08F93232404FC88
:10580000232604FC232804FC232A04FC232C04FC68
:10581000232E04FC232004FE232204FE232404FE62
:10582000232604FEA5679387077B2324F4FCA56742
:105830009387877B2326F4FC03C7E18485476312A3
:10584000F70C03A701859947631EF70083C71191E1
:1058500093B7170093F7F70F3E87A388E1900145B0
:10586000EFC0DFEA03A7018585476312F70283C70C
:10587000F184850713F7F70FA387E18403C7F18449
:10588000A94763F4E700A3870184EFF06F9F03A7A4
:10589000018589476314F70283C7F184FD1713F765
:1058A000F70FA387E18403C7F1849307F00F631513
:1058B000F7001547A387E184EFF08F9CA567138657
:1058C000077C854513053002EFC0FFEAA567138604
:1058D000477C854513058002EFC0FFE9A567138665
:1058E000077C854513052004EFC0FFE883C7F184DA
:1058F000C207C1833E8685451305C004EFC0DFF4AF
:1059000055A803A701858547631CF70083C701815C
:10591000FD1713F7F70F2388E180A388019039A8BA
:1059200003A701858947631BF70083C701818507AA
:1059300013F7F70F2388E180A388019003C7018143
:10594000914763F5E70005472388E18083C701811C
:1059500081E711472388E18083C70181C207C183A2
:10596000FD17C207C1831397070141872394E18084
:10597000A5671386C77C854513053002EFC0BFDFDE
:10598000A5671386477C854513058002EFC0BFDEFF
:10599000A5671386C77C854513052004EFC0BFDDCE
:1059A00083C7F184C207C1833E8685451305C004C1
:1059B000EFC09FE983C7E18485EB83C7119181E73D
:1059C0008327C4FC19A0832784FC3E8691451305D8
:1059D0004003EFC05FDAA5671386C77C91451305C6
:1059E000D002EFC05FD93DA0A5671386077C914523
:1059F0001305D002EFC03FD883C7119181E78327F9
:105A0000C4FC19A0832784FC3E86914513054003FE
:105A1000EFC07FD60100F2506254216182804111B3
:105A200006C622C400080946894513058002EFC056
:105A30009FE60100B2402244410182805D7186C62A
:105A4000A2C48008A30704FE230704FE232804FA47
:105A5000232A04FA232C04FA232E04FA232004FC1C
:105A6000232204FC232404FC232604FC232804FC16
:105A7000232A04FC232C04FC232E04FC232004FEF4
:105A8000232204FE232404FEA5679387077D232891
:105A9000F4FAA5679387877D232AF4FAA56793878D
:105AA000077E232CF4FAA5679387877E232EF4FACA
:105AB000A5679387077F2320F4FCA5679387877FDB
:105AC0002322F4FCA967938707802324F4FCA967A9
:105AD000938787802326F4FCA9679387078123286F
