:100000006F0000391300000013000000130000000F
:100010001300000013000000130000001300000094
:100020001300000013000000130000001300000084
:08003000130000007300100032
:100038006FF09FFC000000006FF01FFC6FF0DFFB0B
:1000480000000000000000000000000000000000A8
:100058000000000000000000000000000000000098
:100068006FF09FF9000000006FF01FF9000000001A
:100078006FF09FF86FF05FF86FF01FF86FF0DFF721
:100088006FF09FF76FF05FF76FF01FF76FF0DFF615
:100098006FF09FF66FF05FF66FF01FF66FF0DFF509
:1000A8006FF09FF56FF05FF56FF01FF56FF0DFF4FD
:1000B8006FF09FF46FF05FF46FF01FF40000000022
:1000C8000000000000000000000000006FF0DFF2F8
:1000D8006FF09FF26FF05FF26FF01FF26FF0DFF1D9
:1000E8006FF09FF16F00C00F6FF01FF16FF0DFF03E
:1000F8006FF09FF06FF05FF06FF01FF06FF0DFEFC1
:100108006FF09FEF6FF05FEF6F0040256FF0DFEE4D
:100118006FF09FEE6FF05FEE6FF01FEE6FF0DFEDA8
:1001280000000000000000000000000000000000C7
:080138000000000000000000BF
:100140003D432A876373C3029377F700BDEFADE5A4
:10015000937606FF3D8ABA960CC34CC30CC74CC7B6
:100160004107E36BD7FE11E28280B306C3408A06E3
:100170009702000096966780A6002307B700A306A3
:10018000B7002306B700A305B7002305B700A304F3
:10019000B7002304B700A303B7002303B700A302EB
:1001A000B7002302B700A301B7002301B700A300E3
:1001B000B7002300B700828093F5F50F9396850072
:1001C000D58D93960501D58D61B79396270097023B
:1001D000000096968682E78086FA9680C1171D8F6A
:1001E0003E96E374C3F8A5B7411122C600088545C1
:1001F000B707004013850740EF10501AAA87638E97
:1002000007148545B707004013850740EF101020FD
:100210000547A389E18A83C7418B850713F7F70F49
:10022000238AE18AEF70F07703C7418B8D4763160D
:10023000F712238A018AEF70D07D839741CA3E87E7
:10024000839701C8BA9713D7F701BA978587139791
:10025000070141872392E1888397C1C73E8783972F
:10026000E1C7BA9713D7F701BA97858713970701A4
:1002700041872393E188839701C81397070141833E
:10028000839741CAC207C183B307F740C207C1833E
:100290001397070141872390E1888397E1C713975C
:1002A000070141838397C1C7C207C183B307F740E2
:1002B000C207C1831397070141872391E188839780
:1002C00041953E879387419583976700BE859387C5
:1002D0004195839727003E869387419583974700F2
:1002E000BE863A85EF602057839741CA13D7F741FE
:1002F000B98F998F0397A1816340F7048397C1C792
:1003000013D7F741B98F998F0397A1816346F702FD
:10031000839701C813D7F741B98F998F0397A181AC
:10032000634CF7008397E1C713D7F741B98F998FD3
:100330000397A1816353F702EF60D025130640199C
:100340008D450545EF20306D93060000014681453F
:1003500013854195EF40706BD5B7010032444101E0
:1003600073002030411122C6000805472388E18A26
:10037000EF50B03C01003244410173002030411184
:1003800006C622C40008EF50D04CEF507061F5BF94
:10039000970100209381015F17510020130181C64E
:1003A00017E500001305C57F97050020938585C5D7
:1003B0001386818563FAC5008322050023A05500BA
:1003C00011059105E3EAC5FE13858185938581CEEC
:1003D0006377B500232005001105E36DB5FE930298
:1003E000800873A0023097020000938222C593E236
:1003F000120073905230EF407059970200009382C0
:1004000042F87390123473002030411122C6000864
:10041000B72702403707674513073712D8C3B727F6
:1004200002403797EFCD1307B79AD8C30100324483
:1004300041018280411122C60008B7270240984B33
:10044000B72702401367070898CB010032444101E7
:100450008280797106D622D40018232EA4FC9147FD
:100460002326F4FE37050B00D1222326A4FE032702
:10047000C4FE91476315F704B7270240984BB7278E
:1004800002401367270098CBB72702400327C4FD1B
:10049000D8CBB7270240984BB72702401367070411
:1004A00098CB37050B0059222326A4FEB72702401C
:1004B000944BB727024009677517758F98CB832730
:1004C000C4FD13F7C7FF8567B98F3E87B727024082
:1004D00093874703184398C38327C4FE3E85B250D1
:1004E000225445618280797106D622D40018232EC9
:1004F000A4FC232CB4FC91472326F4FE232404FE01
:1005000009652D222326A4FE0327C4FE914763100C
:10051000F708B7270240984BB72702401367170028
:1005200098CB8327C4FD032784FD42074183239092
:10053000E7000965E5282326A4FE0327C4FE9147AA
:10054000631EF7028327C4FD89072324F4FE832753
:1005500084FDC183032784FEC207C1832310F700F3
:100560000965E9202326A4FEB7270240944BB7274C
:10057000024009677917758F98CB11A8B7270240F9
:10058000944BB727024009677917758F98CB83275B
:10059000C4FD13F7C7FF8567B98F3E87B7270240B1
:1005A00093874703184398C38327C4FE3E85B25000
:1005B000225445618280011122CE00102326A4FE20
:1005C000B72702400327C4FED8C701007244056163
:1005D0008280011122CE001091472326F4FEB72716
:1005E0000240DC4713F7170085476316F70085477D
:1005F0002326F4FE35A0B7270240DC47918B89C73C
:1006000089472326F4FE29A8B7270240DC47C18B7F
:1006100089C78D472326F4FE21A091472326F4FEA7
:100620008327C4FE3E85724405618280797106D6B7
:1006300022D40018232EA4FC91472326F4FE513F18
:100640002326A4FE09A871372326A4FE8327C4FD10
:10065000FD17232EF4FC0327C4FE85476315F7001E
:100660008327C4FDEDF38327C4FD81E79547232647
:10067000F4FE8327C4FE3E85B25022544561828039
:10068000397122DE80002326A4FC2324B4FC232617
:1006900004FE232004FE232404FE232E04FC232234
:1006A00004FE232C04FC832784FC9C47BD8B23265B
:1006B000F4FE832784FC9C47C18B89CB832784FC71
:1006C000DC430327C4FED98F2326F4FE832784FC52
:1006D00083D7070093F7F70FF1CF8327C4FC9C4320
:1006E0002322F4FE232404FE65A8832784FE054705
:1006F000B317F700232EF4FC832784FC83D707006D
:100700003E878327C4FDF98F2320F4FE032704FED0
:100710008327C4FD6311F708832784FE8A07232EED
:10072000F4FC8327C4FD3D47B317F700232CF4FCEA
:10073000832784FD93C7F7FF032744FEF98F232205
:10074000F4FE8327C4FD0327C4FEB317F700032775
:1007500044FED98F2322F4FE832784FC9847930715
:100760008002631BF700832784FE05473317F700D9
:100770008327C4FCD8CB05A0832784FC9847930724
:100780008004631AF700832784FE05473317F700B8
:100790008327C4FC98CB832784FE85072324F4FE9B
:1007A000032784FE9D47E3F2E7F48327C4FC032775
:1007B00044FE98C3832784FC03D707009307F00FF8
:1007C00063F1E70E8327C4FCDC432322F4FE2324D9
:1007D00004FE75A8832784FEA1070547B317F70019
:1007E000232EF4FC832784FC83D707003E878327CE
:1007F000C4FDF98F2320F4FE032704FE8327C4FDE4
:100800006312F708832784FE8A07232EF4FC8327CC
:10081000C4FD3D47B317F700232CF4FC832784FD68
:1008200093C7F7FF032744FEF98F2322F4FE8327A3
:10083000C4FD0327C4FEB317F700032744FED98F76
:100840002322F4FE832784FC984793078002631BCE
:10085000F700832784FEA10705473317F700832796
:10086000C4FCD8CB832784FC984793078004631B80
:10087000F700832784FEA10705473317F700832776
:10088000C4FC98CB832784FE85072324F4FE03272A
:1008900084FE9D47E3F0E7F48327C4FC032744FE6E
:1008A000D8C30100725421618280011122CE001050
:1008B0002326A4FEAE872322C4FE2315F4FE83273D
:1008C00044FE99C70357A4FE8327C4FE98CB31A0EA
:1008D0000357A4FE8327C4FED8CB010072440561F0
:1008E0008280797122D60018232EA4FC232CB4FC1C
:1008F000232404FE232204FE232604FE232004FED8
:100900008327C4FD63D80700B7070140DC4F2326C7
:10091000F4FE31A0B7070140DC432326F4FE832711
:10092000C4FDC183BD8B2320F4FE0327C4FDC16732
:10093000FD17F98F2324F4FE0327C4FDB707300009
:100940007D8FB70730006315F7020327C4FEB70792
:1009500000F1FD17F98F2326F4FEB7070140D443B9
:10096000B7070140370700F17D17758FD8C3ADA0D9
:100970000327C4FDB7071000F98F8DCB832704FE32
:100980000D47B317F7002322F4FE832744FE93C7D5
:10099000F7FF0327C4FEF98F2326F4FE0327C4FEC6
:1009A000B707000FD98F2326F4FE3DA08327C4FD8F
:1009B000D5839207032784FEB317F70093C7F7FF89
:1009C0000327C4FEF98F2326F4FE0327C4FEB707CE
:1009D000000FD98F2326F4FE832784FD91CF832730
:1009E000C4FDD5839207032784FEB317F7000327BE
:1009F000C4FED98F2326F4FE8327C4FD63D80700E5
:100A0000B70701400327C4FED8CF31A0B707014084
:100A10000327C4FED8C3010032544561828001110E
:100A200022CE00102326A4FE8327C4FEFD8B05479B
:100A3000B316F70037E700E08327C4FE958393875A
:100A400007048A07BA9794C3010072440561828043
:100A5000011122CE00102326A4FE8327C4FEFD8BA5
:100A60000547B316F70037E700E08327C4FE9583F8
:100A7000938707068A07BA9794C3010072440561F9
:100A80008280011122CE00102326A4FEAE87A3058A
:100A9000F4FE37E700E08327C4FEBA970347B4FEAD
:100AA0002380E7400100724405618280797106D697
:100AB00022D40018232EA4FCA30704FE83A781855B
:100AC0008DE38327C4FD83C707003E878327C4FDCA
:100AD00083C72700920793F7F70FBE853A855537EE
:100AE000D9A203A781858547631FF7048327C4FD27
:100AF00003C7170085476318F7028327C4FD83C720
:100B000007003E878327C4FD83C727009207E207BB
:100B1000E18793E707F8E207E18793F7F70FBE85D0
:100B20003A85853749A28327C4FD83C707003E87DE
:100B30008327C4FD83C72700920793F7F70FBE856D
:100B40003A8581378DA203A781858947631BF70802
:100B50008327C4FD03C71700854763EEE702832799
:100B6000C4FD03C727008327C4FD83C717008A0776
:100B700093F7F70FBA97A307F4FE8327C4FD83C743
:100B800007003E878347F4FE920793F7F70FBE8571
:100B90003A85C53D09AA8327C4FD03C727008327DB
:100BA000C4FD83C717009387E70393F7F70F8A07FE
:100BB00093F7F70FBA97A307F4FE8327C4FD83C703
:100BC00007003E878347F4FE9207E207E18793E739
:100BD00007F8E207E18793F7F70FBE853A855535A9
:100BE000D9A003A781858D47631BF7088327C4FD20
:100BF00003C717008D4763EEE7028327C4FD03C7D1
:100C000027008327C4FD83C71700860793F7F70FD4
:100C1000BA97A307F4FE8327C4FD83C707003E8766
:100C20008347F4FE920793F7F70FBE853A85913D0F
:100C30009DA88327C4FD03C727008327C4FD83C75E
:100C400017009387C70793F7F70F860793F7F70FF8
:100C5000BA97A307F4FE8327C4FD83C707003E8726
:100C60008347F4FE9207E207E18793E707F8E2077C
:100C7000E18793F7F70FBE853A8521352DA003A7AD
:100C8000818591476311F7028327C4FD83C707005D
:100C90003E878327C4FD83C71700920793F7F70F9A
:100CA000BE853A85F93B8327C4FDDC4381CB83278E
:100CB000C4FD83C707003E859D3339A08327C4FD4B
:100CC00083C707003E8569330100B2502254456155
:100CD0008280797122D60018232EA4FC232604FEDC
:100CE000232404FE232204FE232004FEB71702401F
:100CF000DC43B18B2326F4FE0327C4FE9147630235
:100D0000F7020327C4FEA1476305F7028327C4FE49
:100D1000C5E78327C4FD37177A001307072098C358
:100D200065A08327C4FD37177A001307072098C3EF
:100D300061A8B7170240D843B7073C00F98F2324B6
:100D4000F4FEB7170240D843C167F98F2322F4FE9F
:100D5000832784FEC98389072324F4FE832744FE66
:100D600089EF032784FEB7173D0093870790330769
:100D7000F7028327C4FD98C381A8B7170240D84360
:100D8000B7070200F98F89CF032784FEB7173D000C
:100D9000938707903307F7028327C4FD98C32DA0DC
:100DA000032784FEB7177A00938707203307F702DB
:100DB0008327C4FD98C309A88327C4FD37177A0089
:100DC0001307072098C30100B7170240DC4393F7CD
:100DD000070F2326F4FE8327C4FE91832326F4FE07
:100DE000B7070020138707008327C4FEBA9783C77D
:100DF000070093F7F70F2320F4FE8327C4FD9843E1
:100E0000832704FE3357F7008327C4FDD8C3B717E1
:100E10000240DC4393F707702326F4FE8327C4FEC9
:100E2000A1832326F4FEB70700201387070083273A
:100E3000C4FEBA9783C7070093F7F70F2320F4FE89
:100E40008327C4FDD843832704FE3357F700832745
:100E5000C4FD98C7B7170240D843916793870780AE
:100E6000F98F2326F4FE8327C4FEAD832326F4FEE8
:100E7000B7070020138707008327C4FEBA9783C7EC
:100E8000070093F7F70F2320F4FE8327C4FDD84310
:100E9000832704FE3357F7008327C4FDD8C7B7174D
:100EA0000240D843B167F98F2326F4FE8327C4FE9E
:100EB000B9832326F4FEB70700201387071883277A
:100EC000C4FEBA9783C7070093F7F70F2320F4FEF9
:100ED0008327C4FDD847832704FE3357F7028327AF
:100EE000C4FD98CB0100325445618280011122CEAD
:100EF00000102326A4FE2324B4FE832784FE99CB6E
:100F0000B7170240944FB71702400327C4FE558F0E
:100F100098CF21A8B7170240944F8327C4FE13C768
:100F2000F7FFB7170240758F98CF01007244056133
:100F30008280011122CE00102326A4FE2324B4FEB9
:100F4000832784FE99CBB7170240D44FB7170240CE
:100F50000327C4FE558FD8CF21A8B7170240D44F1E
:100F60008327C4FE13C7F7FFB7170240758FD8CF8A
:100F70000100724405618280797122D60018232E07
:100F8000A4FC232CB4FC231704FE8327C4FD83D7C1
:100F900007002317F4FE0357E4FE8D6793870704C9
:100FA000F98F2317F4FE832784FD03D707008327D7
:100FB00084FD83D72700D98F1397070141838327A7
:100FC00084FD83D74700D98F139707014183832777
:100FD00084FD83D76700D98F139707014183832747
:100FE00084FD83D78700D98F139707014183832717
:100FF00084FD83D7A700D98F1397070141838327E7
:1010000084FD83D7C700D98F1397070141838327B6
:1010100084FD83D7E700D98F139707014183835756
:10102000E4FED98F2317F4FE8327C4FD0357E4FEA3
:101030002390E7008327C4FD83D7C70113970701D7
:101040004183FD779387F77FF98F139707014183DA
:101050008327C4FD239EE700832784FD03D7070170
:101060008327C4FD2398E700010032544561828044
:10107000011122CE00102326A4FE2324B4FE8327D0
:1010800084FE8DC38327C4FE83D70700C207C183B4
:1010900093E707041397070141838327C4FE239036
:1010A000E70005A08327C4FE83D70700C207C183DA
:1010B00093F7F7FB1397070141838327C4FE23901F
:1010C000E7000100724405618280797122D6001820
:1010D000232EA4FC232CB4FC231704FE8327C4FD79
:1010E00083D707002317F4FE0327C4FDB737014059
:1010F000938707C06308F7020327C4FDB7070040C2
:101100006302F7020327C4FDB70700409387074037
:10111000630AF7000327C4FDB717004093870780D1
:101120006311F7028357E4FE93F7F7F82317F4FEF1
:10113000832784FD03D727008357E4FED98F231725
:10114000F4FE8357E4FE93F7F7CF2317F4FE8327CB
:1011500084FD03D767008357E4FED98F2317F4FE7D
:101160008327C4FD0357E4FE2390E700832784FD13
:1011700003D747008327C4FD2396E702832784FD16
:1011800003D707008327C4FD2394E7020327C4FD88
:10119000B7370140938707C0631DF700832784FD9D
:1011A00083C787001397070141838327C4FD2398D2
:1011B000E7028327C4FD0547239AE7000100325464
:1011C00045618280797122D60018232EA4FC232C3D
:1011D000B4FC231504FE231704FE231604FE832704
:1011E000C4FD83D70702C207C183F99B1397070188
:1011F00041838327C4FD2390E7028327C4FD83D75F
:1012000007022317F4FE8327C4FD83D74700231664
:10121000F4FE8327C4FD83D787012315F4FE83578B
:10122000A4FE93F7F7F82315F4FE8357A4FEF19B71
:101230002315F4FE832784FD03D707008357A4FEFC
:10124000D98F2315F4FE8357E4FEF59B2317F4FE94
:10125000832784FD03D787008357E4FED98F2317A4
:10126000F4FE832784FD03D727008357E4FED98F3C
:101270002317F4FE0327C4FDB7370140938707C047
:10128000631CF7068357E4FEDD9B2317F4FE8327D8
:1012900084FD03D7A7008357E4FED98F2317F4FEFC
:1012A0008357E4FEED9B2317F4FE832784FD03D7C9
:1012B00047008357E4FED98F2317F4FE8357C4FEFB
:1012C00093F7F7EF2316F4FE8357C4FE93F7F7DF87
:1012D0002316F4FE832784FD03D7C7008357C4FE7B
:1012E000D98F2316F4FE832784FD03D7E7008357A5
:1012F000C4FED98F2316F4FE8327C4FD0357C4FE12
:101300002392E7008327C4FD0357A4FE239CE70034
:10131000832784FD03D767008327C4FD239AE70250
:101320008327C4FD0357E4FE2390E70201003254F3
:1013300045618280797122D60018232EA4FC232CCB
:10134000B4FC231504FE231704FE231604FE832792
:10135000C4FD83D70702C207C183BD9B1397070152
:1013600041838327C4FD2390E7028327C4FD83D7ED
:1013700007022317F4FE8327C4FD83D747002316F3
:10138000F4FE8327C4FD83D787012315F4FE03579A
:10139000A4FEE577FD17F98F2315F4FE8357A4FE0D
:1013A00093F7F7CF2315F4FE832784FD83D7070037
:1013B000A2071397070141838357A4FED98F2315F2
:1013C000F4FE8357E4FE93F7F7FD2317F4FE83271B
:1013D00084FD83D7870092071397070141838357C2
:1013E000E4FED98F2317F4FE832784FD83D72700DB
:1013F00092071397070141838357E4FED98F231780
:10140000F4FE0327C4FDB7370140938707C063107C
:10141000F70A8357E4FE93F7F7F72317F4FE8327C1
:1014200084FD83D7A7009207139707014183835751
:10143000E4FED98F2317F4FE8357E4FE93F7F7FBFE
:101440002317F4FE832784FD83D747009207139761
:10145000070141838357E4FED98F2317F4FE835796
:10146000C4FE93F7F7BF2316F4FE0357C4FEFD77BF
:101470009387F77FF98F2316F4FE832784FD83D7A4
:10148000C7008A071397070141838357C4FED98F8A
:101490002316F4FE832784FD83D7E7008A0713977A
:1014A000070141838357C4FED98F2316F4FE832797
:1014B000C4FD0357C4FE2392E7008327C4FD0357EE
:1014C000A4FE239CE700832784FD03D767008327BE
:1014D000C4FD239CE7028327C4FD0357E4FE239049
:1014E000E7020100325445618280797122D60018EA
:1014F000232EA4FC232CB4FC231504FE231704FE86
:10150000231604FE8327C4FD83D70702C207C183C5
:1015100093F7F7EF1397070141838327C4FD2390C7
:10152000E7028327C4FD83D707022317F4FE83272E
:10153000C4FD83D747002316F4FE8327C4FD83D759
:10154000C7012315F4FE8357A4FE93F7F7F823157C
:10155000F4FE8357A4FEF19B2315F4FE832784FD3C
:1015600003D707008357A4FED98F2315F4FE8357B2
:10157000E4FE93F7F7DF2317F4FE832784FD83D778
:101580008700A2071397070141838357E4FED98F91
:101590002317F4FE832784FD83D72700A207139720
:1015A000070141838357E4FED98F2317F4FE0327F5
:1015B000C4FDB7370140938707C06312F70A03578A
:1015C000E4FEFD779387F77FF98F2317F4FE8327D7
:1015D00084FD83D7A700A207139707014183835790
:1015E000E4FED98F2317F4FE8357E4FE93F7F7BF89
:1015F0002317F4FE832784FD83D74700A2071397A0
:10160000070141838357E4FED98F2317F4FE035764
:10161000C4FEFD77FD17F98F2316F4FE0357C4FEB1
:10162000F977FD17F98F2316F4FE832784FD83D7FE
:10163000C70092071397070141838357C4FED98FD0
:101640002316F4FE832784FD83D7E70092071397C0
:10165000070141838357C4FED98F2316F4FE8327E5
:10166000C4FD0357C4FE2392E7008327C4FD03573C
:10167000A4FE239EE700832784FD03D7670083270A
:10168000C4FD239EE7028327C4FD0357E4FE239095
:10169000E7020100325445618280797122D6001838
:1016A000232EA4FC232CB4FC231604FE231504FED5
:1016B000231704FE8327C4FD83D70702139707016E
:1016C0004183FD77FD17F98F139707014183832726
:1016D000C4FD2390E7028327C4FD83D707022315A7
:1016E000F4FE8327C4FD83D747002317F4FE832726
:1016F000C4FD83D7C7012316F4FE0357C4FEE57764
:10170000FD17F98F2316F4FE8357C4FE93F7F7CF26
:101710002316F4FE832784FD83D70700A2071397BF
:10172000070141838357C4FED98F2316F4FE035764
:10173000A4FEF977FD17F98F2315F4FE832784FDA6
:1017400083D78700B2071397070141838357A4FE0D
:10175000D98F2315F4FE832784FD83D72700B20792
:101760001397070141838357A4FED98F2315F4FEF5
:101770000327C4FDB7370140938707C06316F702FC
:101780000357E4FEF177FD17F98F2317F4FE832743
:1017900084FD83D7C7009A071397070141838357B6
:1017A000E4FED98F2317F4FE8327C4FD0357E4FE1C
:1017B0002392E7008327C4FD0357C4FE239EE7005E
:1017C000832784FD03D767008327C4FD2390E704A4
:1017D0008327C4FD0357A4FE2390E702010032547F
:1017E00045618280011122CE00102326A4FE23240D
:1017F000B4FE832784FE8DC38327C4FE83D70700EE
:10180000C207C18393E7170013970701418383271A
:10181000C4FE2390E70039A88327C4FE83D70700BE
:10182000C207C183F99B1397070141838327C4FE35
:101830002390E7000100724405618280011122CEED
:1018400000102326A4FE2324B4FE832784FE95C320
:101850008327C4FE83D74704139707014183E177A9
:10186000D98F1397070141838327C4FE2392E7048E
:1018700015A08327C4FE83D747041397070141832C
:10188000A167FD17F98F1397070141838327C4FED2
:101890002392E7040100724405618280011122CE87
:1018A00000102326A4FEAE872322C4FE2315F4FED7
:1018B000832744FE9DC38327C4FE83D7C7001397A5
:1018C000070141838357A4FED98F139707014183F2
:1018D0008327C4FE2396E70035A08327C4FE83D761
:1018E000C7001397070141838357A4FE93C7F7FFEF
:1018F000C207C183F98F1397070141838327C4FE71
:101900002396E7000100724405618280797122D636
:101910000018232EA4FCAE87231DF4FC231704FE1D
:101920008327C4FD83D787012317F4FE8357E4FE82
:10193000DD9B2317F4FE0357E4FE8357A4FDD98FE4
:101940002317F4FE8327C4FD0357E4FE239CE7001E
:101950000100325445618280797122D60018232E0D
:10196000A4FCAE87231DF4FC231704FE8327C4FDCB
:1019700083D787012317F4FE0357E4FEFD7793878F
:10198000F77FF98F2317F4FE8357A4FDA20713975F
:10199000070141838357E4FED98F2317F4FE832781
:1019A000C4FD0357E4FE239CE70001003254456167
:1019B0008280797122D60018232EA4FCAE87231DC5
:1019C000F4FC231704FE8327C4FD83D7C701231724
:1019D000F4FE8357E4FEDD9B2317F4FE0357E4FE79
:1019E0008357A4FDD98F2317F4FE8327C4FD035723
:1019F000E4FE239EE7000100325445618280797144
:101A000022D60018232EA4FCAE87231DF4FC231736
:101A100004FE8327C4FD83D7C7012317F4FE0357B1
:101A2000E4FEFD779387F77FF98F2317F4FE835742
:101A3000A4FDA2071397070141838357E4FED98FC2
:101A40002317F4FE8327C4FD0357E4FE239EE7001B
:101A50000100325445618280797122D60018232E0C
:101A6000A4FCAE87231DF4FC231704FE8327C4FDCA
:101A700083D787012317F4FE8357E4FEED9B2317DA
:101A8000F4FE0357E4FE8357A4FDD98F2317F4FE19
:101A90008327C4FD0357E4FE239CE7000100325472
:101AA00045618280797122D60018232EA4FCAE876E
:101AB000231DF4FC231704FE8327C4FD83D787016D
:101AC0002317F4FE8357E4FE93F7F7BF2317F4FEC2
:101AD0008357A4FDA2071397070141838357E4FEB0
:101AE000D98F2317F4FE8327C4FD0357E4FE239CFC
:101AF000E7000100325445618280797122D60018D6
:101B0000232EA4FCAE87231DF4FC231704FE832799
:101B1000C4FD83D7C7012317F4FE8357E4FEED9B72
:101B20002317F4FE0357E4FE8357A4FDD98F231730
:101B3000F4FE8327C4FD0357E4FE239EE700010063
:101B4000325445618280797122D60018232EA4FC7C
:101B5000AE87231DF4FC231704FE8327C4FD83D71F
:101B6000C7012317F4FE8357E4FE93F7F7BF23174B
:101B7000F4FE8357A4FDA2071397070141838357FF
:101B8000E4FED98F2317F4FE8327C4FD0357E4FE38
:101B9000239EE7000100325445618280797122D68C
:101BA0000018232EA4FCAE87231DF4FC232604FE7C
:101BB000231504FE231404FE8327C4FD83D70701E5
:101BC0001397070141838357A4FDF98F2315F4FE72
:101BD0008327C4FD83D7C700139707014183835729
:101BE000A4FDF98F2314F4FE8357A4FE81CB835701
:101BF00084FE89C785472326F4FE19A0232604FE08
:101C00008327C4FE3E85325445618280011122CE75
:101C100000102326A4FEAE872315F4FE8357A4FEEE
:101C200093C7F7FF1397070141838327C4FE2398C7
:101C3000E70001007244056182805D7186C6A2C41E
:101C40008008232EA4FA232CB4FA232604FE23248E
:101C500004FE232204FE232004FE232E04FC8327FB
:101C6000C4FB232EF4FC8327C4FB83D70701C207E0
:101C7000C1832326F4FE0327C4FEB567FD17F98F41
:101C80002326F4FE832784FB83D767003E878327C0
:101C9000C4FED98F2326F4FE8327C4FE13970701C1
:101CA00041838327C4FB2398E7008327C4FB83D7A2
:101CB000C700C207C1832326F4FE0327C4FEBD6705
:101CC0009387379FF98F2326F4FE832784FB03D75E
:101CD0004700832784FB83D78700D98F1397070199
:101CE0004183832784FB83D7A700D98FC207C18391
:101CF0003E878327C4FED98F2326F4FE8327C4FEA4
:101D00001397070141838327C4FB2396E7008327AA
:101D1000C4FB83D74701C207C1832326F4FE0327F0
:101D2000C4FEC1679387F7CFF98F2326F4FE83277C
:101D300084FB83D7C7003E878327C4FED98F232621
:101D4000F4FE8327C4FE1397070141838327C4FB56
:101D5000239AE700930784FC3E85EFE09FF7032773
:101D6000C4FDB7470140938707806317F7008327B7
:101D700044FD2324F4FE29A0832704FD2324F4FE3C
:101D80008327C4FB83D7C700C207C183C207C187AB
:101D900063D20702032784FEBA878607BA978E07A5
:101DA0003E97832784FB9C438607B357F702232281
:101DB000F4FE05A0032784FEBA878607BA978E072C
:101DC0003E97832784FB9C438A07B357F70223225D
:101DD000F4FE032744FE93074006B357F702920729
:101DE0002326F4FE8327C4FE13D74700930740063B
:101DF000B307F702032744FEB307F7402320F4FE9E
:101E00008327C4FB83D7C700C207C183C207C1872A
:101E100063D20702832704FE8E07138727039307E5
:101E20004006B357F7029D8B0327C4FED98F2326A4
:101E3000F4FE05A0832704FE920713872703930768
:101E40004006B357F702BD8B0327C4FED98F232664
:101E5000F4FE8327C4FE1397070141838327C4FB45
:101E60002394E7000100B64026446161828001119D
:101E700022CE00102326A4FE2324B4FE832784FE52
:101E800095C38327C4FE83D7C700139707014183F7
:101E90008967D98F1397070141838327C4FE23964F
:101EA000E70015A08327C4FE83D7C7001397070157
:101EB0004183F977FD17F98F139707014183832732
:101EC000C4FE2396E70001007244056182807971A7
:101ED00022D60018232EA4FCAE87232AC4FC231D7F
:101EE000F4FC232404FE232204FE232004FE2326E4
:101EF00004FE8327C4FD2326F4FE8357A4FD93F735
:101F0000F70F958393F7F70F2324F4FE8357A4FD6F
:101F1000FD8B2322F4FE832744FE0547B317F70009
:101F20002320F4FE032784FE85476318F7008327E8
:101F3000C4FEB1072326F4FE0DA0032784FE8947C3
:101F40006318F7008327C4FEC1072326F4FE31A0DF
:101F50008327C4FED1072326F4FE832744FD99CBB3
:101F60008327C4FE94438327C4FE032704FE558FB2
:101F700098C321A88327C4FE9443832704FE13C774
:101F8000F7FF8327C4FE758F98C301003254456163
:101F90008280011122CE00102326A4FEAE872315D5
:101FA000F4FE8357A4FE93F7F71F139707014183AD
:101FB0008327C4FE2392E7000100724405618280FA
:101FC000797122D60018232EA4FCAE87231DF4FCC1
:101FD000232604FE8327C4FD83D707001397070138
:101FE00041838357A4FDF98FC207C18389C7854701
:101FF0002326F4FE19A0232604FE8327C4FE3E8573
:10200000325445618280011106CE22CC0010AA878D
:10201000A307F4FE1307F4FE9307F4FE85463A8601
:10202000BE850545EF20503E8347F4FE3E85F240D5
:10203000624405618280797106D622D40018AA878D
:102040002E87232CC4FCA30FF4FCBA87230FF4FCC7
:10205000832784FDFD8B0547B317F700939607018F
:10206000C182832784FD958393F7F70F13F77700D9
:10207000B9670A079387476DBA979C433687D8CBD1
:102080008347F4FD93E707F8A30FF4FC8347F4FDBF
:102090003E85953F8347E4FD3E85B537832784FD24
:1020A000FD8B0547B317F70093960701C18283277D
:1020B00084FD958393F7F70F13F77700B9670A0745
:1020C0009387476DBA979C43368798CB0545EF2099
:1020D000D03F832784FDFD8B0547B317F700939608
:1020E0000701C182832784FD958393F7F70F13F7C8
:1020F0007700B9670A079387476DBA979C4336877D
:10210000D8CB01450937AA87A307F4FE0145E53D71
:10211000832784FDFD8B0547B317F70093960701CE
:10212000C182832784FD958393F7F70F13F7770018
:10213000B9670A079387476DBA979C43368798CB50
:102140000347E4FD8347F4FE6304F700854711A0CD
:1021500081473E85B250225445618280011106CEEE
:1021600022CC0010AA872324B4FE2322C4FEA30796
:10217000F4FE832744FEFD8B0547B317F7009396C3
:102180000701C182832744FE958393F7F70F13F766
:102190007700B9670A079387476DBA979C433687DC
:1021A000D8CB8347F4FE93E70704A307F4FE8347E5
:1021B000F4FE3E85893D0145B935832744FEFD8BFC
:1021C0000547B317F70093960701C182832744FEA2
:1021D000958393F7F70F13F77700B9670A0793878B
:1021E000476DBA979C43368798CB0545EF20F02D75
:1021F000832744FEFD8B0547B317F700939607012D
:10220000C182832744FE958393F7F70F13F7770076
:10221000B9670A079387476DBA979C433687D8CB2F
:102220000145D533AA873E87832784FE2380E700B4
:102230000145D13B832744FEFD8B0547B317F700CB
:1022400093960701C182832744FE958393F7F70F86
:1022500013F77700B9670A079387476DBA979C43CE
:10226000368798CB0100F2406244056182800111FB
:1022700006CE22CC0010AA872324B4FE2317F4FE36
:102280008357E4FE0567B307F7402317F4FE83572F
:10229000E4FE92072317F4FE8357E4FE93F7F70F4B
:1022A000032684FEBE85014579338357E4FEA1836E
:1022B000C207C18393F7F70F032684FEBE85054549
:1022C0009D3B0100F240624405618280797106D62F
:1022D00022D40018232EA4FC8327C4FDFD8B0547C0
:1022E000B317F70093960701C1828327C4FD958336
:1022F00093F7F70F13F77700B9670A079387476DCE
:10230000BA979C433687D8CB0145F539AA871397EE
:1023100007014183239EE18483D7C185A2071397D8
:1023200007014183239EE1840145F139AA87139770
:102330000701418383D7C185D98F13970701418353
:10234000239EE1848327C4FDFD8B0547B317F70067
:1023500093960701C1828327C4FD958393F7F70FF6
:1023600013F77700B9670A079387476DBA979C43BD
:10237000368798CB83D7C18599831397070141830B
:10238000239EE18403D7E18583D7C185B307F74056
:10239000C207C18393F7F73F2317F4FE03D7C18524
:1023A000239FE1848357E4FE8607C207C18393F726
:1023B0000740C207C1830357E4FEB307F740C207D3
:1023C000C183C207C1873E85B250225445618280D5
:1023D000797106D622D40018232EA4FC8327C4FDCD
:1023E000FD8B0547B317F70093960701C18283273A
:1023F000C4FD958393F7F70F13F77700B9670A07C2
:102400009387476DBA979C433687D8CB0145E53E05
:10241000AA871397070141832390E18683D701861A
:10242000A2071397070141832390E1860145E13E0E
:10243000AA8713970701418383D70186D98F139702
:10244000070141832390E1868327C4FDFD8B054767
:10245000B317F70093960701C1828327C4FD9583C4
:1024600093F7F70F13F77700B9670A079387476D5C
:10247000BA979C43368798CB83D701869983139765
:10248000070141832390E18603D7218683D7018604
:10249000B307F740C207C18393F7F73F2317F4FE52
:1024A00003D701862391E1868357E4FE8607C2079E
:1024B000C18393F70740C207C1830357E4FEB30704
:1024C000F740C207C183C207C1873E85B25022547C
:1024D00045618280797106D622D40018232EA4FC8F
:1024E0008327C4FDFD8B0547B317F70093960701BB
:1024F000C1828327C4FD958393F7F70F13F7770005
:10250000B9670A079387476DBA979C433687D8CB3C
:102510000145D53CAA871397070141832392E186A1
:1025200083D74186A2071397070141832392E1864F
:102530000145D13CAA8713970701418383D7418680
:10254000D98F1397070141832392E1868327C4FD26
:10255000FD8B0547B317F70093960701C1828327C8
:10256000C4FD958393F7F70F13F77700B9670A0750
:102570009387476DBA979C43368798CB83D741861C
:1025800099831397070141832392E18603D76186DC
:1025900083D74186B307F740C207C18393F7F73F5C
:1025A0002317F4FE03D741862393E1868357E4FE85
:1025B0008607C207C18393F70740C207C183035749
:1025C000E4FEB307F740C207C183C207C1873E8557
:1025D000B250225445618280797106D622D4001807
:1025E000232EA4FC8327C4FDFD8B0547B317F700FA
:1025F00093960701C1828327C4FD958393F7F70F54
:1026000013F77700B9670A079387476DBA979C431A
:102610003687D8CB0145EFF01F9FAA871397070194
:1026200041832394E18683D78186A207139707010C
:1026300041832394E1860145EFF0FF9CAA8713971D
:102640000701418383D78186D98F1397070141837F
:102650002394E1868327C4FDFD8B0547B317F7005C
:1026600093960701C1828327C4FD958393F7F70FE3
:1026700013F77700B9670A079387476DBA979C43AA
:10268000368798CB83D78186998313970701418337
:102690002394E18603D7A18683D78186B307F740C9
:1026A000C207C18393F7F73F2317F4FE03D7818650
:1026B0002395E1868357E4FE8607C207C18393F71B
:1026C0000740C207C1830357E4FEB307F740C207C0
:1026D000C183C207C1873E85B250225445618280C2
:1026E000797106D622D40018232EA4FC9307F4FE99
:1026F0000326C4FDBE851945EFF05FA60347F4FE2F
:10270000F147E315F7FE0100B25022544561828083
:10271000011106CE22CC00102326A4FE09488147D1
:102720000327C4FE9306200213061002930500023D
:102730000545EF20003A0325C4FE5D370326C4FE9D
:1027400081452545EFF03F8F8325C4FE01450536C1
:102750000100F240624405618280011122CE001026
:10276000B707002083D747182317F4FE01008357CB
:10277000E4FE1387F7FF2317E4FEF5FB0100724424
:1027800005618280411106C622C40008B96793879B
:10279000476DDC433E87C1471CCBB9679387476DC4
:1027A000DC433E87930700021CCB453FB967938704
:1027B000476DDC433E87C1475CCB4537B96793879C
:1027C000476DDC433E87930700025CCB0100B240BB
:1027D000224441018280411106C622C40008B96723
:1027E0009387476DDC433E87C1475CCBB9679387CE
:1027F000476DDC433E87930700025CCBB93FB96766
:102800009387476DDC433E87930700021CCBB137AB
:10281000B9679387476DDC433E87C1471CCB353F83
:102820000100B240224441018280011106CE22CC37
:102830000010AA87A307F4FEB9679387476DDC43AE
:102840003E87930700025CCB093F8347F4FE89CBA8
:10285000B9679387476DDC433E87C1475CCB01A8CE
:10286000B9679387476DDC433E87C1471CCBB96787
:102870009387476DDC433E87930700021CCBF13DF5
:10288000B9679387476DDC433E87930700025CCBB3
:10289000E9350100F240624405618280411106C6BB
:1028A00022C40008B9679387476DDC433E879307CE
:1028B00000025CCB5D35B9679387476DDC433E878B
:1028C000930700021CCB513D13054002EF10405608
:1028D000AA8799CBB9679387476DDC433E879307F7
:1028E00000025CCB814719A8B9679387476DDC4329
:1028F0003E87930700025CCB8D3585473E85B2400D
:10290000224441018280797106D622D40018AA8718
:10291000A30FF4FCA147A307F4FE99A88307F4FDD5
:1029200063DA0700B9679387476DDC433E87C14789
:102930001CCB01A8B9679387476DDC433E87C1472D
:102940005CCB8347F4FD8607A30FF4FC3935B967E8
:102950009387476DDC433E87930700021CCBF53B12
:10296000B9679387476DDC433E87930700025CCBD2
:102970008347F4FE1387F7FFA307E4FEC5F3393F4F
:102980000100B250225445618280797106D622D46A
:102990000018AA87A30FF4FC230704FEB9679387E6
:1029A000476DDC433E87930700025CCB7D33B967FC
:1029B0009387476DDC433E87C1471CCBA30704FECA
:1029C00089A8613BB9679387476DDC433E879307CE
:1029D00000025CCB5933B9679387476DDC433E8770
:1029E000930700021CCB953B8347E4FE8607230731
:1029F000F4FE13054002EF10A043AA8791C7834756
:102A0000E4FE85072307F4FE8347F4FE8507A3074A
:102A1000F4FE0347F4FE9D47E3F5E7FAB9679387B1
:102A2000476DDC433E87930700025CCB3D33834711
:102A3000F4FD3E85DD3B8347E4FE3E85B2502254E3
:102A400045618280011106CE22CC0010AA87AE8695
:102A50003287A307F4FEB6872307F4FEBA87A306DE
:102A6000F4FE0D338347F4FE860793F7F70F3E8598
:102A7000593D8347E4FE3E8579358347D4FE3E8544
:102A80005935913B0100F2406244056182807971C1
:102A900006D622D40018AA872E87232CC4FCA30FA5
:102AA000F4FCBA87230FF4FCF1398347F4FD860761
:102AB00093F7F70F3E85813D8347E4FD3E85A135C1
:102AC000032784FD85476313F70031336539834756
:102AD000F4FD8607E207E18793E71700E207E18745
:102AE00093F7F70F3E85053501454535AA87A307BE
:102AF000F4FED5318347F4FE3E85B2502254456141
:102B00008280011106CE22CC0010AA872324C4FEA5
:102B10002322E4FEA307F4FEAE872307F4FEB68764
:102B2000A306F4FE85318347F4FE860793F7F70F7B
:102B30003E85D13B8347E4FE3E85F133032744FEC7
:102B400085476313F700413935398347F4FE86071B
:102B5000E207E18793E71700E207E18793F7F70FB2
:102B60003E85553331A805450D35AA873E87832715
:102B700084FE2380E700832784FE85072324F4FE58
:102B80008347D4FEFD17A306F4FE8347D4FEE1FF7E
:102B90000145E53BAA873E87832784FE2380E70023
:102BA0001D390100F240624405618280411106C670
:102BB00022C40008930600310546854513055002DE
:102BC000EF10C00C930640310546854513054002C1
:102BD000EF10C00B0100B24022444101828041113C
:102BE00006C622C4000801469305B00613058006F8
:102BF000913D1D46E54513058006A93529A013051D
:102C0000803EEF20800C0146E545130580064135E6
:102C1000AA873E879D47E314F7FE0100B240224495
:102C200041018280411106C622C40008E167138574
:102C3000076AEF208009653701469305B006130542
:102C4000800609351D46E54513058006E53B11461E
:102C5000E94513058006FD336146ED451305800601
:102C6000D5334146F14513058006E93B01469305FE
:102C7000A00613058006F933094693057003130572
:102C80008006C9330100B240224441018280011113
:102C900006CE22CC0010930784FE014799463E865B
:102CA0009305300413058006A93D8347C4FEA2079F
:102CB0001397070141878347D4FEC207C187D98F85
:102CC000139707014187239DE1900100F240624480
:102CD00005618280797122D60018AA87A30FF4FCBF
:102CE000A147A307F4FEB9679387476D9C473E87CA
:102CF000A1675CCBB9679387476D9C473E87916717
:102D00001CCBB96783A7476D3E87930700025CCB56
:102D1000B9A08307F4FD63DA0700B96783A7476D9D
:102D20003E87930700081CCB01A8B96783A7476DAE
:102D30003E87930700085CCBB96783A7476D3E8742
:102D4000930700021CCBB96783A7476D3E879307A3
:102D500000025CCB8347F4FD8607A30FF4FC834796
:102D6000F4FE1387F7FFA307E4FEC5F7B96793875F
:102D7000476D9C473E87A1671CCB010032544561DB
:102D80008280797122D60018AA87A30FF4FCA1478C
:102D9000A307F4FEB9679387476D9C473E87A167F9
:102DA0005CCBB9679387476D9C473E8791675CCB47
:102DB000B96783A7476D3E87930700025CCBB9A034
:102DC0008307F4FD63DA0700B96783A7476D3E8781
:102DD000930700081CCB01A8B96783A7476D3E87FE
:102DE000930700085CCBB96783A7476D3E879307BD
:102DF00000021CCBB96783A7476D3E87930700028B
:102E00005CCB8347F4FD8607A30FF4FC8347F4FEF5
:102E10001387F7FFA307E4FEC5F7B9679387476DEC
:102E20009C473E87A1671CCB0100325445618280DC
:102E3000797122D60018AA87232CB4FC231FF4FC36
:102E40009947A307F4FE8347F4FE032784FDBA974E
:102E500023800700B1A08347F4FEFD17A307F4FE0B
:102E60000357E4FDA947B377F702C207C1832307DD
:102E7000F4FE0357E4FDA947B357F702231FF4FC00
:102E80008347E4FE9387070393F6F70F8347F4FE27
:102E9000032784FDBA971397860161872380E70093
:102EA0008347F4FECDFB010032544561828041111D
:102EB00006C622C40008930600310546854515451F
:102EC000EF00D05C93060031014685451D45EF00BB
:102ED000F05B93060031054685451305D004EF00ED
:102EE000F05A93060031054685451305E004EF00CE
:102EF000F05993060031054685451305F004EF00AF
:102F0000F058B96783A7476D3E87930700021CCB33
:102F1000B9679387476D9C473E8789675CCBB167EC
:102F200013850735EF10705AB9679387476D9C4733
:102F30003E8789671CCB1305E00AA1350145913511
:102F400041458135130500042D3D13051008153D3D
:102F50001305F0073D351305100A25351305800CC0
:102F60000D351305600A313D1305800A193D13051F
:102F7000F003013D1305300D2935014519351305C1
:102F8000500D013513050008ED3B1305900DD53BA1
:102F90001305100FFD331305A00DE5334945D53357
:102FA0001305B00DF93B13050004E13B13050002C6
:102FB000C93B0945F9331305D008E1335145D133F5
:102FC0001305400A7D3B1305600A653B1305F00AB3
:102FD0004D3B014575208145014531200100B2403E
:102FE000224441018280011106CE22CC0010AA8722
:102FF0002E87A307F4FEBA872307F4FE8307F4FEA7
:1030000063DF0700B9679386C707B9671386475719
:103010009305900DB96713858708EF909056034785
:10302000E4FE9D4763FFE700B9679386C70BB96766
:10303000138647579305A00DB96713858708EF904E
:1030400050548347E4FE938707FB93F7F70F3E85C1
:103050000D3B8347F4FE918393F7F70F93E7070146
:1030600093F7F70F3E85313B8347F4FEBD8B93F713
:10307000F70F3E8539330100F240624405618280DA
:10308000797106D622D40018AA87A30FF4FCA307EF
:1030900004FEB1A08347F4FE938707FB93F7F70F75
:1030A0003E85EFF01FCE0545EFF0BFCD4145EFF077
:1030B0005FCD230704FE19A88347F4FD3E85EFF09A
:1030C0007FC18347E4FE85072307F4FE8307E4FE00
:1030D000E3D407FE8347F4FE8507A307F4FE034706
:1030E000F4FE9D47E3F8E7FA0100B250225445612F
:1030F0008280797106D622D40018AA872E87232CC5
:10310000C4FCA30FF4FCBA87230FF4FCA30604FE4F
:10311000A30704FE230704FE51A88347E4FE032708
:1031200084FDBA978387070093F7F70F8117A306EB
:10313000F4FE0347F4FD9307E00763F9E700A30FEC
:1031400004FC8347E4FD8507230FF4FC0347E4FDFB
:103150008347F4FDBA853E857935A30704FE05A8AB
:103160000347D4FE8346F4FE3966BA878607BA97CA
:1031700086071307C634BA97B69783C707003E85FC
:10318000EFF05FB58347F4FE8507A307F4FE03471E
:10319000F4FE9547E3F6E7FC8347F4FD9907A30F98
:1031A000F4FC8347E4FE85072307F4FE8347E4FE2F
:1031B000032784FDBA9783870700A5F30100B25067
:1031C000225445618280797106D622D40018AA87DC
:1031D000AE863287A30FF4FCB687230FF4FCBA87C0
:1031E000231EF4FC130784FE8357C4FDBA853E8575
:1031F000EFF01FC4930784FE938617000347E4FD96
:103200008347F4FD3686BA853E85E5350100B25028
:10321000225445618280797106D622D40018AA878B
:10322000AE863287A30FF4FCB687230FF4FCBA876F
:10323000231EF4FC8317C4FD63D507028357C4FD26
:10324000B307F040C207C183231EF4FC8346E4FDAC
:103250000347F4FDB9671386C70CB6853A85513D1F
:1032600019A88346E4FD0347F4FDB9671386070DEB
:10327000B6853A85BD3D8347F4FD9907A30FF4FC5D
:103280008357C4FD130784FEBA853E85EFF05FBA0D
:10329000930784FE938617000347E4FD8347F4FDFC
:1032A0003686BA853E85B1350100B250225445615B
:1032B00082805D7186C6A2C48008AA87232CC4FAC6
:1032C0003687231FF4FAAE87231EF4FABA87A30BBE
:1032D000F4FA034774FBA94763F5E700A947A30B7A
:1032E000F4FA834774FB8507A30BF4FA832784FB66
:1032F00063DF07001307C4FC032684FBB9679385CB
:10330000870D3A853D2CAA87A307F4FEB9A0930741
:1033100000022306F4FC9307C4FC1387170003265E
:1033200084FBB9679385870D3A85212CAA87A3076B
:10333000F4FE8347F4FE8507A307F4FE39A883470C
:10334000F4FE130704FFBA9713070002238EE7FC6D
:103350008347F4FE8507A307F4FE0347F4FE834783
:1033600074FBE36EF7FC834774FB130704FFBA9703
:10337000238E07FC8357E4FB93F7F70F0357C4FB37
:103380001377F70F9306C4FC3686BA853E85EFF0B7
:103390005FD60100B640264461618280797122D6F1
:1033A0000018232EA4FC232CB4FCB2873687A30B71
:1033B000F4FCBA87230BF4FCA30304FE230304FEEE
:1033C000834774FDA5CB8327C4FD2326F4FE832702
:1033D000C4FE63D807008327C4FEB307F04023264A
:1033E000F4FE834764FD0327C4FEB367F70293F737
:1033F000F70F9387070393F7F70F139787016187F9
:10340000832784FD2380E700834764FD0327C4FEF0
:10341000B347F7022326F4FE834764FE85072303A0
:10342000F4FE8327C4FEC9C3832784FD8507232CAC
:10343000F4FC45BF8327C4FD2324F4FE834764FDC9
:10344000032784FEB377F702A303F4FE034774FE59
:10345000A54763F9E700834774FE93877703A303C7
:10346000F4FE39A0834774FE93870703A303F4FE99
:10347000030774FE832784FD2380E700834764FDF0
:10348000032784FEB357F7022324F4FE834764FE28
:1034900085072303F4FE832784FE89CB832784FDDD
:1034A0008507232CF4FC59BF010011A001008347BC
:1034B00064FE3E85325445618280797122D60018BF
:1034C000232EA4FC232CB4FC232604FE85A0032772
:1034D00084FD8327C4FEB307F740FD170327C4FD0F
:1034E000BA9783C70700A305F4FE0327C4FD83270B
:1034F000C4FE3E97832684FD8327C4FEB387F6402F
:10350000FD178326C4FDB697030707002380E70055
:103510000327C4FD8327C4FEBA970347B4FE238064
:10352000E7008327C4FE85072326F4FE832784FD56
:1035300085830327C4FEE36CF7F80100325445612C
:103540008280357186DEA2DC00012326A4F82324C4
:10355000B4F810C454C418C85CC8232C0401232E2A
:103560001401232604FE93070402A117232AF4FA68
:1035700031A3832784F883C70700A301F4FE030760
:1035800034FE930750026312F74C832784F88507B3
:103590002324F4F8832784F8838707009387B7FDF3
:1035A000130730056366F74C13972700B9679387B5
:1035B0004758BA979C438287832744FB1387470069
:1035C000232AE4FA9C432301F4FE8327C4F803472B
:1035D00024FE2380E7008327C4F885072326F4F818
:1035E0008327C4FE85072326F4FE61A1832744FBBD
:1035F00013874700232AE4FA9C43232EF4FC8327F5
:10360000C4FD130704F9A9460546BA853E857933FA
:10361000AA87A305F4FE8327C4FD63D0070283476E
:10362000B4FE130704FFBA971307D0022380E7FA0A
:103630008347B4FE8507A305F4FE0347B4FE930752
:1036400004F9BA853E85953D0347B4FE930704F916
:103650003A86BE850325C4F8EF90A0788347B4FE70
:103660000327C4F8BA972326F4F88347B4FE032748
:10367000C4FEBA972326F4FEEDAE832744FB9D07D4
:10368000E19B13878700232AE4FA03A847009C43A1
:103690002328F4FC232A04FD032504FD832544FD8F
:1036A000EF80603EAA873E87930704F9A946054646
:1036B000BE853A85EFF09FCEAA872305F4FE01462A
:1036C0008146032504FD832544FDEF700071AA8720
:1036D00063D007028347A4FE130704FFBA971307BA
:1036E000D0022380E7FA8347A4FE85072305F4FE72
:1036F0000347A4FE930704F9BA853E857D3B034743
:10370000A4FE930704F93A86BE850325C4F8EF901A
:10371000406D8347A4FE0327C4F8BA972326F4F824
:103720008347A4FE0327C4FEBA972326F4FE03258D
:1037300004FD832544FDEF800035AA873E85EF8098
:10374000003BAA872E883E86C286032504FD83257A
:1037500044FDEF70703FAA872E883E85C285B96709
:1037600003A6070E83A6470EEF708072AA872E88E5
:103770002328F4FC232A04FD01468146032504FD89
:10378000832544FDEF70C05EAA878DC7032504FD25
:10379000832544FDEF80202FAA873E87930704F9F5
:1037A000A9460546BE853A85EFF05FBFAA87230587
:1037B000F4FE99A893070003A30AF4F8830754F9C9
:1037C000230AF4F8830744F9A309F4F8830734F9CA
:1037D0002309F4F8830724F9A308F4F8830714F9FC
:1037E0002308F4F899472305F4FE39A88347A4FE7B
:1037F000130704FFBA97130700032380E7FA8347F0
:10380000A4FE85072305F4FE0347A4FE9547E3FFC6
:10381000E7FC8347A4FE130704FFBA971307E002EF
:103820002380E7FA8347A4FE85072305F4FE0347B8
:10383000A4FE930704F9BA853E85EFF01FC803473D
:10384000A4FE930704F93A86BE850325C4F8EF90D9
:1038500040598347A4FE0327C4FEBA972326F4FEEB
:10386000010001AC832744FB13874700232AE4FAB5
:103870009C432326F4FC930704F9A9460146BE8520
:103880000325C4FCEFF09FB1AA87A305F4FC03470E
:10389000B4FC930704F9BA853E85EFF01FC20347D5
:1038A000B4FC930704F93A86BE850325C4F8EF906B
:1038B00040538347B4FC0327C4F8BA972326F4F88F
:1038C0008347B4FC0327C4FEBA972326F4FE55A20F
:1038D000832744FB13874700232AE4FA9C432322CF
:1038E000F4FC930704F9A1460146BE85032544FC78
:1038F000EFF0DFAAAA87A301F4FC034734FC930787
:1039000004F9BA853E85EFF05FBB034734FC9307AB
:1039100004F93A86BE850325C4F8EF90804C8347AE
:1039200034FC0327C4F8BA972326F4F8834734FC01
:103930000327C4FEBA972326F4FE25AA832744FB57
:1039400013874700232AE4FA9C43232EF4FA9307B3
:1039500004F9C1460146BE850325C4FBEFF01FA450
:10396000AA87A30DF4FA0347B4FB930704F9BA85B9
:103970003E85EFF09FB40347B4FB930704F93A8602
:10398000BE850325C4F8EF90C0458347B4FB0327E9
:10399000C4F8BA972326F4F88347B4FB0327C4FE80
:1039A000BA972326F4FEF1A0832744FB1387470030
:1039B000232AE4FA9C432322F4FE05A8832744FE2D
:1039C000038707008327C4F82380E7008327C4F810
:1039D00085072326F4F88327C4FE85072326F4FEF3
:1039E000832744FE85072322F4FE832744FE838732
:1039F0000700E9F7BDA8930704F9A1453E85EFF05C
:103A0000DFAB930704F92146BE850325C4F8EF9088
:103A1000403D8327C4F8A1072326F4F88327C4FE7A
:103A2000A1072326F4FEB1A08327C4F81307500290
:103A30002380E7008327C4F885072326F4F883272B
:103A4000C4FE85072326F4FE2DA0832784F8038770
:103A500007008327C4F82380E7008327C4F885077D
:103A60002326F4F88327C4FE85072326F4FE11A03D
:103A70000100832784F885072324F4F8832784F83A
:103A800083870700E39707AE8327C4FE3E85F65081
:103A900066540D618280797122D60018232EA4FC11
:103AA000232CB4FC0327C4FDA167BA971397270002
:103AB000832784FDBA97AA072324F4FE231704FE64
:103AC0000DA00357E4FE832784FEBA979843FD5761
:103AD0006304F700854729A88357E4FE910723175D
:103AE000F4FE0357E4FE9307F03FE3FCE7FC814755
:103AF0003E85325445618280797106D622D4001801
:103B0000232EA4FC232CB4FC0327C4FDA167BA9781
:103B100013972700832784FDBA97AA072326F4FE6C
:103B2000EFC0BF8E13054003EFC0FFA80325C4FEFE
:103B3000EFC03F922A8723A4E18013050002EFC063
:103B40009FA7EFC03F8F03A7818091476304F700D1
:103B5000854711A081473E85B2502254456182803D
:103B6000797122D60018232EA4FC232CB4FC232A1E
:103B7000C4FCB6872319F4FC231704FE232404FE97
:103B80000327C4FDA167BA9713972700832784FDF5
:103B9000BA97AA072324F4FEB7F700082324F4FEFB
:103BA000231704FE35A08357E4FE8A073E87832748
:103BB00084FEBA97BE86832744FD13874700232AD5
:103BC000E4FC984298C38357E4FE85072317F4FE6C
:103BD0000357E4FE835724FDE367F7FC01003254EA
:103BE00045618280797106D622D40018232EA4FC68
:103BF000232CB4FC232AC4FCB6872319F4FC232607
:103C000004FE0327C4FDA167BA97139727008327F3
:103C100084FDBA97AA072326F4FE832584FD032595
:103C2000C4FD953DAA8791C7832584FD0325C4FD66
:103C3000E135EFC08FFD25A8832744FD138747009A
:103C4000232AE4FC9C43BE850325C4FEEFC0BF8944
:103C50002A8723A6E18003A7C18091476304F70068
:103C6000854705A08327C4FE91072326F4FE8357CA
:103C700024FD1387F7FF2319E4FCDDFFEFC08FFB62
:103C800081473E85B250225445618280797106D6C3
:103C900022D40018232EA4FC232CB4FCB2872328A2
:103CA000D4FCA30BF4FC8327C4FD958393F7F70F93
:103CB0009D8BA307F4FE8327C4FD93F7F70FFD8BBD
:103CC0002307F4FE0327C4FD93070008630DF714D0
:103CD0008327C4FD958391E785451145EFD00FA15A
:103CE00061A88327C4FD13D7570085476317F700E2
:103CF00085452145EFD08F9F41A08327C4FD13D771
:103D0000570089476317F70085454145EFD00F9E5F
:103D1000A5A08327C4FD13D757008D476318F7006C
:103D2000854513050002EFD06F9CB9A08327C4FD21
:103D300013D7570091476318F70085451305000412
:103D4000EFD0CF9A15A88327C4FD13D75700954706
:103D50006318F700854513050008EFD02F9929A8AF
:103D60008327C4FD13D7570099476317F70085458C
:103D700013050010EFD08F978347E4FE0547B31774
:103D8000F700C207C1832310F4FE032784FD854793
:103D90006317F702832704FDC207C183A183C2070B
:103DA000C18389E78D472322F4FE11A8832704FDF0
:103DB000C207C183A183C207C1832322F4FE8327E4
:103DC00004FDC207C18393F7F70F2324F4FE0347D2
:103DD000F4FEB9670A079387476DBA979C433E87FD
:103DE000930704FEBE853A85EFC09F89032784FDB3
:103DF0008547631BF7020347F4FEB9670A079387F9
:103E0000476DBA979C43BE868347E4FE0547B317C8
:103E1000F700C207C183034774FD3A86BE85368525
:103E2000EFC0BFA811A00100B250225445618280AA
:103E3000797122D60018232EA4FC8327C4FD958314
:103E400093F7F70F9D8BA307F4FE8327C4FD93F729
:103E5000F70FFD8B2307F4FE0347F4FEB9670A074B
:103E60009387476DBA979C439C470347E4FE85467A
:103E70003397E600F98F99C3854711A081473E85A6
:103E8000325445618280797106D622D40018232EDF
:103E9000A4FCAE873687A30DF4FCB287230DF4FC97
:103EA000BA87A30CF4FC8327C4FD93F7F70F230410
:103EB000F4FE8347B4FDA304F4FE8347A4FD230569
:103EC000F4FE834794FD2326F4FE930784FE3E858B
:103ED000EFC0DFBDB7E700E09843FD777D8F83A794
:103EE00081905D8F23A4E190B7E700E0D843B70746
:103EF0000010FD177D8F93878190DC435D8F938742
:103F00008190D8C39387819003C787008547631347
:103F1000F70031200100B2502254456182804111E6
:103F200022C60008B7E700E07D5723A0E718B7E7EF
:103F300000E07D5723A2E71801003244410182804E
:103F4000411122C60008B7E700E003A7819023A033
:103F5000E710B7E700E013878190584323A2E710EA
:103F60000100324441018280011106CE22CC0010B2
:103F700005472386E18683A7819081EB9387819013
:103F8000DC4381E7A30704FE21A08547A307F4FED5
:103F900079378347F4FE3E85F240624405618280B2
:103FA000011106CE22CC0010AA87A307F4FE834796
:103FB000F4FE81E72386018661370100F240624406
:103FC00005618280797106D622D40018232EA4FCC4
:103FD000AE87231DF4FC8327C4FD81EB85458567EF
:103FE00013850780EFC09FF035A80327C4FD8547E0
:103FF0006317F70085450545EFC0BFF325A00327EC
:10400000C4FD89476317F70085450945EFC07FF276
:1040100011A80327C4FD8D476316F7008545114598
:10402000EFC03FF18357A4FD91EFB9679386870EE8
:10403000B9671386476E93052003B9671385070F89
:10404000EF803054ED779387F7BD2314F4FE835748
:10405000A4FD8607C207C183FD17C207C1832312CF
:10406000F4FE231504FE231304FE230604FEB967A1
:104070000327C4FD0A079387C76FBA979C433E87FF
:10408000930744FEBE853A85EFD02F84B967032796
:10409000C4FD0A079387C76FBA979C4305468545B9
:1040A0003E85EFD0AFFF8327C4FD89EB85460946E7
:1040B000814513059002EFF01FDDB9A00327C4FD71
:1040C0008547631AF7008546094681451305C002F6
:1040D000EFF07FDB15A80327C4FD8947631AF700BB
:1040E0008546094681451305D002EFF0DFD929A89E
:1040F0000327C4FD8D476319F700854609468145AE
:104100001305E002EFF03FD8B9670327C4FD0A07A3
:104110009387C76FBA979C4385453E85EFD08FEC58
:104120000100B250225445618280011106CE22CC9A
:1041300000102326A4FE0327C4FE93070020630774
:10414000F7240327C4FE9307002063EAE70A032746
:10415000C4FE930710106300F71C0327C4FE9307E7
:10416000101063E2E7040327C4FE8947630DF716C6
:104170000327C4FE894763ECE7008327C4FE6384FA
:1041800007140327C4FE85476307F714E5AC03272C
:10419000C4FE8D476301F7160327C4FE9307001082
:1041A0006303F716C5A40327C4FE93070011630C2D
:1041B000F7180327C4FE9307001163EFE7000327F6
:1041C000C4FE930720106300F7160327C4FE93076D
:1041D00030106302F7167DA40327C4FE9307201155
:1041E0006304F7180327C4FE930720116365F716CD
:1041F0000327C4FE930730116301F71861A4032756
:10420000C4FE930730216300F7200327C4FE930701
:10421000302163EEE7040327C4FE930730206300D8
:10422000F71A0327C4FE9307302063EFE700032744
:10423000C4FE930710206303F7160327C4FE9307F9
:1042400020206305F7163DAC0327C4FE9307102119
:104250006309F7180327C4FE9307102163ECE718DE
:104260000327C4FE930700216304F71621AC03273C
:10427000C4FE930700306303F71C0327C4FE9307B3
:10428000003063EFE7000327C4FE930700226305B5
:10429000F7180327C4FE930710226308F718DDA25E
:1042A0000327C4FE93072030630CF71A0327C4FECC
:1042B00093072030636DF7180327C4FE930730304F
:1042C0006309F71AC1A2930680310146854521454D
:1042D000EFF0DF9B45AA93068031014685452545D1
:1042E000EFF0DF9A45A293068031014685452945C6
:1042F000EFF0DF9941AA93068031014685452D45AF
:10430000EFF0DF9841A293068031014685450145D3
:10431000EFF0DF9785AA9306803101468545054574
:10432000EFF0DF9685A29306803101468545094569
:10433000EFF0DF9581AA93068031014685450D4552
:10434000EFF0DF9481A293068031014685453D451B
:10435000EFF0DF9305AA93068031014685451305EA
:104360003002EFF0BF9239AA9306803101468545AD
:104370001305A002EFF09F9131A293068031014610
:1043800085451305B002EFF07F90EDA893068031CC
:10439000014685451945EFF07F8FEDA093068031EA
:1043A000014685451D45EFF07F8EE9A893068031D3
:1043B0000146854513050002EFF05F8DE1A09306ED
:1043C00080310146854513051002EFF03F8C5DA852
:1043D000930680310146854513056004EFF01F8B7D
:1043E00055A0930680310146854513057004EFF012
:1043F000FF8949A89306803101468545130580044D
:10440000EFF0DF8841A09306803101468545130512
:104410009004EFF0BF87BDA093068031014685452B
:1044200013054002EFF09F86B1A893068031014644
:10443000854513055002EFF07F85A9A093068031D2
:104440000146854513056002EFF05F8425A89306B9
:1044500080310146854513057002EFF03F831DA0B2
:10446000930680310146854513058002EFF01F82D7
:1044700011A8930680310146854513059002EFF09F
:10448000FF8001000100F2406244056182803971C1
:1044900006DE22DC80002326A4FC2324B4FC232295
:1044A000C4FC231704FE0325C4FCEFF01FC88327B8
:1044B000C4FCA18381EB8545856713850780EFC028
:1044C000FFA2A1A08327C4FC13D7870085476317E9
:1044D000F70085450545EFC0DFA505A88327C4FC87
:1044E00013D7870089476317F70085450945EFC053
:1044F0005FA421A88327C4FC13D787008D476316C8
:10450000F70085451145EFC0DFA285450545EFC0A1
:10451000FF9D8327C4FC13D74700C147631AF700E8
:104520008545B707160013850704EFC08FBBB9A8F0
:104530008327C4FC13D74700C547631AF700854596
:10454000B707180013850730EFC0AFB981A08327E4
:10455000C4FC13D7470093071002631AF700854580
:10456000B7171A00138507C0EFC0AFB705A08327A0
:10457000C4FC13D74700930720026319F700854551
:10458000B7171A0013850780EFC0AFB5B717024001
:10459000DC43C98313F7F700B7177A009387072026
:1045A0003307F702B727F400938707403E9723A805
:1045B000E18603A70187832784FCB357F702C183F1
:1045C0002317F4FE03A701878357E4FE8507BE8601
:1045D000832784FCB387F602B357F7022316F4FE51
:1045E0000357C4FE832744FC3307F7028967938788
:1045F0000771B357F7022315F4FE8357C4FEFD1766
:10460000C207C1832312F4FE8357E4FE2310F4FE95
:10461000231304FE231104FE230404FE9307000762
:104620002318F4FC85472319F4FC231A04FC835750
:10463000A4FE231BF4FC8947231CF4FC8947231D9B
:10464000F4FC231E04FC231F04FC8327C4FC13D7A3
:104650008700B9670A079387C76FBA979C433E875D
:10466000930704FEBE853A85EFC03FA68327C4FCAE
:104670008D8BB9EF8327C4FC13D78700B9670A076E
:104680009387C76FBA979C433E87930704FDBE8507
:104690003A85EFC03FB38327C4FC13D78700B967BF
:1046A0000A079387C76FBA979C43A1453E85EFD011
:1046B000EFA58327C4FC13D78700B9670A07938740
:1046C000C76FBA979C4391453E85EFD0EFB889A25A
:1046D0008327C4FC13F7370085476311F706832748
:1046E000C4FC13D78700B9670A079387C76FBA97C7
:1046F0009C433E87930704FDBE853A85EFC09FC368
:104700008327C4FC13D78700B9670A079387C76F4D
:10471000BA979C43A1453E85EFD00FA48327C4FCE4
:1047200013D78700B9670A079387C76FBA979C4367
:10473000930500403E85EFD0EFB6D9A88327C4FC8F
:1047400013F7370089476310F7068327C4FC13D794
:104750008700B9670A079387C76FBA979C433E875C
:10476000930704FDBE853A85EFC03FD88327C4FC7C
:1047700013D78700B9670A079387C76FBA979C4317
:10478000A1453E85EFD0EFA28327C4FC13D7870055
:10479000B9670A079387C76FBA979C4391453E85CF
:1047A000EFD0AFB5B5A08327C4FC13F737008D4712
:1047B0006310F7068327C4FC13D78700B9670A077D
:1047C0009387C76FBA979C433E87930704FDBE85C6
:1047D0003A85EFC09FEC8327C4FC13D78700B967E5
:1047E0000A079387C76FBA979C43A1453E85EFD0D0
:1047F0000FA18327C4FC13D78700B9670A079387E3
:10480000C76FBA979C43930500403E85EFD0AFB386
:104810008327C4FC13D78700B9670A079387C76F3C
:10482000BA979C4385453E85EFC0DFFB8327C4FCD8
:1048300013D78700B9670A079387C76FBA979C4356
:1048400085453E85EFC09FFF0100F2506254216113
:104850008280797122D60018232EA4FC232CB4FC6C
:104860008327C4FD13D78700B9670A079387C76FEB
:10487000BA979C4383D7C7022317F4FE0357E4FE7D
:10488000832784FD3307F702896793870771B3573E
:10489000F7022316F4FE8327C4FDA18385E3832753
:1048A000C4FD13F73700B75700109387D7B0BA97F6
:1048B0008A073E878357C4FE1CC349A08327C4FDD3
:1048C00013D7870085476310F7028327C4FD13F7CA
:1048D0003700B7070010B507BA978A073E87835796
:1048E000C4FE1CC3A1A88327C4FD13D78700894732
:1048F0006311F7028327C4FD13F73700B7070010D1
:104900009387D710BA978A073E878357C4FE1CC384
:1049100035A08327C4FD13D787008D476310F702A6
:104920008327C4FD13F73700B70700109387D720FC
:10493000BA978A073E878357C4FE1CC301003254CE
:1049400045618280011106CE22CC00102326A4FEF0
:104950002324B4FE2322C4FE2320D4FE8327C4FED6
:1049600089EB93068031054685451545EFF00FB27A
:1049700099A80327C4FEC147631BF7009306803143
:104980000546854513053002EFF04FB02DA80327EB
:10499000C4FE93070002631BF700930680310546AF
:1049A00085451305D002EFF06FAE31A8B967938645
:1049B0000712B9671386C7709305D002B9671385CC
:1049C0004712EF80003C032784FE8547631AF700F7
:1049D00093068031054685451D45EFF02FAB99A81C
:1049E000032784FEC547631BF70093068031054605
:1049F000854513055002EFF06FA92DA8032784FE0B
:104A000093071002631BF700930680310546854526
:104A10001305F002EFF08FA731A8B967938607124C
:104A2000B9671386C77093052003B96713854712CA
:104A3000EF802035032744FE8947631AF700930669
:104A40008031054685451945EFF04FA4B5A00327F1
:104A500044FEC947631BF700930680310546854530
:104A600013054002EFF08FA281A8032744FE9307AD
:104A70002002631BF7009306803105468545130528
:104A8000E002EFF0AFA00DA8032744FE9307300229
:104A90006317F700930730022322F4FE31A8B967A9
:104AA00093860712B9671386C77093058003B967A9
:104AB00013854712EF80E02C9306003105468545AB
:104AC000032504FEEFF08F9C0100F2406244056173
:104AD00082805D7186C6A2C480082326A4FC23249C
:104AE000B4FC2322C4FC2320D4FC232EE4FA232A82
:104AF00004FBA30DF4FA8327C4FC81EB854585678D
:104B000013851700EFC08FBE21A80327C4FC85477B
:104B10006318F7008545916713851700EFC06FC1D3
:104B20008326C4FB032604FC832544FC032584FC64
:104B3000EFF05FE1231E04FC93074010231FF4FCF9
:104B4000231004FE8347B4FB05476383E702054750
:104B50006344F70089CB81A009476381E7020D47D1
:104B60006384E7020DA8231104FE231204FE25A08E
:104B7000231104FE85472312F4FE31A8894723112F
:104B8000F4FE231204FE01A889472311F4FE854791
:104B90002312F4FE0100930700202313F4FE832761
:104BA00044FBC207C1838E07C207C1832314F4FEEE
:104BB000231504FE9D472316F4FE0327C4FC0A07B1
:104BC0009387C184BA979C433E879307C4FDBE85F3
:104BD0003A85EFC06FBA032784FCC1476316F7001C
:104BE00085450545EFB0FFCF0327C4FC0A0793872F
:104BF000C184BA979C4385453E85EFC06FC70100CD
:104C0000B640264461618280011122CE0010232625
:104C1000A4FE2324B4FE2322C4FE2320D4FE59A8DC
:104C200001000327C4FE0A079387C184BA979C43F7
:104C300083D78700C207C183898BE5D7832784FE8A
:104C4000138717002324E4FE83C607000327C4FE4E
:104C50000A079387C184BA979C433E8793970601BE
:104C6000C1832316F700832744FEA9C70100032749
:104C7000C4FE0A079387C184BA979C4383D78700F1
:104C8000C207C183858BE5D70327C4FE0A07938734
:104C9000C184BA979C4383D7C70093960701C1820A
:104CA000832744FE138717002322E4FE13F7F60F31
:104CB0002380E700832704FE1387F7FF2320E4FE09
:104CC000A5F30100724405618280797122D6001833
:104CD000232EA4FCB7F700E023A0070003A7018759
:104CE000B7177A0093870720B357F7020327C4FD4D
:104CF000B307F7022326F4FEB7F700E0238207008C
:104D0000B7F700E0A3820700B7F700E023830700AE
:104D1000B7F700E0A3830700B7F700E0054798C3A3
:104D20000100B7F700E091079C430327C4FEE37A34
:104D3000F7FE0100325445618280011106CE22CC7B
:104D400000102326A4FE2324B4FE8327C4FE85E797
:104D5000032784FE85476310F702930680310146DE
:104D600085452545EFE09FF291460146814529455D
:104D7000EFE0DFF165A00327C4FE89476312F70265
:104D8000930680310146854513056002EFE01FF070
:104D900091460146814513057002EFE03FEFBDA843
:104DA0000327C4FEC1476310F70293068031014612
:104DB00085450945EFE09FED9146014681450D454A
:104DC000EFE0DFECA1A80327C4FE93070002631203
:104DD000F70293068031014685451305A002EFE0F6
:104DE000FFEA9146014681451305B002EFE01FEA54
:104DF00035A00327C4FE930720026311F702930630
:104E00000031014685451305A004EFE03FE89146D7
:104E1000014681451305B004EFE05FE70100F24071
:104E2000624405618280797106D622D40018232E4F
:104E3000A4FC232CB4FC232AC4FC2328D4FC832701
:104E4000C4FD91E785451165EFC04F8A35A0032762
:104E5000C4FD85476318F700854537050200EFC09C
:104E60004F8D19A80327C4FD89476317F7008545AF
:104E700037050400EFC0EF8B832504FD032544FDB7
:104E8000EFF0BFEB832784FD2320F4FE231204FE02
:104E9000231304FE231404FE231604FEB147231536
:104EA000F4FEB9670327C4FD0A079387C771BA9751
:104EB0009C433E87930704FEBE853A85EFC0FFD72B
:104EC000B9670327C4FD0A079387C771BA979C4344
:104ED00085453E85EFC0BFF90100B25022544561BF
:104EE0008280011106CE22CC00102326A4FEAE87BC
:104EF000A305F4FEB9670327C4FE0A079387C771A9
:104F0000BA979C430546930550523E85EFC03FFC3F
:104F10008327C4FE938757030347B4FEBA8601462E
:104F200081453E85EFE03FF60100F24062440561B5
:104F30008280011122CE00102326A4FE2324B4FE79
:104F40000100B9670327C4FE0A079387C771BA97A0
:104F50009C4383D70700C207C18393F70702F5D3A9
:104F6000B9670327C4FE0A079387C771BA979C43A2
:104F700083D74700C207C18313F7F70F832784FE47
:104F80002380E7000100724405618280411106C65A
:104F900022C40008B7170240DC43C98313F7F700A7
:104FA000B7177A00938707203307F702B727F40073
:104FB000938707403E9723A8E18685460146F1671F
:104FC000938507200145EFF01FE60100B24022441F
:104FD00041018280797106D622D40018232EA4FCC8
:104FE000232CB4FC232AC4FC232604FE99A0010030
:104FF000B96783A7C771930500043E85EFC05FFCC6
:10500000AA87FDD7B96783A7C771BE86832784FDAA
:1050100013871700232CE4FC83870700C207C18392
:10502000BE853685EFC0FFF68327C4FE850723269D
:10503000F4FE0327C4FE832744FDE34AF7FA8327DF
:1050400044FD3E85B250225445618280011122CE3A
:105050000010232604FE232404FEB71702409443C5
:10506000B71702404167558F98C3B717024098435E
:10507000B7070200F98F2324F4FE8327C4FE8507B7
:105080002326F4FE832784FE99E70327C4FE9307B3
:105090000050E31CF7FCB71702409843B707020023
:1050A000F98F89C785472324F4FE19A0232404FE21
:1050B000032784FE85476317F70CB7270240984300
:1050C000B72702401367070198C3B72702409843E8
:1050D000B7270240719B98C3B72702409843B72770
:1050E00002401367270098C337170240B7170240E2
:1050F0005843D8C337170240B71702405843D8C3A4
:1051000037170240B71702405843D8C3B7170240B9
:10511000D443B71702403707C1FF7D17758FD8C337
:10512000B7170240D443B717024037072500558F01
:10513000D8C3B71702409443B7170240370700019E
:10514000558F98C30100B71702409843B707000274
:10515000F98FF5DBB7170240D843B7170240719BB0
:10516000D8C3B7170240D843B717024013672700C8
:10517000D8C30100B7170240DC4313F7C700A147AB
:10518000E31AF7FE0100724405618280411106C6F0
:1051900022C40008B71702409843B71702401367AC
:1051A000170098C3B7170240D443B7170240370718
:1051B000FFF8758FD8C3B71702409443B717024062
:1051C0003707F7FE7D17758F98C3B71702409443D2
:1051D000B71702403707FCFF7D17758F98C3B717C5
:1051E0000240D443B7170240370781FF7D17758F00
:1051F000D8C3B717024037079F0098C7EFF01FE5E5
:105200000100B240224441018280011106CE22CC2D
:1052100026CA00102326A4FEAE8732872322D4FE9E
:105220002315F4FEBA872314F4FE8327C4FE035724
:10523000A4FE2394E7008327C4FE035784FE23952E
:10524000E7008327C4FE032744FED8C78327C4FE94
:105250008397A7003E878327C4FE83978700B30701
:10526000F7403E85EF70E06FAA848327C4FED847DD
:10527000B96783A507153A85EF706001AA87BE85D7
:105280002685EF60F00DAA873E85EF70D006B967DE
:1052900003A6871583A6C715EF40505FAA872E88FF
:1052A0003E85C285EF60207EAA871397070141875C
:1052B0008327C4FE2390E7008327C4FE8397A700BB
:1052C0003E878327C4FE83978700BA973E85EF7099
:1052D0004069AA848327C4FED847B96783A5071508
:1052E0003A85EF60D07AAA87BE852685EF70602365
:1052F000AA873E85EF703000B96703A6871583A69D
:10530000C715EF40B058AA872E883E85C285EF604A
:105310008077AA871397070141878327C4FE2391CB
:10532000E7008327C4FE8397A7003E878327C4FE38
:1053300083978700B307F7403E85EF708062AA84A9
:105340008327C4FED847B96783A507153A85EF6060
:105350001074AA87BE852685EF70A01CAA873E859B
:10536000EF706079B96703A6871583A6C715EF406C
:10537000F051AA872E883E85C285EF60C070AA874B
:105380001397070141878327C4FE2392E7008327F1
:10539000C4FE8397A7003E878327C4FE83978700B8
:1053A000BA973E85EF70E05BAA848327C4FED84796
:1053B000B96783A507153A85EF60706DAA87BE852A
:1053C0002685EF60E079AA873E85EF70C072B967E5
:1053D00003A6871583A6C715EF40504BAA872E88D2
:1053E0003E85C285EF60206AAA871397070141872F
:1053F0008327C4FE2393E7008327C4FE83972700F7
:105400003E878327C4FE83974700BA9713D7F701D7
:10541000BA9785871397070141878327C4FE23988E
:10542000E7008327C4FE839707003E878327C4FED7
:1054300083976700BA9713D7F701BA9785871397B1
:10544000070141878327C4FE2399E7000100F2404A
:105450006244D24405618280411106C622C400081C
:1054600083C7418199E783A7C1871387170023AEBC
:10547000E18603A7C1879307100363D7E70023AE34
:1054800001860547238AE18003C7118BA947631B67
:10549000F70483C74181B9C783A78187A1E783A7A1
:1054A0004187A9E30547A38EE18A238A01809305FA
:1054B00040280945EFF0EFB9B96783A70716BE8604
:1054C0000146814513854195EFF03FD4B75702005F
:1054D0001385079FEFF06FFF054723ACE18623AAF2
:1054E0000186C1A203C7118BA9476313F70A83C7BB
:1054F0004181D9CF03A781878547631BF70883A71D
:105500004187D9E70397218A9307B00363CDE7006A
:105510008397218AC207C1839387C703C207C183C8
:10552000C207C18729A88397218AC207C1831307AD
:10553000C003B307F740C207C183C207C18703A7EF
:10554000C18ABA860146BE8513854195EFF0FFCB2F
:10555000E1671385076AEFF04FF7238A018093050F
:10556000503F0945EFF0EFAE93060000014681453C
:1055700013854195EFF07FC9B7A707001385071280
:10558000EFF0AFF423AC0186054723AAE18611AA08
:1055900003C7118BA9476310F70683C74181A1CFC9
:1055A00083A78187A9EB03A7418785476315F70484
:1055B0000547238FE18A238A018093054028094506
:1055C000EFF02FA9B96783A74716BE86014681452C
:1055D00013854195EFF07FC3B7170300138507D4F8
:1055E000EFF0AFEE054723ACE186054723AAE1863D
:1055F000238F018A7DA003C7118BA9476313F70A84
:1056000083C74181D9CF03A781878547631BF708EB
:1056100003A7418785476316F7080397218A9307F5
:10562000B00363CFE7008397218AC207C1831307C2
:1056300040FCB307F740C207C183C207C18719A85E
:105640008397218AC207C183938747FCC207C1831E
:10565000C207C18703A7C18ABA860146BE851385E2
:105660004195EFF09FBAE1671385076AEFF0EFE528
:10567000238A01809305D0100945EFF08F9D930692
:1056800000000146814513854195EFF01FB8B7A78B
:10569000070013850712EFF04FE323AC018623AA1E
:1056A000018683C7218C938747FC3E85EF20F02C31
:1056B0002A8723A8E1A483C741A4850713F7F70F1E
:1056C0002382E1A403C741A49547631AF704238208
:1056D00001A4938701A203C717002380E1A2938747
:1056E00001A203C72700938701A2A380E700938745
:1056F00001A203C73700938701A22381E7009387A4
:1057000001A203C74700938701A2A381E70083A7F3
:1057100001A513F7F70F938701A22382E70003C7C0
:105720008196238CE1A003C701A2BD4763FBE7027A
:10573000938701A203C71700BD4763F4E70293876D
:1057400001A203C72700BD4763FDE700938701A2BD
:1057500003C74700B94763E6E70011472384E19692
:1057600041A003C701A2B94763EBE702938701A2F7
:1057700003C71700B94763E4E702938701A203C791
:105780002700B94763EDE700938701A203C74700ED
:10579000BD4763E6E70005472384E19691A003C770
:1057A00001A2B94763EBE702938701A203C7170081
:1057B000B94763E4E702938701A203C72700B9470B
:1057C00063EDE700938701A203C74700B94763F67B
:1057D000E70009472384E19621A00D472384E19641
:1057E00003C781A183C781966306F7002384019EC6
:1057F000238601A283C7818191E70397419E23916C
:10580000E18A21AC03A7818785476317F7000397D7
:10581000C1A52391E18A11A403C7118B9307200F1F
:105820006317F7000397419E2391E18ADDA203C726
:10583000118B9307300F6317F7001307800723912D
:10584000E18AC1AA03C7118BAD476317F70013079D
:10585000200D2391E18A75AA03C7118B8547630741
:10586000F70003C7118B89476317F7000397E1A57A
:105870002391E18A79AA03C7118B8D476307F7004B
:1058800003C7118B91476317F7000397C1942391C6
:10589000E18A41A203C7118BFD476317F700039705
:1058A000619E2391E18AB5A2238E018A03978189A3
:1058B000239EE1880397A189239FE18803C78196EE
:1058C00085476311F7028397218AC207C1838D0739
:1058D000C207C1831397070141872391E18A23827D
:1058E000018A5DA803C7819689476313F70A0547B4
:1058F0002382E18A8397218A3E878397C189D917BA
:105900006343F7048397E18913970701418383C6B3
:105910000192A947B3D7F60293F7F70F93960701C1
:10592000C18283A701A5C207C183B387F602C2075C
:10593000C183B307F740C207C183139707014187AB
:105940002393E1A489A08397E189139707014183F9
:1059500083C601A1A947B3D7F60293F7F70F939631
:105960000701C18283A701A5C207C183B387F602DD
:10597000C207C183B307F740C207C183139707016A
:1059800041872393E1A4039761A42391E18A29A08D
:105990000397E1892391E18A0397218A8397C1893B
:1059A00063D6E7000397C1892391E18A03C7418A3F
:1059B00085476311F704039761A48397218A635B8A
:1059C000F702839761A4C207C1838507C207C18319
:1059D0001397070141872391E18A839761A4C20746
:1059E000C1838507C207C1831397070141872393AA
:1059F000E1A405A003C7418A8547631CF70003970C
:105A000061A48397218A6346F7002382018A239346
:105A100001A40397218A239CE1A203A781878547DC
:105A20006314F70683C7218C3E869305C003138554
:105A30004192EF10805C2A8723A6E18A83A74187E1
:105A40008DE38397218AC207C183B307F040C20761
:105A5000C1831397070141872393E18A2394018A25
:105A60008DA803A7418785476315F7060397218A09
:105A70002393E18A2394018A03A7C18AB707008090
:105A80003D8F23A6E18AB1A083C7218C3E86930572
:105A9000C0031385C19EEF1040562A8723A6E18AD2
:105AA00003A7418785476310F7022393018A03A761
:105AB000C18AB70700803D8F23A6E18A0397218A18
:105AC0002394E18A39A02393018A0397218A23949E
:105AD000E18A03C7118B9307100F631BF70093062E
