:100000006F00A05213000000130000001300000056
:100010001300000013000000130000001300000094
:100020001300000013000000130000001300000084
:08003000130000007300100032
:100038006FF09FFC000000006F00004C6F00C04C88
:1000480000000000000000000000000000000000A8
:100058000000000000000000000000000000000098
:100068006FF09FF9000000006FF01FF9000000001A
:100078006FF09FF86FF05FF86FF01FF86FF0DFF721
:100088006FF09FF76FF05FF76F0080156F004016F5
:100098006F0080186F00A0196F00601A6FF0DFF50D
:1000A8006FF09FF56FF05FF56F0060426FF0DFF45F
:1000B8006FF09FF46FF05FF46F00601B00000000AA
:1000C8000000000000000000000000006F00201881
:1000D8006F00E01A6F00E01D6F00A0206F00E025A0
:1000E8006F00A02E6F00E0306F00A0336FF0DFF0DC
:1000F8006FF09FF06FF05FF06FF01FF06FF0DFEFC1
:100108006FF09FEF6F00E0346F00E0376F00203B27
:100118006F00E0146FF05FEE6FF01FEE6FF0DFED31
:1001280000000000000000000000000000000000C7
:080138000000000000000000BF
:100140003D432A876373C3029377F700BDEFADE5A4
:10015000937606FF3D8ABA960CC34CC30CC74CC7B6
:100160004107E36BD7FE11E28280B306C3408A06E3
:100170009702000096966780A6002307B700A306A3
:10018000B7002306B700A305B7002305B700A304F3
:10019000B7002304B700A303B7002303B700A302EB
:1001A000B7002302B700A301B7002301B700A300E3
:1001B000B7002300B700828093F5F50F9396850072
:1001C000D58D93960501D58D61B79396270097023B
:1001D000000096968682E78086FA9680C1171D8F6A
:1001E0003E96E374C3F8A5B7411122C6000801008A
:1001F0003244410173002030411122C600080945F4
:10020000EF00D00E2A8785476317F700EF10506B79
:100210000945EF0010130100324441017300203002
:10022000411122C600081145EF00B011010032440F
:10023000410173002030411122C600080100324400
:10024000410173002030411122C6000801003244F0
:10025000410173002030411122C6000801003244E0
:10026000410173002030411122C6000801003244D0
:10027000410173002030411122C6000801003244C0
:10028000410173002030411122C600089305000887
:10029000B7370140138507C0EF10C050AA8789CB3C
:1002A00093050008B7370140138507C0EF1080564B
:1002B00001003244410173002030411122C6000880
:1002C0008545B7370140138507C0EF10A04DAA87B9
:1002D00081CB8545B7370140138507C0EF108053A8
:1002E00001003244410173002030411122C6000850
:1002F00093050004B7370140138507C0EF10804A0B
:10030000AA8789CB93050004B7370140138507C03E
:10031000EF10405093050002B7370140138507C026
:10032000EF104048AA8789CB93050002B7370140F8
:10033000138507C0EF10004E0100324441017300E5
:100340002030411122C600088945B7370140138586
:1003500007C0EF102045AA8781CB8945B7370140F8
:10036000138507C0EF10004B9145B7370140138547
:1003700007C0EF102043AA8781CB9145B7370140D2
:10038000138507C0EF100049A145B7370140138519
:1003900007C0EF102041AA8781CBA145B7370140A4
:1003A000138507C0EF100047C145B73701401385DB
:1003B00007C0EF10203FAA8781CBC145B737014066
:1003C000138507C0EF10004501003244410173005E
:1003D0002030411122C60008854537050040EF1046
:1003E000603CAA8791C7854537050040EF108042E1
:1003F00001003244410173002030411122C600083F
:100400008545B707004013850740EF10A039AA873C
:1004100081CB8545B707004013850740EF10803F2B
:1004200001003244410173002030411122C600080E
:100430008545B717004013850780EF10A036AA87BF
:1004400081CB8545B717004013850780EF10803CAE
:1004500001003244410173002030411122C60008DE
:1004600093055052B747014013850780EF10207A5B
:10047000AA8789CB93055052B7470140138507805F
:10048000EF10100901003244410173002030411186
:1004900022C6000893055052B74700401385074015
:1004A000EF10E076AA8799CB93055052B7470040EA
:1004B00013850740EF10D005EF10700A0100324499
:1004C000410173002030411122C60008010032446E
:1004D000410173002030411122C60008096529211D
:1004E0002A8785476319F7000965A929EF10B040ED
:1004F0000945EF30203401003244410173002030BF
:10050000411122C60008010032444101730020302D
:10051000411122C6000801A0411106C622C40008EC
:10052000EF80B075EF90A031F5BF97010020938167
:100530006145175100201301E1AC17F500001305C8
:10054000E557970500209385E5AB1386818363FA11
:10055000C5008322050023A0550011059105E3EA9B
:10056000C5FE13858183974500209385E58E6377CB
:10057000B500232005001105E36DB5FE9302800848
:1005800073A0023097020000938242AB93E2120004
:1005900073905230EF30D00397020000938202F83C
:1005A0007390123473002030011122CE00102326E4
:1005B000A4FE8327C4FE9843C167F9177D8F832764
:1005C000C4FE98C38327C4FE23A007008327C4FE6C
:1005D00023A207008327C4FE23A407008327C4FEA9
:1005E00023A607000327C4FEB7070240A107631B29
:1005F000F700B7070240D843B70702401367F70078
:10060000D8C375A20327C4FEB7070240F107631BD6
:10061000F700B7070240D843B70702401367070F38
:10062000D8C371A20327C4FEB7070240938707030C
:10063000631DF700B7070240D443B70702400567C0
:10064000130707F0558FD8C39DA20327C4FEB70731
:10065000024093874704631BF700B7070240D44367
:10066000B70702403D67558FD8C391A20327C4FE48
:10067000B707024093878705631CF700B70702405E
:10068000D443B707024037070F00558FD8C305A2E0
:100690000327C4FEB70702409387C706631CF70011
:1006A000B7070240D443B70702403707F000558F21
:1006B000D8C3F5A80327C4FEB707024093870708ED
:1006C000631CF700B7070240D443B707024037075F
:1006D000000F558FD8C3E1A80327C4FEB707024017
:1006E00093878740631FF700B7070240938707404F
:1006F000D843B7070240938707401367F700D8C372
:100700007DA00327C4FEB70702409387C741631F3C
:10071000F700B707024093870740D843B707024066
:10072000938707401367070FD8C351A00327C4FE60
:10073000B7070240938707436311F702B7070240E8
:1007400093870740D443B707024093870740056764
:10075000130707F0558FD8C399A80327C4FEB7071E
:10076000024093874744631FF700B707024093870F
:100770000740D443B7070240938707403D67558F32
:10078000D8C335A00327C4FEB70702409387874527
:10079000631FF700B707024093870740D443B707AA
:1007A00002409387074037070F00558FD8C30100D9
:1007B000724405618280797122D60018232EA4FC30
:1007C000232CB4FC232604FE8327C4FD9C4323264C
:1007D000F4FE0327C4FEE177BD07F98F2326F4FE5C
:1007E000832784FD9847832784FD9C535D8F83274F
:1007F00084FD9C4B5D8F832784FDDC4B5D8F8327BD
:1008000084FD9C4F5D8F832784FDDC4F5D8F8327A4
:1008100084FDDC535D8F832784FD9C57D98F03278C
:10082000C4FED98F2326F4FE8327C4FD0327C4FE0C
:1008300098C3832784FDD8478327C4FDD8C3832763
:1008400084FD98438327C4FD98C7832784FDD8433C
:100850008327C4FDD8C7010032544561828001114D
:1008600022CE00102326A4FE2324B4FE832784FE78
:1008700091CB8327C4FE9C4313E717008327C4FE54
:1008800098C311A88327C4FE9843C167F9177D8FC9
:100890008327C4FE98C30100724405618280011160
:1008A00022CE00102326A4FE2324B4FE2322C4FE5D
:1008B000832744FE99CB8327C4FE9843832784FE75
:1008C0005D8F8327C4FE98C321A88327C4FE984365
:1008D000832784FE93C7F7FF7D8F8327C4FE98C3C9
:1008E0000100724405618280797122D60018232E9E
:1008F000A4FC232604FE232404FE0327C4FDB7071B
:100900000010F98F89CBB7070240938707409C43BB
:100910002324F4FE31A0B70702409C432324F4FEB5
:10092000032784FE8327C4FDF98F89C785472326C3
:10093000F4FE19A0232604FE8327C4FE3E8532540C
:1009400045618280011122CE00102326A4FE0327D8
:10095000C4FEB7070010F98F89CBB7070240938711
:1009600007400327C4FED8C331A0B70702400327BE
:10097000C4FED8C30100724405618280797122D619
:100980000018232EA4FC232604FEB70701409387FA
:1009900007402326F4FE8327C4FDDC47638007124B
:1009A000B70701409387074094438327C4FD9C43C6
:1009B00013C7F7FFB707014093870740758F98C3A8
:1009C000B707014093870740D4438327C4FD9C4366
:1009D00013C7F7FFB707014093870740758FD8C348
:1009E0008327C4FDDC430327C4FEBA972326F4FE05
:1009F0008327C4FE94438327C4FD98438327C4FE02
:100A0000558F98C3B70701409387074094478327C2
:100A1000C4FD9C4313C7F7FFB70701409387074006
:100A2000758F98C7B707014093870740D44783273E
:100A3000C4FD9C4313C7F7FFB707014093870740E6
:100A4000758FD8C78327C4FD9847C147631FF70236
:100A5000B70701409387074094478327C4FD984315
:100A6000B707014093870740558F98C7B7070140E4
:100A700093870740D4478327C4FD9843B7070140B5
:100A800093870740558FD8C7B1A8B7070140938710
:100A900007402326F4FE8327C4FD9C470327C4FE9A
:100AA000BA972326F4FE8327C4FE94438327C4FD0C
:100AB00098438327C4FE558F98C32DA08327C4FD78
:100AC000DC430327C4FEBA972326F4FE8327C4FE23
:100AD00094438327C4FD9C4313C7F7FF8327C4FEB9
:100AE000758F98C30100325445618280797122D696
:100AF0000018232EA4FC232604FE232404FEB7079B
:100B00000140938707409C430327C4FDF98F2324AA
:100B1000F4FEB707014093870740D84B8327C4FDF5
:100B2000F98F81CB832784FE89C785472326F4FE6E
:100B300019A0232604FE8327C4FE3E853254456156
:100B40008280011122CE00102326A4FEB7070140A7
:100B5000938707400327C4FED8CB01007244056188
:100B60008280397122DE80002326A4FC2324B4FC79
:100B7000232604FE232004FE232404FE232E04FC4B
:100B8000232204FE232C04FC832784FC9C47BD8B7A
:100B90002326F4FE832784FC9C47C18B89CB8327C3
:100BA00084FCDC430327C4FED98F2326F4FE83276D
:100BB00084FC83D7070093F7F70FF1CF8327C4FC9A
:100BC0009C432322F4FE232404FE65A8832784FE8D
:100BD0000547B317F700232EF4FC832784FC83D743
:100BE00007003E878327C4FDF98F2320F4FE0327E7
:100BF00004FE8327C4FD6311F708832784FE8A0758
:100C0000232EF4FC8327C4FD3D47B317F700232CA4
:100C1000F4FC832784FD93C7F7FF032744FEF98F75
:100C20002322F4FE8327C4FD0327C4FEB317F70075
:100C3000032744FED98F2322F4FE832784FC9847A0
:100C400093078002631BF700832784FE0547331751
:100C5000F7008327C4FCD8CB05A0832784FC9847E2
:100C600093078004631AF700832784FE0547331730
:100C7000F7008327C4FC98CB832784FE85072324B1
:100C8000F4FE032784FE9D47E3F2E7F48327C4FCC8
:100C9000032744FE98C3832784FC03D707009307E8
:100CA000F00F63F1E70E8327C4FCDC432322F4FE3C
:100CB000232404FE75A8832784FEA1070547B317E4
:100CC000F700232EF4FC832784FC83D707003E879C
:100CD0008327C4FDF98F2320F4FE032704FE832716
:100CE000C4FD6312F708832784FE8A07232EF4FCD1
:100CF0008327C4FD3D47B317F700232CF4FC83275B
:100D000084FD93C7F7FF032744FEF98F2322F4FEE7
:100D10008327C4FD0327C4FEB317F700032744FE4F
:100D2000D98F2322F4FE832784FC984793078002FF
:100D3000631BF700832784FEA10705473317F700DD
:100D40008327C4FCD8CB832784FC9847930780046F
:100D5000631BF700832784FEA10705473317F700BD
:100D60008327C4FC98CB832784FE85072324F4FEC5
:100D7000032784FE9D47E3F0E7F48327C4FC0327A1
:100D800044FED8C30100725421618280011122CE39
:100D900000102326A4FEAE872322C4FE2315F4FEF2
:100DA000832744FE99C70357A4FE8327C4FE98CB2C
:100DB00031A00357A4FE8327C4FED8CB01007244A0
:100DC00005618280797122D60018232EA4FC232C81
:100DD000B4FC232404FE232204FE232604FE232045
:100DE00004FE8327C4FD63D80700B7070140DC4F2A
:100DF0002326F4FE31A0B7070140DC432326F4FE8E
:100E00008327C4FDC183BD8B2320F4FE0327C4FDCB
:100E1000C167FD17F98F2324F4FE0327C4FDB7072C
:100E200030007D8FB70730006315F7020327C4FE3B
:100E3000B70700F1FD17F98F2326F4FEB70701402D
:100E4000D443B7070140370700F17D17758FD8C32A
:100E5000ADA00327C4FDB7071000F98F8DCB832702
:100E600004FE0D47B317F7002322F4FE832744FE48
:100E700093C7F7FF0327C4FEF98F2326F4FE032749
:100E8000C4FEB707000FD98F2326F4FE3DA08327A9
:100E9000C4FDD5839207032784FEB317F70093C7D9
:100EA000F7FF0327C4FEF98F2326F4FE0327C4FEB1
:100EB000B707000FD98F2326F4FE832784FD91CF37
:100EC0008327C4FDD5839207032784FEB317F70059
:100ED0000327C4FED98F2326F4FE8327C4FD63D8DD
:100EE0000700B70701400327C4FED8CF31A0B707DA
:100EF00001400327C4FED8C30100325445618280FB
:100F0000797122D60018AA872E87A30FF4FCBA871E
:100F1000230FF4FC232604FE8347E4FD8D8B8A0710
:100F20003D47B317F7002326F4FE370701408347F8
:100F3000E4FD898393F7F70F8A07BA9798478327C9
:100F4000C4FE93C7F7FFB70601400346E4FD0982DC
:100F50001376F60F7D8F93172600B69798C737073D
:100F600001408347E4FD898393F7F70F8A07BA9717
:100F700098478346F4FD8347E4FD8D8B8A07B3973A
:100F8000F600B70601400346E4FD09821376F60F2A
:100F90005D8F93172600B69798C7010032544561BC
:100FA0008280011122CE00102326A4FE8327C4FED6
:100FB000FD8B0547B316F70037E700E08327C4FE33
:100FC0009583938707048A07BA9794C301007244F4
:100FD00005618280011122CE00102326A4FE832702
:100FE000C4FEFD8B0547B316F70037E700E0832703
:100FF000C4FE9583938707068A07BA9794C30100B6
:10100000724405618280011122CE00102326A4FEC5
:10101000AE87A305F4FE37E700E08327C4FEBA9746
:101020000347B4FE2380E7400100724405618280DB
:10103000011106CE22CC00102326A4FEB7E700E063
:10104000BC47898B8DC38327C4FE83C707003E87B7
:101050008327C4FE83C72700920793F7F70FBE8547
:101060003A85553795A0B7E700E0BC47898BA9EFD3
:101070008327C4FE03C7170085476318F702832739
:10108000C4FE83C707003E878327C4FE83C72700AB
:101090009207E207E18793E707F8E207E18793F712
:1010A000F70FBE853A85853705A08327C4FE83C721
:1010B00007003E878327C4FE83C72700920793F764
:1010C000F70FBE853A8581378327C4FEDC4381CB89
:1010D0008327C4FE83C707003E85E13539A08327F7
:1010E000C4FE83C707003E85F5350100F240624427
:1010F00005618280797122D60018232EA4FC232654
:1011000004FE232404FE232204FE232004FEB7173A
:101110000240DC43B18B2326F4FE0327C4FE914733
:101120006302F7020327C4FEA1476305F702832782
:10113000C4FEC5E78327C4FD37177A0013070720CD
:1011400098C365A08327C4FD37177A0013070720CB
:1011500098C361A8B7170240D843B7073C00F98F7E
:101160002324F4FEB7170240D843C167F98F232226
:10117000F4FE832784FEC98389072324F4FE832792
:1011800044FE89EF032784FEB7173D00938707903D
:101190003307F7028327C4FD98C381A8B71702401D
:1011A000D843B7070200F98F89CF032784FEB7170A
:1011B0003D00938707903307F7028327C4FD98C348
:1011C0002DA0032784FEB7177A00938707203307E3
:1011D000F7028327C4FD98C309A88327C4FD3717E6
:1011E0007A001307072098C30100B7170240DC43B9
:1011F00093F7070F2326F4FE8327C4FE918323264B
:10120000F4FEB7070020138707008327C4FEBA97B0
:1012100083C7070093F7F70F2320F4FE8327C4FD4D
:101220009843832704FE3357F7008327C4FDD8C3B0
:10123000B7170240DC4393F707702326F4FE832799
:10124000C4FEA1832326F4FEB707002013870700FE
:101250008327C4FEBA9783C7070093F7F70F2320AD
:10126000F4FE8327C4FDD843832704FE3357F700D9
:101270008327C4FD98C7B7170240D8439167938767
:101280000780F98F2326F4FE8327C4FEAD8323262F
:10129000F4FEB7070020138707008327C4FEBA9720
:1012A00083C7070093F7F70F2320F4FE8327C4FDBD
:1012B000D843832704FE3357F7008327C4FDD8C7DC
:1012C000B7170240D843B167F98F2326F4FE83276E
:1012D000C4FEB9832326F4FEB7070020138707183E
:1012E0008327C4FEBA9783C7070093F7F70F23201D
:1012F000F4FE8327C4FDD847832704FE3357F70243
:101300008327C4FD98CB01003254456182800111CE
:1013100022CE00102326A4FE2324B4FE832784FEBD
:1013200099CBB7170240D44BB71702400327C4FE2E
:10133000558FD8CB21A8B7170240D44B8327C4FEC2
:1013400013C7F7FFB7170240758FD8CB010072445F
:1013500005618280011122CE00102326A4FE2324E1
:10136000B4FE832784FE99CBB7170240944FB7177A
:1013700002400327C4FE558F98CF21A8B71702401B
:10138000944F8327C4FE13C7F7FFB7170240758F2A
:1013900098CF0100724405618280011122CE0010B5
:1013A0002326A4FE2324B4FE832784FE99CBB717FB
:1013B0000240D44FB71702400327C4FE558FD8CF41
:1013C00021A8B7170240D44F8327C4FE13C7F7FFE5
:1013D000B7170240758FD8CF010072440561828033
:1013E000797122D60018232EA4FC232CB4FC2317D9
:1013F00004FE8327C4FD83D707002317F4FE0327C9
:10140000C4FDB7370140938707C06308F70203277D
:10141000C4FDB70700406302F7020327C4FDB70706
:10142000004093870740630AF7000327C4FDB717FE
:101430000040938707806311F7028357E4FE93F718
:10144000F7F82317F4FE832784FD03D7270083577B
:10145000E4FED98F2317F4FE8357E4FE93F7F7CF0A
:101460002317F4FE832784FD03D767008357E4FE28
:10147000D98F2317F4FE8327C4FD0357E4FE23907E
:10148000E700832784FD03D747008327C4FD239605
:10149000E702832784FD03D707008327C4FD239435
:1014A000E7020327C4FDB7370140938707C0631DD8
:1014B000F700832784FD83C78700139707014183C3
:1014C0008327C4FD2398E7028327C4FD0547239A99
:1014D000E7000100325445618280011122CE0010E4
:1014E0002326A4FE2324B4FE832784FE8DC38327F2
:1014F000C4FE83D70700C207C18393E71700139781
:10150000070141838327C4FE2390E70039A883277E
:10151000C4FE83D70700C207C183F99B1397070155
:1015200041838327C4FE2390E700010072440561D4
:101530008280011122CE00102326A4FEAE87232232
:10154000C4FE2315F4FE832744FE9DC38327C4FEF7
:1015500083D7C7001397070141838357A4FED98F10
:101560001397070141838327C4FE2396E70035A024
:101570008327C4FE83D7C70013970701418383578E
:10158000A4FE93C7F7FFC207C183F98F1397070122
:1015900041838327C4FE2396E7000100724405615E
:1015A0008280797106D622D40018232EA4FCAE873F
:1015B0003687231DF4FCB287231CF4FCBA87231B57
:1015C000F4FC231704FE835664FD035784FD835700
:1015D000A4FD3A86BE850325C4FD89288327C4FD62
:1015E00083D787002317F4FE8357E4FEE19B23177C
:1015F000F4FE8357E4FE93E777002317F4FE835746
:10160000E4FE93F7F7F82317F4FE8357E4FE93E71D
:1016100007072317F4FE8327C4FD0357E4FE239432
:10162000E7000100B250225445618280797122D6D0
:101630000018232EA4FCAE873687231DF4FCB28746
:10164000231CF4FCBA87231BF4FC231704FE832716
:10165000C4FD83D787002317F4FE8357E4FE93F776
:10166000F70F2317F4FE835764FDA20713970701B2
:101670004183835784FDD98F139707014183835793
:10168000A4FDD98F1397070141838357E4FED98FB7
:101690002317F4FE8327C4FD0357E4FE2394E700D9
:1016A0000100325445618280797122D60018232EC0
:1016B000A4FCAE87231DF4FC231704FE8327C4FD7E
:1016C00083D787002317F4FE8357E4FE93F7F7F8D8
:1016D0002317F4FE0357E4FE8357A4FDD98F231785
:1016E000F4FE8327C4FD0357E4FE2394E7000100C2
:1016F000325445618280011122CE00102326A4FEBF
:10170000AE872315F4FE8327C4FE83D78700C20764
:10171000C183E19B1397070141838327C4FE239470
:10172000E7008327C4FE83D787001397070141830F
:101730008357A4FED98F1397070141838327C4FEE3
:101740002394E7000100724405618280011122CEDA
:1017500000102326A4FEAE872315F4FE8327C4FEC3
:1017600083D78700C207C18393F7F7F71397070161
:1017700041838327C4FE2394E7008327C4FE83D7D5
:1017800087001397070141838357A4FED98F1397CE
:10179000070141838327C4FE2394E70001007244BC
:1017A00005618280797122D60018232EA4FCAE87B1
:1017B000231DF4FC232604FE231504FE231404FE3B
:1017C0008327C4FD83D707011397070141838357FC
:1017D000A4FDF98F2315F4FE8327C4FD83D7C7002A
:1017E0001397070141838357A4FDF98F2314F4FE57
:1017F0008357A4FE81CB835784FE89C78547232660
:10180000F4FE19A0232604FE8327C4FE3E8532542D
:1018100045618280011122CE00102326A4FEAE87EE
:101820002315F4FE8357A4FE93C7F7FF1397070110
:1018300041838327C4FE2398E700010072440561B9
:1018400082805D7186C6A2C48008232EA4FA232C50
:10185000B4FA232604FE232404FE232204FE2320BC
:1018600004FE232E04FC8327C4FB232EF4FC8327D1
:10187000C4FB83D70701C207C1832326F4FE0327D5
:10188000C4FEB567FD17F98F2326F4FE832784FB7A
:1018900083D767003E878327C4FED98F2326F4FEB3
:1018A0008327C4FE1397070141838327C4FB239832
:1018B000E7008327C4FB83D7C700C207C183232661
:1018C000F4FE0327C4FEBD679387379FF98F232655
:1018D000F4FE832784FB03D74700832784FB83D749
:1018E0008700D98F139707014183832784FB83D710
:1018F000A700D98FC207C1833E878327C4FED98F33
:101900002326F4FE8327C4FE139707014183832710
:10191000C4FB2396E7008327C4FB83D74701C20794
:10192000C1832326F4FE0327C4FEC1679387F7CF44
:10193000F98F2326F4FE832784FB83D7C7003E87D5
:101940008327C4FED98F2326F4FE8327C4FE139772
:10195000070141838327C4FB239AE700930784FC94
:101960003E85EFF02FF90327C4FDB7470140938769
:1019700007806317F700832744FD2324F4FE29A082
:10198000832704FD2324F4FE8327C4FB83D7C700E9
:10199000C207C183C207C18763D20702032784FE3F
:1019A000BA878607BA978E073E97832784FB9C43A6
:1019B0008607B357F7022322F4FE05A0032784FE0F
:1019C000BA878607BA978E073E97832784FB9C4386
:1019D0008A07B357F7022322F4FE032744FE930736
:1019E0004006B357F70292072326F4FE8327C4FE6E
:1019F00013D7470093074006B307F702032744FEB7
:101A0000B307F7402320F4FE8327C4FB83D7C70026
:101A1000C207C183C207C18763D20702832704FEBE
:101A20008E071387270393074006B357F7029D8B52
:101A30000327C4FED98F2326F4FE05A0832704FEC6
:101A400092071387270393074006B357F702BD8B0E
:101A50000327C4FED98F2326F4FE8327C4FE1397E1
:101A6000070141838327C4FB2394E7000100B640AC
:101A7000264461618280011122CE00102326A4FE3B
:101A80002324B4FE832784FE95C38327C4FE83D713
:101A9000C7001397070141838967D98F13970701FF
:101AA00041838327C4FE2396E70015A08327C4FE45
:101AB00083D7C700139707014183F977FD17F98F83
:101AC0001397070141838327C4FE2396E700010093
:101AD000724405618280797122D60018232EA4FCFD
:101AE000AE87232AC4FC231DF4FC232404FE2322F6
:101AF00004FE232004FE232604FE8327C4FD2326A0
:101B0000F4FE8357A4FD93F7F70F958393F7F70F30
:101B10002324F4FE8357A4FDFD8B2322F4FE8327A8
:101B200044FE0547B317F7002320F4FE032784FE85
:101B300085476318F7008327C4FEB1072326F4FE08
:101B40000DA0032784FE89476318F7008327C4FE8E
:101B5000C1072326F4FE31A08327C4FED107232624
:101B6000F4FE832744FD99CB8327C4FE9443832747
:101B7000C4FE032704FE558F98C321A88327C4FE03
:101B80009443832704FE13C7F7FF8327C4FE758F92
:101B900098C30100325445618280011122CE0010A9
:101BA0002326A4FEAE872315F4FE8357A4FE93F7E5
:101BB000F71F1397070141838327C4FE2392E70091
:101BC0000100724405618280797122D60018232EAB
:101BD000A4FCAE87231DF4FC232604FE8327C4FD4A
:101BE00083D707001397070141838357A4FDF98F1B
:101BF000C207C18389C785472326F4FE19A023267F
:101C000004FE8327C4FE3E8532544561828079718B
:101C100022D60018232EA4FCAE87231DF4FC232219
:101C200004FE232604FE232004FE232404FE8357FF
:101C3000A4FD93F7F70F958393F7F70F2320F4FE96
:101C40008357A4FDFD8B2326F4FE8327C4FE05479E
:101C5000B317F7002326F4FE032704FE8547631F0E
:101C6000F7008327C4FD83D7C700C207C1833E871F
:101C70008327C4FEF98F2326F4FE3DA8032704FE24
:101C80008947631FF7008327C4FD83D70701C20775
:101C9000C1833E878327C4FEF98F2326F4FE29A83B
:101CA0008327C4FD83D74701C207C1833E878327AB
:101CB000C4FEF98F2326F4FE8357A4FDA183C20737
:101CC000C1832322F4FE832744FE0547B317F700A0
:101CD0002322F4FE8327C4FD83D70700C207C183F4
:101CE0003E87832744FEF98F2322F4FE8327C4FE18
:101CF00081CB832744FE89C785472324F4FE19A09E
:101D0000232404FE832784FE3E853254456182806D
:101D1000797122D60018232EA4FCAE87231DF4FC73
:101D2000231704FE231604FE8357A4FDA183231763
:101D3000F4FE8357E4FE0547B317F7002316F4FEBD
:101D40008357C4FE93C7F7FF139707014183832787
:101D5000C4FD2390E70001003254456182804111A7
:101D600022C60008BD679387076EDC4383D7470010
:101D700013970701418383C7B183BE861377F70F9B
:101D800093878183B6972380E70083C7B183850754
:101D900013F7F70FA38DE18203C7B1838547631A59
:101DA000F70003C781839307500A6304F700A38DEC
:101DB000018203C7B1838D476317F700A38D0182AA
:101DC0000547238EE182010032444101828079710E
:101DD00006D622D44AD24ED00018232EA4FC232C9F
:101DE000B4FC238E0182231704FE69A0930750FAE6
:101DF0002304F4FE8357E4FE8A07032784FDBA9781
:101E00008397070093F7F70FA304F4FE8357E4FECC
:101E10008A07032784FDBA97839727002316F4FEC9
:101E20008357C4FEA183C207C18393F7F70F23052D
:101E3000F4FE8357C4FE93F7F70FA305F4FE930750
:101E400084FE1146BE850325C4FDEF10304F03A765
:101E500001848967938707F4B357F70286073E89A1
:101E600081494A85CE85EF10D01F8357E4FE850750
:101E70002317F4FE0357E4FEA147E3F9E7F6010058
:101E800083C7C18393F7F70FE5DF238E018201003B
:101E90009387818303C717009307F00FE31AF7FEB8
:101EA0009387818303C727009307F00FE312F7FEA0
:101EB0000100B250225412598259456182807971D1
:101EC00006D622D40018232EA4FC232CB4FC2317FE
:101ED00004FE45A0930750FA2304F4FEC557A3045B
:101EE000F4FE8357E4FE8A07032784FDBA9783979D
:101EF00007002316F4FE8357C4FEA183C207C183E3
:101F000093F7F70F2305F4FE8357C4FE93F7F70FFB
:101F1000A305F4FE930784FE1146BE850325C4FD88
:101F2000EF10D041010083C7C18393F7F70FE5DFBE
:101F3000238E01829387818383C71700A20793961C
:101F40000701C1869387818383C727001397070101
:101F500041878357E4FE8A07032684FDB297558F95
:101F6000420741872391E7008357E4FE8507231743
:101F7000F4FE0357E4FE9D47E3FEE7F40100B25090
:101F8000225445618280411106C622C4000813060E
:101F90008004B1450545EF10C06A85460146854578
:101FA0005D45EF1000720100B24022444101828081
:101FB000411106C622C40008B1450145EF10203486
:101FC0000100B240224441018280011106CE22CCA0
:101FD0000010930700022307F4FE9D47A307F4FEB9
:101FE0000DA00347F4FE8347E4FEBA9791460146ED
:101FF00081453E85EF1040458347F4FEFD17A3075A
:10200000F4FE8347F4FEF1FF83A741843E8789678E
:10201000938607C23A86B7170140938587C0B707F2
:10202000024013854704EF10E017854601468145BD
:102030007945EF1000690100F24062440561828039
:10204000411106C622C40008B7070020054723A295
:10205000E718370700201307C72423A2E184C546E9
:1020600041468967938507580545EF1090178545C8
:102070000545EF1010310145EF100079238E0182E4
:10208000B7070020938547030545153D238E018240
:10209000B7070020938507010545153B238E018274
:1020A000B7070020938547030545113DEF104071A8
:1020B000293FFD3DC93D0100B240224441018280DB
:1020C000411122C60008B7070240938747040967F9
:1020D000130707C2D8C3B707024093874704984342
:1020E000B7070240938747041367170098C301009E
:1020F000324441018280411122C600080547A38E67
:10210000E182B7070240938747049443B707024030
:102110009387470441677917758F98C3010032444C
:1021200041018280797122D60018AA87A30FF4FC9E
:10213000A147A307F4FEBD679387076C9C473E87C2
:10214000A1675CCBBD679387076C9C473E8791670F
:102150001CCBBD6783A7076C3E87930700025CCB4F
:10216000B9A08307F4FD63DA0700BD6783A7076C96
:102170003E87930700081CCB01A8BD6783A7076CA7
:102180003E87930700085CCBBD6783A7076C3E873B
:10219000930700021CCBBD6783A7076C3E8793079C
:1021A00000025CCB8347F4FD8607A30FF4FC834752
:1021B000F4FE1387F7FFA307E4FEC5F7BD67938717
:1021C000076C9C473E87A1671CCB010032544561D8
:1021D0008280797122D60018AA87A30FF4FCA14748
:1021E000A307F4FEBD679387076C9C473E87A167F2
:1021F0005CCBBD679387076C9C473E8791675CCB40
:10220000BD6783A7076C3E87930700025CCBB9A02C
:102210008307F4FD63DA0700BD6783A7076C3E8779
:10222000930700081CCB01A8BD6783A7076C3E87F6
:10223000930700085CCBBD6783A7076C3E879307B5
:1022400000021CCBBD6783A7076C3E879307000283
:102250005CCB8347F4FD8607A30FF4FC8347F4FEB1
:102260001387F7FFA307E4FEC5F7BD679387076CE5
:102270009C473E87A1671CCB010032544561828098
:10228000411106C622C44AC24EC00008930600315E
:10229000054685451545EF10201B93060031014684
:1022A00085451D45EF10401A9306003105468545CA
:1022B0001305D004EF1040199306003105468545FB
:1022C0001305E004EF1040189306003105468545DC
:1022D0001305F004EF104017BD6783A7076C3E8716
:1022E000930700021CCBBD679387076C9C473E8712
:1022F00089675CCB03A701848967938707F4335709
:10230000F70293072003B307F7023E8981494A8504
:10231000CE85EF100055BD679387076C9C473E87BD
:1023200089671CCB1305E00A6D3501455D354145D4
:102330004D3513050004713D13051008593D130573
:10234000F007413D1305100A69351305800C51351E
:102350001305600ABD3D1305800AA53D1305F00372
:102360008D3D1305300DB5350145A5351305500DCF
:102370008D3513050008B13D1305900D993D1305EA
:10238000100F813D1305A00DA93549459935130559
:10239000B00D8135130500042D3D13050002153DD8
:1023A0000945053D1305D0082D3551451D3513054B
:1023B000400A05351305600A293D1305F00A113D51
:1023C000014545288145014501280100B2402244CC
:1023D0001249824941018280011106CE22CC0010AF
:1023E000AA872E87A307F4FEBA872307F4FE830784
:1023F000F4FE63DF0700BD6793860714BD6713868D
:1024000007569305900DBD671385C714EFB0D01D17
:102410000347E4FE9D4763FFE700BD679386071807
:10242000BD67138607569305A00DBD671385C714B6
:10243000EFB0901B8347E4FE938707FB93F7F70FFA
:102440003E85413B8347F4FE918393F7F70F93E773
:10245000070193F7F70F3E85AD3B8347F4FEBD8B35
:1024600093F7F70F3E85B5330100F24062440561F2
:102470008280797106D622D40018AA87A30FF4FCB3
:10248000A30704FE91A08347F4FE938707FB93F70D
:10249000F70F3E853D3B05452D3B41451D3B230741
:1024A00004FE11A88347F4FD3E85AD398347E4FE61
:1024B00085072307F4FE8307E4FEE3D507FE834781
:1024C000F4FE8507A307F4FE0347F4FE9D47E3FCF3
:1024D000E7FA0100B250225445618280797106D634
:1024E00022D40018AA872E87232CC4FCA30FF4FC47
:1024F000BA87230FF4FCA30604FEA30704FE2307F8
:1025000004FE49A88347E4FE032784FDBA97838726
:10251000070093F7F70F8117A306F4FE0347F4FDB6
:102520009307E00763F9E700A30F04FC8347E4FD8A
:102530008507230FF4FC0347E4FD8347F4FDBA85C8
:102540003E85593DA30704FE3DA00347D4FE8346C4
:10255000F4FE3D66BA878607BA9786071307863367
:10256000BA97B69783C707003E856D3E8347F4FE52
:102570008507A307F4FE0347F4FE9547E3F7E7FC5E
:102580008347F4FD9907A30FF4FC8347E4FE850716
:102590002307F4FE8347E4FE032784FDBA9783876D
:1025A0000700ADF30100B2502254456182805D7195
:1025B00086C6A2C48008AA87232CC4FA3687231FA4
:1025C000F4FAAE87231EF4FABA87A30BF4FA034792
:1025D00074FBA94763F5E700A947A30BF4FA834707
:1025E00074FB8507A30BF4FA832784FB63DF0700E2
:1025F0001307C4FC032684FBBD67938587193A85BE
:102600001D25AA87A307F4FEB9A09307000223069D
:10261000F4FC9307C4FC13871700032684FBBD67F3
:10262000938587193A850125AA87A307F4FE834776
:10263000F4FE8507A307F4FE39A88347F4FE1307C9
:1026400004FFBA9713070002238EE7FC8347F4FECA
:102650008507A307F4FE0347F4FE834774FBE36E8C
:10266000F7FC834774FB130704FFBA97238E07FC1C
:102670008357E4FB93F7F70F0357C4FB1377F70F68
:102680009306C4FC3686BA853E85893D0100B64076
:10269000264461618280797106D622D40018AA8707
:1026A000232CC4FC3687231FF4FCAE87231EF4FCC6
:1026B000BA87A30BF4FC8317E4FD9D8B2313F4FE70
:1026C000831764FE89EB8357E4FD8D83C207C183C2
:1026D0002315F4FE19A88357E4FD8D83C207C18337
:1026E0008507C207C1832315F4FE231704FEB5AE88
:1026F0008357E4FE93F7F70FBE850145F1392316A2
:1027000004FEA9A6A30404FE0317E4FE8317A4FE97
:10271000FD176349F700831764FE89C7831764FEBA
:102720006352F0040317E4FE8357C4FDB307F702B6
:102730008E073E878317C4FEBA97032784FDBA9796
:1027400083C70700034774FDB337F70093F7F70F0C
:10275000139787016187830794FED98FE207E1878A
:10276000A304F4FE0317E4FE8317A4FEFD17634AD7
:10277000F700831764FE91C7031764FE854763D390
:10278000E7040317E4FE8357C4FDB307F7028E077F
:102790003E878357C4FD3E978317C4FEBA9703272D
:1027A00084FDBA9783C70700034774FD6374F7007D
:1027B000894711A08147030794FED98FE207E1877B
:1027C000A304F4FE0317E4FE8317A4FEFD17634A77
:1027D000F700831764FE91C7031764FE894763D42B
:1027E000E7040317E4FE8357C4FDB307F7028E071F
:1027F0003E878357C4FD86073E978317C4FEBA976A
:10280000032784FDBA9783C70700034774FD6374E9
:10281000F700914711A08147030794FED98FE20783
:10282000E187A304F4FE0317E4FE8317A4FEFD175B
:10283000634AF700831764FE91C7031764FE8D4750
:1028400063D7E7040317E4FE8357C4FDB307F70219
:102850008E07BE860357C4FDBA878607BA973387AB
:10286000F6008317C4FEBA97032784FDBA9783C77F
:102870000700034774FD6374F700A14711A0814767
:10288000030794FED98FE207E187A304F4FE031740
:10289000E4FE8317A4FEFD17634AF700831764FE66
:1028A00091C7031764FE914763D4E7040317E4FE5E
:1028B0008357C4FDB307F7028E073E878357C4FDD5
:1028C0008A073E978317C4FEBA97032784FDBA97F9
:1028D00083C70700034774FD6374F700C14711A065
:1028E0008147030794FED98FE207E187A304F4FE32
:1028F0000317E4FE8317A4FEFD17634AF70083174E
:1029000064FE91C7031764FE954763D8E704031775
:10291000E4FE8357C4FDB307F7028E07BE86035754
:10292000C4FDBA878A07BA973387F6008317C4FEB7
:10293000BA97032784FDBA9783C70700034774FD3E
:102940006375F7009307000211A08147030794FE07
:10295000D98FE207E187A304F4FE0317E4FE83178F
:10296000A4FEFD17634AF700831764FE91C703179F
:1029700064FE994763D9E7040317E4FE8357C4FD57
:10298000B307F7028E07BE860357C4FDBA878607D2
:10299000BA9786073387F6008317C4FEBA970327D2
:1029A00084FDBA9783C70700034774FD6375F7007A
:1029B0009307000411A08147030794FED98FE20713
:1029C000E187A304F4FE0317E4FE8317A4FEFD17BA
:1029D000634AF700831764FE91C7031764FE9D479F
:1029E00063D8E7040317E4FE8357C4FDB307F70277
:1029F0008E07BE860357C4FDBA878E07998F33872B
:102A0000F6008317C4FEBA97032784FDBA9783C7DD
:102A10000700034774FD6375F700930700F811A0E2
:102A20008147030794FED98FE207E187A304F4FEF0
:102A3000834794FE3E85EFF0EFEE8317C4FEC20796
:102A4000C1838507C207C1832316F4FE0317C4FEA2
:102A50008357C4FDE348F7CA8317E4FEC207C18366
:102A60008507C207C1832317F4FE0317E4FE83170B
:102A7000A4FEE34FF7C60100B250225445618280A4
:102A8000797122D60018232EA4FC232CB4FCB28723
:102A90003687A30BF4FCBA87230BF4FCA30304FED4
:102AA000230304FE834774FDA5CB8327C4FD23269F
:102AB000F4FE8327C4FE63D807008327C4FEB30750
:102AC000F0402326F4FE834764FD0327C4FEB3676A
:102AD000F70293F7F70F9387070393F7F70F13970F
:102AE00087016187832784FD2380E700834764FD96
:102AF0000327C4FEB347F7022326F4FE834764FE90
:102B000085072303F4FE8327C4FEC9C3832784FDFE
:102B10008507232CF4FC45BF8327C4FD2324F4FE42
:102B2000834764FD032784FEB377F702A303F4FE13
:102B3000034774FEA54763F9E700834774FE938754
:102B40007703A303F4FE39A0834774FE938707033A
:102B5000A303F4FE030774FE832784FD2380E700AC
:102B6000834764FD032784FEB357F7022324F4FE52
:102B7000834764FE85072303F4FE832784FE89CB05
:102B8000832784FD8507232CF4FC59BF010011A085
:102B90000100834764FE3E8532544561828079712D
:102BA00022D60018232EA4FC232CB4FC232604FEDA
:102BB00085A0032784FD8327C4FEB307F740FD17D4
:102BC0000327C4FDBA9783C70700A305F4FE0327B4
:102BD000C4FD8327C4FE3E97832684FD8327C4FE5D
:102BE000B387F640FD178326C4FDB6970307070099
:102BF0002380E7000327C4FD8327C4FEBA97034759
:102C0000B4FE2380E7008327C4FE85072326F4FE55
:102C1000832784FD85830327C4FEE36CF7F8010056
:102C2000325445618280357186DEA2DC00012326A4
:102C3000A4F82324B4F810C454C418C85CC8232CC6
:102C40000401232E1401232604FE93070402A11776
:102C5000232AF4FAFDA9832784F883C70700A30178
:102C6000F4FE030734FE93075002631BF74A8327E1
:102C700084F885072324F4F8832784F883870700E2
:102C80009387B7FD13073005636FF74A1397270043
:102C9000BD6793870757BA979C438287832744FB76
:102CA00013874700232AE4FA9C432301F4FE832779
:102CB000C4F8034724FE2380E7008327C4F8850770
:102CC0002326F4F88327C4FE85072326F4FEADA946
:102CD000832744FB13874700232AE4FA9C43232ECF
:102CE000F4FC8327C4FD130704F9A9460546BA85F9
:102CF0003E857933AA87A305F4FE8327C4FD63D0FC
:102D000007028347B4FE130704FFBA971307D002E4
:102D10002380E7FA8347B4FE8507A305F4FE034743
:102D2000B4FE930704F9BA853E85953D0347B4FE8A
:102D3000930704F93A86BE850325C4F8EFB0C010A6
:102D40008347B4FE0327C4F8BA972326F4F88347D1
:102D5000B4FE0327C4FEBA972326F4FEF5A6832704
:102D600044FB9D07E19B13878700232AE4FA03A80D
:102D700047009C432328F4FC232A04FD032504FD7B
:102D8000832544FDEF90104BAA873E87930704F9F3
:102D9000A9460546BE853A85E531AA872305F4FE96
:102DA00001468146032504FD832544FDEF80D07D47
:102DB000AA8763D007028347A4FE130704FFBA97CC
:102DC0001307D0022380E7FA8347A4FE8507230573
:102DD000F4FE0347A4FE930704F9BA853E85C13388
:102DE0000347A4FE930704F93A86BE850325C4F879
:102DF000EFB080058347A4FE0327C4F8BA972326C3
:102E0000F4F88347A4FE0327C4FEBA972326F4FEF2
:102E1000032504FD832544FDEF90D041AA873E851C
:102E2000EF90904DAA872E883E86C286032504FD2A
:102E3000832544FDEF90204CAA872E883E85C285CD
:102E4000BD6703A6071A83A6471AEF80507FAA879B
:102E50002E882328F4FC232A04FD014681460325FD
:102E600004FD832544FDEF80906BAA8785C7032569
:102E700004FD832544FDEF90F03BAA873E8793072E
:102E800004F9A9460546BE853A85DD3EAA87230595
:102E9000F4FE99A893070003A30AF4F8830754F9F2
:102EA000230AF4F8830744F9A309F4F8830734F9F3
:102EB0002309F4F8830724F9A308F4F8830714F925
:102EC0002308F4F899472305F4FE39A88347A4FEA4
:102ED000130704FFBA97130700032380E7FA834719
:102EE000A4FE85072305F4FE0347A4FE9547E3FFF0
:102EF000E7FC8347A4FE130704FFBA971307E00219
:102F00002380E7FA8347A4FE85072305F4FE0347E1
:102F1000A4FE930704F9BA853E8551310347A4FE08
:102F2000930704F93A86BE850325C4F8EFA0D07153
:102F30008347A4FE0327C4FEBA972326F4FE0100AC
:102F400021A4832744FB13874700232AE4FA9C43E8
:102F50002326F4FC930704F9A9460146BE85032500
:102F6000C4FC393EAA87A305F4FC0347B4FC9307CD
:102F700004F9BA853E8525310347B4FC930704F96B
:102F80003A86BE850325C4F8EFA0106C8347B4FCD5
:102F90000327C4F8BA972326F4F88347B4FC032721
:102FA000C4FEBA972326F4FE45A2832744FB138769
:102FB0004700232AE4FA9C432322F4FC930704F9F4
:102FC000A1460146BE85032544FCEFF07FABAA87EE
:102FD000A301F4FC034734FC930704F9BA853E854A
:102FE0007D3E034734FC930704F93A86BE850325EA
:102FF000C4F8EFA07065834734FC0327C4F8BA9780
:103000002326F4F8834734FC0327C4FEBA9723260B
:10301000F4FE1DAA832744FB13874700232AE4FA02
:103020009C43232EF4FA930704F9C1460146BE855A
:103030000325C4FBEFF0DFA4AA87A30DF4FA03472E
:10304000B4FB930704F9BA853E85913E0347B4FB70
:10305000930704F93A86BE850325C4F8EFA0D05E35
:103060008347B4FB0327C4F8BA972326F4F88347B1
:10307000B4FB0327C4FEBA972326F4FEF1A08327EE
:1030800044FB13874700232AE4FA9C432322F4FEDF
:1030900005A8832744FE038707008327C4F82380FD
:1030A000E7008327C4F885072326F4F88327C4FEA6
:1030B00085072326F4FE832744FE85072322F4FE9A
:1030C000832744FE83870700E9F7BDA8930704F927
:1030D000A1453E85EFF0BFAC930704F92146BE85BC
:1030E0000325C4F8EFA050568327C4F8A107232670
:1030F000F4F88327C4FEA1072326F4FEB1A083279A
:10310000C4F8130750022380E7008327C4F885071B
:103110002326F4F88327C4FE85072326F4FE2DA07A
:10312000832784F8038707008327C4F82380E700F8
:103130008327C4F885072326F4F88327C4FE850770
:103140002326F4FE11A00100832784F88507232499
:10315000F4F8832784F883870700E39E07AE83276C
:10316000C4FE3E85F65066540D618280411106C64C
:1031700022C4000893060031014681451305C004AE
:10318000E12485460146F167938507200145EF005C
:10319000500585450145EF00D01E0100B240224494
:1031A000410182805D7186C6A2C48008232EA4FAE4
:1031B000232CB4FA232AC4FA2328D4FA0327C4FB05
:1031C000B7070240A1076301F7060327C4FBB7074F
:1031D0000240F107630AF7040327C4FBB707024064
:1031E000938707036302F7040327C4FBB707024072
:1031F00093874704630AF7020327C4FBB70702401B
:10320000938787056302F7020327C4FBB7070240D1
:103210009387C706630AF7000327C4FBB70702407A
:10322000938707086317F70085450545EFE02F8E64
:10323000A9A80327C4FBB70702409387874063020E
:10324000F7040327C4FBB70702409387C741630A0B
:10325000F7020327C4FBB7070240938707436302C3
:10326000F7020327C4FBB707024093874744630A6A
:10327000F7000327C4FBB70702409387874563160F
:10328000F70085450945EFE08F880325C4FBEFD0A3
:10329000AFB1832784FB2322F4FC832744FB232440
:1032A000F4FC232604FC832704FB2328F4FC232AB4
:1032B00004FC93070008232CF4FC232E04FC232099
:1032C00004FE232204FE8D672324F4FE232604FE3D
:1032D000930744FCBE850325C4FBEFD0CFCD054644
:1032E00089450325C4FBEFD08FDB85450325C4FB4F
:1032F000EFD0EFD60100B64026446161828079713B
:1033000006D622D40018232EA4FC232CB4FC854519
:103310000545EFE02F848327C4FD81EB8545856754
:1033200013850780EFE00F8335A80327C4FD854789
:103330006317F70085450545EFE02F8625A0032795
:10334000C4FD89476317F70085450945EFE0EF8421
:1033500011A80327C4FD8D476316F7008545114565
:10336000EFE0AF83914601468145032584FDE928BE
:10337000FD572314F4FE231204FE231504FE231329
:1033800004FE230604FEBD670327C4FD0A079387D6
:10339000076DBA979C433E87930744FEBE853A85E6
:1033A000EFE00F84BD670327C4FD0A079387076D0D
:1033B000BA979C438146216681453E85EFE06F9E2A
:1033C000BD670327C4FD0A079387076DBA979C431F
:1033D000930500073E85EFE02FADBD670327C4FDD1
:1033E0000A079387076DBA979C4391453E85EFE0A6
:1033F0008FB0BD670327C4FD0A079387076DBA978F
:103400009C43930500083E85EFE04FB4BD6703275A
:10341000C4FD0A079387076DBA979C4385453E858F
:10342000EFE0AF8BBD670327C4FD0A079387076DE5
:10343000BA979C43054691653E85EFE08F8F01006A
:10344000B250225445618280797106D622D4001888
:10345000232EA4FC232CB4FCB2872328D4FCA30B7A
:10346000F4FC8327C4FD958393F7F70F9D8BA30787
:10347000F4FE8327C4FD93F7F70FFD8B2307F4FEBB
:103480000327C4FD93070008630DF7148327C4FDC9
:10349000958391E785451145EFD0DFEB61A8832740
:1034A000C4FD13D7570085476317F70085452145AD
:1034B000EFD05FEA41A08327C4FD13D757008947A7
:1034C0006317F70085454145EFD0DFE8A5A08327C6
:1034D000C4FD13D757008D476318F70085451305C2
:1034E0000002EFD03FE7B9A08327C4FD13D75700F0
:1034F00091476318F700854513050004EFD09FE559
:1035000015A88327C4FD13D7570095476318F70004
:10351000854513050008EFD0FFE329A88327C4FDE4
:1035200013D7570099476317F70085451305001017
:10353000EFD05FE28347E4FE0547B317F700C20709
:10354000C1832310F4FE032784FD85476317F70228
:10355000832704FDC207C183A183C207C18389E712
:103560008D472322F4FE11A8832704FDC207C183DF
:10357000A183C207C1832322F4FE832704FDC2076F
:10358000C18393F7F70F2324F4FE0347F4FEBD67CE
:103590000A079387076CBA979C433E87930704FEFC
:1035A000BE853A85EFD0EFDB032784FD8547631B9B
:1035B000F7020347F4FEBD670A079387076CBA97C3
:1035C0009C43BE868347E4FE0547B317F700C20756
:1035D000C183034774FD3A86BE853685EFD00FFB65
:1035E00011A00100B250225445618280797122D627
:1035F0000018232EA4FC8327C4FD958393F7F70FAF
:103600009D8BA307F4FE8327C4FD93F7F70FFD8B73
:103610002307F4FE0347F4FEBD670A079387076C90
:10362000BA979C439C470347E4FE85463397E600E0
:10363000F98F99C3854711A081473E853254456172
:103640008280797106D622D40018232EA4FC232C64
:10365000B4FC232AC4FC85450545EFD0BFCF8326A3
:1036600044FD014681450325C4FDF93B8327C4FD84
:10367000958313F7F70F8327C4FD93F7F70FFD8B9F
:1036800093F7F70FBE853A85EFD09F878327C4FD58
:10369000FD8B0547B317F7002320F4FE232204FE19
:1036A000832784FD2324F4FE85472326F4FE930715
:1036B00004FE3E85EFD08FAC0100B250225445612C
:1036C0008280797106D622D40018232EA4FCAE87FE
:1036D0003687A30DF4FCB287230DF4FCBA87A30C44
:1036E000F4FC8327C4FD93F7F70F2304F4FE83470C
:1036F000B4FDA304F4FE8347A4FD2305F4FE834731
:1037000094FD2326F4FE930784FE3E85EFD05F925E
:10371000B7E700E09843FD777D8FB727002083A7A8
:10372000C7E65D8FB727002023A6E7E6B7E700E0EE
:10373000D843B7070010FD177D8FB7270020938768
:10374000C7E6DC435D8FB72700209387C7E6D8C361
:10375000B72700209387C7E603C787008547631311
:10376000F70031200100B25022544561828041119E
:1037700022C60008B7E700E07D5723A0E718B7E7A7
:1037800000E07D5723A2E718010032444101828006
:10379000411122C60008B7E700E0372700200327C1
:1037A000C7E623A0E710B7E700E03727002013079C
:1037B000C7E6584323A2E71001003244410182804A
:1037C000011106CE22CC0010B72700209387C7E650
:1037D00005472384E700B727002083A7C7E691EBBE
:1037E000B72700209387C7E6DC4381E7A30704FEE1
:1037F00021A08547A307F4FE9D3F8347F4FE3E8545
:10380000F240624405618280011106CE22CC001094
:10381000AA87A307F4FE8347F4FE81EBB7270020B5
:103820009387C7E623840700A5370100F24062446E
:1038300005618280011106CE22CC00102326A4FE51
:10384000BD670327C4FE0A079387076DBA979C4399
:1038500081453E85EFD07FC80100F240624405619A
:103860008280011122CE00102324A4FE2326B4FE60
:1038700037F700E02320070037F700E023020700B6
:1038800037F700E0A302070037F700E02303070043
:1038900037F700E0A303070037F700E02304070031
:1038A00037F700E0A304070037F700E0230507001F
:1038B00037F700E0A305070037F700E0854614C39B
:1038C000010037F700E011071843BA8701480327C2
:1038D000C4FEC286636DD7000327C4FEC286E3120E
:1038E000D7FE032784FEBE866363D700D9BF0100DD
:1038F000724405618280011106CE22CC001023267D
:10390000A4FE2324B4FE8327C4FE85E7032784FE98
:1039100085476310F70293068031014685452545AA
:10392000EFF09FB29146014681452945EFF0DFB1A6
:1039300065A00327C4FE89476312F702930680310E
:103940000146854513056002EFF01FB09146014620
:10395000814513057002EFF03FAFBDA80327C4FEF9
:10396000C1476310F702930680310146854509453A
:10397000EFF09FAD9146014681450D45EFF0DFAC7C
:10398000A1A80327C4FE930700026312F70293065F
:103990008031014685451305A002EFF0FFAA91464C
:1039A000014681451305B002EFF01FAA35A0032799
:1039B000C4FE930720026311F7029306803101468B
:1039C00085451305A004EFF03FA8914601468145C7
:1039D0001305B004EFF05FA70100F24062440561F7
:1039E0008280797106D622D40018232EA4FC232CC1
:1039F000B4FC232AC4FC2328D4FC85450545EFD01C
:103A00007F95832504FD032544FDF535032744FDFB
:103A10008947631BF700032704FD8D476316F700F2
:103A200085451145EFD00FBA032744FD93072002C7
:103A3000631FF700032704FD930730026319F700A3
:103A40008545B707140013850701EFD0AFB783276B
:103A5000C4FD91E785451165EFD0DF8F35A00327C1
:103A6000C4FD85476318F700854537050200EFD090
:103A7000DF9219A80327C4FD89476317F70085451E
:103A800037050400EFD07F91832784FD2320F4FEC7
:103A9000231204FE231304FE231404FE231604FE43
:103AA000B1472315F4FEBD670327C4FD0A079387BA
:103AB000076EBA979C433E87930704FEBE853A85FE
:103AC000EFD03FD8BD670327C4FD0A079387076E71
:103AD000BA979C4385453E85EFD0FFF90100B2506F
:103AE000225445618280011122CE00102326A4FEBB
:103AF000AE87A305F4FE0100BD670327C4FE0A07D5
:103B00009387076EBA979C4383D70700C207C18388
:103B100093F70708F5D3BD670327C4FE0A07938709
:103B2000076EBA979C433E878347B4FEC207C183A2
:103B30002312F7000100724405618280011106CE54
:103B400022CC00102326A4FE2324B4FE2322C4FE8C
:103B500029A8832784FE138717002324E4FE83C744
:103B60000700BE850325C4FEBD3F832744FE13879F
:103B7000F7FF2322E4FEF1FF0100F24062440561F9
:103B80008280011106CE22CC00102326A4FEAE872F
:103B9000A305F4FEBD670327C4FE0A079387076EDB
:103BA000BA979C430546930550523E85EFD0BFF22D
:103BB0008327C4FE938757030347B4FEBA860146A2
:103BC00081453E85EFF0FFAF0100F24062440561A0
:103BD0008280411106C622C40008B7170240DC43A8
:103BE000C98313F7F700B7177A00938707203307C5
:103BF000F702B727F400938707403E9723A0E1849C
:103C000085460146F167938507200145D93B0100B0
:103C1000B240224441018280797106D622D4001834
:103C2000232EA4FC232CB4FC232AC4FC232604FE4C
:103C300099A00100BD6783A7076E930500043E8528
:103C4000EFD09FF8AA87FDD7BD6783A7076EBE8612
:103C5000832784FD13871700232CE4FC8387070048
:103C6000C207C183BE853685EFD03FF38327C4FEEC
:103C700085072326F4FE0327C4FE832744FDE34A79
:103C8000F7FA832744FD3E85B25022544561828075
:103C9000011122CE0010232604FE232404FEB717B0
:103CA00002409443B71702404167558F98C3B71736
:103CB00002409843B7070200F98F2324F4FE8327BC
:103CC000C4FE85072326F4FE832784FE99E7032795
:103CD000C4FE93070050E31CF7FCB717024098435B
:103CE000B7070200F98F89C785472324F4FE19A07E
:103CF000232404FE032784FE85476317F70CB727A8
:103D000002409843B72702401367070198C3B727BB
:103D100002409843B7270240719B98C3B7270240DF
:103D20009843B72702401367270098C3371702400C
:103D3000B71702405843D8C337170240B71702409D
:103D40005843D8C337170240B71702405843D8C367
:103D5000B7170240D443B71702403707C1FF7D179A
:103D6000758FD8C3B7170240D443B717024037073F
:103D70002500558FD8C3B71702409443B7170240A8
:103D800037070001558F98C30100B71702409843C9
:103D9000B7070002F98FF5DBB7170240D843B71712
:103DA0000240719BD8C3B7170240D843B7170240EF
:103DB00013672700D8C30100B7170240DC4313F78D
:103DC000C700A147E31AF7FE010072440561828033
:103DD000411106C622C40008B71702409843B7171E
:103DE00002401367170098C3B7170240D443B717B0
:103DF00002403707FFF8758FD8C3B71702409443C6
:103E0000B71702403707F7FE7D17758F98C3B717AE
:103E100002409443B71702403707FCFF7D17758FA8
:103E200098C3B7170240D443B7170240370781FF42
:103E30007D17758FD8C3B717024037079F0098C703
:103E4000813D0100B240224441018280597186D6F1
:103E5000A2D4A6D2CAD0801813010181FD7713071E
:103E600004FFBA9723AEA77A2E87B286FD77130692
:103E700004FFB297239DE77AFD77130704FFBA97F3
:103E80003687239CE77AFD77130704FFBA9783D719
:103E9000A77B2319F4FCFD77130704FFBA9783D798
:103EA000877B2318F4FC035724FD835704FDB307D5
:103EB000F70213D7F7410D8BBA9789872326F4FCB5
:103EC000A30304FEFD77130704FFBA9783A7C77BFC
:103ED0002324F4FC232604FE15A88327C4FE8A07A6
:103EE000130704FFBA9723A007BCFD77130704FF4D
:103EF0003E978327C4FE8A07BA971307000023A0C2
:103F0000E77C8327C4FE85072326F4FE0327C4FE2F
:103F10009307F00FE3D3E7FC232004FE232604FEDF
:103F200049A8232404FE9DA8035724FD8327C4FE2B
:103F30003307F702832784FEBA973E87832784FCE2
:103F4000BA9783C707003E8793172700930604FF9D
:103F5000B69783A707BC938617009317270013070C
:103F600004FFBA9723A0D7BC035724FD8327C4FEC0
:103F70003307F702832784FEBA973E87832784FCA2
:103F8000BA9783C707003E87832704FEBA9723208A
:103F9000F4FE832784FE89072324F4FE835724FD3F
:103FA000032784FEE342F7F88327C4FE890723260C
:103FB000F4FE835704FD0327C4FEE344F7F62326EB
:103FC00004FEB9A08327C4FE8A07130704FFBA972B
:103FD00083A707BC3E85EF90301FAA840325C4FC4D
:103FE000EF90901EAA87BE852685EF80B06EAA87C7
:103FF000BE86FD77130704FF3E978327C4FE8A071A
:10400000BA9723A0D77C8327C4FE85072326F4FE16
:104010000327C4FE9307F00FE3D6E7FA93070000E7
:10402000232AF4FC2322F4FC832744FC2320F4FC01
:10403000832704FC232EF4FA8327C4FB232CF4FAF1
:10404000832784FB232AF4FA832744FB232CF4FCE4
:10405000832784FD2328F4FA832704FB232EF4FC12
:10406000232404FE49A2FD77130704FF3E9783270C
:1040700084FE8A07BA9783A7077CBE850325C4FD03
:10408000EF80B02EAA87232EF4FC032584FEEF9048
:10409000B013AA86FD77130704FF3E97832784FE9B
:1040A0008A07BA9783A7077CBE853685EF90802460
:1040B000AA87BE85032584FDEF80302BAA87232C99
:1040C000F4FCBD678325C4FD03A5871AEF90C04BA0
:1040D000AA872328F4FA8327C4FC032704FEB357D6
:1040E000F7023E85EF90B01AAA87832584FD3E85AE
:1040F000EF908049AA87232AF4FA8325C4FD03257B
:1041000084FDEF80305DAA87232CF4FA832504FB1D
:10411000032544FBEF80105CAA87232EF4FA832545
:1041200044FB032584FDEF805024AA872320F4FC60
:10413000832504FC032584FBEF900045AA87832593
:10414000C4FD3E85EF90001BAA87BE84832504FC36
:10415000032584FBEF904043AA87BE852685EF9018
:104160006019AA87BE84832504FC0325C4FBEF9055
:10417000A041AA87832504FB3E85EF90A017AA875C
:104180003E89832504FC0325C4FBEF90E03FAA870A
:10419000BE854A85EF900016AA87BE852685EF80EA
:1041A000D01CAA872322F4FC832544FD032544FC6C
:1041B000EF902003AA87635AF000832744FC232A48
:1041C000F4FC832784FEA303F4FE832544FD03252A
:1041D00044FCEF906009AA8763CE0700832784FE22
:1041E00085072324F4FE032784FE9307F00FE3DC06
:1041F000E7E611A00100834774FE3E851301017FAD
:10420000B65026549654065965618280011106CE37
:1042100022CC0010A30704FE230704FE1306C003EC
:1042200093058007B70700201385C724EFF01FC24E
:10423000AA87950713F7F70F2384E184A30704FEE9
:1042400051A8230704FEA5A80347F4FE8346E4FE15
:1042500037060020BA879207998F8E071307C62466
:10426000BA97B69703C7070083C781846364F702D0
:104270000347F4FE8346E4FE37260020BA87920700
:10428000998F8E07130786E7BA97B697054723805D
:10429000E7000DA00347F4FE8346E4FE3726002026
:1042A000BA879207998F8E07130786E7BA97B69752
:1042B000238007008347E4FE85072307F4FE0347B6
:1042C000E4FE93077007E3F1E7F88347F4FE850700
:1042D000A307F4FE0347F4FE9307B003E3F3E7F606
:1042E0000100F240624405618280397122DE800063
:1042F000AA872E87A307F4FCBA872307F4FCA30739
:1043000004FEBDA00347F4FEB7470020938787A9AA
:10431000BA97238007000347F4FEB747002093872E
:1043200007B1BA97130770072380E7000347F4FE2D
:10433000B74700209387C7B4BA9723800700034785
:10434000F4FEB7470020938787B8BA972380070009
:104350000347F4FEB7470020938747ADBA9713078A
:10436000C0032380E7008347F4FE8507A307F4FE1C
:104370000347F4FE9307B003E3F6E7F8238E0184C6
:10438000232404FEA30304FE8DA00347F4FC83460C
:1043900074FE37260020BA879207998F8E0713077D
:1043A00086E7BA97B69703C707008547631AF702EF
:1043B0000347F4FC834774FE9386170037260020DA
:1043C000BA879207998F8E07130786E7BA97B69731
:1043D00083C7070091E7832784FE85072324F4FE23
:1043E000834774FE8507A303F4FE034774FE930717
:1043F0006007E3FCE7F8032784FE8D4763DBE730C3
:104400000347F4FCB7260020BA879207998F8E07DE
:10441000138786E7BA9703C757008547631BF708DA
:1044200095472303F4FE51A00347F4FC834664FE42
:1044300037260020BA879207998F8E07130786E7E1
:10444000BA97B69703C707008547631BF70403476E
:10445000F4FC834764FE9386F7FF37260020BA8773
:104460009207998F8E07130786E7BA97B69783C787
:1044700007009DE70347F4FCB7470020938787A90F
:10448000BA97034764FE2380E7000347F4FCB7476D
:1044900000209387C7B4BA9705472380E7006DA033
:1044A000834764FEFD172303F4FE834764FEADFFDC
:1044B00061A89547A302F4FE51A00347F4FC83468C
:1044C00054FE37260020BA879207998F8E0713076C
:1044D00086E7BA97B69783C70700A1EF0347F4FCB6
:1044E000834754FE9386170037260020BA87920729
:1044F000998F8E07130786E7BA97B69703C7070009
:1045000085476318F7020347F4FCB74700209387F9
:1045100087A9BA97034754FE2380E7000347F4FCBA
:10452000B74700209387C7B4BA9705472380E700B1
:1045300021A8834754FE8507A302F4FE034754FED7
:1045400093076007E3FBE7F60347F4FCB747002057
:104550009387C7B4BA9783C707008DE70347F4FC76
:10456000B7470020938787A9BA9705472380E700BC
:104570000347F4FCB74700209387C7B4BA970547B1
:104580002380E7000347F4FCB7260020BA87920790
:10459000998F8E07138786E7BA9703C73707854732
:1045A000631FF708930730072302F4FE51A0034767
:1045B000F4FC834644FE37260020BA879207998F81
:1045C0008E07130786E7BA97B69703C70700854794
:1045D000631BF7040347F4FC834744FE93861700EC
:1045E00037260020BA879207998F8E07130786E730
:1045F000BA97B69783C707009DE70347F4FCB74710
:104600000020938707B1BA97034744FE2380E70051
:104610000347F4FCB7470020938787B8BA97094748
:104620002380E70075A0834744FE85072302F4FE3C
:10463000034744FE93076007E3FBE7F651A893079F
:104640003007A301F4FE51A00347F4FC834634FE77
:1046500037260020BA879207998F8E07130786E7BF
:10466000BA97B69783C70700A1EF0347F4FC8347C7
:1046700034FE9386F7FF37260020BA879207998F7A
:104680008E07130786E7BA97B69703C707008547D3
:104690006318F7020347F4FCB7470020938707B17C
:1046A000BA97034734FE2380E7000347F4FCB7477B
:1046B0000020938787B8BA9705472380E70009A8A9
:1046C000834734FEFD17A301F4FE834734FEADFF9C
:1046D0000347F4FCB7470020938787B8BA9783C78E
:1046E00007006398073C0347F4FCB7470020938713
:1046F00007B1BA97130760072380E7000347F4FC6C
:10470000B7470020938787B8BA9709472380E70007
:104710004DA60347F4FC8346E4FC37260020BA8705
:104720009207998F8E07130786E7BA97B69703C744
:1047300007008547631CF7088347E4FC2301F4FE68
:1047400051A00347F4FC834624FE37260020BA8795
:104750009207998F8E07130786E7BA97B69703C714
:1047600007008547631BF7040347F4FC834724FED7
:104770009386F7FF37260020BA879207998F8E0716
:10478000130786E7BA97B69783C707009DE70347E5
:10479000F4FCB7470020938787A9BA97034724FE04
:1047A0002380E7000347F4FCB74700209387C7B492
:1047B000BA9709472380E70075A0834724FEFD17B9
:1047C0002301F4FE834724FEADFF69A88347E4FC80
:1047D000A300F4FE51A00347F4FC834614FE3726E1
:1047E0000020BA879207998F8E07130786E7BA973A
:1047F000B69783C70700A1EF0347F4FC834714FE75
:104800009386170037260020BA879207998F8E0764
:10481000130786E7BA97B69703C70700854763185B
:10482000F7020347F4FCB7470020938787A9BA979C
:10483000034714FE2380E7000347F4FCB74700203A
:104840009387C7B4BA9705472380E70021A8834719
:1048500014FE8507A300F4FE034714FE93076007C8
:10486000E3FBE7F60347F4FCB74700209387C7B4A0
:10487000BA9783C707008DE70347F4FCB7470020CA
:10488000938787A9BA9705472380E7000347F4FC7D
:10489000B74700209387C7B4BA9709472380E7003A
:1048A0000347F4FC8346E4FC37260020BA879207CE
:1048B000998F8E07130786E7BA97B69703C7070045
:1048C0008547631FF7088347E4FC2300F4FE51A0EB
:1048D0000347F4FC834604FE37260020BA8792077C
:1048E000998F8E07130786E7BA97B69703C7070015
:1048F0008547631BF7040347F4FC834704FE938654
:10490000170037260020BA879207998F8E07130762
:1049100086E7BA97B69783C707009DE70347F4FC7D
:10492000B7470020938707B1BA97034704FE238057
:10493000E7000347F4FCB7470020938787B8BA978E
:1049400009472380E70075A0834704FE85072300FD
:10495000F4FE034704FE93076007E3FBE7F651A864
:104960008347E4FCA30FF4FC51A00347F4FC834607
:10497000F4FD37260020BA879207998F8E07130718
:1049800086E7BA97B69783C70700A1EF0347F4FC01
:104990008347F4FD9386F7FF37260020BA879207F6
:1049A000998F8E07130786E7BA97B69703C7070054
:1049B00085476318F7020347F4FCB7470020938745
:1049C00007B1BA970347F4FD2380E7000347F4FCDF
:1049D000B7470020938787B8BA9705472380E70039
:1049E00009A88347F4FDFD17A30FF4FC8347F4FDEA
:1049F000ADFF0347F4FCB7470020938787B8BA9709
:104A000083C7070095E70347F4FCB7470020938767
:104A100007B1BA97130760072380E7000347F4FC48
:104A2000B7470020938787B8BA9709472380E700E4
:104A30000347F4FCB7470020938787B8BA9703C7AA
:104A4000070085476313F7040347F4FCB7470020CA
:104A50009387C7B4BA9703C7070085476317F70260
:104A60000347F4FCB7470020938787A9BA97054707
:104A70002380E7000347F4FCB7470020938707B182
:104A8000BA97130760072380E7000347F4FCB74792
:104A900000209387C7B4BA9705472380E7000347F0
:104AA000F4FCB7470020938787B8BA97054723805F
:104AB000E7000100725421618280397122DE80009A
:104AC000232604FE232404FE232204FE232004FEC6
:104AD000232E04FC232C04FCA9472326F4FC930773
:104AE000A003A30BF4FC01A3834774FD13871700F5
:104AF000B74700209387C7B4BA9783C7070081EFF1
:104B0000930770072324F4FE232204FE9307200357
:104B10002326F4FE49A0834774FD13871700B74787
:104B20000020938787A9BA9783C707003E8783270A
:104B3000C4FCBA972324F4FE834774FD138717003F
:104B4000B7470020938787A9BA9783C707003E8796
:104B50008327C4FCB307F7402322F4FE834774FD88
:104B600013871700B7470020938787A9BA9783C791
:104B700007002326F4FE032784FE9307700763D6FD
:104B8000E700930770072324F4FE832744FE63D4D1
:104B90000700232204FE034774FDB7260020BA87CE
:104BA0009207998F8E07138786E73E978327C4FE67
:104BB000BA9783C70700E9EF8327C4FE230BF4FCF1
:104BC00051A0034774FD834664FD37260020BA8751
:104BD0009207998F8E07130786E7BA97B69783C710
:104BE0000700A1EF034774FD834764FD9386170018
:104BF00037260020BA879207998F8E07130786E71A
:104C0000BA97B69703C7070085476318F7020347AB
:104C100074FDB7470020938787A9BA97034764FDBF
:104C20002380E700034774FDB74700209387C7B48C
:104C3000BA9705472380E70021A8834764FD8507CD
:104C4000230BF4FC834764FD032784FEE3CBE7F6E4
:104C5000034774FDB74700209387C7B4BA9783C74B
:104C6000070063900710034774FDB7470020938740
:104C700087A9BA97130760072380E700034774FDED
:104C8000B74700209387C7B4BA9723800700D1A8FD
:104C90008327C4FEA30AF4FC51A0034774FD834696
:104CA00054FD37260020BA879207998F8E07130785
:104CB00086E7BA97B69703C707008547631BF704D3
:104CC000034774FD834754FD9386F7FF3726002082
:104CD000BA879207998F8E07130786E7BA97B69718
:104CE00083C707009DE7034774FDB74700209387FC
:104CF00087A9BA97034754FD2380E700034774FD53
:104D0000B74700209387C7B4BA9705472380E700C9
:104D100021A8834754FDFD17A30AF4FC834754FDE3
:104D2000032744FEE34BF7F6034774FDB747002023
:104D30009387C7B4BA9783C7070085E7034774FD15
:104D4000B7470020938787A9BA9705472380E700D4
:104D5000034774FDB74700209387C7B4BA972380F1
:104D60000700834774FD13871700B7470020938718
:104D700087B8BA9783C7070081EF930760042320A1
:104D8000F4FE93077007232EF4FC232C04FC49A0A7
:104D9000834774FD13871700B7470020938707B137
:104DA000BA9783C707002320F4FE834774FD138757
:104DB0001700B7470020938707B1BA9783C707004A
:104DC0003E878327C4FCBA97232EF4FC834774FDE7
:104DD00013871700B7470020938707B1BA9783C797
:104DE00007003E878327C4FCB307F740232CF4FC5D
:104DF0000327C4FD9307700763D6E7009307700786
:104E0000232EF4FC832784FD63D40700232C04FCA9
:104E1000034774FDB7260020BA879207998F8E0743
:104E2000138786E73E97832704FEBA9783C7070058
:104E3000E1EF832704FE230AF4FC51A0034774FD2D
:104E4000834644FD37260020BA879207998F8E0744
:104E5000130786E7BA97B69783C70700A1EF034702
:104E600074FD834744FD9386F7FF37260020BA87F9
:104E70009207998F8E07130786E7BA97B69703C7ED
:104E8000070085476318F702034774FDB747002002
:104E9000938707B1BA97034744FD2380E700034790
:104EA00074FDB7470020938787B8BA9705472380DA
:104EB000E70021A8834744FDFD17230AF4FC83473C
:104EC00044FD032784FDE34BF7F6034774FDB74722
:104ED0000020938787B8BA9783C7070063900710AD
:104EE000034774FDB7470020938707B1BA9705477A
:104EF0002380E700034774FDB7470020938787B8F6
:104F0000BA9723800700D9A8832704FEA309F4FCDD
:104F100051A0034774FD834634FD37260020BA872D
:104F20009207998F8E07130786E7BA97B69703C73C
:104F300007008547631BF704034774FD834734FD6F
:104F40009386170037260020BA879207998F8E071D
:104F5000130786E7BA97B69783C707009DE703470D
:104F600074FDB7470020938707B1BA97034734FD14
:104F70002380E700034774FDB7470020938787B875
:104F8000BA9705472380E70021A8834734FD8507AA
:104F9000A309F4FC834734FD0327C4FDE3CBE7F604
:104FA000034774FDB7470020938787B8BA9783C734
:104FB00007008DE7034774FDB7470020938707B1CB
:104FC000BA97130760072380E700034774FDB747CC
:104FD0000020938787B8BA9723800700834774FD22
:104FE000FD17A30BF4FC834774FDE39F07AEB7479F
:104FF0000020938787A903C71700B7470020238C99
:10500000E7A8B74700209387C7B403C71700B7477F
:1050100000202386E7B4B7470020938707B103C772
:105020001700B74700202388E7B0B74700209387D1
:1050300087B803C71700B74700202384E7B80100EB
:105040007254216182800171232E811E0004930716
:10505000B003A307F4FE81A80347F4FEB74700207E
:10506000938787A9BA9703C707008347F4FE8A0787
:10507000930604FFB69723A4E7F00347F4FEB7476F
:105080000020938707B1BA9703C707008347F4FE50
:105090008A07930604FFB69723ACE7E08347F4FE44
:1050A000FD17A307F4FE8347F4FEDDF79307900393
:1050B0002307F4FE11A2232404FE8347E4FE8507A0
:1050C0008A07130704FFBA9703A787F08347E4FE14
:1050D0008A07930604FFB69783A787F0B307F740C4
:1050E000635AF0048347E4FE85078A07130704FF29
:1050F000BA9783A787F02324F4FE8347E4FE03478F
:10510000E4FE930617008A07130704FFBA9703A764
:1051100087F093972600930604FFB69723A4E7F041
:105120008347E4FE8A07130704FFBA97032784FE28
:1051300023A4E7F08347E4FE8A07130704FFBA9726
:1051400003A787E18347E4FE85078A07930604FFE8
:10515000B69783A787E1B307F740635AF004834704
:10516000E4FE85078A07130704FFBA9783A787E140
:105170002324F4FE8347E4FE0347E4FE930617006E
:105180008A07130704FFBA9703A787E193972600BE
:10519000930604FFB69723ACE7E08347E4FE8A0753
:1051A000130704FFBA97032784FE23ACE7E0834785
:1051B000E4FEFD172307F4FE8347E4FEE39D07EEBC
:1051C00003C7B186238EE18493077003A306F4FE20
:1051D0008DA08347D4FEFD178A07130704FFBA97F3
:1051E00003A787E18347D4FE8A07930604FFB69797
:1051F00083A787F06345F7028347D4FEFD178A072C
:10520000130704FFBA9703A787F08347D4FE8A07E2
:10521000930604FFB69783A787E163D7E7000347A8
:10522000D4FE238EE18421A88347D4FEFD17A30674
:10523000F4FE83C7C1850347D4FEE3ECE7F803C758
:10524000B186A54763ECE70003C771869307200387
:1052500063F6E70003C7B186238EE18401000324CF
:10526000C11F130101208280011106CE22CC26CA63
:10527000001093077003A307F4FE6F00903303C779
:105280007186A54763F1E72E0347F4FEB747002078
:105290009387C7B4BA9783C70700F9EB0347F4FEB7
:1052A000B7470020938787B8BA9783C70700E9C339
:1052B0000347F4FEB7470020938707B1BA9783C727
:1052C00007003E85EF804070AA840347F4FEB707CD
:1052D000002093874705BA9783C707003E85EF8074
:1052E000A06E2A8783A70181BE853A85EF80800062
:1052F000AA87BE852685EF802029AA873E87BD67BD
:1053000083A5C71A3A85EF802028AA878344F4FE34
:105310003E85EF800066AA8713F7F70FB747002096
:10532000938787A9A6972380E7000347F4FEB74732
:105330000020938787A9BA9783C70700BE860347D3
:10534000F4FEB7470020938707B1BA9783C70700D9
:10535000B69713D7F701BA9785878346F4FE13F7FC
:10536000F70FB7470020938747ADB6972380E70034
:105370000347F4FEB74700209387C7B4BA9783C7A3
:105380000700F9CB0347F4FEB7470020938787B89F
:10539000BA9783C70700E9E30347F4FEB747002045
:1053A000938787A9BA9783C707003E85EF80C061BE
:1053B000AA840347F4FEB707002093874705BA97EE
:1053C00083C707003E85EF8020602A8783A701817D
:1053D000BE853A85EF701072AA87BE852685EF706C
:1053E000C078AA873E87BD6783A5C71A3A85EF7044
:1053F000C077AA878344F4FE3E85EF808057AA8752
:1054000013F7F70FB7470020938707B1A6972380BC
:10541000E7000347F4FEB7470020938787A9BA97B0
:1054200083C70700BE860347F4FEB7470020938773
:1054300007B1BA9783C70700B69713D7F701BA9792
:1054400085878346F4FE13F7F70FB747002093874D
:1054500047ADB6972380E7000347F4FEB747002027
:105460009387C7B4BA9783C70700D9E30347F4FE0D
:10547000B7470020938787B8BA9783C70700ADEB7B
:105480000347F4FEB7470020938707B1BA97130785
:1054900060072380E7000347F4FEB74700209387A7
:1054A00087A9BA9705472380E7000347F4FEB7476B
:1054B0000020938787A9BA9783C70700BE86034752
:1054C000F4FEB7470020938707B1BA9783C7070058
:1054D000B69713D7F701BA9785878346F4FE13F77B
:1054E000F70FB7470020938747ADB6972380E700B3
:1054F0000347F4FEB74700209387C7B4BA9783C722
:105500000700E383070A0347F4FEB74700209387A9
:1055100087B8BA9783C70700E38807080347F4FEF4
:10552000B7470020938787A9BA9783C70700BE862D
:105530000347F4FEB7470020938707B1BA9783C7A4
:105540000700B69713D7F701BA9785878346F4FE0D
:1055500013F7F70FB7470020938747ADB69723801F
:10556000E7006F00700403C781878D476310F72C35
:105570000347F4FEB74700209387C7B4BA9783C7A1
:105580000700F9E30347F4FEB7470020938787B885
:10559000BA9783C70700CDCB0347F4FEB747002077
:1055A000938707B1BA9783C707003E85EF80C04154
:1055B000AA840347F4FEB707002093874705BA97EC
:1055C00083C707003E85EF8020402A8783A741815B
:1055D000BE853A85EF701052AA87BE852685EF708A
:1055E000B07AAA878344F4FE3E85EF808038AA878C
:1055F00013F7F70FB7470020938787A9A697238053
:10560000E7000347F4FEB7470020938787A9BA97BE
:1056100083C70700BE860347F4FEB7470020938781
:1056200007B1BA9783C70700B69713D7F701BA97A0
:1056300085878346F4FE13F7F70FB747002093875B
:1056400047ADB6972380E7000347F4FEB747002035
:105650009387C7B4BA9783C70700F9C30347F4FE1B
:10566000B7470020938787B8BA9783C70700CDEB69
:105670000347F4FEB7470020938787A9BA9783C7EB
:1056800007003E85EF804034AA840347F4FEB70745
:10569000002093874705BA9783C707003E85EF80B0
:1056A000A0322A8783A74181BE853A85EF70904456
:1056B000AA87BE852685EF70404BAA878344F4FEF7
:1056C0003E85EF80002BAA8713F7F70FB74700201E
:1056D000938707B1A6972380E7000347F4FEB747F7
:1056E0000020938787A9BA9783C70700BE86034720
:1056F000F4FEB7470020938707B1BA9783C7070026
:10570000B69713D7F701BA9785878346F4FE13F748
:10571000F70FB7470020938747ADB6972380E70080
:105720000347F4FEB74700209387C7B4BA9783C7EF
:105730000700D9E30347F4FEB7470020938787B8F3
:10574000BA9783C70700ADEB0347F4FEB7470020C5
:10575000938707B1BA97130760072380E7000347D1
:10576000F4FEB7470020938787A9BA97054723809F
:10577000E7000347F4FEB7470020938787A9BA974D
:1057800083C70700BE860347F4FEB7470020938710
:1057900007B1BA9783C70700B69713D7F701BA972F
:1057A00085878346F4FE13F7F70FB74700209387EA
:1057B00047ADB6972380E7000347F4FEB7470020C4
:1057C0009387C7B4BA9783C70700638F075C034703
:1057D000F4FEB7470020938787B8BA9783C70700BE
:1057E0006384075C0347F4FEB7470020938787A9CB
:1057F000BA9783C70700BE860347F4FEB747002069
:10580000938707B1BA9783C70700B69713D7F701F5
:10581000BA9785878346F4FE13F7F70FB747002042
:10582000938747ADB6972380E700BDAB03C7818759
:1058300091476310F72C0347F4FEB7470020938786
:10584000C7B4BA9783C70700F9E30347F4FEB74725
:105850000020938787B8BA9783C70700CDCB03474B
:10586000F4FEB7470020938707B1BA9783C70700B4
:105870003E85EF806015AA840347F4FEB707002039
:1058800093874705BA9783C707003E85EF80C0130B
:105890002A8783A78181BE853A85EF70B025AA87C4
:1058A000BE852685EF70504EAA878344F4FE3E8560
:1058B000EF80200CAA8713F7F70FB74700209387D4
:1058C00087A9A6972380E7000347F4FEB747002087
:1058D000938787A9BA9783C70700BE860347F4FE5C
:1058E000B7470020938707B1BA9783C70700B697D9
:1058F00013D7F701BA9785878346F4FE13F7F70F9E
:10590000B7470020938747ADB6972380E70003474A
:10591000F4FEB74700209387C7B4BA9783C7070040
:10592000F9C30347F4FEB7470020938787B8BA97B7
:1059300083C70700CDEB0347F4FEB74700209387EA
:1059400087A9BA9783C707003E85EF80E007AA843E
:105950000347F4FEB707002093874705BA9783C72C
:1059600007003E85EF8040062A8783A78181BE8598
:105970003A85EF703018AA87BE852685EF70E01E45
:10598000AA878344F4FE3E85EF70B07EAA8713F7A2
:10599000F70FB7470020938707B1A6972380E7004A
:1059A0000347F4FEB7470020938787A9BA9783C7B8
:1059B0000700BE860347F4FEB7470020938707B170
:1059C000BA9783C70700B69713D7F701BA978587A9
:1059D0008346F4FE13F7F70FB7470020938747ADD0
:1059E000B6972380E7000347F4FEB747002093876C
:1059F000C7B4BA9783C70700D9E30347F4FEB74794
:105A00000020938787B8BA9783C70700ADEB034799
:105A1000F4FEB7470020938707B1BA9713076007D2
:105A20002380E7000347F4FEB7470020938787A948
:105A3000BA9705472380E7000347F4FEB7470020E5
:105A4000938787A9BA9783C70700BE860347F4FEEA
:105A5000B7470020938707B1BA9783C70700B69767
:105A600013D7F701BA9785878346F4FE13F7F70F2C
:105A7000B7470020938747ADB6972380E7000347D9
:105A8000F4FEB74700209387C7B4BA9783C70700CF
:105A9000638C07300347F4FEB7470020938787B82D
:105AA000BA9783C70700638107300347F4FEB747FF
:105AB0000020938787A9BA9783C70700BE8603474C
:105AC000F4FEB7470020938707B1BA9783C7070052
:105AD000B69713D7F701BA9785878346F4FE13F775
